:10000000D1EF04F00000000000EF00F0000000005D
:0A0010000000000000000000F3D71C
:10001C0078C2C9FF026A0250000A05E1000EC7B09F
:10002C00010E026EF8D7C9CF01F001C000F012002A
:10003C0078C26AFF026A0250000A05E1000E68B03D
:10004C00010E026EF8D76ACF01F001C000F0120069
:10005C00F250026EF29E0500FF6A0150FE6E0050D7
:08006C00FD6E02BEF28E1200CF
:0E007400ACB202D00000FCD76FC2ADFF12008C
:10008200400E02016F25006E2EC2E1FF2FC2E2FF79
:1000920000C0E6FF2CC200F02DC201F0DEDF2EC24E
:1000A200E1FF2FC2E2FF73C2E6FF2CC200F02DC2B5
:1000B20001F0D3DF2EC2E1FF2FC2E2FF72C2E6FFE0
:1000C2002CC200F02DC201F0C8DF2EC2E1FF2FC208
:1000D200E2FF71C2E6FF2CC200F02DC201F0BDDFCB
:1000E2002EC2E1FF2FC2E2FF70C2E6FF2CC200F077
:1000F2002DC201F0B2DF2EC2E1FF2FC2E2FF74C2B5
:10010200E6FF2CC200F02DC201F0A7DF0201766BE0
:10011200776B2EC2E1FF2FC2E2FFFF0EE66E2CC20A
:1001220000F02DC201F099DF00C075F20201764B9A
:10013200772B800E7515006E0050000AFF0ED8A4B2
:10014200000E016E000E775D02E1640E765D000E18
:10015200D8B0FF0E006E0150001201E1DAD775C26D
:0401620000F0120097
:040166008D90120066
:10016A008D802EC2E1FF2FC2E2FFFF0EE66E2CC287
:0A017A0000F02DC201F06DDF12004D
:1001840002016B6B69C2E9FF6AC2EAFFEECF6CF24F
:100194006C51000A0EE06CC26FF26ADF02016B2B35
:1001A4006B516925E96E000E6A21EA6EEECF6CF29E
:0401B400EFD712006F
:1001B80002016B6B6C6B6951000A15E1D0DF010E0F
:1001C8006F6F706B716B726B736BFF0E746F55DFB3
:1001D80000C06DF2C6DF02016D51000A03E1266A14
:1001E8006A6B89D07DD0BBDF370E6F6F706B716B18
:1001F800726B736BFF0E746F40DF00C06DF2B1DF7E
:1002080002016D51010AD8A46AD0A9DF290E6F6FC7
:10021800000E706F000E716F000E726F400E736FDC
:10022800FF0E746F2ADF00C06DF29BDF02016D5173
:10023800000A54E16951020A4DE191DF3A0E6F6FED
:10024800706B716B726B736BFF0E746F16DF00C08F
:100258006DF22EC2E1FF2FC2E2FFFF0EE66E2CC246
:1002680000F02DC201F0F6DE00C06EF22EC2E1FFF2
:100278002FC2E2FFFF0EE66E2CC200F02DC201F085
:10028800E9DE2EC2E1FF2FC2E2FFFF0EE66E2CC2AE
:1002980000F02DC201F0DEDE2EC2E1FF2FC2E2FF28
:1002A800FF0EE66E2CC200F02DC201F0D3DE59DF3E
:1002B80002016D51000A0DE1400E6E15016E0150EC
:1002C800000A03E0040E266E02D0030E266E6A6B47
:1002D80012D004D0010E266E6A6B0DD001D009D061
:1002E8006C51270A02E10F0E6B1903E06B4B6C2B64
:0C02F80062D7010E6A6F6AC200F01200AB
:10030400F00E02015A15026E02C05BF202C000F048
:100314000032009E0032009E0032009E0032009E99
:1003240000C05BF2300E0024016E01C05BF201508C
:10033400390802E2070E5B270F0E5A15006E300EC5
:100344000024016E01C05CF20150390802E2070E7C
:100354005C275BC26FF28CDE5CC26FF289DE120036
:10036400740E02013C6F000E3D6F6F0E3E6F020E65
:100374003F6FFF0E306FFF0E316F000E326F000EB5
:10038400336FFF0E346FFF0E356F000E366F000EA5
:10039400376FFF0E386FFF0E396F000E3A6F000E85
:1003A4003B6FAC8A900EAB6E948E949C9EAA03D045
:0803B400AECF00F0FBD71200F0
:1003BC00C69A1C0E02012C6F000E2D6F780E2E6F3C
:1003CC00020E2F6FFF0E406FFF0E416FFF0E426F3C
:1003DC00FF0E436F949A5A51040A02E1948601D09D
:1003EC0094969488C66A5A51C6125C51C6125B51D7
:1003FC00C7125C51000A05E05D51000AD8B4C78CE5
:0E040C0004D05D51000AD8A4C78CC68A120025
:10041A005AC269F25BC26AF2B0DE0D0E6F6F25DE58
:0A042A000A0E02016F6F21DE1200BE
:1004340098DE2650040A09E15AC263F25BC264F2F0
:100444005CC265F25DC266F214D0090E006E5AC237
:1004540063F25BC264F25CC265F25DC266F2005094
:1004640008E0020163376391643765376637FF0F2D
:10047400F7D70201110E6F6F63C270F264C271F29A
:1004840065C272F266C273F2FF0E746FF8DD00503B
:10049400000A05E068DE010E0201606F4DD02EC235
:1004A400E1FF2FC2E2FFFF0EE66E2CC200F02DC268
:1004B40001F0D2DD0050FE0A02E00000F0D7020194
:1004C400616B626B61515E25676F62515F21686F7A
:1004D4002EC2E1FF2FC2E2FFFF0EE66E2CC200F037
:1004E4002DC201F0B9DD67C2E1FF68C2E2FF00C0BE
:1004F400E6FF02016251010A02E1FF0E611903E005
:10050400614B622BDFD72EC2E1FF2FC2E2FFFF0E49
:10051400E66E2CC200F02DC201F09EDD2EC2E1FF7A
:100524002FC2E2FFFF0EE66E2CC200F02DC201F0D6
:0E05340093DD19DE0201606B60C200F0120060
:1005420011DE090E02016F6F706B716B726B736B50
:10055200FF0E746F95DD0050000A05E005DE010E06
:1005620002015C6F46D02EC2E1FF2FC2E2FFFF0EF6
:10057200E66E2CC200F02DC201F06FDD0050FE0AC3
:10058200F2E102015D6B5D515A255E6F000E5B2147
:100592005F6F2EC2E1FF2FC2E2FFFF0EE66E2CC29A
:1005A20000F02DC201F059DD5EC2E1FF5FC2E2FF41
:1005B20000C0E6FF02015D510F0A02E05D2BE3D7A6
:1005C2002EC2E1FF2FC2E2FFFF0EE66E2CC200F048
:1005D2002DC201F042DD2EC2E1FF2FC2E2FFFF0E6B
:1005E200E66E2CC200F02DC201F037DDBDDD020146
:0805F2005C6B5CC200F012001A
:1005FA00B5DD2650040A09E15AC263F25BC264F20D
:10060A005CC265F25DC266F214D0090E006E5AC26F
:10061A0063F25BC264F25CC265F25DC266F20050CC
:10062A0008E0020163376391643765376637FF0F65
:10063A00F7D70201180E6F6F63C270F264C271F2CB
:10064A0065C272F266C273F2FF0E746F15DD005056
:10065A00000A05E085DD010E0201606F8ED02EC210
:10066A00E1FF2FC2E2FFFF0EE66E2CC200F02DC2A0
:10067A0001F0EFDC2EC2E1FF2FC2E2FFFF0EE66EB1
:10068A002CC200F02DC201F0E4DC2EC2E1FF2FC221
:10069A00E2FFFE0EE66E2CC200F02DC201F0D9DC9C
:1006AA000201616B626B61515E25E96E62515F21E5
:1006BA00EA6E2EC2E1FF2FC2E2FFEECFE6FF2CC2A6
:1006CA0000F02DC201F0C5DC02016251010A02E10B
:1006DA00FF0E611903E0614B622BE5D72EC2E1FFE1
:1006EA002FC2E2FFFF0EE66E2CC200F02DC201F00F
:1006FA00B0DC2EC2E1FF2FC2E2FFFF0EE66E2CC273
:10070A0000F02DC201F0A5DC2EC2E1FF2FC2E2FFEC
:10071A00FF0EE66E2CC200F02DC201F09ADC00C07A
:10072A0061F2000E0201626F1F0E6115016E62C254
:10073A0002F0000E021601C061F202C062F2000E5F
:10074A00021802E1050E011805E00ADD020E020197
:10075A00606F13D02EC2E1FF2FC2E2FFFF0EE66EDA
:10076A002CC200F02DC201F074DC0050FF0A02E036
:10077A000000F0D7F5DC0201606B60C200F01200E5
:10078A00EDDC0A0E02016F6F706B716B726B736B2B
:10079A00FF0E746F71DC0050000A05E0E1DC010E07
:1007AA0002015C6F4DD02EC2E1FF2FC2E2FFFF0EA5
:1007BA00E66E2CC200F02DC201F04BDC0050FE0A9E
:1007CA0002E00000F0D702015D6B5E6B5D515A25B5
:1007DA005F6F5E515B21606F2EC2E1FF2FC2E2FFA5
:1007EA00FF0EE66E2CC200F02DC201F032DC5FC2B1
:1007FA00E1FF60C2E2FF00C0E6FF000E02015E19DF
:10080A0002E10F0E5D1903E05D4B5E2BDFD72EC2AE
:10081A00E1FF2FC2E2FFFF0EE66E2CC200F02DC2EE
:10082A0001F017DC2EC2E1FF2FC2E2FFFF0EE66ED7
:10083A002CC200F02DC201F00CDC92DC02015C6BD0
:06084A005CC200F0120088
:10085000050E266E96908D8002015B6B5C6B2EC23E
:10086000E1FF2FC2E2FFFF0EE66E2CC200F02DC2A8
:1008700001F02EEC00F0000E02015C1902E1090EFD
:100880005B1903E05B4B5C2BEAD76DDC6F6B706B25
:10089000716B726B736B950E746F41EC00F000C05E
:1008A0005DF263DC02015D51010A03E0010E5A6F43
:1008B00075D059DC080E6F6FAA0E706F010E716F44
:1008C000000E726F736F870E746F41EC00F000C002
:1008D0005DF22EC2E1FF2FC2E2FFFF0EE66E2CC2D8
:1008E00000F02DC201F02EEC00F02EC2E1FF2FC26D
:1008F000E2FFFF0EE66E2CC200F02DC201F02EECDE
:1009000000F02EC2E1FF2FC2E2FFFF0EE66E2CC206
:1009100000F02DC201F02EEC00F02EC2E1FF2FC23C
:10092000E2FFFF0EE66E2CC200F02DC201F02EECAD
:1009300000F01BDC02015D51010A09E0010E696F44
:100940003BDC0050000A02E0696B36DC03D0020E8B
:10095000696F32DC2650050A03E1020E5A6F1ED081
:100960002650040A1AE0B3EC00F0100E6F6F000E70
:10097000706F020E716F000E726F736FFF0E746FE7
:1009800041EC00F000C05DF2B5EC00F002015D51F9
:10099000000A03E0030E5A6F01D05A6B5AC200F0EE
:0209A000120043
:1009A2000F01256B246B236B9280CF0EAF6EAC844C
:1009B200D8DCD00E0C6EC90E0D6E0D2EFED70C2E8D
:1009C200FCD700000000490E0201446F6E0E456F15
:1009D200730E466F650E476F720E486F740E496F45
:1009E200200E4A6F6D0E4B6F690E4C6F630E4D6F8A
:1009F200720E4E6F6F0E4F6F530E506F440E516F4B
:100A0200200E526F430E536F610E546F720E556F6C
:100A1200640E566F576B440E5A6F020E5B6FFCDC0E
:100A220080A002D00000FCD7290E0B6E960E0C6E31
:100A32007F0E0D6E0D2EFED70C2EFCD70B2EFAD785
:100A42006D0E0201446F690E456F630E466F720EA2
:100A5200476F6F0E486F530E496F440E4A6F200E58
:100A62004B6F430E4C6F610E4D6F720E4E6F640EE4
:100A72004F6F200E506F690E516F6E0E526F730ED4
:100A8200536F650E546F720E556F740E566F650E6E
:100A9200576F640E586F596B440E5A6F020E5B6F9C
:100AA200BBDC02015A6B5B6B5C6B010E5D6F85DC1C
:100AB200CEDE00C02BF20050000A1DE14D0E446F45
:100AC2004D0E456F430E466F200E476F490E486F1D
:100AD2006E0E496F690E4A6F740E4B6F2D0E4C6F7E
:100AE2004F0E4D6F4B0E4E6F4F6B440E5A6F020EF0
:100AF2005B6F92DC23D04D0E0201446F4D0E456FA9
:100B0200430E466F200E476F490E486F6E0E496FB7
:100B1200690E4A6F740E4B6F2D0E4C6F650E4D6F42
:100B2200720E4E6F720E4F6F6F0E506F720E516FCC
:100B3200526B440E5A6F020E5B6F6EDC0201296B20
:100B42002A6B290E2925E16E000E2A21E26E6D0E16
:100B5200E66E2A51010A02E1FF0E291903E0294B30
:100B62002A2BEFD74E0E276E020E286E4E0E5A6FAC
:100B7200020E5B6F000E5C6F5D6F290E5E6F000EE2
:100B82005F6F3ADD00C02BF20050000A17E1570EEA
:100B9200446F720E456F690E466F740E476F650E95
:100BA200486F2D0E496F4F0E4A6F4B0E4B6F4C6BB9
:100BB200440E5A6F020E5B6F2FDC1DD0570E0201DE
:100BC200446F720E456F690E466F740E476F650E65
:100BD200486F2D0E496F450E4A6F720E4B6F720EA3
:100BE2004C6F6F0E4D6F720E4E6F4F6B440E5A6FFD
:100BF200020E5B6F11DC150E02015A6F000E5B6F65
:100C0200C3DD00C02BF20050000A35E1430E446FF1
:100C1200490E456F440E466F200E476F3A0E486FDD
:100C2200200E496F4A6B440E696F020E6A6FC2EC66
:100C320000F0296B2A6B150E2925E96E000E2A2178
:100C4200EA6EEECF5AF282EC01F0000E02012A198E
:100C520002E10F0E291903E0294B2A2BECD7200EB3
:100C6200446F200E456F466B440E5A6F020E5B6F47
:100C72000DEC02F01AD0430E0201446F490E456F8B
:100C8200440E466F2D0E476F650E486F720E496F08
:100C9200720E4A6F6F0E4B6F720E4C6F4D6B440E9D
:100CA2005A6F020E5B6F0DEC02F0150E02015A6FC5
:100CB200000E5B6F45DC00C02BF20050000A35E1EC
:100CC200430E446F530E456F440E466F200E476F1E
:100CD2003A0E486F200E496F4A6B440E696F020E3E
:100CE2006A6FC2EC00F0296B2A6B150E2925E96E9A
:100CF200000E2A21EA6EEECF5AF282EC01F0000ECB
:100D020002012A1902E10F0E291903E0294B2A2BAD
:100D1200ECD7200E446F200E456F466B440E5A6F7F
:100D2200020E5B6F0DEC02F01AD0430E0201446F0B
:100D3200530E456F440E466F2D0E476F650E486F7A
:100D4200720E496F720E4A6F6F0E4B6F720E4C6FBE
:100D52004D6B440E5A6F020E5B6F0DEC02F027C012
:100D62005AF228C05BF2000E02015C6F5D6F290E21
:100D72005E6F000E5F6F1AEC02F000C02BF20050A3
:100D8200000AD8A479D0520E446F650E456F610EE9
:100D9200466F640E476F2D0E486F4F0E496F4B0E14
:100DA2004A6F4B6B440E5A6F020E5B6F0DEC02F0F2
:100DB20025800201296B2A6B290E2925E96E000E76
:100DC2002A21EA6EEECF6FF23AEC00F0290E020110
:100DD2002925E96E000E2A21EA6EEE506D0A02E024
:100DE200259009D02A51010A02E1FF0E291903E0D8
:100DF200294B2A2BE1D725A01CD0430E446F6F0E3E
:100E0200456F6E0E466F740E476F650E486F6E0E1D
:100E1200496F740E4A6F2D0E4B6F4F0E4C6F4B0E77
:100E22004D6F4E6B440E5A6F020E5B6F0DEC02F06B
:100E320022D0430E0201446F6F0E456F6E0E466F55
:100E4200740E476F650E486F6E0E496F740E4A6FCF
:100E52002D0E4B6F450E4C6F720E4D6F720E4E6F14
:100E62006F0E4F6F720E506F516B440E5A6F020E1F
:100E72005B6F0DEC02F01CD0520E0201446F650E46
:100E8200456F610E466F640E476F2D0E486F450E1B
:100E9200496F720E4A6F720E4B6F6F0E4C6F720E6D
:100EA2004D6F4E6B440E5A6F020E5B6F0DEC02F0EB
:100EB200540E0201446F650E456F730E466F740E39
:100EC200476F200E486F450E496F6E0E4A6F640ED3
:100ED2004B6F2E0E4C6F4D6B440E5A6F020E5B6FB2
:060EE2000DEC02F0FFD749
:020000040030CA
:0E0000001D137F7CF98B91FFFFC0FFE0FF40D6
:00000001FF
