:100000000C94FD040C9400000C9400000C9400006F
:100010000C9400000C9400000C9400000C94000060
:100020000C9400000C9400000C9400000C94000050
:100030000C9400000C9400000C9400000C94000040
:100040000C9400000C9400000C9400000C94000030
:040050000C9400000C
:1009FA00BFE5BDBFB8E0BEBF2F923F924F925F9254
:100A0A006F927F92BAB3BF77BABBB9E1B9B9B0E016
:100A1A00B0BD29DE18E605EE0A95F1F71A95E1F759
:100A2A00EFEFF0E0B9E4B193BEE6B193B3E7B19367
:100A3A00B5E6B193B2E7B193B4E7B193B0E2B1933B
:100A4A00BDE6B193B9E6B193B3E6B193B2E7B19318
:100A5A00BFE6B193B3E5B193B4E4B193B0E2B19315
:100A6A00B3E4B193B1E6B193B2E7B193B4E6B1930B
:100A7A00B0E0B193BFEF2B2EB0E03B2EE0DEBBB36C
:100A8A00B7FF02C00000FBCF25E11BE40FEB0A957C
:100A9A00F1F71A95E1F72A95D1F70000ECEDF0E0AD
:100AAA00BDE6B193B9E6B193B3E6B193B2E7B193B8
:100ABA00BFE6B193B3E5B193B4E4B193B0E2B193B5
:100ACA00B3E4B193B1E6B193B2E7B193B4E6B193AB
:100ADA00B0E2B193B9E6B193BEE6B193B3E7B1938D
:100AEA00B5E6B193B2E7B193B4E7B193B5E6B19382
:100AFA00B4E6B193B0E0B193BCED2B2EB0E03B2E3F
:100B0A009EDE44243324B0E12B2ED1DDF3DD0093A5
:100B1A00F200003001F5E3EFF0E0BDE4B193BDE48B
:100B2A00B193B3E4B193B0E2B193B9E4B193BEE641
:100B3A00B193B9E6B193B4E7B193BDE2B193BFE41F
:100B4A00B193BBE4B193B0E0B193B3EF2B2EB0E015
:100B5A003B2E75DE25C0EAE2F1E0BDE4B193BDE4C7
:100B6A00B193B3E4B193B0E2B193B9E4B193BEE601
:100B7A00B193B9E6B193B4E7B193BDE2B193B5E6E7
:100B8A00B193B2E7B193B2E7B193BFE6B193B2E7DB
:100B9A00B193B0E0B193BAE22B2EB1E03B2E4FDE17
:100BAA00B0E0B0933901B0933A012BE331E0009100
:100BBA00390110913A01F801E20FF31FBDE6B08343
:100BCA000091390110913A01113009F40F3F59F09F
:100BDA000091390110913A010F5F1F4F00933901BB
:100BEA0010933A01E2CFBEE4B0931F01B2E0B09392
:100BFA002001BBE36B2EB1E07B2EBEE42B2EB2E0CC
:100C0A003B2EB0E04B2E5B2E26DE0093F200003026
:100C1A00D1F4E1E2F1E0B7E5B193B2E7B193B9E615
:100C2A00B193B4E7B193B5E6B193BDE2B193BFE432
:100C3A00B193BBE4B193B0E0B193B1E22B2EB1E032
:100C4A003B2EFDDD1FC0E3E1F1E0B7E5B193B2E76A
:100C5A00B193B9E6B193B4E7B193B5E6B193BDE206
:100C6A00B193B5E4B193B2E7B193B2E7B193BFE6FA
:100C7A00B193B2E7B193B0E0B193B3E12B2EB1E0F7
:100C8A003B2EDDDDB8E82B2EB0E03B2E6EDB009369
:100C9A00F200003009F048C0E1E8F0E0B3E4B193B3
:100CAA00B9E4B193B4E4B193B0E2B193BAE3B193C6
:100CBA00B0E2B193B0E0B193B1E82B2EB0E03B2E95
:100CCA001CDBB0E0B0933901B0933A0128E830E078
:100CDA000091390110913A01F801E20FF31F0081E6
:100CEA00202E1EDB0091390110913A01103009F4CF
:100CFA000F3059F00091390110913A010F5F1F4FDF
:100D0A000093390110933A01E1CFB0E2B093980011
:100D1A00B0E2B0939900B0E0B0939A00B8E92B2EF4
:100D2A00B0E03B2E8CDD1BC0E2EAF0E0B3E4B19305
:100D3A00B9E4B193B4E4B193BDE2B193B5E6B1932A
:100D4A00B2E7B193B2E7B193BFE6B193B2E7B19319
:100D5A00B0E0B193B2EA2B2EB0E03B2E70DDB8E8DA
:100D6A002B2EB0E03B2E75DB0093F200003009F029
:100D7A0048C0EBE9F0E0B3E4B193B3E5B193B4E46E
:100D8A00B193B0E2B193BAE3B193B0E2B193B0E0F8
:100D9A00B193BBE92B2EB0E03B2EAFDAB0E0B093B3
:100DAA003901B0933A0128E830E0009139011091F5
:100DBA003A01F801E20FF31F0081202EB1DA009107
:100DCA00390110913A01103009F40F3059F00091AD
:100DDA00390110913A010F5F1F4F009339011093A7
:100DEA003A01E1CFB0E2B0936A00B0E2B0936B008F
:100DFA00B0E0B0936C00BAE62B2EB0E03B2E1FDDBC
:100E0A001BC0E0E6F0E0B3E4B193B3E5B193B4E418
:100E1A00B193BDE2B193B5E6B193B2E7B193B2E74C
:100E2A00B193BFE6B193B2E7B193B0E0B193B0E644
:100E3A002B2EB0E03B2E03DDBBE36B2EB1E07B2E05
:100E4A0020901F0130902001B0E04B2E542C6BDB18
:100E5A000093F200003009F098C0EDE6F0E0B2E548
:100E6A00B193B5E6B193B1E6B193B4E6B193BDE2FD
:100E7A00B193BFE4B193BBE4B193B0E0B193BDE6E3
:100E8A002B2EB0E03B2EDBDCB0918000B160B0933A
:100E9A008000B0E0B0933901B0933A012BE331E01E
:100EAA000091390110913A01F801E20FF31F008114
:100EBA00202ECBD82BE331E00091390110913A0171
:100ECA00F801E20FF31F00810D3631F0B091800076
:100EDA00BE7FB093800013C00091390110913A018E
:100EEA00113009F40F3F59F00091390110913A017C
:100EFA000F5F1F4F0093390110933A01CFCFB09182
:100F0A008000B0FF1EC0E5E7F0E0B3E4B193BFE6AE
:100F1A00B193BEE6B193B4E7B193B5E6B193BEE639
:100F2A00B193B4E7B193BDE2B193BFE4B193BBE42B
:100F3A00B193B0E0B193B5E72B2EB0E03B2E7FDC46
:100F4A0023C0E1ECF0E0B3E4B193BFE6B193BEE6AF
:100F5A00B193B4E7B193B5E6B193BEE6B193B4E702
:100F6A00B193BDE2B193B5E4B193B2E7B193B2E7FD
:100F7A00B193BFE6B193B2E7B193B0E0B193B1ECEC
:100F8A002B2EB0E03B2E5BDC1DC0E6EBF0E0B2E5B9
:100F9A00B193B5E6B193B1E6B193B4E6B193BDE2CC
:100FAA00B193B5E4B193B2E7B193B2E7B193BFE6B7
:100FBA00B193B2E7B193B0E0B193B6EB2B2EB0E0A8
:100FCA003B2E3DDCEFECF0E0B4E5B193B5E6B1932E
:100FDA00B3E7B193B4E7B193B0E2B193B5E4B19397
:100FEA00BEE6B193B4E6B193BEE2B193B0E0B19379
:100FFA00BFEC2B2EB0E03B2E22DC7F906F905F90EF
:08100A004F903F902F90FFCFA3
:100848002F923F925BDDBDE02B2E00DCBAE02B2E11
:08085800FDDB3F902F90089595
:100304009101F9010081003069F0F90100813F9207
:100314002F92202E9DDE2F903F9089010F5F1F4F5B
:060324009801EFCF0895DF
:10005400BBB1B5FD02C00000FBCFBBB1B6FF03C00E
:0A006400BBB1B064BBB92CB808951D
:1006B800BDE3B093DA00B0E0B093DB00BFEFB093D6
:1006C800AE00BFEFB093AF00B7B3B068B7BBB7B376
:1006D800BF7BB7BBB7B3B062B7BBB7B3B061B7BB8B
:1006E80032FABEB1B0F9BEB9032D0370042902294C
:0606F80000640DB9089535
:1006FE00CF93DF93CDB7DEB72197CDBFDEBF219667
:10070E002F923F924F925F926F927F92B5E0B0938D
:10071E00D900B0913A00B062B0933A00B0913B006C
:10072E00B062B0933B0020E030E03F932F93BFEFD9
:10073E002B2EE091DA00F091DB0009952F913F917D
:10074E00303009F4293029F089010F5F1F4F9801CD
:10075E00ECCF86DCB5E97B2E332444245524662465
:10076E0022244DDD08833CDD0881013011F011E0BB
:10077E0058C076DCB7E87B2EBAEA3B2EB1E04B2EA2
:10078E00B0E05B2E6B2EB8E02B2E39DD0883BFEF69
:10079E002B2EE091DA00F091DB000995BFEF2B2EA6
:1007AE00E091DA00F091DB000995BFEF2B2EE0917E
:1007BE00DA00F091DB000995BFEF2B2EE091DA0005
:1007CE00F091DB0009950CDD0881013041F0B1E0BC
:1007DE002B2E55DC003011F0222451DC03C0B2E088
:1007EE002B2E4DDC0091D900053011F412E019C00A
:1007FE000091D9000430A1F033DCBFEF7B2EB0E0C6
:10080E003B2EB2E04B2EB0E05B2E6B2EB0E12B2ECA
:10081E00F6DC0883E5DC0881003011F013E001C03E
:10082E0010E0012F7F906F905F904F903F902F9030
:0A083E00CDBFDEBFDF91CF9108951A
:10007A002FB8BEB1B7FD02C00000FBCF1FB1012FE0
:02008A000895D7
:0C006E00B0913B00BF7DB0933B000895B3
:10020C002F92022D005C7F926F925F924F923F92E1
:10021C00202EE091DA00F091DB0009953F904F9091
:10022C005F906F906F925F924F923F92262CE0916D
:10023C00DA00F091DB0009953F904F905F906F9042
:10024C006F925F924F923F92252CE091DA00F091E1
:10025C00DB0009953F904F905F906F906F925F928B
:10026C004F923F92242CE091DA00F091DB0009953B
:10027C003F904F905F906F90232CE091DA00F091BB
:10028C00DB0009957F90272CE091DA00F091DB00E0
:10029C00099550E060E06F935F937F926F925F924D
:1002AC004F923F922F92BFEF2B2EE091DA00F091FC
:1002BC00DB0009952F903F904F905F906F907F904F
:1002CC005F916F91402F252F362F2F5F3F4F522F6D
:1002DC00632F042F0078003010E009F41FEF30304A
:1002EC0009F4243600E008F00FEF012B002309F489
:0802FC00D2CF042F2F900895CA
:1001EE002F92B0913B00B062B0933B00BFEF2B2E2D
:0E01FE00E091DA00F091DB0009952F90089552
:10008C00CF93DF93CDB7DEB72497CDBFDEBF2196DC
:10009C003F924F925F926F927F92B0E0B883B98398
:1000AC00B0E02B16B9F4DDDF2F92BFEF7B2E33249B
:1000BC00442455246624B1E02B2EA2D00A8391D07F
:1000CC002F900A81003029F4B0E0B093D90010E0F1
:1000DC007CC06DC0C6DF2F92BFEF7B2E332444242F
:1000EC0055246624B7E32B2E8BD00A837AD02F901D
:1000FC000A81013009F05AC0B4DF2F92BFEF7B2E7A
:10010C00B0E03B2E4B2E5B2EB0E46B2EB9E22B2EC7
:10011C0077D00A8366D02F900A81003009F045C051
:10012C00B2E02B1609F03CC09CDF2F92BFEF7B2E68
:10013C003324442455246624BAE32B2E61D00A833D
:10014C00BFEF2B2EE091DA00F091DB0009950B83C9
:10015C00BFEF2B2EE091DA00F091DB000995BFEF99
:10016C002B2EE091DA00F091DB000995BFEF2B2EDE
:10017C00E091DA00F091DB00099533D02F900A81E1
:10018C00003069F40B810074003021F0B4E0B093BE
:10019C00D90003C0B3E0B093D90010E016C005C07D
:1001AC00B1E0B093D90010E010C001C00DC00881BF
:1001BC001981173209F40F3039F0088119810F5F5A
:1001CC001F4F088319836CCF11E0012F7F906F9024
:1001DC005F904F903F902396CDBFDEBFDF91CF91C4
:0201EC00089574
:100860002F923F924F925F9202DC0091D9000430A8
:1008700019F4810192010DC0B9E081019201000FCC
:10088000111F221F331FBA95D1F7A801B9018A01A0
:100890009B017F926F92BFEF7B2E302E412E522E06
:1008A000632EB8E12B2EB2DC6F907F90003019F0F0
:1008B0009EDC11E09CC07F926F92BFEF2B2EE091E7
:1008C000DA00F091DB000995BFEF2B2EE091DA0002
:1008D000F091DB000995BEEF2B2EE091DA00F0914C
:1008E000DB0009956F907F9020E030E0F901E60D84
:1008F000F71D00813F932F937F926F925F924F92EB
:100900003F922F92202EE091DA00F091DB000995C2
:100910002F903F904F905F906F907F902F913F91DD
:10092000313009F42F3F29F089010F5F1F4F9801E3
:10093000DDCF7F926F925F924F923F922F92BFEFE7
:100940002B2EE091DA00F091DB000995BFEF2B2E02
:10095000E091DA00F091DB000995BFEF2B2EE091DA
:10096000DA00F091DB0009952F903F904F905F9057
:100970006F907F90202F30E089010F711070103040
:1009800009F4053079F07F926F925F924F923F9217
:100990002F922DDC2F903F904F905F906F907F9023
:1009A00012E025C07F926F925F924F923F922F92FA
:1009B000BFEF2B2EE091DA00F091DB0009952F902C
:1009C0003F904F905F906F907F900F3F11F000002D
:1009D000E9CF7F926F925F924F923F922F9207DC06
:1009E0002F903F904F905F906F907F9010E0012F7D
:0A09F0005F904F903F902F90089504
:10037400CF93DF93CDB7DEB72297CDBFDEBF2196F3
:100384004F925F926F927F9270DE3F922F92BFEFF7
:100394007B2E3324442455246624BAE02B2E34DFE8
:1003A4002F903F90003019F020DF11E04AC03F92B7
:1003B4002F92BFEF2B2EE091DA00F091DB0009952C
:1003C4002F903F900E3F11F00000F1CF30E040E05D
:1003D400032F142F020D131D088319834F933F938A
:1003E4003F922F92BFEF2B2EE091DA00F091DB00C9
:1003F40009952F903F903F914F9118812981E12FCA
:10040400F22F0083403009F43F3039F0032F142FCA
:100414000F5F1F4F302F412FDBCF3F922F92BFEF43
:100424002B2EE091DA00F091DB000995BFEF2B2E23
:10043400E091DA00F091DB000995D7DE2F903F9030
:1004440010E0012F7F906F905F904F902196CDBF69
:08045400DEBFDF91CF91089596
:10032A002F92022D007F0695069506950695102FA9
:10033A00105D212F09E3011720F4022F095F202FF6
:10034A0000C0022D0F70102F105D312F09E3011725
:10035A0028F4032F095F102F012F01C0032F222E2B
:0A036A0074DE202E72DE2F9008953D
:10045C00CF93DF93CDB7DEB72297CDBFDEBF21960A
:10046C004F925F926F927F92FCDD3F922F92BFEF83
:10047C007B2E3324442455246624B9E02B2EC0DE75
:10048C002F903F90003019F0ACDE11E040C03F924D
:10049C002F92BFEF2B2EE091DA00F091DB00099543
:1004AC002F903F900E3F99F730E0032F10E0020D94
:1004BC00131D088319833F933F922F92BFEF2B2E6E
:1004CC00E091DA00F091DB0009952F903F903F917D
:1004DC0018812981E12FF22F00833F3021F0032F67
:1004EC000F5F302FE2CF3F922F92BFEF2B2EE09178
:1004FC00DA00F091DB000995BFEF2B2EE091DA00CA
:10050C00F091DB0009956DDE2F903F9010E0012FEC
:10051C007F906F905F904F902196CDBFDEBFDF91A3
:04052C00CF910895CE
:10053000CF93DF93CDB7DEB72297CDBFDEBF219635
:100540002F923F924F925F9292DD0091D90004303A
:1005500019F4810192010DC0B9E081019201000FEF
:10056000111F221F331FBA95D1F7A801B9018A01C3
:100570009B017F926F92BFEF7B2E302E412E522E29
:10058000632EB1E12B2E42DE6F907F90003019F088
:100590002EDE11E062C07F926F925F924F923F9287
:1005A0002F92BFEF2B2EE091DA00F091DB0009953E
:1005B0002F903F904F905F906F907F900E3F11F083
:1005C0000000E9CF30E040E0032F142F060D171D87
:1005D000088319834F933F937F926F925F924F925C
:1005E0003F922F92BFEF2B2EE091DA00F091DB00CB
:1005F00009952F903F904F905F906F907F903F9123
:100600004F9118812981E12FF22F0083413009F4A5
:100610003F3F39F0032F142F0F5F1F4F302F412F13
:10062000D3CF7F926F925F924F923F922F92BFEF04
:100630002B2EE091DA00F091DB000995BFEF2B2E15
:10064000E091DA00F091DB000995D1DD2F903F9029
:100650004F905F906F907F9010E0012F5F904F90D0
:100660003F902F902196CDBFDEBFDF91CF910895AF
:000670008A
:10067000BAE2B093AC00B0E0B093AD00BFEFB0937E
:10068000B000BFEFB093B100BFEFB093B400BFEFC5
:10069000B093B500BFEFB093B200BFEFB093B3001B
:1006A000B1B3BE7FB1BBB1B3B260B1BB0AB1086137
:0806B0000AB9B6E8B0BD0895D7
:00000001FF
