:100000000C94F9040C9400000C9400000C94000073
:100010000C9400000C9400000C9400000C94000060
:100020000C9400000C9400000C9400000C94000050
:100030000C9400000C9400000C9400000C94000040
:100040000C9400000C9400000C9400000C94000030
:040050000C9400000C
:1009F200BFE5BDBFB8E0BEBF0E949206CDB7DEB76D
:100A02002197CDBFDEBF21962F923F924F925F92E8
:100A12006F927F92BAB3BF77BABBB9E1B9B9B0E00E
:100A2200B0BDB4DD18E605EE0A95F1F71A95E1F7C7
:100A3200BEED2B2EB0E03B2E00DFBBB3B7FF01C0F3
:100A4200FCCF25E11BE40FEB0A95F1F71A95E1F7CC
:100A52002A95D1F70000BCEB2B2EB0E03B2EEDDE49
:100A620044243324B0E12B2E1FDE41DE003031F46A
:100A7200B2ED2B2EB0E03B2EE0DE05C0B7E02B2E10
:100A8200B1E03B2EDADE20E030E00FEF11E002179A
:100A9200130760F002E311E0F901E00FF11FBDE678
:100AA200B08389010F5F1F4F9801EFCF4EE452E0F0
:100AB2005F934F93B2E36B2EB1E07B2EBEE42B2EFD
:100AC200B2E03B2EB0E04B2E5B2EC3DE4F915F9126
:100AD200003031F4B2EF2B2EB0E03B2EAEDE05C07B
:100AE200BBEF2B2EB0E03B2EA8DE5F934F93B2E21A
:100AF2002B2EB1E03B2E6EDD4F915F91003019F548
:100B0200B5EB2B2EB0E03B2EF5DB20E030E00FE022
:100B120010E00217130788F002E211E0F901E00F7A
:100B2200F11F00813F932F93202E65DC2F913F917F
:100B320089010F5F1F4F9801EACFB6E92B2EB0E073
:100B42003B2E7BDE05C0BCE82B2EB0E03B2E75DED3
:100B52005F934F93B2E22B2EB1E03B2EE2DB4F913B
:100B62005F91003021F5B8E92B2EB0E03B2EC2DBBD
:100B720020E030E00FE010E00217130788F002E2F5
:100B820011E0F901E00FF11F00813F932F93202E16
:100B920032DC2F913F9189010F5F1F4F9801EACFFD
:100BA200B7E92B2EB0E03B2E48DE8A0106C0B2E840
:100BB2002B2EB0E03B2E41DE8A01B2E36B2EB1E078
:100BC2007B2E1801B0E04B2E542C3ADC003009F099
:100BD2003CC0B1E62B2EB0E03B2E2FDEB881B160D7
:100BE200B88320E030E00FEF11E002171307C8F0DE
:100BF20002E311E0F901E00FF11F0081202E29DA52
:100C020002E311E0F901E00FF11F00810D3621F03E
:100C1200B881BE7FB88305C089010F5F1F4F98015D
:100C2200E2CFB0E62B2EB0E03B2E07DEB881B0FF5C
:100C320006C0B7E72B2EB0E03B2EFFDD05C0B9E6BC
:100C42002B2EB0E03B2EF9DD05C0B9EA2B2EB0E029
:100C52003B2EF3DDBFE92B2EB0E03B2EEEDD7F9085
:0C0C62006F905F904F903F902F90FFCF5D
:10083C002F923F925ADDBDE02B2E06DCBAE02B2E18
:08084C0003DC3F902F9008959A
:1002F60010E0F1010081202F022F003079F03F92AB
:100306002F92202EA4DE2F903F90012F0F5F102FEB
:0E031600E02FF0E0E20DF31D0081EFCF08951F
:10005400BBB1B5FD01C0FCCFBBB1B6FF03C0BBB1A2
:08006400B064BBB92CB808958B
:1006AA00B6E3B0932001B0E0B0932101BFEFB0935D
:1006BA001E01BFEFB0931F01B7B3B068B7BBB7B3A2
:1006CA00BF7BB7BBB7B3B062B7BBB7B3B061B7BB99
:1006DA0032FABEB1B0F9BEB9032D0370042902295A
:0606EA0000640DB9089543
:1006F000CF93DF93CDB7DEB72197CDBFDEBF219675
:100700002F923F924F925F926F927F92B5E0B0939B
:10071000B400B0913A00B062B0933A00AEDC20E091
:1007200030E0303009F42A3080F43F932F93BFEF4C
:100730002B2EE0912001F091210109952F913F91FD
:1007400089010F5F1F4F9801ECCFCFDDB5E97B2EFC
:100750003324442455246624222454DD08838DDC6C
:100760000881013011F001E05EC0BFDDB7E87B2EEB
:10077000BAEA3B2EB1E04B2EB0E05B2E6B2EB8E018
:100780002B2E40DD0883BFEF2B2EE0912001F0914E
:1007900021010995BFEF2B2EE0912001F09121015D
:1007A0000995BFEF2B2EE0912001F09121010995D1
:1007B000BFEF2B2EE0912001F091210109955DDC26
:1007C0000881013041F0B1E02B2E66DC002311F0EE
:1007D000222462DC03C0B2E02B2E5EDC0091B40068
:1007E00010E0103009F4053011F402E01CC0009153
:1007F000B40010E0103009F40430A1F076DDBFEF52
:100800007B2EB0E03B2EB2E04B2EB0E05B2E6B2E89
:10081000B0E12B2EF7DC088330DC0881003011F0CA
:1008200003E001C000E07F906F905F904F903F9099
:0C0830002F90CDBFDEBFDF91CF91089567
:10007A002F92B0913B00B062B0933B00BFEF2B2EA2
:0E008A00E0912001F091210109952F90089539
:0E006C002FB8BEB1B7FD01C0FCCF0FB1089593
:0C02EA00B0913B00BF7DB0933B00089535
:10020400CF93DF93CDB7DEB72497CDBFDEBF219662
:100214002F92388249825A826B82022D005C7F922F
:10022400202EE0912001F091210109958E01F80121
:1002340033960081202EE0912001F091210109954F
:100244008E01F80132960081202EE0912001F09178
:10025400210109958E01F80131960081202EE0914B
:100264002001F09121010995FE010081202EE091E9
:100274002001F091210109957F90272CE091200124
:10028400F0912101099540E050E05F934F937F92F4
:100294006F925F924F923F922F92BFEF2B2EE0917D
:1002A4002001F091210109952F903F904F905F908C
:1002B4006F907F904F915F91302F142F252F1F5FE8
:1002C4002F4F412F522F0078003029F0503009F47D
:1002D400443608F4DACF032F2F902396CDBFDEBF28
:0602E400DF91CF910895A7
:10009800CF93DF93CDB7DEB72497CDBFDEBF2196D0
:1000A8003F924F925F926F927F92B0E0B883B9838C
:1000B80008811981173209F4003108F093C0022D24
:1000C80010E0103009F40030B9F40BD12F92BFEFD3
:1000D8007B2E3324442455246624B1E02B2E8ED065
:1000E8000A83C7DF2F900A81003029F4B0E0B0936B
:1000F800B40000E078C06FC0F4D02F92BFEF7B2E21
:100108003324442455246624B7E32B2E77D00A835E
:10011800B0DF2F900A81013009F05CC0E2D02F9245
:10012800BFEF7B2EB0E03B2E4B2E5B2EB0E46B2E48
:10013800B9E22B2E63D00A839CDF2F900A8100300E
:1001480009F047C0022D10E0103009F4023009F020
:100158003BC0C7D02F92BFEF7B2E332444245524B5
:100168006624BAE32B2E4AD00A83BFEF2B2EE091E8
:100178002001F091210109950B83BFEF2B2EE0910F
:100188002001F09121010995BFEF2B2EE09120016C
:10019800F09121010995BFEF2B2EE0912001F091FC
:1001A8002101099566DF2F900A81003061F40B81E7
:1001B80006FF04C0B4E0B093B40003C0B3E0B0934A
:1001C800B40000E010C005C0B1E0B093B40000E096
:1001D8000AC001C007C0088119810F5F1F4F08833B
:1001E800198366CF01E07F906F905F904F903F90AA
:0C01F8002396CDBFDEBFDF91CF910895AC
:100854002F923F924F925F9246DD0091B40010E0D8
:10086400103009F4043019F4810192010DC0B9E08B
:1008740081019201000F111F221F331FBA95D1F776
:10088400A801B9018A019B017F926F92BFEF7B2E71
:10089400302E412E522E632EB8E12B2EB1DC6F90F8
:1008A4007F90002319F0E7DB01E09CC07F926F92F8
:1008B400BFEF2B2EE0912001F09121010995BFEFAC
:1008C4002B2EE0912001F09121010995BEEF2B2EF2
:1008D400E0912001F091210109956F907F9020E033
:1008E40030E00FEF11E002171307F8F0F901E60DFD
:1008F400F71D00813F932F937F926F925F924F92E7
:100904003F922F92202EE0912001F0912101099530
:100914002F903F904F905F906F907F902F913F91D9
:1009240089010F5F1F4F9801DCCF7F926F925F9216
:100934004F923F922F92BFEF2B2EE0912001F09126
:1009440021010995BFEF2B2EE0912001F0912101A7
:100954000995BFEF2B2EE0912001F091210109951B
:100964002F903F904F905F906F907F90202F30E0BA
:1009740089010F711070103009F4053079F07F92FD
:100984006F925F924F923F922F9275DB2F903F9020
:100994004F905F906F907F9002E024C07F926F929F
:1009A4005F924F923F922F92BFEF2B2EE091200146
:1009B400F091210109952F903F904F905F906F9097
:1009C4007F900F3F09F0EACF7F926F925F924F9230
:1009D4003F922F9250DB2F903F904F905F906F90FB
:0E09E4007F9000E05F904F903F902F9008951D
:1005D600CF93DF93CDB7DEB72297CDBFDEBF21968F
:1005E6004F925F926F927F927DDE3F922F92BFEF86
:1005F6007B2E3324442455246624BAE02B2EFFDDBB
:100606002F903F90002319F035DD01E041C03F9265
:100616002F92BFEF2B2EE0912001F0912101099539
:100626002F903F900E3F09F0F2CF30E03031E0F4EA
:10063600032F10E0020D131D088319833F933F9289
:100646002F92BFEF2B2EE0912001F0912101099509
:100656002F903F903F9118812981E12FF22F00833F
:10066600032F0F5F302FE2CF3F922F92BFEF2B2E3B
:10067600E0912001F09121010995BFEF2B2EE09129
:100686002001F09121010995F5DC2F903F9000E0C3
:100696007F906F905F904F902196CDBFDEBFDF9128
:0406A600CF91089553
:1003F8002F92022D007F0695069506950695102FDB
:10040800105D212F09E3011720F4022F095F202F27
:1004180000C0022D0F70102F105D312F09E3011756
:1004280028F4032F095F102F012F01C0032F222E5C
:0A0438000DDE202E0BDE2F9008953C
:10032400CF93DF93CDB7DEB72297CDBFDEBF219643
:100334004F925F926F927F92D6DF3F922F92BFEFE0
:100344007B2E3324442455246624B9E02B2E58DF15
:100354002F903F90002319F08EDE01E041C03F92C0
:100364002F92BFEF2B2EE0912001F09121010995EE
:100374002F903F900E3F09F0F2CF30E03031E0F49F
:10038400032F10E0020D131D088319833F933F923E
:100394002F92BFEF2B2EE0912001F09121010995BE
:1003A4002F903F903F9118812981E12FF22F0083F4
:1003B400032F0F5F302FE2CF3F922F92BFEF2B2EF0
:1003C400E0912001F09121010995BFEF2B2EE091DE
:1003D4002001F091210109954EDE2F903F9000E01D
:1003E4007F906F905F904F902196CDBFDEBFDF91DD
:0403F400CF91089508
:10044200CF93DF93CDB7DEB72297CDBFDEBF219624
:100452002F923F924F925F9247DF0091B40010E0DB
:10046200103009F4043019F4810192010DC0B9E091
:1004720081019201000F111F221F331FBA95D1F77C
:10048200A801B9018A019B017F926F92BFEF7B2E77
:10049200302E412E522E632EB1E12B2EB2DE6F9002
:1004A2007F90002319F0E8DD01E061C07F926F9236
:1004B2005F924F923F922F92BFEF2B2EE09120013D
:1004C200F091210109952F903F904F905F906F908E
:1004D2007F900E3F09F0EACF30E040E0423009F46D
:1004E200303048F5032F142F060D171D088319838A
:1004F2004F933F937F926F925F924F923F922F92D0
:10050200BFEF2B2EE0912001F091210109952F9050
:100512003F904F905F906F907F903F914F911881E5
:100522002981E12FF22F0083032F142F0F5F1F4F1A
:10053200302F412FD3CF7F926F925F924F923F9293
:100542002F92BFEF2B2EE0912001F091210109950E
:10055200BFEF2B2EE0912001F091210109958CDD56
:100562002F903F904F905F906F907F9000E05F9050
:100572004F903F902F902196CDBFDEBFDF91CF915C
:020582000895DA
:0A05840005900D920197E1F708952C
:10058E00BAE2B0931801B0E0B0931901BFEFB09387
:10059E001601BFEFB0931701BFEFB0931C01BFEF71
:1005AE00B0931D01BFEFB0931A01BFEFB0931B01C3
:1005BE00B1B3BE7FB1BBB1B3B260B1BB0AB108611A
:0805CE000AB9B6E8B0BD0895BA
:100D2400A0E6B0E0EEE6FCE086EB90E00E94C202B2
:020D3400089520
:010C6E000085
:080C6F00526561642D4F4B003A
:0E0C7700436F6E74656E742D4572726F72005D
:0B0C8500436F6E74656E742D4F4B00C2
:0A0C90004353442D6572726F720029
:0A0C9A004349442D6572726F720029
:010CA400004F
:010CA500004E
:070CA600435344203A2000F3
:0A0CAD005465737420456E642E0038
:0B0CB700526561642D4572726F72007F
:010CC2000031
:070CC300434944203A2000E0
:100CCA006D6963726F5344204361726420696E7365
:060CDA0065727465640000
:0C0CE0004D4D4320496E69742D4F4B00B0
:100CEC00496E73657274206D6963726F534420434F
:040CFC0061726400BD
:090D000057726974652D4F4B0018
:0C0D090057726974652D4572726F72009C
:0F0D15004D4D4320496E69742D6572726F7200E7
:00000001FF
