:10000000E5EF04F00000000000EF00F00000000049
:0A0010000000000000000000F3D71C
:10001C001AC3C9FFC7B002D00000FCD7C9CF01F08A
:06002C0001C000F012000B
:100032001AC36FFF6DB002D00000FCD76FCF01F082
:0600420001C000F01200F5
:10004800F250026EF29E0500FF6A0150FE6E0050EB
:08005800FD6E02BEF28E1200E3
:0E006000ACB202D00000FCD711C3ADFF1200FD
:10006E00400E03011125006EA5C2E1FFA6C2E2FFFC
:10007E0000C0E6FFA3C200F0A4C201F0DEDFA5C2FD
:10008E00E1FFA6C2E2FF15C3E6FFA3C200F0A4C2C1
:10009E0001F0D3DFA5C2E1FFA6C2E2FF14C3E6FF63
:1000AE00A3C200F0A4C201F0C8DFA5C2E1FFA6C240
:1000BE00E2FF13C3E6FFA3C200F0A4C201F0BDDF4E
:1000CE00A5C2E1FFA6C2E2FF12C3E6FFA3C200F083
:1000DE00A4C201F0B2DFA5C2E1FFA6C2E2FF16C3C1
:1000EE00E6FFA3C200F0A4C201F0A7DF0301186B64
:1000FE00196BA5C2E1FFA6C2E2FFFF0EE66EA3C218
:10010E0000F0A4C201F099DF00C017F30301184BF1
:10011E00192B800E1715006E0050000AFF0ED8A482
:10012E00000E016E000E195D02E1640E185D000EE8
:10013E00D8B0FF0E006E0150001201E1DAD717C3DE
:04014E0000F01200AB
:040152008D9012007A
:100156008D80A5C2E1FFA6C2E2FFFF0EE66EA3C236
:0A01660000F0A4C201F06DDF1200EA
:1001700003010D6B0BC3E9FF0CC3EAFFEECF0EF3D7
:100180000E51000A0EE00EC311F36ADF03010D2BBE
:100190000D510B25E96E000E0C21EA6EEECF0EF329
:0401A000EFD7120083
:1001A40003010D6B0E6B0B51000A17E1D0DF010E3A
:1001B400116F126B136B146B156BFF0E166F55DFFB
:1001C40000C00FF3C6DF03010F51000A05E102016D
:1001D400A76B03010C6B8FD082D0B9DF370E116F80
:1001E400126B136B146B156BFF0E166F3EDF00C0A2
:1001F4000FF3AFDF03010F51010AD8A46FD0A7DFBB
:10020400290E116F000E126F000E136F000E146F83
:10021400400E156FFF0E166F28DF00C00FF399DF35
:1002240003010F51000A59E10B51020A50E18FDF1B
:100234003A0E116F126B136B146B156BFF0E166F66
:1002440014DF00C00FF3A5C2E1FFA6C2E2FFFF0E58
:10025400E66EA3C200F0A4C201F0F4DE00C010F305
:10026400A5C2E1FFA6C2E2FFFF0EE66EA3C200F044
:10027400A4C201F0E7DEA5C2E1FFA6C2E2FFFF0EC1
:10028400E66EA3C200F0A4C201F0DCDEA5C2E1FF69
:10029400A6C2E2FFFF0EE66EA3C200F0A4C201F004
:1002A400D1DE57DF03010F51000A10E1400E101593
:1002B400016E0150000A04E0040E0201A76F03D08E
:1002C4000201030EA76F03010C6B15D006D0010EBB
:1002D4000201A76F03010C6B0ED001D00AD00301F9
:1002E4000E51270A02E10F0E0D1903E00D4B0E2BE0
:0C02F4005AD7010E0C6F0CC300F0120072
:10030000F00E0201FC15026E02C0FDF202C000F008
:100310000032009E0032009E0032009E0032009E9D
:1003200000C0FDF2300E0024016E01C0FDF201504C
:10033000390802E2070EFD270F0EFC15006E300E85
:100340000024016E01C0FEF20150390802E2070EDE
:10035000FE27FDC211F384DEFEC211F381DE12001E
:10036000600E0201A86F000EA96F110EAA6F030E96
:10037000AB6FFF0EB46FFF0EB56F000EB66F000EC1
:10038000B76FFF0EB06FFF0EB16F000EB26F000EB1
:10039000B36FFF0EAC6FFF0EAD6F000EAE6F000EB1
:1003A000AF6FAC8A900EAB6E948E949C9EAA03D0D5
:0803B000AECF00F0FBD71200F4
:1003B800C69A1C0E0201A36F000EA46F1A0EA56F39
:1003C800030EA66FFF0E9F6FFF0EA06FFF0EA16FAB
:1003D800FF0EA26F949AFC51040A02E1948601D0A0
:1003E80094969488C66AFC51C612FE51C612FD51F5
:1003F800C712FE51000A05E0FF51000AD8B4C78CA5
:0E04080004D0FF51000AD8A4C78CC68A120087
:10041600FCC20BF3FDC20CF3A8DE0D0E116F1DDE40
:0A0426000A0E0301116F19DE120027
:1004300090DE0201A751040A09E101C307F302C3D8
:1004400008F303C309F304C30AF314D0090E006EC2
:1004500001C307F302C308F303C309F304C30AF398
:10046000005008E0030107370791083709370A37BA
:10047000FF0FF7D70301110E116F07C312F308C363
:1004800013F309C314F30AC315F3FF0E166FEFDD60
:100490000050000A05E05FDE010E0201FC6F50D043
:1004A000A5C2E1FFA6C2E2FFFF0EE66EA3C200F006
:1004B000A4C201F0C9DD0050FE0A02E00000F0D73E
:1004C0000201FD6BFE6BFD51030105250201FF6F6B
:1004D000FE5103010621006FA5C2E1FFA6C2E2FFA3
:1004E000FF0EE66EA3C200F0A4C201F0ADDDFFC2B4
:1004F000E1FF00C3E2FF00C0E6FF0201FE51010A76
:1005000002E1FF0EFD1903E0FD4BFE2BDCD7A5C277
:10051000E1FFA6C2E2FFFF0EE66EA3C200F0A4C296
:1005200001F092DDA5C2E1FFA6C2E2FFFF0EE66E7A
:10053000A3C200F0A4C201F087DD0DDE0201FC6B56
:06054000FCC200F01200F5
:1005460005DE090E0301116F126B136B146B156B2D
:10055600FF0E166F89DD0050000A05E0F9DD010E79
:100566000201FE6F49D0A5C2E1FFA6C2E2FFFF0E5F
:10057600E66EA3C200F0A4C201F063DD0050FE0ADD
:10058600F2E10201FF6BFF51FC250301006F000E33
:100596000201FD210301016FA5C2E1FFA6C2E2FF30
:1005A600FF0EE66EA3C200F0A4C201F04ADD00C34E
:1005B600E1FF01C3E2FF00C0E6FF0201FF510F0A9F
:1005C60002E0FF2BE0D7A5C2E1FFA6C2E2FFFF0EC5
:1005D600E66EA3C200F0A4C201F033DDA5C2E1FFBE
:1005E600A6C2E2FFFF0EE66EA3C200F0A4C201F0AF
:0E05F60028DDAEDD0201FE6BFEC200F0120039
:10060400A6DD0201A751040A09E101C307F302C3ED
:1006140008F303C309F304C30AF314D0090E006EEC
:1006240001C307F302C308F303C309F304C30AF3C2
:10063400005008E0030107370791083709370A37E4
:10064400FF0FF7D70301180E116F07C312F308C386
:1006540013F309C314F30AC315F3FF0E166F05DD74
:100664000050000A05E075DD010E0201FC6F91D017
:10067400A5C2E1FFA6C2E2FFFF0EE66EA3C200F030
:10068400A4C201F0DFDCA5C2E1FFA6C2E2FFFF0EB7
:10069400E66EA3C200F0A4C201F0D4DCA5C2E1FF5F
:1006A400A6C2E2FFFE0EE66EA3C200F0A4C201F0F1
:1006B400C9DC0201FD6BFE6BFD5103010525E96EEA
:1006C4000201FE5103010621EA6EA5C2E1FFA6C2A2
:1006D400E2FFEECFE6FFA3C200F0A4C201F0B2DC59
:1006E4000201FE51010A02E1FF0EFD1903E0FD4B78
:1006F400FE2BE2D7A5C2E1FFA6C2E2FFFF0EE66E23
:10070400A3C200F0A4C201F09DDCA5C2E1FFA6C211
:10071400E2FFFF0EE66EA3C200F0A4C201F092DC79
:10072400A5C2E1FFA6C2E2FFFF0EE66EA3C200F07F
:10073400A4C201F087DC00C0FDF2000E0201FE6FCE
:100744001F0EFD15016EFEC202F0000E021601C05E
:10075400FDF202C0FEF2000E021802E1050E0118BD
:1007640005E0F7DC020E0201FC6F13D0A5C2E1FF25
:10077400A6C2E2FFFF0EE66EA3C200F0A4C201F01F
:1007840061DC0050FF0A02E00000F0D7E2DC020165
:08079400FC6BFCC200F0120036
:10079C00DADC0A0E0301116F126B136B146B156B01
:1007AC00FF0E166F5EDC0050000A05E0CEDC010E79
:1007BC000201FE6F52D0A5C2E1FFA6C2E2FFFF0EFE
:1007CC00E66EA3C200F0A4C201F038DC0050FE0AB1
:1007DC0002E00000F0D70301016B026B0151020132
:1007EC00FC25FF6F030102510201FD210301006F83
:1007FC00A5C2E1FFA6C2E2FFFF0EE66EA3C200F0A7
:10080C00A4C201F01BDCFFC2E1FF00C3E2FF00C089
:10081C00E6FF000E0301021902E10F0E011903E0BD
:10082C00014B022BDBD7A5C2E1FFA6C2E2FFFF0EF4
:10083C00E66EA3C200F0A4C201F000DCA5C2E1FF89
:10084C00A6C2E2FFFF0EE66EA3C200F0A4C201F046
:10085C0024EC00F07ADC0201FE6BFEC200F0120008
:10086C00050E0201A76F96908D80FD6BFE6BA5C2E5
:10087C00E1FFA6C2E2FFFF0EE66EA3C200F0A4C227
:10088C0001F024EC00F0000E0201FE1902E1090E49
:10089C00FD1903E0FD4BFE2BEAD755DC0301116B70
:1008AC00126B136B146B156B950E166F37EC00F007
:1008BC0000C0FFF24ADC0201FF51010A03E0010E05
:1008CC00FC6F7AD040DC080E0301116FAA0E126F78
:1008DC00010E136F000E146F156F870E166F37EC29
:1008EC0000F000C0FFF2A5C2E1FFA6C2E2FFFF0EBE
:1008FC00E66EA3C200F0A4C201F024EC00F0A5C285
:10090C00E1FFA6C2E2FFFF0EE66EA3C200F0A4C296
:10091C0001F024EC00F0A5C2E1FFA6C2E2FFFF0E3D
:10092C00E66EA3C200F0A4C201F024EC00F0A5C254
:10093C00E1FFA6C2E2FFFF0EE66EA3C200F0A4C266
:10094C0001F024EC00F001DC0201FF51010A0AE085
:10095C00010E03010B6F20DC0050000A02E00B6B50
:10096C001BDC04D00301020E0B6F16DC0201A75135
:10097C00050A03E1020EFC6F1FD0A751040A1BE00D
:10098C00A9EC00F0100E0301116F000E126F020E95
:10099C00136F000E146F156FFF0E166F37EC00F00F
:1009AC0000C0FFF2ABEC00F00201FF51000A03E0C3
:0E09BC00030EFC6F01D0FC6BFCC200F01200B9
:1009CA000F01386B3A6B3C6B606A9284B886010EF1
:1009DA00B06EA00EAF6EAC84BEDC680E0C6EE40E78
:1009EA000D6E0D2EFED70C2EFCD70000490E02010B
:1009FA00666F6E0E676F730E686F650E696F720EA3
:100A0A006A6F740E6B6F200E6C6F6D0E6D6F690ED0
:100A1A006E6F630E6F6F720E706F6F0E716F530E83
:100A2A00726F440E736F200E746F430E756F610EF2
:100A3A00766F720E776F640E786F796B660EFC6F45
:100A4A00020EFD6FE3DC80A402D00000FCD7150E75
:100A5A000B6E4B0E0C6EBE0E0D6E0D2EFED70C2EAF
:100A6A00FCD70B2EFAD700006D0E0201506F690EEB
:100A7A00516F630E526F720E536F6F0E546F530E97
:100A8A00556F440E566F200E576F430E586F610E06
:100A9A00596F720E5A6F640E5B6F200E5C6F690E8F
:100AAA005D6F6E0E5E6F730E5F6F650E606F720E16
:100ABA00616F740E626F650E636F640E646F656BAF
:100ACA00500EFC6F020EFD6FA1DC0201FC6BFD6B88
:100ADA00FE6B010EFF6F6BDCC4DE00C07AF20050C1
:100AEA00000A1DE14D0E8C6F4D0E8D6F430E8E6FF9
:100AFA00200E8F6F490E906F6E0E916F690E926F76
:100B0A00740E936F2D0E946F4F0E956F4B0E966F5A
:100B1A00976B8C0EFC6F020EFD6F78DC23D04D0EA6
:100B2A0002017D6F4D0E7E6F430E7F6F200E806F28
:100B3A00490E816F6E0E826F690E836F740E846F19
:100B4A002D0E856F650E866F720E876F720E886F17
:100B5A006F0E896F720E8A6F8B6B7D0EFC6F020EA1
:100B6A00FD6F54DC02017B6B7C6B500E7B25E16EC2
:100B7A00000E7C21E26E6D0EE66E7C51010A02E1E6
:100B8A00FF0E7B1903E07B4B7C2BEFD74E0E2A6EB0
:100B9A00020E2B6E4E0E0301016F020E026F000E43
:100BAA00036F046F500E056F000E066F26DD00C03E
:100BBA007AF20050000A17E1570E216E720E226E69
:100BCA00690E236E740E246E650E256E2D0E266E2A
:100BDA004F0E276E4B0E286E296A210EFC6F000EEF
:100BEA00FD6F14DC1ED0570E156E720E166E690E4E
:100BFA00176E740E186E650E196E2D0E1A6E450E4E
:100C0A001B6E720E1C6E720E1D6E6F0E1E6E720EB3
:100C1A001F6E206A150E0201FC6F000EFD6F0BECB1
:100C2A0002F02C0E0201FC6F000EFD6FB2DD00C057
:100C3A007AF20050000A37E1430E496E490E4A6EB5
:100C4A00440E4B6E200E4C6E3A0E4D6E200E4E6EBA
:100C5A004F6A490E03010B6F000E0C6FB8EC00F0DF
:100C6A0002017B6B7C6B2C0E7B25E96E000E7C21CE
:100C7A00EA6EEECFFCF280EC01F0000E02017C1964
:100C8A0002E10F0E7B1903E07B4B7C2BECD7200E85
:100C9A00466E200E476E486A460EFC6F000EFD6FC8
:100CAA000BEC02F01AD0430E3C6E490E3D6E440E18
:100CBA003E6E2D0E3F6E650E406E720E416E720EC6
:100CCA00426E6F0E436E720E446E456A3C0E02010E
:100CDA00FC6F000EFD6F0BEC02F02C0E0201FC6F94
:100CEA00000EFD6F2BDC00C07AF20050000A37E1DB
:100CFA00430E986F530E996F440E9A6F200E9B6F96
:100D0A003A0E9C6F200E9D6F9E6B980E03010B6F1F
:100D1A00020E0C6FB8EC00F002017B6B7C6B2C0EA0
:100D2A007B25E96E000E7C21EA6EEECFFCF280ECA8
:100D3A0001F0000E02017C1902E10F0E7B1903E09B
:100D4A007B4B7C2BECD7200ED46F200ED56FD66B45
:100D5A00D40EFC6F020EFD6F0BEC02F01AD0430E9C
:100D6A000201CA6F530ECB6F440ECC6F2D0ECD6F9E
:100D7A00650ECE6F720ECF6F720ED06F6F0ED16F7F
:100D8A00720ED26FD36BCA0EFC6F020EFD6F0BECA4
:100D9A0002F02AC001F32BC002F3000E0301036F15
:100DAA00046F500E056F000E066F18EC02F000C0BB
:100DBA007AF20050000AD8A479D0520EC26F650E9A
:100DCA00C36F610EC46F640EC56F2D0EC66F4F0ED2
:100DDA00C76F4B0EC86FC96BC20EFC6F020EFD6F58
:100DEA000BEC02F00201D7817B6B7C6B500E7B25EA
:100DFA00E96E000E7C21EA6EEECF11F330EC00F0C2
:100E0A00500E02017B25E96E000E7C21EA6EEE503F
:100E1A006D0A02E0D79109D07C51010A02E1FF0E66
:100E2A007B1903E07B4B7C2BE1D7D7A11CD0430E67
:100E3A00F16F6F0EF26F6E0EF36F740EF46F650E34
:100E4A00F56F6E0EF66F740EF76F2D0EF86F4F0E6C
:100E5A00F96F4B0EFA6FFB6BF10EFC6F020EFD6F12
:100E6A000BEC02F022D0430E0201E36F6F0EE46F27
:100E7A006E0EE56F740EE66F650EE76F6E0EE86F25
:100E8A00740EE96F2D0EEA6F450EEB6F720EEC6F62
:100E9A00720EED6F6F0EEE6F720EEF6FF06BE30E68
:100EAA00FC6F020EFD6F0BEC02F01CD0520E020119
:100EBA00D86F650ED96F610EDA6F640EDB6F2D0E77
:100ECA00DC6F450EDD6F720EDE6F720EDF6F6F0E16
:100EDA00E06F720EE16FE26BD80EFC6F020EFD6FCF
:100EEA000BEC02F0540E0201B86F650EB96F730E67
:100EFA00BA6F740EBB6F200EBC6F450EBD6F6E0EBF
:100F0A00BE6F640EBF6F2E0EC06FC16BB80EFC6F42
:0A0F1A00020EFD6F0BEC02F0FFD792
:020000040030CA
:0D000100331F3CFFBD81FF0FC00FE00F401B
:00000001FF
