:100000004AEF05F00000000000EF00F000000000E3
:0A0010000000000000000000F3D71C
:0C001C0041B002D08B9801D08B881200FC
:0C00280041B002D08B9601D08B861200F4
:0C00340041B002D08D9201D08D821200EC
:0C00400041B002D08B9401D08B841200E0
:0C004C0041B002D08B9C01D08B8C1200C4
:0C00580041B002D08B9E01D08B8E1200B4
:0C00640041B002D08A9201D08A821200C2
:0C00700041B002D0899801D089881200AC
:0C007C0041B002D08B9E01D08B8E120090
:0C00880041B002D08A9001D08A801200A2
:0C00940041B002D08B9201D08B82120090
:0C00A00041B002D08B9C01D08B8C120070
:0C00AC0041B002D0899201D0898212007C
:0C00B80041B002D08B9801D08B88120060
:0C00C40041B002D08B9601D08B86120058
:0C00D00041B002D08B9801D08B88120048
:0C00DC0041B002D08B9A01D08B8A120038
:0C00E80041B002D08B9A01D08B8A12002C
:0C00F40041B002D08B9801D08B88120024
:0C01000041B002D08B9601D08B8612001B
:0C010C0041B002D08A9401D08A84120015
:0C01180041B002D08F9401D08F841200FF
:0C01240041B002D08B9601D08B861200F7
:0C01300041B002D0899401D089841200F3
:0C013C0041B002D08B9801D08B881200DB
:0C01480041B002D08B9601D08B861200D3
:0C01540041B002D08D9601D08D861200C3
:0C01600041B002D08F9001D08F801200BF
:0C016C0041B002D08F9201D08F821200AF
:0C01780041B002D08D9401D08D841200A3
:0C01840041B002D08B9A01D08B8A12008F
:0C01900041B002D0899001D0898012009B
:10019C0041C06AFF016A0150000A05E1000E68B017
:0C01AC00010E016EF8D76ACF01F01200BE
:1001B80041C0C9FF016A0150000A05E1000EC7B03D
:0C01C800010E016EF8D7C9CF01F0120043
:0C01D40041B002D08B9001D08B80120053
:0C01E00041B002D08B9801D08B88120037
:0C01EC0041B002D08B9601D08B8612002F
:0C01F80041B002D08D9001D08D8012002B
:10020400F250026EF29E0500FF6A0150FE6E00502D
:08021400FD6E02BEF28E120025
:10021C00090E0B6E1E0E0C6EE40E0D6E0D2EFED71F
:0C022C000C2EFCD70B2EFAD7000012009D
:10023800FF0E226EFF0E236EFF0E246EFF0E256E3C
:10024800B80E266E010E276E410E286E000E296E1E
:10025800949A3B50040A02E1948601D094969488BB
:10026800C66AC79CC79E3B50C6123D50C6123C503A
:10027800C7123D5205E03E50000AD8B4C78C03D0DF
:0A0288003E52D8A4C78CC68A1200AB
:100292003BC03FF03CC040F03DC000F03EC001F02A
:1002A200010E3D5E000E3E5A0050011012E02CC0BD
:1002B200E1FF2DC0E2FF3FC0E9FF40C0EAFFEECF01
:1002C200E6FF2AC000F02BC001F09BDF3F4A402A24
:0402D200E3D712005C
:1002D60038C0F6FF39C0F7FF3AC0F8FF0900F5CF7E
:1002E6003BF0040E3824F66E000E3920F76E000E31
:1002F6003A20F86E0900F5CF3CF0080E3824F66E69
:10030600000E3920F76E000E3A20F86E0900F5CF80
:100316003DF00C0E3824F66E000E3920F76E000EF6
:100326003A20F86E0900F5CF3EF083DF000E006E2E
:020336001200B3
:1003380038C0F6FF39C0F7FF3AC0F8FF0900F5CF1B
:100348003BF0040E3824F66E000E3920F76E000ECE
:100358003A20F86E0900F5CF3CF0080E3824F66E06
:10036800000E3920F76E000E3A20F86E0900F5CF1E
:100378003DF00C0E3824F66E000E3920F76E000E94
:100388003A20F86E0900F5CF3EF052DF000E006EFD
:02039800120051
:10039A0038C0F6FF39C0F7FF3AC0F8FF0900F5CFB9
:1003AA003BF0040E3824F66E000E3920F76E000E6C
:1003BA003A20F86E0900F5CF3CF0080E3824F66EA4
:1003CA00000E3920F76E000E3A20F86E0900F5CFBC
:1003DA003DF00C0E3824F66E000E3920F76E000E32
:1003EA003A20F86E0900F5CF3EF021DF000E006ECC
:0203FA001200EF
:1003FC004DD039B002D0929001D092800F0125914E
:10040C006AD039B002D0949001D0948064D039B0C5
:10041C0002D0969001D096805ED039B002D09496DE
:10042C0001D0948658D039B002D0949801D09488D9
:10043C0052D039B002D0949A01D0948A4CD039B0B1
:10044C0002D0949201D0948246D039B002D09390CD
:10045C0001D0938040D039B002D0949E01D0948EBC
:10046C003AD039B002D0949C01D0948C34D039B0AD
:10047C0002D0949601D094862ED039B002D09498A4
:10048C0001D0948828D0010E006E27D03850000A75
:10049C00B0E03850010AB5E03850020AB8E03850E4
:1004AC00030ABBE03850040ABEE03850050AC1E02C
:1004BC003850060AC4E03850070AC7E03850080A1A
:1004CC00CAE03850090ACDE038500A0AD0E038505A
:0C04DC000B0AD3E0D8D7000E006E12000F
:1004E8004DD039B002D0929201D092820F0125935B
:1004F8006AD039B002D0929801D0928864D039B0CD
:1005080002D0969201D096825ED039B002D09496ED
:1005180001D0948658D039B002D0949801D09488EC
:1005280052D039B002D0949A01D0948A4CD039B0C4
:1005380002D0949401D0948446D039B002D09392DA
:1005480001D0938240D039B002D0949E01D0948ECD
:100558003AD039B002D0949C01D0948C34D039B0C0
:1005680002D0949601D094862ED039B002D09498B7
:1005780001D0948828D0010E006E27D03850000A88
:10058800B0E03850010AB5E03850020AB8E03850F7
:10059800030ABBE03850040ABEE03850050AC1E03F
:1005A8003850060AC4E03850070AC7E03850080A2D
:1005B800CAE03850090ACDE038500A0AD0E038506D
:0C05C8000B0AD3E0D8D7000E006E120022
:1005D40051D039B002D0929401D092840F01259564
:1005E4006ED039B002D0969601D0968668D039B0D4
:1005F40002D0969401D0968462D039B002D09496F9
:1006040001D094865CD039B002D0949801D09488FB
:1006140056D039B002D0949A01D0948A50D039B0CF
:1006240002D0989001D098804AD039B002D09394E7
:1006340001D0938444D039B002D0989401D09884E6
:100644000F0123953CD039B002D0989201D0988202
:100654000F01239334D039B002D0949601D09486FC
:100664002ED039B002D0949801D0948828D0010EAD
:10067400006E27D03850000AACE03850010AB1E0CF
:100684003850020AB4E03850030AB7E03850040A7C
:10069400BAE03850050ABDE03850060AC0E03850C8
:1006A400070AC3E03850080AC6E03850090ACBE00C
:1006B40038500A0AD0E038500B0AD3E0D8D7000EDD
:0406C400006E1200B2
:1006C800080E3824F66E000E3920F76E000E3A2018
:1006D800F86E0900F5CF1EF00900F5CF1FF00900EC
:1006E800F5CF20F00900F5CF21F0040E3824F66E7E
:1006F800000E3920F76E000E3A20F86E0900F5CF8B
:100708001AF00900F5CF1BF00900F5CF1CF009001D
:10071800F5CF1DF0180E3824F66E000E3920F76E4E
:10072800000E3A20F86E0900F5CF16F00900F5CF53
:1007380017F00900F5CF18F00900F5CF19F01200ED
:100748001CC0E1FF1DC0E2FFE66A1AC000F01BC032
:1007580001F054DD5FDD1CC0E1FF1DC0E2FF010EAA
:0E076800E66E1AC000F01BC001F048DD120062
:1007760038C0F6FF39C0F7FF3AC0F8FF0900F5CFD9
:100786002AF00900F5CF2BF00900F5CF2CF009006F
:10079600F5CF2DF0040E3824F66E000E3920F76ED4
:1007A600000E3A20F86E0900F5CF2EF00900F5CFBD
:1007B6002FF00900F5CF30F00900F5CF31F0120027
:1007C60038C039F020C0E1FF21C0E2FFE66A1EC052
:1007D60000F01FC001F013DD390E3B6E000E3C6EBB
:1007E600010E3D6E000E3E6E51DD20C0E1FF21C0C0
:1007F600E2FF010EE66E1EC000F01FC001F0FFDC36
:020806001200DE
:1008080032C033F056D09CDF386AD9DF74D098DF15
:10081800010E386ED4DF6FD093DF030E386ECFDF52
:100828006AD08EDF070E386ECADF65D089DF0F0EFB
:10083800386EC5DF60D084DF400E386EC0DF1F0E13
:10084800386EBDDF58D07CDFC00E386EB8DF3F0E83
:10085800386EB5DF50D074DF010E386EB0DFC00ED1
:10086800386EADDF7F0E386EAADF45D069DF030E24
:10087800386EA5DFC00E386EA2DFFF0E386E9FDF20
:100888003AD05EDF070E386E9ADFC00E386E97DFFB
:10089800FF0E386E94DF2FD053DF0F0E386E8FDFC8
:1008A800C00E386E8CDFFF0E386E89DF24D048DF2B
:1008B80022D03350000AA7E03350010AA8E0335091
:1008C800020AAAE03350030AACE03350040AAEE04F
:1008D8003350050AB0E03350060AB5E03350070A32
:1008E800BAE03350080AC2E03350090ACAE033506C
:0808F8000A0AD2E0DCD712006D
:1009000015D033C038F034C039F078DD19D033C099
:1009100038F034C039F0E8DD13D033C038F034C0DB
:1009200039F058DE0DD0010E006E0AD03250000AA8
:10093000E8E03250010AEBE03250020AEEE0F3D771
:020940001200A3
:1009420035C038F036C039F037C03AF013DF32C064
:1009520038F033C039F034C03AF0B5DE20C0E1FFE0
:1009620021C0E2FF010EE66E1EC000F01FC001F0C2
:1009720048DC18C0E1FF19C0E2FF010EE66E16C0A6
:1009820000F017C001F03DDC1CC0E1FF1DC0E2FF1A
:10099200010EE66E1AC000F01BC001F032DC12003C
:1009A2001BD033C038F034C039F035C03AF0F4DC33
:1009B2001DD033C038F034C039F035C03AF08ADC8B
:1009C20015D033C038F034C039F035C03AF0B3DC5A
:1009D2000DD0010E006E0AD03250000AE2E0325011
:0E09E200010AE7E03250020AECE0F3D71200FF
:1009F000326A020E336E346A83DF326A010E336E5E
:100A0000346A7EDF326A060E336E346A79DF326A08
:100A1000000E336E0B0E346E000E356EC2DF090E03
:100A20000B6E1E0E0C6EE40E0D6E0D2EFED70C2EF0
:0A0A3000FCD70B2EFAD700001200CD
:100A3A000900F5CFE6FF0006FBE10106F9E1120025
:100A4A00156A0B0E155C12E215C032F0D8DE090EDB
:100A5A000B6E1E0E0C6EE40E0D6E0D2EFED70C2EB6
:0E0A6A00FCD70B2EFAD70000152AEBD712008E
:100A7800A00E326E0A0E336E000E346E100E356EF6
:0C0A88000B0E366E000E376E58DF1200A9
:0C0A9400156AACDFEFDFD7DFFED7FFD71D
:100AA00090014100D4014100F8014100EC014100F6
:100AB000E0014100840141009400410088004100B0
:100AC0007C004100A0004100C4004100B80041008A
:100AD000FFFFFFFFFFFFFFFFFFFFFFFFFFFFFFFF26
:100AE000FFFFFFFFFFFFFFFFFFFFFFFFFFFFFFFF16
:100AF000FFFFFFFFFFFFFFFFFFFFFFFFFFFFFFFF06
:100B000002000000000000000000000001000000E2
:080B1000B8014100FFFFFFFFE7
:020000040030CA
:0E00000015137F7CF98B91FFFFC0FFE0FF40DE
:00000001FF
