:10000000BBEF2AF00000000000EF00F0000000004D
:0A0010000000000000000000F3D71C
:10001C00ADC4C9FFC7B002D00000FCD7C9CF00F0F7
:02002C001200C0
:10002E00ADC46FFF6DB002D00000FCD76FCF00F0F3
:02003E001200AE
:10004000F250026EF29E0500FF6A0150FE6E0050F3
:08005000FD6E02BEF28E1200EB
:100058008D80E8C0E1FFE9C0E2FFFF0EE66EE6C072
:0A00680000F0E7C001F0E8DF12002D
:10007200400E0401A425006EE8C0E1FFE9C0E2FFE2
:1000820000C0E6FFE6C000F0E7C001F0D8DFE8C03C
:10009200E1FFE9C0E2FFA8C4E6FFE6C000F0E7C066
:1000A20001F0CDDFE8C0E1FFE9C0E2FFA7C4E6FF4F
:1000B200E6C000F0E7C001F0C2DFE8C0E1FFE9C03E
:1000C200E2FFA6C4E6FFE6C000F0E7C001F0B7DF3A
:1000D200E8C0E1FFE9C0E2FFA5C4E6FFE6C000F028
:1000E200E7C001F0ACDFE8C0E1FFE9C0E2FFA9C46C
:1000F200E6FFE6C000F0E7C001F0A1DF0401AB6B50
:10010200AC6BE8C0E1FFE9C0E2FFFF0EE66EE6C0BD
:1001120000F0E7C001F093DF00C0AAF40401AB4B8A
:10012200AC2B800E0014016E0150000A07E0000E95
:10013200AC5D02E1640EAB5D01E2E3D7AAC400F05C
:020142001200A9
:040144008D90120088
:1001480096C4E9FF97C4EAFFEE5213E096C4E9FFAC
:1001580097C4EAFFEECF01F098C4D9FF99C4DAFF3B
:100168000150DE1806E10401964B972B984B992B0A
:10017800E7D796C4E9FF97C4EAFFEECF01F098C429
:10018800E9FF99C4EAFFEECF00F00050015C006E71
:08019800016A000E015A120079
:1001A00004019651200A09E096510D0804E3090E56
:1001B000965D01E302D0006A02D0010E006E1200CB
:1001C000030E04019625E96E000E9721EA6EEECF2C
:1001D0000CF0000E0D6E0E6E0F6E000E0D6E0E6E9C
:1001E0000F6E0EC003F00DC002F00CC001F0006AEB
:1001F00000C00CF001C00DF002C00EF003C00FF003
:10020000020E9625D96E000E9721DA6EDE5000247C
:10021000056E000E0120066E000E0220076E000E15
:100220000320086E05C00CF006C00DF007C00EF0EC
:1002300008C00FF007C003F006C002F005C001F0CF
:10024000006A00C00CF001C00DF002C00EF003C047
:100250000FF0010E9625D96E000E9721DA6EDE5052
:100260000024086E000E0120096E000E02200A6EA6
:10027000000E03200B6E08C00CF009C00DF00AC080
:100280000EF00BC00FF00AC007F009C006F008C05E
:1002900005F0046A04C00CF005C00DF006C00EF0B5
:1002A00007C00FF096C4E9FF97C4EAFFEECF00F055
:1002B000000E016E026E036E0450002605500122EE
:1002C000065002220750032200C00CF001C00DF0BE
:1002D00002C00EF003C00FF000C00CF001C00DF022
:0A02E00002C00EF003C00FF0120080
:1002EA0098C404F099C405F096C402F097C403F0C8
:1002FA009AC400F09BC401F0010E04019A5F000E3B
:10030A009B5B005001100FE004C0E9FF05C0EAFF43
:10031A0002C0E1FF03C0E2FFEECFE6FF024A032A72
:10032A00044A052AE5D796C400F097C401F01200E2
:10033A00010E04019625E96E000E9721EA6EEECFB2
:10034A0004F0000E056E000E056E04C003F0026A8A
:10035A0002C004F003C005F096C4E9FF97C4EAFF9F
:10036A00EECF00F0000E016E02500026035001226B
:10037A0000C004F001C005F000C004F001C005F09F
:02038A0012005F
:10038C00DBDE000E000A02E1040E151809E196C42A
:10039C009EF497C49FF498C4A0F499C4A1F414D00B
:1003AC00090E006E96C49EF497C49FF498C4A0F4F2
:1003BC0099C4A1F4005008E004019E379E919F3728
:1003CC00A037A137FF0FF7D70401110EA46F9EC4FD
:1003DC00A5F49FC4A6F4A0C4A7F4A1C4A8F4FF0E6E
:1003EC00A96F41DE005204E031DE010E006E4BD0ED
:1003FC00E8C0E1FFE9C0E2FFFF0EE66EE6C000F0E8
:10040C00E7C001F017DE0050FE0A01E0F1D704014D
:10041C009C6B9D6B020E9D5D02E1000E9C5D1BE2D0
:10042C009C519A25A26F9D519B21A36FE8C0E1FFBF
:10043C00E9C0E2FFFF0EE66EE6C000F0E7C001F097
:10044C00F9DDA2C4E1FFA3C4E2FF00C0E6FF040192
:10045C009C4B9D2BDFD7E8C0E1FFE9C0E2FFFF0E0C
:10046C00E66EE6C000F0E7C001F0E4DDE8C0E1FFB5
:10047C00E9C0E2FFFF0EE66EE6C000F0E7C001F057
:08048C00D9DDE4DD006A120075
:1004940096C402F097C403F099C400F09AC401F022
:1004A400010E0401995F000E9A5B0050011009E0EF
:1004B40002C0E1FF03C0E2FF98C4E6FF024A032A38
:0C04C400EBD796C400F097C401F01200C2
:1004D0000B6A0A6A096A086A0E6A0334083604500D
:1004E000085E0550D8A0053C095E0650D8A0063C21
:1004F0000A5E0750D8A0073C0B5EE86AD8A0010E40
:100500000E5E0336070E0C6E0334083609360A36C3
:100510000B360E36045003A012D0085E0550D8A04A
:10052000053C095E0650D8A0063C0A5E0750D8A0DC
:10053000073C0B5EE86AD8A0010E0E5E11D00826BB
:100540000550D8B0053C09260650D8B0063C0A260E
:100550000750D8B0073C0B26E86AD8B0010E0E262B
:1005600003360C2ED1D70234083609360A360B363C
:100570000E36045003A012D0085E0550D8A0053CEA
:10058000095E0650D8A0063C0A5E0750D8A0073C7A
:100590000B5EE86AD8A0010E0E5E11D00826055049
:1005A000D8B0053C09260650D8B0063C0A260750AC
:1005B000D8B0073C0B26E86AD8B0010E0E260236EA
:1005C000070E0C6E0234083609360A360B360E3624
:1005D000045002A012D0085E0550D8A0053C095E68
:1005E0000650D8A0063C0A5E0750D8A0073C0B5E18
:1005F000E86AD8A0010E0E5E11D008260550D8B0CA
:10060000053C09260650D8B0063C0A260750D8B04B
:10061000073C0B26E86AD8B0010E0E2602360C2ED7
:10062000D1D70134083609360A360B360E36045057
:1006300002A012D0085E0550D8A0053C095E065005
:10064000D8A0063C0A5E0750D8A0073C0B5EE86ABB
:10065000D8A0010E0E5E11D008260550D8B0053C7A
:1006600009260650D8B0063C0A260750D8B0073CE9
:100670000B26E86AD8B0010E0E260136070E0C6E66
:100680000134083609360A360B360E36045001A0FE
:1006900012D0085E0550D8A0053C095E0650D8A0CF
:1006A000063C0A5E0750D8A0073C0B5EE86AD8A05B
:1006B000010E0E5E11D008260550D8B0053C092663
:1006C0000650D8B0063C0A260750D8B0073C0B2687
:1006D000E86AD8B0010E0E2601360C2ED1D70034B0
:1006E000083609360A360B360E36045001A012D0F1
:1006F000085E0550D8A0053C095E0650D8A0063C0F
:100700000A5E0750D8A0073C0B5EE86AD8A0010E2D
:100710000E5E11D008260550D8B0053C09260650BB
:10072000D8B0063C0A260750D8B0073C0B26E86A2A
:10073000D8B0010E0E260036070E0C6E00340836B7
:1007400009360A360B360E36045000A012D0085E69
:100750000550D8A0053C095E0650D8A0063C0A5EAC
:100760000750D8A0073C0B5EE86AD8A0010E0E5EC9
:1007700011D008260550D8B0053C09260650D8B03F
:10078000063C0A260750D8B0073C0B26E86AD8B0CA
:10079000010E0E2600360C2ED1D700B00ED004501C
:1007A00008260550D8B0053C09260650D8B0063CAE
:0C07B0000A260750D8B0073C0B261200A8
:1007BC0085C489F486C48AF487C48BF488C48CF409
:1007CC0004018D6B8E6B000E8E5D02E1080E8D5D4B
:1007DC0019E289C4E9FF8AC4EAFFEE50200A01E15C
:1007EC0011D089C4E9FF8AC4EAFF8BC4E1FF8CC431
:1007FC00E2FFEECFE6FF8B4B8C2B894B8A2B8D4B7C
:10080C008E2BE1D7080E8525016E000E8621026E17
:10081C0001C089F402C08AF401C0E9FF02C0EAFFFA
:10082C00EE50200A29E08BC4E1FF8CC4E2FF2E0EAF
:10083C00E66E8B4B8C2B8D6B8E6B000E8E5D02E1FE
:10084C00030E8D5D19E289C4E9FF8AC4EAFFEE50FC
:10085C00200A01E111D089C4E9FF8AC4EAFF8BC4E4
:10086C00E1FF8CC4E2FFEECFE6FF8B4B8C2B894B68
:10087C008A2B8D4B8E2BE1D78BC4E1FF8CC4E2FF0E
:10088C00E66A0D0E8725E16E000E8821E26E0B0ED6
:10089C008525E96E000E8621EA6EEECFE6FF1A0E74
:1008AC0087258F6F000E8821906F1C0E8525966F03
:1008BC00000E8621976F7EDC8FC4E1FF90C4E2FFAF
:1008CC0000C0E6FF01C0E6FF02C0E6FF03C0E6FF82
:1008DC001E0E87258F6F000E8821906F1A0E8525AE
:1008EC00966F000E8621976F22DD8FC4E1FF90C4B6
:1008FC00E2FF00C0E6FF01C0E6FF0E0E8525006E8C
:10090C00000E8621016E00C0E9FF01C0EAFFEECFA8
:10091C0004F0010E0024E96E000E0120EA6EEECF09
:10092C0003F003C001F0006A04500024036E000EB3
:10093C000120046E03C08DF404C08EF40E0E8725C6
:10094C00006E000E8821016E030E0024E16E000E75
:10095C000120E26E0B0E026E03C000F004C001F029
:10096C00025005E001320032019EFF0FFAD700C0A1
:10097C00E6FF0E0E8725006E000E8821016E040E18
:10098C000024E16E000E0120E26E050E026E8DC495
:10099C0000F08EC401F0025005E001320032019EDD
:1009AC00FF0FFAD73F0E0014006E00C0E6FF0E0ECC
:1009BC008725006E000E8821016E050E0024E16E65
:1009CC00000E0120E26E1F0E8D15026E02C000F0AB
:1009DC000036009000C0E6FF180E8525006E000E54
:1009EC008621016E00C0E9FF01C0EAFFEECF04F0E2
:1009FC00010E0024E96E000E0120EA6EEECF03F02A
:100A0C0003C001F0006A04500024026E000E0120A5
:100A1C00036E02C08DF403C08EF40E0E8725006E9B
:100A2C00000E8821016E020E0024E16E000E0120E2
:100A3C00E26E1F0E0214006E00C0E6FF0E0E87253C
:100A4C00006E000E8821016E010E0024E16E000E76
:100A5C000120E26E050E026E8DC400F08EC401F012
:100A6C00025005E001320032019EFF0FFAD70F0E43
:100A7C000014006E00C0E6FF0E0E8725E16E000E1E
:100A8C008821E26E090E026E8DC400F08EC401F056
:100A9C00025005E001320032019EFF0FFAD700C070
:100AAC00E6FF160E8525006E000E8621016E00C035
:100ABC00E9FF01C0EAFFEECF04F0010E0024E96E5D
:100ACC00000E0120EA6EEECF03F003C001F0006AC5
:100ADC0004500024036E000E0120046E03C08DF43C
:100AEC0004C08EF4140E8725006E000E8821016E52
:100AFC00030E0024E16E000E0120E26E0B0E026E5E
:100B0C0003C000F004C001F0025005E001320032D5
:100B1C00019EFF0FFAD700C0E6FF140E8725006E6A
:100B2C00000E8821016E040E0024E16E000E0120DF
:100B3C00E26E050E026E8DC400F08EC401F0025000
:100B4C0005E001320032019EFF0FFAD73F0E001470
:100B5C00006E00C0E6FF140E8725006E000E882183
:100B6C00016E050E0024E16E000E0120E26E1F0ED8
:100B7C008D15026E02C000F00036009000C0E6FF3A
:100B8C00180E8525006E000E8621016E00C0E9FF4F
:100B9C0001C0EAFFEECF04F0010E0024E96E000E56
:100BAC000120EA6EEECF03F003C001F0006A04509E
:100BBC000024026E000E0120036E02C08DF403C0EF
:100BCC008EF4140E8725006E000E8821016E020E25
:100BDC000024E16E000E0120E26E1F0E0214006E66
:100BEC0000C0E6FF140E8725006E000E8821016EF2
:100BFC00010E0024E16E000E0120E26E050E026E65
:100C0C008DC400F08EC401F0025005E001320032B8
:100C1C00019EFF0FFAD70F0E0014006E00C0E6FF06
:100C2C00140E8725E16E000E8821E26E090E026E0D
:100C3C008DC400F08EC401F0025005E00132003288
:0C0C4C00019EFF0FFAD700C0E6FF120067
:100C5800086A096A100E0C6E013408360936045009
:100C6800085E0550D8A0053C095ED8B007D00450EE
:100C780008260550D8B0053C0926D890003601361C
:060C88000C2EEAD7120059
:100C8E00870E0401926F040E936F85C494F486C48C
:100C9E0095F4870E966F040E976F200E986F0B0EBD
:100CAE00996F000E9A6F4AEC02F085C4E9FF86C474
:100CBE00EAFFEE520DE085C4E9FF86C4EAFFEECFEF
:100CCE0096F4D0EC00F0005203E0854B862BEDD766
:100CDE0085C496F486C497F4750E986F000E996FBE
:100CEE00A4EC00F0000E011802E1000E001806E15F
:100CFE002E0E0401876F2E0E886F60D0040185C4FE
:100D0E0096F486C497F4780E986F000E996FA4EC43
:100D1E0000F0000E011802E1000E001804E12E0E84
:100D2E000401876F4BD085C4E9FF86C4EAFFEE52FB
:100D3E0020E085C4E9FF86C4EAFFEECF96F4D0EC3E
:100D4E0000F0005216E185C4E9FF86C4EAFFEE50BA
:100D5E002E0A0FE085C4E9FF86C4EAFF92C4E1FFC4
:100D6E0093C4E2FFEECFE6FF924B932B854B862B7F
:100D7E00DAD785C4E9FF86C4EAFFEE502E0A03E1F6
:100D8E000401854B862B04018F0E926F040E936F18
:100D9E0085C4E9FF86C4EAFFEE5020080FE285C441
:100DAE00E9FF86C4EAFF92C4E1FF93C4E2FFEECFEF
:100DBE00E6FF924B932B854B862BEAD794C496F481
:100DCE0095C497F4870E986F040E996F0B0E9A6F59
:0A0DDE00000E9B6F75EC01F012008F
:100DE80089C401F08AC402F0010E0401895F000E73
:100DF8008A5B000E021802E1000E011825E085C486
:100E0800E9FF86C4EAFFEECF01F087C4D9FF88C4A2
:100E1800DAFF0150DE1813E085C4E9FF86C4EAFF53
:100E2800EECF01F087C4E9FF88C4EAFFEECF00F0F7
:100E38000050015C006E016A000E015A07D0854B14
:0E0E4800862B874B882BCCD7006A016A1200DC
:100E5600A2EC00F0000E000A02E1040E151809E1EA
:100E660085C48DF486C48EF487C48FF488C490F448
:100E760014D0090E006E85C48DF486C48EF487C422
:100E86008FF488C490F4005008E004018D378D91EA
:100E96008E378F379037FF0FF7D70401180EA46FE0
:100EA6008DC4A5F48EC4A6F48FC4A7F490C4A8F488
:100EB600FF0EA96F39EC00F0005205E02CEC00F0B3
:100EC600010E006E95D0E8C0E1FFE9C0E2FFFF0E1B
:100ED600E66EE6C000F0E7C001F020EC00F0E8C0E6
:100EE600E1FFE9C0E2FFFF0EE66EE6C000F0E7C0F4
:100EF60001F020EC00F0E8C0E1FFE9C0E2FFFE0EE1
:100F0600E66EE6C000F0E7C001F020EC00F0040158
:100F16008B6B8C6B8C51010802E18B51FF0816E339
:100F26008B518925E96E8C518A21EA6EE8C0E1FF72
:100F3600E9C0E2FFEECFE6FFE6C000F0E7C001F051
:100F460020EC00F004018B4B8C2BE4D7E8C0E1FFCA
:100F5600E9C0E2FFFF0EE66EE6C000F0E7C001F072
:100F660020EC00F0E8C0E1FFE9C0E2FFFF0EE66E0C
:100F7600E6C000F0E7C001F020EC00F0E8C0E1FFB9
:100F8600E9C0E2FFFF0EE66EE6C000F0E7C001F042
:100F960020EC00F000C08BF4000E04018C6F1F0ED5
:100FA6008B15016E8CC402F0000E021601C08BF484
:100FB60002C08CF4000E021802E1050E011805E0CD
:100FC6002CEC00F0020E006E13D0E8C0E1FFE9C081
:100FD600E2FFFF0EE66EE6C000F0E7C001F020EC8F
:100FE60000F00050FF0A01E0F0D72CEC00F0006A98
:020FF6001200E7
:100FF8000B6A0A6A096A00500402F4CF09F0F3CFB9
:1010080008F001500502F4CF0BF0F3CF0AF00050BE
:101018000502F3500926F4500A22E86A0B2201500F
:101028000402F3500926F4500A22E86A0B2208C089
:1010380000F009C001F00AC002F00BC003F0120072
:1010480085C487F486C488F4000E0401896F8A6F0A
:1010580087C400F088C401F089C402F08AC403F090
:101068000036009001360236033600C087F401C00E
:1010780088F402C089F403C08AF4EFC004F0F0C019
:1010880005F0000E066E076E68EC02F000C087F4EB
:1010980001C088F402C089F403C08AF40001FA513F
:1010A8000026FB510122FC510222FD51032200C0FF
:1010B80087F401C088F402C089F403C08AF400C030
:1010C80096F401C097F402C098F403C099F41F0E77
:1010D80004019A6F010E9B6FC6EC01F0005208E004
:1010E800100E0001EE6FFF0E006EFF0E016E42D073
:1010F80085C487F486C488F4000E0401896F8A6F5A
:1011080087C400F088C401F089C402F08AC403F0DF
:101118000036009001360236033600C087F401C05D
:1011280088F402C089F403C08AF4EFC004F0F0C068
:1011380005F0000E066E076E68EC02F008C000F0BD
:1011480009C001F00AC002F00BC003F000C087F428
:1011580001C088F402C089F403C08AF41F0E002479
:10116800966F010E0120976F9DEC01F000C085F489
:0611780001C086F4120024
:10117E000401816B826B836B846B7751781103E171
:10118E00FF0E006EF8D077C485F478C486F478DD4F
:10119E0003012651010101190EE10301255101013F
:1011AE00001909E1030124510001FF1904E10301B3
:1011BE0023510001FE1905E1F6C07FF4F7C080F45B
:1011CE0017D0EFC000F0F0C001F0F1C004F0F2C093
:1011DE0005F00BDF050E026E00C07FF401C080F437
:1011EE00025006E0040180337F33809FFF0FF9D752
:1011FE0004017D6B7E6B80517E5D02E17F517D5DD2
:10120E00D8B0B4D0050E026E7DC400F07EC401F0DD
:10121E00025005E0003600900136FF0FFAD7EFC0FE
:10122E0004F0F0C005F011DD08C000F009C001F0B7
:10123E00005001103DE1050E026E7DC400F07EC42B
:10124E0001F0025005E0003600900136FF0FFAD78C
:10125E00EFC004F0F0C005F0F8DC000E026E036E75
:10126E000301235100262451012225510222265129
:10127E00032200C081F401C082F402C083F403C0D3
:10128E0084F400C096F401C097F402C098F403C031
:10129E0099F41F0E04019A6F010E9B6FC6EC01F0BC
:1012AE00005206E0100E0001EE6FFF0E006E63D0CE
:1012BE00050E026E7DC400F07EC401F0025005E002
:1012CE00003600900136FF0FFAD7EFC004F0F0C0E1
:1012DE0005F0BBDC08C000F009C001F01F0E0026AF
:1012EE00010E012200C07BF401C07CF400C085F425
:1012FE0001C086F477C487F478C488F40B0E040119
:10130E00896F000E8A6F69DD000E011802E1000E72
:10131E00001828E1040179517A1122E07BC485F48A
:10132E007CC486F479C487F47AC488F4DEEC03F0C6
:10133E00200E7925E16E000E7A21E26E81C4E6FF61
:10134E0082C4E6FF83C4E6FF84C4E6FF240E79253B
:10135E00E16E000E7A21E26E7DC4E6FF7EC4E6FFEA
:10136E00006A09D004017D4B7E2B45D70D0E00017E
:08137E00EE6FFF0E006E12007D
:1013860077C47FF478C480F4000E0401816F826F05
:101396007FC400F080C401F081C402F082C403F06F
:1013A6000036009001360236033600C07FF401C0D5
:1013B60080F402C081F403C082F4EFC004F0F0C0F0
:1013C60005F0000E066E076E68EC02F000C07FF4B2
:1013D60001C080F402C081F403C082F40001FA5116
:1013E6000026FB510122FC510222FD51032200C0BE
:1013F6007FF401C080F402C081F403C082F400C00F
:1014060096F401C097F402C098F403C099F41F0E35
:1014160004019A6F010E9B6FC6EC01F0005208E0C2
:10142600100E0001EE6FFF0E006EFF0E016E93D0E0
:1014360077C47DF478C47EF477C400F078C401F0F4
:1014460000360090013600C07DF401C07EF4EFC086
:1014560004F0F0C005F02CEC06F008C000F009C05E
:1014660001F000C07DF401C07EF41F0E0024E16E81
:10147600010E0120E26EFF0E04017915006E00C018
:10148600E6FF010E7D25006E000E7E21016E1F0E09
:101496000024E16E010E0120E26E7AC400F0016ABA
:1014A60000C0E6FF7FC485F480C486F481C487F457
:1014B60082C488F41F0E896F010E8A6FC9DC005240
:1014C60008E0050E0001EE6FFF0E006EFF0E016EC6
:1014D60042D0010E04017B6F000E7C6F000E7C5D16
:1014E60004E10001F55104017B5D33E20001F8518E
:1014F60004017F25006E0001F95104018021016E6F
:10150600000E8121026E000E8221036E00C07FF460
:1015160001C080F402C081F403C082F400C085F4E7
:1015260001C086F402C087F403C088F41F0E896FD9
:10153600010E8A6F8DDC005208E0050E0001EE6F89
:10154600FF0E006EFF0E016E06D004017B4B7C2B56
:08155600C5D7006A016A12000A
:10155E00220E0C6E086A096A0A6A0B6A0C06D8B467
:10156E001FD0D8900B320A320932083203320232BF
:10157E0001320032D8A0F2D70C06D8B409D00450EC
:10158E0008260550092206500A2207500B22EAD7D8
:10159E00045008260550092206500A2207500B2235
:0215AE00120029
:1015B000EFC000F0F0C001F001320032019EF8C02F
:1015C00004F0F9C005F018DD00C077F401C078F42C
:1015D000020E0401796F000E7A6F78517A5D02E194
:1015E0007751795D14E279C485F47AC486F42CDDF0
:1015F000000E011802E1000E001805E179C400F0A8
:101600007AC401F008D00401794B7A2BE6D7FF0E9B
:08161000006EFF0E016E1200D6
:04161800006A120052
:10161C0003018751010101190EE1030186510101FA
:10162C00001909E1030185510001FF1904E10301CF
:10163C0084510001FE1905E1F6C053F4F7C054F4CF
:10164C0016D0050E026EEFC000F0F0C001F0025093
:10165C0005E001320032019EFF0FFAD7F1C004F011
:10166C00F2C005F0C3DC00C053F401C054F4030114
:10167C0089510401541903E153510301881902E102
:10168C00006A83D0040154510301895D04E1040113
:10169C0053510301885DD8B077D0050E006EEFC0B2
:1016AC0004F0F0C005F0005005E005320432059E50
:1016BC00FF0FFAD788C300F089C301F02CEC06F0B9
:1016CC00005084250401966F01500301852104010B
:1016DC00976F000E030186210401986F000E030121
:1016EC0087210401996F1F0E9A6F010E9B6FC6EC38
:1016FC0001F0005206E0100E0001EE6FFF0E006EBE
:10170C0044D0050E026E88C300F089C301F002506C
:10171C0005E0003600900136FF0FFAD7EFC004F059
:10172C00F0C005F02CEC06F008C000F009C001F088
:10173C001F0E0024026E010E0120036E02C051F434
:10174C0003C052F40301884B892B02C0E9FF03C08C
:10175C00EAFFEE50E50A01E195D751C4E9FF52C406
:10176C00EAFFEECF01F00150200801E38BD751C402
:10177C0085F452C486F44FC487F450C488F4DEEC6C
:0C178C0003F0010E006E01D0006A120094
:10179800220E006E000E016E4FC404F0000E04010C
:1017A8004FBFFF0E056E24DC400E0026030E0122FB
:1017B80000C054F401C055F41A0E0024E96E000E5E
:1017C8000120EA6EEECF00F0EECF01F000500110DC
:1017D80006E1070E0001EE6FFF0E006E09D21A0E29
:1017E80004015425E96E000E5521EA6EEECF02F091
:1017F800EECF03F002A2FBD1566B576B586B596BB7
:10180800080E5425E96E000E5521EA6EEECF00F061
:10181800EECF01F0000E026E036E020E005E000EA7
:10182800015A025A035AF1C004F0F2C005F0000E42
:10183800066E076E90DE0050010102250401566F06
:101848000150010103210401576F025001010421D5
:101858000401586F0350010105210401596F0E0E50
:101868005425E96E000E5521EA6EEECF5AF4EECFFC
:101878005BF4EECF5CF4EECF5DF4F1C000F0F2C0A3
:1018880001F0EFC004F0F0C005F0FCEC07F000C078
:1018980004F001C005F0000E066E076E5AC400F091
:1018A8005BC401F05CC402F05DC403F068EC02F0B4
:1018B80008C000F009C001F00AC002F00BC003F034
:1018C800EFC004F0F0C005F0000E066E076E68EC7D
:1018D80002F0005056270150572302505823035056
:1018E800592356C496F457C497F458C498F459C465
:1018F80099F41F0E9A6F010E9B6FC6EC01F000520F
:1019080006E0100E0001EE6FFF0E006E71D1200E82
:1019180004015425E96E000E5521EA6EEECF52F40B
:10192800EECF53F41E0E5425D96E000E5521DA6EF3
:10193800DECF01F0DECF02F00250535D02E101502C
:10194800525D5EE20E0E5425E96E000E5521EA6ED8
:10195800EECF00F0EECF01F0EECF02F0EECF03F0C5
:10196800EFC004F0F0C005F0000E066E076E68ECDC
:1019780002F008C000F009C001F00AC002F00BC074
:1019880003F01F0E0024E16E010E0120E26E1C0E12
:101998005425E96E000E5521EA6EEECF00F0EECF29
:1019A80001F052510024E96E53510120EA6EEECF46
:1019B800E6FF0E0E5425046E000E5521056E04C078
:1019C800E9FF05C0EAFFEECF00F0EECF01F0EECF61
:1019D80002F0EECF03F0010E0026000E01220222D3
:1019E800032204C0E1FF05C0E2FF00C0E6FF01C01A
:1019F800E6FF02C0E6FF03C0E6FF524B532B92D727
:101A08001E0E54255A6F000E55215B6F5AC4E9FF0C
:101A18005BC4EAFFEECF00F0EECF01F02EC304F076
:101A28002FC305F02CEC06F008C000F009C001F047
:101A38005AC4E1FF5BC4E2FF00C0E6FF01C0E6FF55
:101A4800200E5425E16E000E5521E26E1E0E54251F
:101A5800E96E000E5521EA6EEECFE6FFEECFE6FF07
:101A680056C485F457C486F458C487F459C488F416
:101A78001F0E896F010E8A6F2BEC07F0005206E0EB
:101A8800050E0001EE6FFF0E006EB2D00E0E0401BF
:101A98005425E96E000E5521EA6EEE50EE10EE1058
:101AA800EE10D8B4A2D00E0E5425E96E000E5521C2
:101AB800EA6EEECF5AF4EECF5BF4EECF5CF4EECFE5
:101AC8005DF4F1C000F0F2C001F0EFC004F0F0C026
:101AD80005F0FCEC07F000C004F001C005F0000EB2
:101AE800066E076E5AC400F05BC401F05CC402F0D5
:101AF8005DC403F068EC02F008C000F009C001F012
:101B08000AC002F00BC003F0000E046E031808E1CF
:101B18000450021805E10450011802E10050000ABF
:101B280064E10401080E5425E96E000E5521EA6EA1
:101B3800EECF85F4EECF86F424EC08F000C050F424
:101B480001C051F40150FF0A02E1FF0E001842E102
:101B58002BDD00C050F401C051F40150FF0A02E12E
:101B6800FF0E00181BE10E0E04015425E16E000E55
:101B78005521E26E0A0E5425E96E000E5521EA6ED3
:101B8800EECFE6FFEECFE6FFEECFE6FFEECFE6FFC5
:101B98000A0E0001EE6FFF0E006E2AD0080E040137
:101BA8005425E96E000E5521EA6EEECF77F4EECF9C
:101BB80078F450C479F451C47AF4C3EC09F050C4F1
:101BC80077F451C478F4FF0E0401796FFF0E7A6F31
:101BD800C3EC09F0080E04015425E16E000E5521EE
:101BE800E26E50C4E6FF51C4E6FF006A01D0006A05
:021BF8001200D9
:0E1BFA00ACB202D00000FCD74FC4ADFF120009
:101C0800F8C000F0F9C001F0EFC004F0F0C005F032
:101C1800FCEC07F000C05BF401C05CF404015C3329
:101C28005B335C9F53C4E1FF54C4E2FFE66AE66A93
:101C3800040153C4E9FF54C4EAFFEECF01F0EECF2C
:101C480002F05C51025C02E15B51015C24E253C486
:101C5800E9FF54C4EAFFEECF85F4EECF86F424EC16
:101C680008F0000E011802E1000E001801E113D07F
:101C780053C4E9FF54C4EAFFEECF00F0EECF01F001
:101C8800004A012A53C4E1FF54C4E2FF00C0E6FF42
:101C980001C0E6FFCDD753C4E9FF54C4EAFFEECF35
:101CA80001F0EECF02F0025004015C1902E15B5131
:101CB800011806E1040E0001EE6FFF0E006ED6D18A
:101CC80053C4E9FF54C4EAFFEECF77F4EECF78F4BB
:101CD800FF0E0401796FFF0E7A6FC3EC09F053C44D
:101CE800E9FF54C4EAFFEECF00F0EECF01F0000E9A
:101CF800026E036E020E005E000E015A025A035A6B
:101D0800F1C004F0F2C005F0000E066E076E23DC89
:101D180051C4E1FF52C4E2FF005001010225E66E02
:101D280001500321E66E02500421E66E035005219E
:101D3800E66E1F0E0401966F010E976F986B000EEA
:101D4800996F020E9A6F4AEC02F05B6B5C6B0001B4
:101D5800F25104015C5D04E10001F15104015B5D95
:101D68002AE251C4E9FF52C4EAFFEECF00F0EECFF9
:101D780001F0EECF02F0EECF03F05B510024856F47
:101D88005C510120866F000E0220876F000E032031
:101D9800886F1F0E896F010E8A6F2BEC07F00052B7
:101DA80006E0050E0001EE6FFF0E006E5FD1040124
:101DB8005B4B5C2BCCD703012651010101190EE1C5
:101DC800030125510101001909E103012451000112
:101DD800FF1904E1030123510001FE1905E1F6C0D2
:101DE8005DF4F7C05EF418D0EFC000F0F0C001F069
:101DF800F1C004F0F2C005F0FCEC07F0050E026E2D
:101E080000C05DF401C05EF4025006E004015E33D8
:101E18005D335E9FFF0FF9D704015B6B5C6B5E510E
:101E28005C5D02E15D515B5DD8B01BD1050E026EB1
:101E38005BC400F05CC401F0025005E0003600907D
:101E48000136FF0FFAD7EFC004F0F0C005F02CEC14
:101E580006F0000E026E036E030123510026245182
:101E68000122255102222651032200C057F401C045
:101E780058F402C059F403C05AF400C096F401C0E3
:101E880097F402C098F403C099F41F0E04019A6FE6
:101E9800010E9B6FC6EC01F0005206E0100E000127
:101EA800EE6FFF0E006EE2D0050E026E5BC400F00E
:101EB8005CC401F0025005E0003600900136FF0FC7
:101EC800FAD7EFC004F0F0C005F02CEC06F008C01B
:101ED80000F009C001F01F0E0024026E010E01205F
:101EE800036E02C055F403C056F402C0E9FF03C0F4
:101EF800EAFFEE50E50A0AE055C4E9FF56C4EAFFD6
:101F0800EECF01F0200E015C01E3A7D055C496F492
:101F180056C497F44FC498F450C499F4200E0401A1
:101F28009A6F000E9B6F75EC01F01A0E5525E16E45
:101F3800000E5621E26E53C4E9FF54C4EAFFFF0EB7
:101F4800EE14006E00C0E6FF1A0E5525006E000E56
:101F58005621016E010E0024E16E000E0120E26E92
:101F680053C4E9FF54C4EAFFEECF03F0EECF04F008
:101F780004C000F0016A00C0E6FF0E0E5525E16EB0
:101F8800000E5621E26EA6C3E6FF0E0E5525006E22
:101F9800000E5621016E010E0024E16E000E012094
:101FA800E26EA7C3E6FF100E5525E16E000E56211E
:101FB800E26EA4C3E6FF100E5525006E000E5621F2
:101FC800016E010E0024E16E000E0120E26EA5C331
:101FD800E6FF160E5525E16E000E5621E26EA6C3E9
:101FE800E6FF160E5525006E000E5621016E010EF5
:101FF8000024E16E000E0120E26EA7C3E6FF180E72
:102008005525E16E000E5621E26EA4C3E6FF180EB8
:102018005525006E000E5621016E010E0024E16E5A
:10202800000E0120E26EA5C3E6FF57C485F458C42C
:1020380086F459C487F45AC488F41F0E896F010EB8
:102048008A6F2BEC07F0005206E0050E0001EE6FD8
:10205800FF0E006E0BD0006A09D004015B4B5C2BAD
:0E206800DED6060E0001EE6FFF0E006E1200B7
:102076000134083609360450085E0550D8A0053CE0
:10208600095E003601360F0E0C6E0134083609362D
:10209600045000A006D0085E0550D8A0053C095E95
:1020A60005D008260550D8B0053C0926003601366D
:1020B6000C2EEBD700B006D0045008260550D8B039
:0820C600053C09260000120090
:1020CE0004014F517A0804E3610E4F5DD8B04F9B67
:0620DE004FC400F01200E7
:1020E4004FC402F050C403F002C000F003C001F07A
:1020F400024A032A00C0E9FF01C0EAFFEE5201E0F0
:10210400F3D704014F51025C006E50510358016E25
:0A211400010E005E000E015A1200D9
:10211E000301886B896B4FC4E9FF50C4EAFFEE528E
:10212E0046E04FC477F450C478F4510E0401796F31
:10213E00040E7A6FBFEC08F0800E0018016E800E50
:10214E00000A015C03E2FF0E006E3BD004015EB993
:10215E0006D0010E0001EE6FFF0E006E32D0020EA1
:10216E0004016F5D006E000E7059016E000E026E5E
:10217E00036EF1C004F0F2C005F0000E066E076E9D
:10218E00AFEC0AF00050010102250301846F0150EB
:10219E00010103210301856F025001010421030196
:1021AE00866F0350010105210301876F08D023C3F9
:1021BE0084F324C385F325C386F326C387F3010E68
:0421CE00006E12008D
:1021D2000301EF6BECC3E9FFEDC3EAFFEECFEEF3D1
:1021E200EE51000A0EE0EEC34FF406DD0301EF2BC1
:1021F200EF51EC25E96E000EED21EA6EEECFEEF323
:04220200EFD7120000
:10220600EFC000F0F0C001F001320032019EF8C0CC
:1022160004F0F9C005F0FCEC07F000C0F0F301C0D3
:10222600F1F3020E005C026E000E0158036E03010C
:10223600ED51035C02E1EC51025C03E2006A016AC3
:1022460051D0020EF26F000EF36FF151F35D02E111
:10225600F051F25D45E2F2C385F4F3C386F424EC53
:1022660008F0000E011802E10050000A01E034D027
:10227600F2C3EEF3F3C3EFF30301F251EC25016E63
:10228600F351ED21026E0250EF5D02E10150EE5D69
:1022960011E2EEC385F4EFC386F424EC08F0000ED9
:1022A600011802E10050000A01E004D00301EE4BE0
:1022B600EF2BE2D70301F251EC25016EF351ED212C
:1022C600026E0250EF1902E1EE51011805E1F2C368
:1022D60000F0F3C301F006D00301F24BF32BB5D7A0
:0622E600006A016A12000B
:1022EC003C0E0401966F040E976FECC398F4EDC38B
:1022FC0099F40D0E9A6F000E9B6F75EC01F0ECC308
:10230C0077F4EDC378F4160E796F040E7A6FBFEC88
:10231C0008F0800E0018016E800E000A015C03E2CA
:10232C00FF0E006EA4D0040123A934D0496B4A6B74
:10233C003C0E4F6F040E506FECDE800E0018016ED9
:10234C00800E000A015C03E2FF0E006E90D0EE0ED0
:10235C0004014F6F030E506F0EEC0BF000520BE0AC
:10236C000401494B4A2B000E4A1902E1030E49198C
:10237C0001E101D0ECD704010CEC0BF0000E4A5D2E
:10238C0002E1030E495D06E30C0E0001EE6FFF0E39
:10239C00006E6DD004013551FF0A02E1FF0E3419B5
:1023AC0018E034C485F435C486F424EC08F000C07D
:1023BC0014F401C015F434C477F435C478F4040172
:1023CC00796B7A6BC3EC09F014C434F415C435F48E
:1023DC00E1D736C496F437C497F438C498F439C4AA
:1023EC0099F41F0E04019A6F010E9B6FC6EC01F05D
:1023FC00005206E0100E0001EE6FFF0E006E37D09B
:10240C00050E026E3AC400F03BC401F0025005E028
:10241C00003600900136FF0FFAD7EFC004F0F0C081
:10242C0005F02CEC06F008C000F009C001F01F0EFE
:10243C000024E16E010E0120E26EE50EE66E36C45C
:10244C0085F437C486F438C487F439C488F41F0E75
:10245C000401896F010E8A6F2BEC07F0005206E025
:10246C00050E0001EE6FFF0E006E01D0006A120027
:10247C000301F06B0D0EF05D18E2F051EC25F16FDD
:10248C00000EED21F26FF051EE25E96E000EEF21FA
:10249C00EA6EEECF4FF415DEF1C3E1FFF2C3E2FFBB
:0C24AC0000C0E6FF0301F02BE5D7120092
:1024B800220E006E000E016EECC304F0000E030144
:1024C800ECBFFF0E056EFCEC07F0400E0026030E75
:1024D800012200C0EFF301C0F0F31A0E0024E96EE8
:1024E800000E0120EA6E010EEE14016EEECF02F02E
:1024F800000E0216000E021802E1000E011808E193
:10250800070E0001EE6FFF0E006EFF0E016E91D1F7
:102518000E0E0301EF25E96E000EF021EA6EEECFF4
:1025280005F0EECF06F0EECF07F0EECF08F00A0E7A
:10253800EF25D96E000EF021DA6EDECF01F0DECF86
:1025480002F0DECF03F0DECF04F00450085C08E1AF
:102558000350075C05E10250065C02E10150055C8E
:10256800D8B060D10301120EEF25E96E000EF021FC
:10257800EA6EEECF01F0EECF02F00250020A02E15D
:10258800000E0118D8A4DCD0120EEF25E16E000E63
:10259800F021E26EE66AE66A180EEF25026E000E7A
:1025A800F021036E02C0E9FF03C0EAFFEECF00F09E
:1025B800EECF01F0004A012A02C0E1FF03C0E2FFAA
:1025C80000C0E6FF01C0E6FF180EEF25E96E000E19
:1025D800F021EA6EEECF01F0EECF02F002500001DA
:1025E800F21902E1F1510118D8A485D0180E03019F
:1025F800EF25E16E000EF021E26EE66AE66A080E4B
:10260800EF25F16F000EF021F26FF1C3E9FFF2C37D
:10261800EAFFEECF85F4EECF86F424EC08F0F1C3A0
:10262800E1FFF2C3E2FF00C0E6FF01C0E6FFF1C32D
:10263800E9FFF2C3EAFFEECF01F0EECF02F002505D
:10264800FF0A02E1FF0E01181DE10E0E0301EF253E
:10265800E16E000EF021E26E0A0EEF25E96E000E23
:10266800F021EA6EEECFE6FFEECFE6FFEECFE6FF13
:10267800EECFE6FF0A0E0001EE6FFF0E006EFF0EB2
:10268800016ED7D0140E0301EF25F16F000EF02173
:10269800F26F080EEF25E96E000EF021EA6EEECF1C
:1026A80000F0EECF01F0000E026E036E020E005E27
:1026B800000E015A025A035AF1C004F0F2C005F0A4
:1026C800000E066E076EAFEC0AF0010102510026FB
:1026D800035101220451022205510322F1C3E1FFF3
:1026E800F2C3E2FF00C0E6FF01C0E6FF02C0E6FF5A
:1026F80003C0E6FF25D0140E0301EF25046E000E7B
:10270800F021056E04C0E9FF05C0EAFFEECF00F036
:10271800EECF01F0EECF02F0EECF03F0010E00266F
:10272800000E01220222032204C0E1FF05C0E2FFDD
:1027380000C0E6FF01C0E6FF02C0E6FF03C0E6FFF7
:102748000301140EEF25E96E000EF021EA6EEECFBC
:1027580096F4EECF97F4EECF98F4EECF99F41F0EDF
:1027680004019A6F010E9B6FC6EC01F0005208E05D
:10277800100E0001EE6FFF0E006EFF0E016E59D0B5
:10278800120E0301EF25026E000EF021036E02C047
:10279800D9FF03C0DAFF1F0EDE24E96E010EDE202A
:1027A800EA6EEECFEDF3000EEE6F000EEE6F02C094
:1027B800E9FF03C0EAFFEECF00F0EECF01F0004AD8
:1027C800012A02C0E1FF03C0E2FF00C0E6FF01C02A
:1027D800E6FF0E0EEF25046E000EF021056E04C014
:1027E800E9FF05C0EAFFEECF00F0EECF01F0EECF33
:1027F80002F0EECF03F0010E0026000E01220222A5
:10280800032204C0E1FF05C0E2FF00C0E6FF01C0EB
:10281800E6FF02C0E6FF03C0E6FFEDC300F0EEC32B
:1028280001F007D00B0E0001EE6FFF0E006EFF0ED9
:04283800016E12001B
:10283C000301F26BF36B000EF35D02E10A0EF25D25
:10284C000BE2F251F025E16EF351F121E26E200E14
:10285C00E66EF24BF32BEFD7F251F025E16EF3510C
:10286C00F121E26EE66A010EF25F000EF35BF251AB
:10287C00F025F46FF351F121F56F0A0E046E000E82
:10288C00056E066E076EECC300F0EDC301F0EEC3EF
:10289C0002F0EFC303F068EC02F008C000F009C0CE
:1028AC0001F00AC002F00BC003F0300E0026F4C396
:1028BC00E1FFF5C3E2FF00C0E6FF0A0E046E000E56
:1028CC00056E066E076EECC300F0EDC301F0EEC3AF
:1028DC0002F0EFC303F068EC02F000C0ECF301C0AF
:1028EC00EDF302C0EEF303C0EFF3000E046E031819
:1028FC0008E10450021805E10450011802E10050EF
:10290C00000A01E105D0010EF25F000EF35BAFD7B8
:02291C001200A7
:10291E00400E0401966F040E976FECC398F4EDC34E
:10292E0099F40D0E9A6F000E9B6F75EC01F0ECC3CF
:10293E0077F4EDC378F41A0E796F040E7A6FBFEC4C
:10294E0008F0800E0018016E800E000A015C5AE23B
:10295E00060E0301EE15006E4FE0F00E0401966FA9
:10296E00030E976F986B200E996F000E9A6F4AECBC
:10297E0002F02F0E0301EF15006E00C0FBF3F00EF8
:10298E000401966F030E976FECC398F4EDC399F4A0
:10299E000B0E9A6F000E9B6F75EC01F0F00E4F6FE1
:1029AE00030E506F120E516F040E526F100E536FB6
:1029BE00040E546F04EC0EF0800E0018016E800EA3
:1029CE00000A015C03E2FF0E006E60D1400E0401AE
:1029DE00776F040E786F1A0E796F040E7A6FBFEC54
:1029EE0008F0800E0018016E800E000A015C03E2F2
:1029FE00FF0E006E4BD106D00D0E0001EE6FFF0ED6
:102A0E00006E44D1580E04012715006E06E0080E24
:102A1E000001EE6FFF0E006E39D10401166B176BBD
:102A2E00000E175D02E1020E165D49E2220E006EE7
:102A3E00000E016E16C404F017C405F0FCEC07F08E
:102A4E00400E0026030E012200C018F401C019F436
:102A5E001A0E0024E96E000E0120EA6EEE50EE1002
:102A6E002BE0060E1825D96E000E1921DA6EDECF78
:102A7E0001F0DECF02F03951021802E1015038198F
:102A8E001BE11A0E1825E16E000E1921E26EEEC33F
:102A9E00E6FF000EE66E0A0E1825E16E000E1921F5
:102AAE00E26E34C4E6FF35C4E6FF36C4E6FF37C433
:102ABE00E6FF16C400F0EAD0164B172BB1D7166BF3
:102ACE00176B000E175D02E1020E165DD8B0D9D05D
:102ADE00220E006E000E016E16C404F017C405F02F
:102AEE00FCEC07F0400E0026030E01221A0E002405
:102AFE00E96E000E0120EA6EEECF01F0EECF02F08D
:102B0E00000E021802E1000E0118D8A4B6D0220E53
:102B1E00006E000E016E16C404F017C405F0FCEC36
:102B2E0007F0400E0026030E012200C018F401C06B
:102B3E0019F400C096F401C097F4986B220E996FA9
:102B4E00000E9A6F4AEC02F0060E1825026E000E69
:102B5E001921036E080E1825006E000E1921016E44
:102B6E0000C0E1FF01C0E2FF38C4E6FF39C4E6FF52
:102B7E0000C0E9FF01C0EAFFEECF00F0EECF01F09A
:102B8E0002C0E1FF03C0E2FF00C0E6FF01C0E6FFA6
:102B9E001A0E1825E16E000E1921E26EEEC3E6FF45
:102BAE00000EE66E18C4E1FF19C4E2FF3AC4E6FF58
:102BBE003BC4E6FF3CC4E6FF3DC4E6FF040E182509
:102BCE00E16E000E1921E26E050E026E3EC400F09B
:102BDE003FC401F0025005E0003600900136FF0FB1
:102BEE00FAD700C0E6FF01C0E6FF0A0E1825E16E17
:102BFE00000E1921E26E34C4E6FF35C4E6FF36C47A
:102C0E00E6FF37C4E6FF140E18254D6F000E19218E
:102C1E004E6F080E1825E96E000E1921EA6EEECFE2
:102C2E0000F0EECF01F0000E026E036E020E005E9B
:102C3E00000E015A025A035AF1C004F0F2C005F018
:102C4E00000E066E076EAFEC0AF00101025100266F
:102C5E000351012204510222055103224DC4E1FF0A
:102C6E004EC4E2FF00C0E6FF01C0E6FF02C0E6FF71
:102C7E0003C0E6FF16C400F009D00401164B172B53
:0E2C8E0020D7090E0001EE6FFF0E006E12003F
:102C9C00086A080E0C6E003408360450085ED8B072
:0E2CAC0002D00826D89000360C2EF5D7120064
:102CBA000450000A08E10550000A05E1FF0E006E03
:102CCA007F0E016E58D00D6A096A086A0150001019
:102CDA00D8B4000C015005180A6E0ABE0D1E0B6A04
:102CEA0005AE05D0041E051E042AD8B4052A01AE75
:102CFA0005D0001E011E002AD8B4012A0150051071
:102D0A000A6E0ABE10D03BEC10F00BB020D00DAE0C
:102D1A00000C001E011E002AD8B4012A081E091E32
:102D2A00082AD8B4092A000C05AE0DD001BE07D076
:102D3A000150096E0050086E016A006AE8D7016AFC
:102D4A00006A002A000C011E001E0B2ADDD7082A81
:102D5A00D8B4092A0450085CD8A4D9D70550095C0C
:102D6A00D8A4D5D7096A086A002AD8B4012A01AEBC
:082D7A00CED70000FF0C12008F
:102D8200220E006E000E016EECC304F0000E030171
:102D9200ECBFFF0E056EFCEC07F0400E0026030EA2
:102DA200012200C0F3F301C0F4F31A0E0024E96E0D
:102DB200000E0120EA6EEECF00F0EECF01F00050DF
:102DC200011008E1070E0001EE6F006A016A026A53
:102DD200036A79D10A0E0301F325D96E000EF4219C
:102DE200DA6EDECF01F0DECF02F0DECF03F0DECF0F
:102DF20004F0F051045C08E1EF51035C05E1EE518F
:102E0200025C02E1ED51015C15E20E0EF325E16E6A
:102E1200000EF421E26E0A0EF325E96E000EF42193
:102E2200EA6EEECFE6FFEECFE6FFEECFE6FFEECFA5
:102E3200E6FF0ED00E0EF325E16E000EF421E26ED7
:102E4200EDC3E6FFEEC3E6FFEFC3E6FFF0C3E6FF26
:102E52000E0EF325E96E000EF421EA6EEECF00F0BD
:102E6200EECF01F0EECF02F0EECF03F0F1C004F0AE
:102E7200F2C005F0000E066E076E68EC02F0EFC0BD
:102E820004F0F0C005F0000E066E076E68EC02F06A
:102E920000C0F1F301C0F2F3080EF325E16E000E5B
:102EA200F421E26E060EF325E96E000EF421EA6EBD
:102EB200EECFE6FFEECFE6FF000E006EF251005CB1
:102EC20002E1F151000849E2080EF325F56F000E08
:102ED200F421F66FF5C3E9FFF6C3EAFFEECF85F4FE
:102EE200EECF86F424EC08F0F5C3E1FFF6C3E2FF6F
:102EF20000C0E6FF01C0E6FFF5C3E9FFF6C3EAFF43
:102F0200EECF01F0EECF02F00250FF0A02E1FF0E17
:102F120001181DE10E0E0301F325E16E000EF421EE
:102F2200E26E0A0EF325E96E000EF421EA6EEECF90
:102F3200E6FFEECFE6FFEECFE6FFEECFE6FF0A0EAC
:102F42000001EE6F006A016A026A036ABCD0010ED8
:102F52000301F15F000EF25BAFD7180EF325F56F98
:102F6200000EF421F66F0E0EF325E96E000EF42129
:102F7200EA6EEECF00F0EECF01F0EECF02F0EECF30
:102F820003F0EFC004F0F0C005F0000E066E076E0D
:102F920068EC02F0F1C004F0F2C005F0000E066E1B
:102FA200076E68EC02F008C000F009C001F00AC028
:102FB20002F00BC003F0F5C3E1FFF6C3E2FF00C06D
:102FC200E6FF01C0E6FF140EF325F56F000EF421B3
:102FD200F66F080EF325E96E000EF421EA6EEECFCD
:102FE20000F0EECF01F0000E026E036E020E005EE4
:102FF200000E015A025A035AF1C004F0F2C005F061
:10300200000E066E076EAFEC0AF0010102510026B7
:10301200035101220451022205510322180E030119
:10302200F325D96E000EF421DA6EDE500026DE5052
:103032000122000E02220322F5C3E1FFF6C3E2FFE2
:1030420000C0E6FF01C0E6FF02C0E6FF03C0E6FFE4
:10305200120EF325F56F000EF421F66F0E0EF32516
:10306200E96E000EF421EA6EEECF00F0EECF01F031
:10307200EECF02F0EECF03F0EFC004F0F0C005F0A7
:10308200000E066E076E68EC02F008C000F009C080
:1030920001F00AC002F00BC003F0F5C3E1FFF6C372
:1030A200E2FF00C0E6FF01C0E6FF0E0EF325E96E67
:1030B200000EF421EA6EEECF00F0EECF01F0EECF7B
:0830C20002F0EECF03F0120052
:1030CA00220E006E000E016EECC304F0000E030126
:1030DA00ECBFFF0E056EFCEC07F0400E0026030E57
:1030EA00012200C0EEF301C0EFF31A0E0024E96ECC
:1030FA00000E0120EA6E020EEE14016EEECF02F00F
:10310A00000E0216000E021802E1000E011806E176
:10311A00070E0001EE6FFF0E006E71D01C0E030148
:10312A00EE25E16E000EEF21E26E27C3E6FF28C30B
:10313A00E6FF1E0EEE25026E000EEF21036E02C0A0
:10314A00E9FF03C0EAFFEECF00F0EECF01F0004A3C
:10315A00012A02C0E1FF03C0E2FF00C0E6FF01C08E
:10316A00E6FF1E0EEE25E96E000EEF21EA6EEECFA7
:10317A0001F0EECF02F002502F1902E12E51011890
:10318A0037E00E0EEE25E96E000EEF21EA6E1E0EF6
:10319A00EE25D96E000EEF21DA6EDE50EE24006EB7
:1031AA00DE50EE20016E000EEE20026E000EEE20C2
:1031BA00036EEFC004F0F0C005F0000E066E076E55
:1031CA0068EC02F008C000F009C001F00AC002F081
:1031DA000BC003F0000E046E031808E10450021835
:1031EA0005E10450011802E10050000A01E005D08F
:1031FA00ECC34FF4CCEC0BF002D0010E006E1200BF
:10320A000301ED6BEE6B270EEE5D02E1100EED5D34
:10321A00D8B0AED0000E000A02E1000EEC1919E196
:10322A00A2EC00F0010E0401A46FA56BA66BA76BBC
:10323A00A86BFF0EA96F39EC00F000C0EFF32CEC7D
:10324A0000F00301EF51000A03E1156A006A92D007
:10325A008CD0A2EC00F0370E0401A46FA56BA66B0C
:10326A00A76BA86BFF0EA96F39EC00F000C0EFF353
:10327A002CEC00F00301EF51010AD8A475D0A2EC9E
:10328A0000F0290E0401A46F000EA56F000EA66FB0
:10329A00000EA76F400EA86FFF0EA96F39EC00F061
:1032AA0000C0EFF32CEC00F00301EF51000A5BE1E0
:1032BA00000E000A02E1020EEC1951E1A2EC00F044
:1032CA003A0E0401A46FA56BA66BA76BA86BFF0E41
:1032DA00A96F39EC00F000C0EFF3E8C0E1FFE9C0E4
:1032EA00E2FFFF0EE66EE6C000F0E7C001F020EC58
:1032FA0000F000C0F0F3E8C0E1FFE9C0E2FFFF0E12
:10330A00E66EE6C000F0E7C001F020EC00F0E8C08D
:10331A00E1FFE9C0E2FFFF0EE66EE6C000F0E7C09B
:10332A0001F020EC00F0E8C0E1FFE9C0E2FFFF0E87
:10333A00E66EE6C000F0E7C001F020EC00F02CECED
:10334A0000F00301EF51000A09E1F0AD03D0040EC9
:10335A00156E02D0030E156E006A0CD004D0010E51
:10336A00156E006A07D001D003D0ED4BEE2B4BD778
:06337A00010E006E1200BE
:10338000ECC34FF4EDC350F472EC10F000C0EEF358
:1033900001C0EFF3800E0118026E800E025C02E1A4
:1033A000010E005C03E2FF0E006E88D0800E006EFE
:1033B000800E0301EF19005C02E1EE510C0803E2FC
:1033C000FE0E006E7BD0ECC3D9FFEDC3DAFF2E0EEC
:1033D000DE1803E1FD0E006E71D0F26BECC3F3F367
:1033E000EDC3F4F3EEC3F0F3EFC3F1F3800E006E20
:1033F000800EF119005C02E1F051000829E2F05161
:10340000EC25D96EF151ED21DA6E2E0EDE181BE19E
:10341000010EF26F800E006E800EF119005C02E169
:10342000F051080803E2FC0E006E48D0010EF025B2
:10343000006E000EF121016E0050EC25F36F01507B
:10344000ED21F46F05D0010EF05F000EF15BCED7D9
:10345000010EF2190CE0800E006E800EEF19005C78
:1034600002E1EE51080803E2FB0E006E27D0010EC8
:10347000F21923E1F3C34FF4F4C350F472EC10F0EB
:1034800000C0EEF301C0EFF3800E0118026E800E53
:10349000025C02E1010E005C03E2F50E006E0ED04C
:1034A000800E006E800E0301EF19005C02E1EE5108
:0E34B000030803E2F40E006E01D0006A120061
:1034BE00FEC0EEF3FFC0EFF300C1F0F301C1F1F374
:1034CE00010E0001FE250301EE6F000E0001FF212B
:1034DE000301EF6F000E010100210301F06F000EDA
:1034EE00010101210301F16FFEC096F4FFC097F4B4
:1034FE0000C198F401C199F41F0E04019A6F010ED8
:10350E009B6FC6EC01F0005203E0FF0E006E80D000
:10351E00010E0301F26F000EF36F0001F75103016C
:10352E00F35D04E10001F6510301F25DD8B06ED0F7
:10353E00F351000A02E1000EF2191AE1EEC396F4FD
:10354E00EFC397F4F0C398F4F1C399F4010EEE278C
:10355E00000EEF23F023F1231F0E04019A6F010ECC
:10356E009B6FC6EC01F0005203E0FF0E006E50D0D0
:10357E001F0E0301EC6F010EED6F050E006EEFC016
:10358E0004F0F0C005F0005005E005320432059E4F
:10359E00FF0FFAD7F2C300F0F3C301F02CEC06F0E4
:1035AE0008C000F009C001F0050E046E00C002F064
:1035BE0001C003F0045005E0023602900336FF0FFF
:1035CE00FAD703010250EC270350ED23F251F31109
:1035DE0019E0ECC3E9FFEDC3EAFFEECF01F00150B5
:1035EE00E50A0AE0ECC3E9FFEDC3EAFFEECF01F016
:1035FE000150200801E206D0F2C388F3F3C389F329
:10360E00006A06D00301F24BF32B87D7FF0E006E34
:02361E00120098
:10362000220E006E000E016EECC304F0000E0301CA
:10363000ECBFFF0E056EFCEC07F0400E0026030EFB
:10364000012200C0EFF301C0F0F31A0E0024E96E6E
:10365000000E0120EA6EEECF00F0EECF01F0005038
:10366000011006E1070E0001EE6FFF0E006E40D163
:103670001A0E0301EF25E96E000EF021EA6EEECF7F
:1036800002F0EECF03F002A228D1EFC3E9FFF0C3AE
:10369000EAFFEECF96F4EECF97F4EECF98F4EECFAC
:1036A00099F41F0E04019A6F010E9B6FC6EC01F096
:1036B000005206E0100E0001EE6FFF0E006E18D1F2
:1036C000040E0301EF25E96E000EF021EA6EEECF45
:1036D00000F0EECF01F0EFC004F0F0C005F02CECEC
:1036E00006F008C000F009C001F01F0E0024ED6FC5
:1036F000010E0120EE6F0E0EEF25E96E000EF02197
:10370000EA6EEECF05F0EECF06F0EECF07F0EECF8B
:1037100008F00A0EEF25D96E000EF021DA6EDECF2A
:1037200001F0DECF02F0DECF03F0DECF04F0085070
:10373000045C08E10750035C05E10650025C02E10D
:103740000550015CD8B081D003011C0EED25E16E5F
:10375000000EEE21E26E0E0EEF25E96E000EF02156
:10376000EA6EFF0EEE14006E00C0E6FF1C0EED25A3
:10377000006E000EEE21016E010E0024E16E000EBF
:103780000120E26E0E0EEF25E96E000EF021EA6ECA
:10379000EECF05F0EECF06F0EECF07F0EECF08F05B
:1037A00006C000F007C001F008C002F0036AFF0E77
:1037B0000014006E00C0E6FF1C0EED25006E000E2A
:1037C000EE21016E020E0024E16E000E0120E26E79
:1037D0000E0EEF25E96E000EF021EA6EEECF05F039
:1037E000EECF06F0EECF07F0EECF08F007C000F006
:1037F00008C001F0026A036AFF0E0014006E00C0E8
:10380000E6FF1C0EED25006E000EEE21016E030E8C
:103810000024E16E000E0120E26E0E0EEF25E96E2F
:10382000000EF021EA6EEECF05F0EECF06F0EECFFF
:1038300007F0EECF08F008C000F0016A026A036AE0
:10384000FF0E0014006E00C0E6FF0301160EED250A
:10385000E16E000EEE21E26EA6C3E6FF160EED2528
:10386000006E000EEE21016E010E0024E16E000ECE
:103870000120E26EA7C3E6FF180EED25E16E000EF3
:10388000EE21E26EA4C3E6FF180EED25006E000ED9
:10389000EE21016E010E0024E16E000E0120E26EA9
:1038A000A5C3E6FFEFC3E9FFF0C3EAFFEECF85F45F
:1038B000EECF86F4EECF87F4EECF88F41F0E04012E
:1038C000896F010E8A6F2BEC07F0005206E0050E9F
:1038D0000001EE6FFF0E006E0BD01A0E0301EF25F4
:1038E000E16E000EF021E26EE66AE66A010E006EFD
:0238F0001200C4
:1038F200060E006E000E016E1EC104F0000E056E73
:10390200FCEC07F0060E0026010E0122020E002436
:10391200E96E000E0120EA6EEECF96F4EECF97F438
:10392200EECF98F4EECF99F41F0E04019A6F010EB8
:103932009B6FC6EC01F0005206E0100E0001EE6F24
:10394200FF0E006EA7D02A0E0401966F010E976F2C
:103952009DEC01F000C0EFF001C0F0F02CC1F1F0DD
:10396200000E0001F26F2D0E0401966F010E976F8B
:103972009DEC01F000C0F3F001C0F4F02FC1F5F0AE
:10398200300E966F010E976F9DEC01F000C0F6F0BD
:1039920001C0F7F0350E966F010E976F9DEC01F0A6
:1039A20000C0F8F001C0F9F0060E006E000E016EC4
:1039B2001EC104F0000E056EFCEC07F0060E002698
:1039C200010E0122020E0024E96E000E0120EA6EB1
:1039D2000001F351EE24006EF451EE20016E000E50
:1039E200EE20026E000EEE20036E00C0FAF001C05F
:1039F200FBF002C0FCF003C0FDF0F5C000F0000EC9
:103A0200016EF8C004F0F9C005F0FCEC07F0000EFE
:103A1200026E036EFA510026FB510122FC51022272
:103A2200FD51032200C0FEF001C0FFF002C000F110
:103A320003C001F1050E026EF6C000F0F7C001F0FE
:103A4200025005E0003600900136FF0FFAD7EFC0B2
:103A520004F0F0C005F02CEC06F0000E026E036ECE
:103A6200FE510026FF5101220101005102220151A3
:103A7200032200C002F101C003F102C004F103C03D
:103A820005F1FEC023F3FFC024F300C125F301C1F9
:063A920026F3006A120099
:103A9800ECC3F0F3EDC3F1F30301EE51EC25006E36
:103AA800EF51ED21016E010E005C026E000E01580F
:103AB800036E0350F15D02E10250F05D13E2F0C3C2
:103AC80077F4F1C378F4010EF0250401796F000E44
:103AD8000301F12104017A6FC3EC09F00301F04BF3
:103AE800F12BDAD7F0C377F4F1C378F4FF0E0401B1
:0C3AF800796FFF0E7A6FC3EC09F012002A
:103B0400970E0401776F030E786FC60E796F030E5C
:103B14007A6FBFEC08F0800E0018016E800E000A68
:103B2400015C01E228D0C4C3E1FFC5C3E2FFDEC3E8
:103B3400E6FFC2C3E1FFC3C3E2FFDDC3E6FFC0C3C8
:103B4400E1FFC1C3E2FFDCC3E6FFBEC3E1FFBFC3C5
:103B5400E2FFDBC3E6FFDAC300F0000E016EBC0E29
:103B64000026070E0122BCC3E1FFBDC3E2FF00C073
:083B7400E6FF01C0E6FF1200AC
:103B7C00050E156E96902CEC00F00301BC6BBD6B22
:103B8C00000EBD5D02E10A0EBC5D10E2E8C0E1FF73
:103B9C00E9C0E2FFFF0EE66EE6C000F0E7C001F000
:103BAC0020EC00F00301BC4BBD2BEAD7A2EC00F0DB
:103BBC000401A46BA56BA66BA76BA86B950EA96FE4
:103BCC0039EC00F000C0BEF32CEC00F00301BE5148
:103BDC00010A03E0010E006E81D0A2EC00F0080E89
:103BEC000401A46FAA0EA56F010EA66F000EA76F9D
:103BFC00A86F870EA96F39EC00F000C0BEF3E8C0C7
:103C0C00E1FFE9C0E2FFFF0EE66EE6C000F0E7C0A0
:103C1C0001F020EC00F0E8C0E1FFE9C0E2FFFF0E8C
:103C2C00E66EE6C000F0E7C001F020EC00F0E8C062
:103C3C00E1FFE9C0E2FFFF0EE66EE6C000F0E7C070
:103C4C0001F020EC00F0E8C0E1FFE9C0E2FFFF0E5C
:103C5C00E66EE6C000F0E7C001F020EC00F02CECC2
:103C6C0000F00301BE51010A0AE0010EEC6F05ECF5
:103C7C0019F0005203E0EC6B05EC19F004D0020EC5
:103C8C00EC6F05EC19F0000E000A02E1050E151898
:103C9C0003E1020E006E22D0000E000A02E1040EB7
:103CAC0015181BE0A2EC00F0100E0401A46F000E1E
:103CBC00A56F020EA66F000EA76FA86FFF0EA96F5F
:103CCC0039EC00F000C0BEF32CEC00F00301BE5147
:0E3CDC00000A03E0030E006E01D0006A120021
:103CEA000301C06B050EC05D0AE2C051BE25E16E3C
:103CFA00000EBF21E26E200EE66EC02BF3D7C05134
:103D0A00BE25E16E000EBF21E26EE66AC007C05111
:103D1A00BE25C16F000EBF21C26F0A0E046E000ECF
:103D2A00056EBCC300F0BDC301F02CEC06F008C060
:103D3A0000F009C001F0300E0026C1C3E1FFC2C382
:103D4A00E2FF00C0E6FF0A0E046E000E056EBCC359
:103D5A0000F0BDC301F02CEC06F000C0BCF301C0BA
:103D6A00BDF3000E011802E1000E001801E102D0B5
:063D7A00C007CDD71200C6
:103D80000301BF6B030EBF5D0AE2BF51BD25E16EAB
:103D9000000EBE21E26E200EE66EBF2BF3D7BF51A0
:103DA000BD25E16E000EBE21E26EE66ABF07BF517F
:103DB000BD25C06F000EBE21C16F0A0E046EBCC3CC
:103DC00000F04EEC16F008C000F0300E0026C0C324
:103DD000E1FFC1C3E2FF00C0E6FF0A0E046EBCC3F0
:103DE00000F04EEC16F000C0BCF30050000A01E1F8
:083DF00002D0BF07DCD712006E
:103DF800220E006E000E016E2DC304F0000E0301AA
:103E08002DBFFF0E056EFCEC07F0400E0026030EDA
:103E180001220A0E0024E96E000E0120EA6EEECFA0
:103E280000F0EECF01F0EECF02F0EECF03F012007B
:103E3800070E0301BD5D02E1BC0EBC5D04E3BC0ED0
:103E4800BC5F070EBD5B7F0EBC17000EBD170F0EC3
:103E5800BE15016E01C0BEF301500C0802E20C0E43
:103E6800BE6F010EBE5D02E2010EBE6FBF511F089C
:103E780002E21F0EBF6F010EBF5D02E2010EBF6FAF
:103E8800C0511708D8A0C06BC1513B08D8A0C16B5E
:103E9800C2513B08D8A0C26B090E006EBCC3A4F384
:103EA800BDC3A5F3005005E0A437A491A537FF0FC3
:103EB800FAD7BEC303F0000E046E050E026E03C0EF
:103EC80000F004C001F0025005E000360090013611
:103ED800FF0FFAD70050A4130150A513BF51A41324
:103EE800000EA513C0C3A6F3000EA76F0B0E006E3D
:103EF800005005E0A637A691A737FF0FFAD7C1C330
:103F080003F0000E046E050E026E03C000F004C03C
:103F180001F0025005E0003600900136FF0FFAD795
:103F28000050A6130150A713C2C300F00032009E30
:0A3F38000050A613000EA71312009C
:103F4200BCC3ECF3BDC3EDF3E9EC10F00D0E0401BC
:103F52004F6FFDEC0DF00A0E04014F6FFDEC0DF0FA
:023F620012004B
:103F64000301C66B0401966B976B986B996B1F0EDC
:103F74009A6F010E9B6FC6EC01F0005206E0100E22
:103F84000001EE6FFF0E006E5FD11F0E0301BE6FC6
:103F9400010EBF6FFE0EBE25E96E010EBF21EA6E53
:103FA400EE50550A03E0FF0E006E4ED1FF0EBE2503
:103FB400E96E010EBF21EA6EEE50AA0A03E0FF0E7D
:103FC400006E42D1C66BBEC3E9FFBFC3EAFFEE5029
:103FD400E90A02E1010EC66FBEC3E9FFBFC3EAFFEF
:103FE400EE50EB0A0BE1020EBE25E96E000EBF2176
:103FF400EA6EEE50900A02E1010EC66FC653D8B4C1
:10400400B1D0C26BC36BC46BC56B060EBC6F010E23
:10401400BD6FBCC3E1FFBDC3E2FF800EE66E020EBE
:10402400BC25E16E000EBD21E26EE66AE66AE66A30
:10403400E66A5DDC800E0018016E800E000A015CE9
:1040440003E2FF0E006E00D10001F851F911D8B45B
:1040540087D0010133513211006E1FE033C1C2F326
:10406400000E0301C36FC46FC56FC4C3C5F3C3C3DC
:10407400C4F3C2C3C3F3C26B010132510301C227AB
:10408400000EC323C423C523010EBC25E16E000E1C
:10409400BD21E26E040EE66E11D003013FC1C2F3EE
:1040A40040C1C3F341C1C4F342C1C5F3010EBC25F1
:1040B400E16E000EBD21E26E060EE66EC2C300F094
:1040C400C3C301F0C4C302F0C5C303F0010102512C
:1040D400005E0351015A0451025A0551035AF1C0BA
:1040E40004F0F2C005F0000E066E076E68EC02F0F4
:1040F40000C0C2F301C0C3F302C0C4F303C0C5F3DC
:10410400000E035C08E1000E025C05E10F0E015C89
:1041140002E1F50E005C0CE2010E0301BC25E16E28
:10412400000EBD21E26E010EE66EFF0E006E8CD015
:104134000301C551000808E1C451000805E1C35159
:10414400FF0802E1C251F5080BE2010EBC25E16E45
:10415400000EBD21E26E0B0EE66EFF0E006E74D0F3
:10416400006A72D00301DD0EBE6F020EBF6FC06B1A
:10417400C16B000EC15D02E1040EC05D58E2060E83
:10418400006E000E016EC0C304F0C1C305F0FCEC68
:1041940007F0060E0026010E012200C0BCF301C088
:1041A400BDF3BEC3E9FFBFC3EAFF00C0E1FF01C026
:1041B400E2FFEECFE6FF040EBE25006E000EBF2127
:1041C400016E00C0BEF301C0BFF3010EBC25E16E59
:1041D400000EBD21E26E00C0E9FF01C0EAFFEECF90
:1041E400E6FF040EBE25006E000EBF21016E00C066
:1041F400BEF301C0BFF3020EBC25C76F000EBD2184
:10420400C86F00C096F401C097F4E0EC00F0C7C397
:10421400E1FFC8C3E2FF00C0E6FF01C0E6FF02C041
:10422400E6FF03C0E6FF0301C04BC12BA2D779EC24
:104234001CF0800E0018016E800E000A015C03E27F
:0A424400FF0E006E01D0006A1200A8
:10424E000301C46BC56BBCC3C6F3BDC3C7F3BEC30A
:10425E00C8F3BFC3C9F3800EBF19006E800E005C99
:10426E0008E1000EBE5D05E1000EBD5D02E1000E2F
:10427E00BC5D10E2010EC46F000EC56FC66BC76B3E
:10428E00C86BC96BBC51C65FBD51C75BBE51C85B25
:10429E00BF51C95BC6C3ECF3C7C3EDF3C8C3EEF39E
:1042AE00C9C3EFF3C0C3F0F3C1C3F1F31EEC14F0B6
:1042BE000B0EC26F000EC36F000E006EC351005C7A
:1042CE0002E1C251000819E2C251C025E16EC3518C
:1042DE00C121E26E010EC25D006E000EC359016E69
:1042EE000050C025E96E0150C121EA6EEECFE6FF07
:1042FE00010EC25F000EC35BDFD7C0C3E1FFC1C3B7
:10430E00E2FF200EE66EC451C5111AE0C26BC36BFC
:10431E00C251C025E96EC351C121EA6EEE50200A8A
:10432E0003E1C24BC32BF4D7010EC25F000EC35B79
:10433E00C251C025E16EC351C121E26E2D0EE66E53
:02434E0012005B
:104350001F0E0401966F010E976F986B000E996FF8
:10436000020E9A6F4AEC02F00301BC6B020EBC5DB8
:10437000D8B0F8D0220E006E000E016EBCC304F05F
:10438000000E056EFCEC07F0400E0024E16E030EFB
:104390000120E26EE66AE66AE66AE66A220E006ECE
:1043A000000E016EBCC304F0000E056EFCEC07F0BD
:1043B000400E0026030E0122060E0024E16E000EC0
:1043C0000120E26EE66AE66A220E006E000E016EC1
:1043D000BCC304F0000E056EFCEC07F0400E002696
:1043E000030E0122080E0024E16E000E0120E26E91
:1043F000E66AE66A220E006E000E016EBCC304F08F
:10440000000E056EFCEC07F0400E0026030E0122A4
:104410000A0E0024E16E000E0120E26EE66AE66AF2
:10442000E66AE66A220E006E000E016EBCC304F05E
:10443000000E056EFCEC07F0400E0026030E012274
:104440000E0E0024E16E000E0120E26EE66AE66ABE
:10445000E66AE66A220E006E000E016EBCC304F02E
:10446000000E056EFCEC07F0400E0026030E012244
:10447000120E0024E16E000E0120E26EE66AE66A8A
:10448000220E006E000E016EBCC304F0000E056E1D
:10449000FCEC07F0400E0026030E0122140E00244F
:1044A000E16E000E0120E26EE66AE66AE66AE66AFE
:1044B000220E006E000E016EBCC304F0000E056EED
:1044C000FCEC07F0400E0026030E0122180E00241B
:1044D000E16E000E0120E26EE66AE66A220E006ED0
:1044E000000E016EBCC304F0000E056EFCEC07F07C
:1044F000400E0026030E01221A0E0024E16E000E6B
:104500000120E26EE66AE66A220E006E000E016E7F
:10451000BCC304F0000E056EFCEC07F0400E002654
:10452000030E01221E0E0024E16E000E0120E26E39
:10453000E66AE66A220E006E000E016EBCC304F04D
:10454000000E056EFCEC07F0400E0026030E012263
:10455000200E0024E16E000E0120E26EE66AE66A9B
:10456000BC2B04D7BC6B040EBC5D40E2060E006E93
:10457000000E016EBCC304F0000E056EFCEC07F0EB
:10458000060E0024E16E010E0120E26EE66A060EC0
:10459000006E000E016EBCC304F0000E056EFCEC54
:1045A00007F0060E0026010E0122010E0024E16E26
:1045B000000E0120E26EE66A060E006E000E016E2D
:1045C000BCC304F0000E056EFCEC07F0060E0026DE
:1045D000010E0122020E0024E16E000E0120E26EA7
:1045E000E66AE66AE66AE66ABC2BBDD70001EF6BB5
:1045F000F06BF16BF26BF36BF46BF56BF66BF76BC7
:10460000F86BF96BFA6BFB6BFC6BFD6BFE6BFF6B76
:104610000101006B016B026B036B046B056B1E6B7E
:104620000301236B246B256B266B0001EE6B0301EA
:10463000886B896B846B856B866B876B2D6B970E94
:104640000401966F030E976F200E986F0C0E996FF2
:0E465000000E9A6F4AEC02F00301A46B1200F8
:10465E00BCC3ECF3BDC3EDF3C0EC19F00050000A7F
:10466E0003E0FF0E006E9FD08A0E0301EC6F030E67
:10467E00ED6FBCC3EEF3BDC3EFF33EEC12F0970E3D
:10468E00EC6F030EED6FBCC3EEF3BDC3EFF33EEC68
:10469E0012F02DC300F0000E2DBFFF0E016E020EA4
:1046AE00046E000E056E5DEC16F008C000F009C039
:1046BE0001F0220E046E000E056EFCEC07F0400EAB
:1046CE0000240301BF6F030E0120C06F2D51010F97
:1046DE00006E016A000E2DBFFF0E0122020E046E47
:1046EE00000E056E5DEC16F008C000F009C001F07A
:1046FE00220E046E000E056EFCEC07F0400E002438
:10470E000301C16F030E0120C26F1A0EBF25E96EA1
:10471E00000EC021EA6EEECF01F0EECF02F0000ED9
:10472E00021802E1000E011826E01A0EC125E96EEC
:10473E00000EC221EA6EEECF01F0EECF02F0000EB7
:10474E00021802E1000E011816E02D51010F006E45
:10475E00016A000E2DBFFF0E0122020E046E000E26
:10476E00056E5DEC16F008C000F009C001F000C047
:10477E00ECF310EC1BF08A0E0301EC6F030EED6FE1
:10478E00060EEE6FBEC3EFF38FEC14F000C02DF3E8
:10479E00800E0018016E800E000A015C02E2006AB3
:0847AE0002D0010E006E1200A2
:1047B600970E0401776F030E786FC60E796F030E9E
:1047C6007A6FBFEC08F0800E0018016E800E000AAA
:1047D600015C01E228D0C4C3E1FFC5C3E2FFD8C330
:1047E600E6FFC2C3E1FFC3C3E2FFD7C3E6FFC0C310
:1047F600E1FFC1C3E2FFD6C3E6FFBEC3E1FFBFC30D
:10480600E2FFD5C3E6FFD4C300F0000E016EBC0E76
:104816000026070E0122BCC3E1FFBDC3E2FF00C0B4
:08482600E6FF01C0E6FF1200ED
:10482E008A0E0301EC6F030EED6F970EEE6F030E03
:10483E00EF6F3EEC12F08A0EEC6F030EED6F010E71
:10484E00EE6FEF6B8FEC14F000C02DF300C0ECF3A5
:10485E000301ED6BEE6BEF6BF06BC1EC16F0220EFD
:10486E00006E000E016E2DC304F0000E03012DBF6D
:10487E00FF0E056EFCEC07F0400E0026030E012223
:10488E000A0E0024E96E000E0120EA6EBCC3E1FFA1
:10489E00BDC3E2FFEECFE6FFEECFE6FFEECFE6FFC3
:0648AE00EECFE6FF120050
:1048B400BCC3C2F3BDC3C3F3BCC327F3BDC328F356
:1048C400BEC32EF3BFC32FF30301C06BC16BBF5133
:1048D400C15D02E1BE51C05D18E22DC3ECF3C051CD
:1048E400C225E96EC151C321EA6EEECFEDF365EC4A
:1048F40018F0800E0018016E800E000A015C01E2BF
:1049040004D00301C04BC12BE2D70301220E006E79
:10491400000E016E2DC304F0000E2DBFFF0E056EB8
:10492400FCEC07F0400E0026030E01221A0E0024B0
:10493400E96E000E0120EA6EEECFC4F32DC3ECF352
:1049440010EC1BF0220E006E000E016E2DC304F05D
:10495400000E03012DBFFF0E056EFCEC07F0400EA8
:104964000026030E01221A0E0024E16E000E01201F
:0C497400E26EC4C3E6FF000EE66E120007
:10498000020E0301D36F000ED46FF1C004F0F2C029
:1049900005F0000E066E076EBCC300F0BDC301F04B
:1049A000BEC302F0BFC303F068EC02F000C0CDF359
:1049B00001C0CEF3F1C004F0F2C005F0000E066EA7
:1049C000076EBCC300F0BDC301F0BEC302F0BFC39D
:1049D00003F068EC02F008C000F009C001F00AC062
:1049E00002F00BC003F0005001100210031002E0AF
:1049F000CD4BCE2BCDC3ECF3CEC3EDF303EC11F0D6
:104A000000C0D3F301C0D4F3000E015C02E1020E3A
:104A1000005C05E2006A016A026A036AEAD18A0E52
:104A2000EC6F030EED6FC0C3EEF3C1C3EFF33EECCA
:104A300012F023C3CFF324C3D0F325C3D1F326C38D
:104A4000D2F3FEC023F3FFC024F300C125F301C15C
:104A500026F38A0EEC6F030EED6F76EC11F000502A
:104A6000000A1DE1CFC323F3D0C324F3D1C325F340
:104A7000D2C326F3CDC3ECF3CEC3EDF303EC11F0B8
:104A800000C0D3F301C0D4F3000E015C02E1020EBA
:104A9000005C05E2006A016A026A036AAAD1CFC318
:104AA00023F3D0C324F3D1C325F3D2C326F35FECA1
:104AB0001AF0800E0018016E800E000A015C05E2FB
:104AC000006A016A026A036A94D1CDC3C3F3CEC3FC
:104AD000C4F3000E0301C56FC66FC3C300F0C4C3A7
:104AE00001F0C5C302F0C6C303F0F1C004F0F2C088
:104AF00005F0000E066E076EAFEC0AF000C0C3F3BF
:104B000001C0C4F302C0C5F303C0C6F3EFC004F094
:104B1000F0C005F0000E066E076EAFEC0AF000C0A4
:104B2000C3F301C0C4F302C0C5F303C0C6F3FEC0A3
:104B3000C7F3FFC0C8F300C1C9F301C1CAF3050E32
:104B4000026E88C300F089C301F0025005E0003610
:104B500000900136FF0FFAD70301EFC004F0F0C058
:104B600005F02CEC06F00050C7270150C823000EBA
:104B7000C923CA238A0EEC6F030EED6FC0C3EEF398
:104B8000C1C3EFF33EEC12F08A0E0401856F030EF1
:104B9000866F47EC06F00301966BC7C396F4C8C353
:104BA00097F4C9C398F4CAC399F41F0E04019A6F0D
:104BB000010E9B6FC6EC01F0005205E0006A016A2D
:104BC000026A036A16D1050E026E88C300F089C31B
:104BD00001F0025005E0003600900136FF0FFAD7D1
:104BE000EFC004F0F0C005F02CEC06F008C000F0B7
:104BF00009C001F01F0E0026010E012200C0CBF3F8
:104C000001C0CCF300C096F401C097F48A0E0401F1
:104C1000986F030E996F0B0E9A6F000E9B6F75ECD9
:104C200001F00B0E0301CB25E16E000ECC21E26EEC
:104C3000C2C3E6FF0E0ECB25E16E000ECC21E26E64
:104C4000A6C3E6FF0E0ECB25006E000ECC21016E32
:104C5000010E0024E16E000E0120E26EA7C3E6FF04
:104C6000100ECB25E16E000ECC21E26EA4C3E6FF50
:104C7000100ECB25006E000ECC21016E010E00241B
:104C8000E16E000E0120E26EA5C3E6FF160ECB25F5
:104C9000E16E000ECC21E26EA6C3E6FF160ECB2518
:104CA000006E000ECC21016E010E0024E16E000E9C
:104CB0000120E26EA7C3E6FF180ECB25E16E000EC1
:104CC000CC21E26EA4C3E6FF180ECB25006E000EC9
:104CD000CC21016E010E0024E16E000E0120E26E77
:104CE000A5C3E6FF1A0ECB25E16E000ECC21E26EC5
:104CF000D3C3E6FF1A0ECB25006E000ECC21016E49
:104D0000010E0024E16E000E0120E26ED4C3E6FF26
:104D10001C0ECB25E16E000ECC21E26EC3C3E6FF74
:104D20001C0ECB25006E000ECC21016E010E00245E
:104D3000E16E000E0120E26EC4C3E6FF1C0ECB251F
:104D4000006E000ECC21016E020E0024E16E000EFA
:104D50000120E26EC5C3E6FF1C0ECB25006E000EDF
:104D6000CC21016E030E0024E16E000E0120E26EE4
:104D7000C6C3E6FFC7C385F4C8C386F4C9C387F4B6
:104D8000CAC388F41F0E0401896F010E8A6F2BECD1
:104D900007F0005205E0006A016A026A036A29D03E
:104DA000D3C3ECF3D4C3EDF3CDC3EEF3CEC3EFF333
:104DB0004CEC1DF0D3C300F0D4C301F0000E026E22
:104DC000036E020E005E000E015A025A035AF1C031
:104DD00004F0F2C005F0000E066E076EAFEC0AF0AC
:104DE0000101025100260351012204510222055102
:044DF0000322120088
:104DF4008A0E0301EC6F030EED6F970EEE6F030E38
:104E0400EF6F3EEC12F08A0EEC6F030EED6F060EA0
:104E1400EE6FEF6B8FEC14F000C02DF3000E00BEAC
:104E2400FF0E016E220E046E000E056EFCEC07F000
:104E3400400E0026030E01222DC3ECF30A0E0024BB
:104E4400E96E000E0120EA6EEECFEDF3EECFEEF345
:0E4E5400EECFEFF3EECFF0F3C1EC16F012004C
:104E62002DC3ECF35CEC12F000C0BEF301C0BFF343
:104E7200800E0118026E800E025C02E1000E005CE0
:104E820001E206D0BCC3E1FFBDC3E2FFBEC3E6FF41
:024E920012000C
:104E94008A0E0301EC6F030EED6F970EEE6F030E97
:104EA400EF6F3EEC12F08A0EEC6F030EED6F76ECB2
:104EB40011F00050000A03E0FF0E006E01D0006AFA
:024EC4001200DA
:104EC6008A0E0301EC6F030EED6F970EEE6F030E65
:104ED600EF6F3EEC12F08A0EEC6F030EED6F020ED2
:104EE600EE6FEF6B8FEC14F000C02DF300C0ECF307
:104EF6000301ED6BEE6BEF6BF06BC1EC16F012007D
:104F06000900F5CFE6FF0006FBE10106F9E1120014
:104F1600880E0301BC6F130EBD6F000EBE6FBF6F10
:104F2600400EC06F000EC16F200EC26F26DD00C09E
:104F36001FF301C020F302C021F303C022F30301D3
:104F4600AA6BAB6B020EAB5D02E1000EAA5D0BE233
:104F56001F0EAA25E16E010EAB21E26EAAC3E6FF83
:104F6600AA4BAB2BEFD71F512011211122113CE088
:104F76001FC3BCF320C3BDF321C3BEF322C3BFF3DB
:104F86002C0EC06F000EC16F27EC21F02C0EBC6FEB
:104F9600000EBD6FA1EC1FF00301AA6BAB6B130EE5
:104FA600AB5D02E1880EAA5D1FE21FC385F420C334
:104FB60086F421C387F422C388F41F0E0401896F87
:104FC600010E8A6F2BEC07F0010E03011F27000E5E
:104FD6002023212322232E0E04014F6FFDEC0DF01A
:0A4FE6000301AA4BAB2BDBD712002E
:104FF0000301AA6BBEEC1DF0AA2B005204E0320E96
:10500000AA5D01E2F7D7320EAA5D03E3FF0E006E40
:0C50100004D0A8EC21F0B2EC1FF012005C
:10501C00FA0E0301386F1B0E396F4F0E3A6F040EE8
:10502C003B6FFF0E3C6FFF0E3D6F000E3E6F000E90
:10503C003F6FFF0E306FFF0E316F000E326F000EA0
:10504C00336FFF0E346FFF0E356F000E366F000E90
:10505C00376FAC8A900EAB6E948E949C9EAA03D044
:08506C00AECF00F0FBD71200EB
:10507400C69A1C0E0001E66F000EE76FAD0EE86FD6
:10508400040EE96FFF0E0301296FFF0E2A6FFF0E56
:105094002B6FFF0E2C6F949AAA51040A02E1948696
:1050A40001D094969488C66AAA51C612AC51C6120D
:1050B400AB51C712AC5305E0AD51000AD8B4C78C4C
:0C50C40003D0AD53D8A4C78CC68A1200DC
:1050D000420E0301A86FA8515A0848E3A8C34FF431
:1050E000FDEC0DF0A8C3A8F0DA0E0301BC6F070EAB
:1050F000BD6F040EBE6F130EBF6F090EC06FC16B84
:10510000C26B1CEC1FF0A10EBC6F000EBD6FA00E99
:10511000BE6F2FEC23F0D7DE010E0301A96FA9515A
:105120002C0822E30A0E046EA9C300F04EEC16F020
:10513000300E00240001BB6F0A0E046EA9C300F0FC
:105140004EEC16F008C000F0300E0024BC6FBB0E11
:105150000301BC6F000EBD6F2A0EBE6F000EBF6F45
:0E5160005AEC24F0A92BDBD7A82BB5D71200F0
:10516E00420E0001A86FA10E0301BC6F000EBD6FB1
:10517E00BE6B2FEC23F01F0E0301BC6F030EBD6F31
:10518E0017EC24F0010E0001EA6F000EEB6FEC6FCE
:10519E00ED6FED510301225D0EE10001EC510301B3
:1051AE00215D09E10001EB510301205D04E10001E5
:1051BE00EA5103011F5D11E3AA0EBC6F030EBD6F12
:1051CE0049DEAAC34FF4FDEC0DF0010E0001EA27F3
:0C51DE00000EEB23EC23ED23DCD71200C5
:1051EA00460E0001A86FA10E0301BC6F000EBD6F31
:0A51FA00BE6B2FEC23F049DE12001B
:10520400420E0001A86FA10E0301BC6F000EBD6F1A
:10521400BE6B2FEC23F00052D8B4EED0AA0E0301DB
:10522400BC6F030EBD6FAC0EBE6F030EBF6FAD0E31
:10523400C06F030EC16FAE0EC26F030EC36FAF0E0D
:10524400C46F030EC56FDBEC23F07A0E0301EC6F21
:10525400000EED6FE9EC10F0AAC3BCF3ABC3BDF3D1
:10526400B00EBE6F030EBF6F75EC1EF0B00EEC6F88
:10527400030EED6FE9EC10F0ACC3BCF3B00EBD6FE0
:10528400030EBE6FC0EC1EF0B00EEC6F030EED6F9C
:10529400E9EC10F0ADC3BCF3000EBD6FB00EBE6FF1
:1052A400030EBF6F75EC1EF0B00EEC6F030EED6FC6
:1052B400E9EC10F0AEC3BCF3000EBD6FB00EBE6FD0
:1052C400030EBF6F75EC1EF0B00EEC6F030EED6FA6
:1052D400E9EC10F0AFC3BCF3000EBD6FB00EBE6FAF
:1052E400030EBF6F75EC1EF0B00EEC6F030EED6F86
:1052F400E9EC10F0AA0EBC6F030EBD6FAC0EBE6FCE
:10530400030EBF6FAD0EC06F030EC16FAE0EC26F42
:10531400030EC36FAF0EC46F030EC56F82EC1DF096
:10532400AF0E0301EC6F000EED6FE9EC10F0AAC3B1
:10533400BCF3ABC3BDF3B00EBE6F030EBF6F75EC11
:105344001EF0B00EEC6F030EED6FE9EC10F0ACC381
:10535400BCF3B00EBD6F030EBE6FC0EC1EF0B00EFA
:10536400EC6F030EED6FE9EC10F0ADC3BCF3000E6F
:10537400BD6FB00EBE6F030EBF6F75EC1EF0B00EA6
:10538400EC6F030EED6FE9EC10F0AEC3BCF3000E4E
:10539400BD6FB00EBE6F030EBF6F75EC1EF0B00E86
:1053A400EC6F030EED6FE9EC10F0AFC3BCF3000E2D
:1053B400BD6FB00EBE6F030EBF6F75EC1EF0B00E66
:1053C400EC6F030EED6FE9EC10F0FCEC1EF000C086
:1053D400BCF301C0BDF302C0BEF303C0BFF3B00E03
:1053E400C06F030EC16F27EC21F0B00EBC6F030E2B
:1053F400BD6FA1EC1FF016D0550E04014F6FFDECEC
:105404000DF0290E0B6E960E0C6E7F0E0D6E0D2E8A
:10541400FED70C2EFCD70B2EFAD7550E04014F6F76
:06542400FDEC0DF012008A
:10542A00430E0001A86FA10E0301BC6F000EBD6FF1
:10543A00BE6B2FEC23F042DD010E0301A96FA951C7
:10544A00370822E30A0E046EA9C300F04EEC16F0E8
:10545A00300E00240001BB6F0A0E046EA9C300F0CF
:10546A004EEC16F008C000F0300E0024BC6FBB0EE4
:10547A000301BC6F000EBD6F2A0EBE6F000EBF6F18
:0A548A005AEC24F0A92BDBD7120026
:10549400420E0001A86FA10E0301BC6F000EBD6F88
:1054A400BE6B2FEC23F0DA0E0301BC6F070EBD6F49
:1054B400040EBE6F130EBF6F090EC06F140EC16FC2
:1054C400C26B1CEC1FF094DC850E0301BC6F000E54
:1054D400BD6F1B0EBE6F000EBF6F5AEC24F012009E
:1054E400410E0001A86FDA0E0301BC6F070EBD6FF9
:1054F400040EBE6F130EBF6F090EC06FC16BC26B7B
:105504001CEC1FF0A10EBC6F000EBD6FA00EBE6F91
:105514002FEC23F0D6DC010E0301A96FA951630817
:1055240027E32E0E04014F6FFDEC0DF00A0E046EFE
:10553400A9C300F04EEC16F0300E00240001BB6F3E
:105544000A0E046EA9C300F04EEC16F008C000F079
:10555400300E0024BC6FBB0E0301BC6F000EBD6F88
:105564002A0EBE6F000EBF6F5AEC24F0A92BD6D7BB
:02557400120023
:105576008AEC2BF00F01386B3A6B3C6B606A9284B5
:10558600B886010EB06EA00EAF6EAC8444DD680E18
:105596000C6EE40E0D6E0D2EFED70C2EFCD7000001
:1055A600610E0301BC6F000EBD6FA1EC1FF080A45D
:1055B60001D0FDD7150E0B6E4B0E0C6EBE0E0D6E8A
:1055C6000D2EFED70C2EFCD70B2EFAD700004B0E55
:1055D6000301BC6F000EBD6FA1EC1FF0020E0301AC
:1055E600AA6FAB6BAC6B010EAD6F41DDFEDC0050FC
:1055F600000A1CE10301AA6BAB6BAC6B010EAD6F2D
:1056060036DD200EBC6F000EBD6FA1EC1FF067DF0C
:105616005CDD08DF3CDFA8DDE5DDF1DD79DC160EBB
:10562600BC6F000EBD6FA1EC1FF007D02C0E03015E
:0C563600BC6F000EBD6FA1EC1FF0FFD791
:1057140010EE15F0D10E006E010E016E420EF66E03
:0E572400560EF76E000EF86E83EC27F01200A2
:015642000067
:0A5643005465737420456E642E0058
:0C564D00546573742053746172742E0055
:105659004641543136206E6F7420666F756E640052
:04566900000000003D
:0B566D006D696B726F452E747874003D
:105678006D6963726F5344204361726420696E736D
:0656880065727465640008
:10568E00496E73657274206D6963726F5344204363
:04569E0061726400D1
:0356A2002E2E00A9
:0256A5002E00D5
:0B56A70020637265617465643A2000A6
:1056B20020666F72206D696B726F456C656B7472D8
:0C56C2006F6E696B6120323031300A00DD
:0E56CE004D494B524F3030782E545854000046
:0C56DC00206D6F6469666965643A200007
:1056E8005858204D4D432F534420464154313620BD
:1056F8006C69627261727920627920416E746F6E92
:0B57080020526965636B6572740A0033
:020000040030CA
:0D000100331F3CFFBD81FF0FC00FE00F401B
:00000001FF
