:100000000C945F230C9400000C9400000C940000EE
:100010000C9400000C9400000C9400000C94000060
:100020000C9400000C9400000C9400000C94000050
:100030000C9400000C9400000C9400000C94000040
:100040000C9400000C9400000C9400000C94000030
:040050000C9400000C
:1046BE00BFE5BDBFB8E0BEBF0E9421242F923F923E
:1046CE004F92BAB3BF77BABBB9E1B9B9B0E0B0BDDA
:1046DE007DDC18E605EE0A95F1F71A95E1F7BDE1D6
:1046EE002B2EB1E03B2E49DFBBB3B7FF01C0FCCF91
:1046FE0025E11BE40FEB0A95F1F71A95E1F72A95E0
:10470E00D1F70000BDEF2B2EB0E03B2E36DF442458
:10471E00B4E03B2EB0E12B2E36DCEEDC0030C1F4E3
:10472E0044243324B0E12B2E2EDCB1EF2B2EB0E03F
:10473E003B2E23DFF5DC77DDD8DD44DD6BDCC5DC1D
:10474E000DDE29DFB3E12B2EB1E03B2E16DF05C0C7
:10475E00B2E82B2EB0E03B2E10DF4F903F902F9003
:02476E00FFCF7B
:104588002F923F929FDCBDE02B2E0E94020BBAE0D7
:0C4598002B2E0E94020B3F902F900895E4
:103ECC0010E0F1010081202F022F003081F03F9291
:103EDC002F92202E0E94020B2F903F90012F0F5FEC
:103EEC00102FE02FF0E0E20DF31D0081EECF0895CE
:003EFC00C6
:10160400BBB1B5FD01C0FCCFBBB1B6FF03C0BBB1DC
:08161400B064BBB92CB80895C5
:103F9400BBE6B0937101BAE0B0937201BFEFB09386
:103FA400C701BFEFB093C801B7B3B068B7BBB7B32D
:103FB400BF7BB7BBB7B3B062B7BBB7B3B061B7BB76
:103FC40032FABEB1B0F9BEB9032D03700429022937
:063FD40000640DB9089520
:1041060020E02F938FDD2F91122F1F5F212F002389
:1041160019F0223308F4F5CF223310F00FEF03C065
:0841260034DE0E944F180895D9
:103C2A00CF93DF93CDB7DEB72197CDBFDEBF219605
:103C3A002F923F924F925F926F927F92B5E0B0932C
:103C4A006000B0913A00B062B0933A000E94F30A61
:103C5A0020E030E0303009F42A3080F43F932F938B
:103C6A00BFEF2B2EE0917101F091720109952F910E
:103C7A003F9189010F5F1F4F9801ECCF0E94F0120C
:103C8A00B5E97B2E332444245524662422240E9439
:103C9A007D1208830E94F30A0881013011F001E0C5
:103CAA0067C00E94F012B7E87B2EBAEA3B2EB1E059
:103CBA004B2EB0E05B2E6B2EB8E02B2E0E947D12AD
:103CCA000883BFEF2B2EE0917101F09172010995E3
:103CDA00BFEF2B2EE0917101F09172010995BFEFB0
:103CEA002B2EE0917101F09172010995BFEF2B2EF5
:103CFA00E0917101F091720109950E94F30A08811D
:103D0A00013051F0B1E02B2E0E94C711002319F0A7
:103D1A0022240E94C71104C0B2E02B2E0E94C711B0
:103D2A000091600010E0103009F4053011F402E04F
:103D3A001FC00091600010E0103009F40430B9F09F
:103D4A000E94F012BFEF7B2EB0E03B2EB2E04B2E6A
:103D5A00B0E05B2E6B2EB0E12B2E0E947D12088301
:103D6A000E94F30A0881003011F003E001C000E06C
:103D7A007F906F905F904F903F902F90CDBFDEBFA6
:063D8A00DF91CF910895C6
:1015E6002F92B0913B00B062B0933B00BFEF2B2E21
:0E15F600E0917101F091720109952F90089516
:0E14D6002FB8BEB1B7FD01C0FCCF0FB1089515
:0C25E000B0913B00BF7DB0933B0008951C
:1024FA00CF93DF93CDB7DEB72497CDBFDEBF21964A
:10250A002F92388249825A826B82022D005C7F9216
:10251A00202EE0917101F091720109958E01F80166
:10252A0033960081202EE0917101F0917201099594
:10253A008E01F80132960081202EE0917101F0910E
:10254A00720109958E01F80131960081202EE091E1
:10255A007101F09172010995FE010081202EE0912E
:10256A007101F091720109957F90272CE091710118
:10257A00F0917201099540E050E05F934F937F928A
:10258A006F925F924F923F922F92BFEF2B2EE09164
:10259A007101F091720109952F903F904F905F90D1
:1025AA006F907F904F915F91302F142F252F1F5FCF
:1025BA002F4F412F522F0078003029F0503009F464
:1025CA00443608F4DACF032F2F902396CDBFDEBF0F
:0625DA00DF91CF9108958E
:10238E00CF93DF93CDB7DEB72497CDBFDEBF2196B7
:10239E003F924F925F926F927F92B0E0B883B98373
:1023AE0008811981173209F4003108F093C0022D0B
:1023BE0010E0103009F40030B9F40BD12F92BFEFBA
:1023CE007B2E3324442455246624B1E02B2E8ED04C
:1023DE000A8302D92F900A81003029F4B0E0B0931D
:1023EE00600000E078C06FC0F4D02F92BFEF7B2E5C
:1023FE003324442455246624B7E32B2E77D00A8346
:10240E00EBD82F900A81013009F05CC0E2D02F92F8
:10241E00BFEF7B2EB0E03B2E4B2E5B2EB0E46B2E2F
:10242E00B9E22B2E63D00A83D7D82F900A810030C1
:10243E0009F047C0022D10E0103009F4023009F007
:10244E003BC0C7D02F92BFEF7B2E3324442455249C
:10245E006624BAE32B2E4AD00A83BFEF2B2EE091CF
:10246E007101F091720109950B83BFEF2B2EE09154
:10247E007101F09172010995BFEF2B2EE091710160
:10248E00F09172010995BFEF2B2EE0917101F09141
:10249E0072010995A1D82F900A81003061F40B8149
:1024AE0006FF04C0B4E0B093600003C0B3E0B09385
:1024BE00600000E010C005C0B1E0B093600000E025
:1024CE000AC001C007C0088119810F5F1F4F088322
:1024DE00198366CF01E07F906F905F904F903F9091
:0C24EE002396CDBFDEBFDF91CF91089593
:103D90002F923F924F925F926F92B1E0B093E40303
:103DA000B0E05B2EB2E06B2E4424B4EE2B2EB1E0DB
:103DB0003B2E0E94B21140E04230B8F44F930CE128
:103DC00010E050E00E94AA112BE831E0020F131F0F
:103DD000BCE15B2EB0E06B2E442418010E94B211AE
:103DE0004F91042F0F5F402FE7CFBCE15B2EB0E077
:103DF0006B2E4424B5E52B2EB1E03B2E0E94B21170
:103E000040E04430B8F44F9306E010E050E00E94E8
:103E1000AA1123E731E0020F131FB6E05B2EB0E0DA
:103E20006B2E442418010E94B2114F91042F0F5F92
:103E3000402FE7CFB7E15B2EB0E06B2E4424B4E314
:103E40002B2EB1E03B2E0E94B211B4EEB0933201A2
:103E5000B3E0B0933301B0E0B0933101B0E0B09380
:103E60005101B0935201B0935301B0935401B0E0AB
:103E7000B093C301B0E0B0934F01B0935001B0E0F4
:103E8000B0934B01B0934C01B0934D01B0934E01F0
:103E9000BFEFB093C401BDE05B2EB0E06B2E4424B5
:103EA000B3ED2B2EB1E03B2E0E94B211B0E0B093E7
:103EB000D101B093D201B0E0B093CF01B093D00163
:0C3EC0006F905F904F903F902F900895FE
:10236400A101252D362D052D162D01501040502E7E
:10237400612EB22FB32B39F0FA0140828A010F5F2C
:0A2384001F4FA801EECF810108955C
:102354009801249F8001259F100D349F100D08952E
:0023640079
:10309E00CF93DF93CDB7DEB72297CDBFDEBF21969C
:1030AE002F923F924F925F926F927F92B1E0B093C8
:1030BE00E403B4EE6B2EB1E07B2E222433244424A1
:1030CE00552472DB002329F0B0E1B093C3010FEF5A
:1030DE001DC114EE21E0E12FF22FE250FE4F0081D0
:1030EE00053511F001E012C1E12FF22FE150FE4F34
:1030FE0000810A3A11F001E009C130E0E12FF22F10
:10310E000081093E19F401E0302F00C0E12FF22FAB
:10311E0000810B3E41F4E12FF22F329600810039EF
:10312E0021F401E001C0032F01C0032F002309F495
:10313E008BC083E791E0FC01B0E8B083FC013296CE
:10314E00B0E0B193B193B193B1939F938F9347DA5C
:10315E008F919F91003014F401E0D8C000913D0191
:10316E0010913E01B02FB12B09F467C01091F701F9
:10317E000091F801012BC9F00091F80110E0212F08
:10318E00312F722F612F502F44270091F70110E03D
:10319E00212F312F040F151F261F371FA801B9012C
:1031AE00FC013196B4E0B0830CC040910402509102
:1031BE0005026091060270910702FC013196B6E09D
:1031CE00B08300904701109048018A01001911093F
:1031DE000090490110904A019B01200931099F93EB
:1031EE008F93409136015091370160E0762F0E9407
:1031FE00880F8B019C018F919F91A801B9013030EE
:10320E0029F4203019F41F3009F4053F30F4FC0185
:10321E003196B1E0B08301E079C005EF1FEF20E0F9
:10322E0030E0041715072607370730F4FC013196F6
:10323E00BBE0B08301E06AC006C0FC013196BBE082
:10324E00B08301E063C061C082EA93E060E070E0A9
:10325E00703009F46430A0F506E010E0AB0173D8CD
:10326E0023E731E0200F311FA901FC010081F90194
:10327E0000838C010C5F1F4FC8019A012F5F3F4FD7
:10328E00F8010081F90100839C012C5F3F4FC901B9
:10329E008A010E5F1F4F088319837F936F93190165
:1032AE000E94AA0F6F917F9148815981FA01019373
:1032BE001193219331938B010F5F1F4FB801C8CF2C
:1032CE0006E010E04091310150E03DD823E731E0B7
:1032DE00020F131FF80131960081043089F006E0C9
:1032EE0010E04091310150E02ED823E731E0020F7B
:1032FE00131FF80131960081063011F001E006C06F
:10330E006ED9003014F401E001C000E07F906F90A0
:10331E005F904F903F902F902196CDBFDEBFDF91F3
:04332E00CF9108959E
:1027B600CF93DF93CDB7DEB72297CDBFDEBF21968D
:1027C6002F923F924F925F9208DF0091600010E0D7
:1027D600103009F4043019F4810192010DC0B9E0FA
:1027E60081019201000F111F221F331FBA95D1F7E5
:1027F600A801B9018A019B017F926F92BFEF7B2EE0
:10280600302E412E522E632EB1E12B2E73DE6F90A9
:102816007F90002321F00E94F30A01E062C07F92BC
:102826006F925F924F923F922F92BFEF2B2EE091C5
:102836007101F091720109952F903F904F905F9032
:102846006F907F900E3F09F0EACF30E040E04230D3
:1028560009F4303048F5032F142F060D171D088391
:1028660019834F933F937F926F925F924F923F925D
:102876002F92BFEF2B2EE0917101F0917201099515
:102886002F903F904F905F906F907F903F914F9128
:1028960018812981E12FF22F0083032F142F0F5F58
:1028A6001F4F302F412FD3CF7F926F925F924F925F
:1028B6003F922F92BFEF2B2EE0917101F0917201A2
:1028C6000995BFEF2B2EE0917101F09172010995E8
:1028D6000E94F30A2F903F904F905F906F907F90E9
:1028E60000E05F904F903F902F902196CDBFDEBFC6
:0628F600DF91CF9108956F
:1025EC002F923F924F925F926F927F92B1E0B09395
:1025FC00E40306E010E04091310150E0A5DE23E752
:10260C0031E0020F131FF8013296019111912191C3
:10261C003191B4EE6B2EB1E07B2E18012901C5D09F
:10262C00002329F0B0E1B093C3010FEFB7C0BFEEA8
:10263C002B2EB1E03B2E0E94E70A0093340110933D
:10264C0035010091F10100933601B0E0B0933701F0
:10265C00B2EF2B2EB1E03B2E0E94E70A009338011B
:10266C00109339010091F40100933A01B5EF2B2E30
:10267C00B1E03B2E0E94E70A00933B0110933C0112
:10268C00BAEF2B2EB1E03B2E0E94E70A00933D01DE
:10269C0010933E0106E010E04091310150E054DE11
:1026AC0023E731E0020F131FF8013296419151914B
:1026BC0061917191009138011091390120E0322F14
:1026CC00040F151F261F371F00933F011093400165
:1026DC00209341013093420100913A0110E0409166
:1026EC003D0150913E0130DE40913F01509140013F
:1026FC00609141017091420120E0322F040F151FAF
:10270C00261F371F0093430110934401209345016A
:10271C003093460100913B0110913C01B5E0000F54
:10272C00111FBA95E1F740913401509135010E9487
:10273C00D30A8C01409143015091440160914501B1
:10274C007091460120E0322F040F151F261F371FF2
:10275C0000934701109348012093490130934A019B
:10276C00209134013091350189011695079500931C
:10277C00E0011093E101B5E0890116950795BA9532
:10278C00E1F70093E2011093E30140935101509360
:10279C005201609353017093540100E07F906F904D
:0A27AC005F904F903F902F9008952A
:1015CE00F1013196008110E0302F2227F1010081C8
:0815DE0010E0020F131F089535
:1015A600C801BA01AA1BBB1B51E107C0AA1FBB1F7A
:1015B600A617B70710F0A61BB70B881F991F5A95D9
:0815C600A9F7809590950895A6
:101F5400F1013396008110E0212F312F722F612F70
:101F6400502F4427F1013296008110E0212F312FA8
:101F7400040F151F261F371F722F612F502F442760
:101F8400F1013196008110E0212F312F040F151F2C
:101F9400261F371F722F612F502F4427F101008114
:101FA40010E0212F312F040F151F261F371F08950E
:001FB4002D
:101F1000C9019A01AB01B801A1E21A2EAA1BBB1B91
:101F2000FD010DC0AA1FBB1FEE1FFF1FA217B307A5
:101F3000E407F50720F0A20BB30BE40BF50B661FCB
:101F4000771F881F991F1A9469F76095709580957F
:041F500090950895CB
:10412E002F923F924F925F926F927F928F92B1E455
:10413E00B093BF0088247724B9E06B2EB3E15B2ED9
:10414E00B4E04B2EBAED2B2EB7E03B2E0E94DF17BC
:10415E00B0EA4B2EB8EB2B2EB0E03B2E5DD9BCDA7D
:10416E00B1E0B093E5031091E50303E6011710F1FA
:10417E00BEE22B2E0E94020B0091E5034AE042DDC7
:10418E00005D0093C6000091E5034AE03BDD092F78
:10419E00005D0093C700BAE24B2EB0E05B2EB6EC8A
:1041AE002B2EB0E03B2EB4DA0091E5030F5F0093A7
:1041BE00E503D9CF8F907F906F905F904F903F9097
:0441CE002F90089591
:102FBE00B7E03B1611F4BCEB2B1620F081010C5B35
:102FCE001740180181010F7710701801142D1F7012
:102FDE00412E0CE0011710F4BCE04B2EB1E04B1665
:102FEE0010F4B1E04B2E0FE1051510F4BFE15B2E8E
:102FFE00B1E05B1610F4B1E05B2E07E1061508F4A4
:10300E0066240BE3071508F477240BE3081508F480
:10301E008824B9E09101220F331FBA95E1F720936E
:10302E00CF013093D001042D10E0B5E0000F111F39
:10303E00BA95E1F7022B132B0093CF011093D00119
:10304E0005290093CF011093D001062D10E0BBE0AF
:10305E009801220F331FBA95E1F72093D1013093D7
:10306E00D201072D10E0B5E0000F111FBA95E1F760
:10307E00202B312B2093D1013093D201082D0695B0
:10308E0010E0022B132B0093D1011093D20108955F
:00309E0032
:10342600CF93DF93CDB7DEB72297CDBFDEBF219610
:103436004F925F920091C40108830091C3010983F2
:103446004F923F922F92542CB7E04B2E0E94DA0FE8
:103456002F903F904F90102F00301CF51E3FF9F42F
:1034660009810093C3010CE110E0488150E047FD5B
:103476005FEF0E94AA112BE831E0020F131FF8013B
:103486007A96B0E0B193B193542CB7E04B2E0E94DC
:10349600DA0F003014F400E005C002E003C000E0DB
:1034A60001C001E05F904F902196CDBFDEBFDF9156
:0434B600CF91089515
:101FB400CF93DF93CDB7DEB7CB55D040CDBFDEBFD7
:101FC40021962F923F925F926F927F922ED8002398
:101FD40029F0B2E1B093C3010FEFAEC15F924F920B
:101FE4002101B3ED2B2EB1E03B2E0E94EC074F9064
:101FF4005F9000916F0110917001B02FB12BE1F04F
:102004000CE110E04091C40150E047FD5FEFA0D126
:102014002BE831E0D801A20FB31F1CE1E5E5F1E0A4
:1020240001910D931150E1F7B0E0B0936F01B093BB
:102034007001BFEFB093C4018E010A5B1F4F5F9222
:102044004F92BDE06B2EB0E07B2EB3ED4B2EB1E092
:102054005B2E18013CD88E01005E1F4F2801B3EDA2
:102064002B2EB1E03B2E4CD84F905F9000300CF0FB
:102074005BC057FE54C0FE01ED5AFF4FB0E0B19370
:10208400B193FE01EB5AFF4FB0E0B193B193B1931A
:10209400B193052D087529F0B8E0B093C3010FEF93
:1020A4004BC18E015F924F92B0E25B2EB0E06B2E7B
:1020B4004424180155D14F905F90052D0F770B875D
:1020C4008E014F92BBE06B2EB0E07B2EB3ED4B2E16
:1020D400B1E05B2E18010E946908AE014D5A5F4FB2
:1020E4009E012B5A3F4F8E013A01290118010E948B
:1020F40029064F90003014F40FEF1EC19E01205E9C
:102104003F4F8E010A5B1F4F4F92290118010E9415
:1021140082084F90003014F40FEF0EC105C0BDE0EB
:10212400B093C3010FEF08C10DA50875002329F072
:10213400B8E0B093C3010FEFFFC040E050E050306F
:1021440009F4423008F03AC05F934F930CE110E079
:10215400FFD04F915F912BE831E0020F131FB801BC
:10216400065E1F4FF80101911191B02FB12B09F1B7
:102174008B010A5F1F4FF801219131910EAD1FAD04
:1021840002171307B1F48B01065E1F4FF801419249
:10219400B0E0B1931CE1A5E5B1E0FB019A0100C0F8
:1021A40001910D9311501123D9F72093C401022FEB
:1021B400C3C08A010F5F1F4FA801C1CF80E090E028
:1021C400903009F4823008F0B3C00CE110E0AC01A7
:1021D400BFD02BE831E0020F131F065E1F4FF8013A
:1021E40001911191B02FB12B09F09DC00CE110E0C9
:1021F400AC01AED02BE831E0020F131F38017F92FF
:102204006F925F924F923F922F92BCE15B2EB0E0AF
:102214006B2E44241801A4D02F903F904F905F90D0
:102224006F907F90A3014A5F5F4F9301245F3F4FFC
:102234000EAD1FADF90101931193F90101911191B3
:10224400FA01019311938301065E1F4FF801419235
:10225400B0E0B193FE01E05CFF4F01911191219137
:102264003191F301019311932193319393012C5FE5
:102274003F4FFE01EC5BFF4F01911191B5E0000F60
:10228400111FBA95E1F7F90101931193A3014A5E75
:102294005F4F0AAD1BAD2CAD3DADFA010193119317
:1022A400219331938301025F1F4FFE01E75AFF4FD1
:1022B400019311938301045F1F4FF8010191119160
:1022C40020E0322F0250104020403040409136012F
:1022D4005091370160E0762F0E9438014091470108
:1022E400509148016091490170914A01400F511F7A
:1022F400621F731FFE01E75AFF4F01911191F8010C
:1023040041935193619371931CE1A5E5B1E0F3010D
:102314009C0100C001910D9311501123D9F7209312
:10232400C401022F09C08C010F5F1F4FC80148CFA1
:10233400B9E0B093C3010EEF7F906F905F903F9030
:102344002F90C65ADF4FCDBFDEBFDF91CF910895E6
:0023540089
:10102E002F923F9273D9202F003011F40FEF47C04B
:10103E000CE0021710F40EEF42C0F10100810E32E7
:10104E0011F40DEF3CC010E0A101322F00E00317A8
:10105E00E8F4E32FF0E0E20DF31D00810E3291F47F
:10106E0041E008E0031710F40CEF29C0032F10E045
:10107E000F5F1F4F020D131D1F930F93142F3F91E0
:10108E004F9106C0032F0150302FE0CF342F452F44
:10109E00113029F008E0021710F40BEF10C01130D8
:1010AE0069F4232E342E32D9202F003011F405EF9F
:1010BE0006C003E0021710F404EF01C000E03F90F9
:0410CE002F900895C2
:10031A009101F90189010F5F1F4F980100810023A4
:10032A0009F0F7CF89010219130901501040089505
:00033A00C3
:100FD800CF93DF93CDB7DEB72297CDBFDEBF219683
:100FE80030E03D30D0F4032F10E0020D131D0883CC
:100FF8001983E32FF0E0E40DF51D00813F922F9255
:10100800202E97D92F903F9018812981E12FF22F18
:101018000083032F0F5F302FE4CF2196CDBFDEBFB3
:06102800DF91CF91089555
:10033A000AE7021528F0B1E62B1610F0E89425F822
:04034A00022D0895E3
:1010D200A201B10193018301015010403801B22FE6
:1010E200B32B69F0FA010081FB0100838B010F5FD2
:1010F2001F4FB8018A010F5F1F4FA801EBCF81017B
:0211020008954E
:10110400CF93DF93CDB7DEB72A97CDBFDEBF21964D
:101114002F923F926F927F92B22DB32911F40FEF69
:10112400E7C05F924F923F922F920FD92F903F903A
:101134004F905F9040915101509152016091530141
:101144007091540100914301109144012091450193
:1011540030914601401751076207730739F4009133
:101164003B0110913C010A831B830CC000913601A2
:10117400109137014091E2015091E3010E94AA11BC
:101184000A831B8300915101109152012091530154
:10119400309154010E831F8328873987B4EEBC83B2
:1011A400B1E0BD835F924F923F922F922090510104
:1011B40030905201409053015090540175D8B1E0E1
:1011C400B093E403B4EE2B2EB1E03B2EBDDB2F90A5
:1011D4003F904F905F90B0E0B883B9832881398104
:1011E4000A811B812017310708F071C05F924F926A
:1011F4003F922F92BBE06B2EB0E07B2E21012C801E
:101204003D80B3DC2F903F904F905F90103009F4F5
:10121400003059F55F924F924ED94F905F90002362
:1012240029F0B0E1B093C3010FEF62C0B42DB5292A
:10123400D1F02C803D8098D9F201B0960E811F81A7
:10124400288539850193119321933193F201B49642
:101254000C811D81045E1140B5E016950795BA9581
:10126400E1F70193119300E043C00C811D819801C3
:10127400205E3F4F2C833D83009132011091330156
:1012840020173107E9F40E811F81288539850F5F06
:101294001F4F2F4F3F4F0E831F8328873987B4EE8C
:1012A400BC83B1E0BD835F924F923F922F92B4EE24
:1012B4002B2EB1E03B2E48DB2F903F904F905F9058
:1012C400088119810F5F1F4F0883198387CF5F92AD
:1012D4004F923F922F92EFD82F903F904F905F9074
:1012E400002329F0B0E1B093C3010FEF01C00FEF69
:1012F4007F906F903F902F902996CDBFDEBFDF91F6
:04130400CF910895E8
:10034E00CF93DF93CDB7DEB72B97CDBFDEBF219610
:10035E004F925F926F927F928E019801A1015F93EF
:10036E004F933F932F933F922F92BBE05B2EB0E0C3
:10037E006B2EB0E24B2E18010E94B2112F903F90BF
:10038E002F913F914F915F915F934F93A9012F91C1
:10039E003F91F1010081002379F0F10100813F923C
:1003AE002F92202E7CDE2F903F90002329F081018A
:1003BE000F5F1F4F1801EDCF3F922F92B3E64B2EDA
:1003CE00B0E05B2E4DDE2F903F90103009F40030E0
:1003DE0049F4FE01BEE2B0838E01F8013196BEE211
:1003EE00B0834EC03F922F92B1E64B2EB0E05B2E03
:1003FE0037DE2F903F90103009F4003021F4FE01CB
:10040E00BEE2B0833DC0F10100810023D9F0F101BD
:10041E0000813F922F92202E42DE2F903F9000239C
:10042E0089F4F10100810E3269F0F1010081FA01C7
:10043E0000838A010F5F1F4FA80181010F5F1F4FBD
:10044E001801E1CFF10100810E3221F481010F5F1D
:10045E001F4F18018E01085F1F4FA801F101108177
:10046E0000E2011768F4F1010081FA0100838A01AC
:10047E000F5F1F4FA80181010F5F1F4F1801EECFB5
:10048E008E013F922F92BBE06B2EB0E07B2E2801A7
:10049E00190118D62F903F907F906F905F904F90DC
:0C04AE002A96CDBFDEBFDF91CF910895EC
:1000AC00B0E22B1649F00DE0021520F0B9E02B164A
:0C00BC0008F002C000E001C001E008955F
:10006E00F1010081002379F0F1011081F20100818C
:10007E00101749F481010F5F1F4F180182010F5FA6
:10008E001F4F2801EDCFF1011081F2010081002EEA
:0E009E00B0E01B2E012F10E00019110908958B
:1002AC002F923F924F925F926F927F920E94F01228
:1002BC000091600010E0103009F4043019F4810151
:1002CC0092010DC0B9E081019201000F111F221F94
:1002DC00331FBA95D1F7A801B9018A019B01BFEF71
:1002EC007B2E302E412E522E632EB2E12B2E0E94ED
:1002FC007D12002321F00E94F30A01E001C000E00E
:0E030C007F906F905F904F903F902F900895DC
:10094C00CF93DF93CDB7DEB72297CDBFDEBF219615
:10095C003F922F9279DB2F903F9030E040E0423075
:10096C0009F4303008F5032F142F020D131D0883E2
:10097C0019834F933F933F922F92BFEF2B2EE09111
:10098C007101F091720109952F903F903F914F9119
:10099C0018812981E12FF22F0083032F142F0F5F71
:1009AC001F4F302F412FDBCF3F922F92BFEF2B2EBB
:1009BC00E0917101F09172010995BFEF2B2EE0913E
:1009CC007101F091720109952F903F902196CDBF46
:0809DC00DEBFDF91CF91089509
:100054002F92BFEF2B2EE0917101F091720109955F
:0A0064000E3F09F0F6CF2F9008952B
:100B6E0093018301015010403801303009F42030D8
:100B7E00D9F0F1011081F2010081101761F0F1013D
:100B8E001081F2010081002EB0E01B2E012F10E02B
:100B9E00001911090BC081010F5F1F4F180182014F
:0E0BAE000F5F1F4F2801DCCF00E010E008951C
:1004BA002F92BCE42B2EE0917101F0917201099503
:1004CA002224E0917101F091720109952224E091B0
:1004DA007101F091720109952224E0917101F09164
:1004EA00720109952224E0917101F0917201099536
:1004FA00BFEF2B2EE0917101F0917201099540E056
:10050A0050E05F934F93BFEF2B2EE0917101F09172
:10051A00720109954F915F91302F142F252F1F5F7C
:10052A002F4F412F522F0078003029F0503009F414
:10053A00443608F4E6CF37FF06C03F930E94F30A19
:10054A003F91032F0CC0BFEF2B2EE0917101F09168
:10055A00720109950030B9F30E94F30A00E02F9066
:02056A000895F2
:10056C00CF93DF93CDB7DEB72297CDBFDEBF2196F9
:10057C00B101A20120E030E0303009F42830B0F4B1
:10058C00FB010081003209F411C0FB010081FA016A
:10059C0000838A010F5F1F4FA8018B010F5F1F4F54
:1005AC00B80189010F5F1F4F9801E6CF8101085FE9
:1005BC001F4F9801F8010081003239F1FA01BEE2B7
:1005CC00B0838A010F5F1F4FA80100E010E0B90152
:1005DC009801303009F42330B0F4FB010081003273
:1005EC0009F411C0FB010081FA0100838A010F5F3D
:1005FC001F4FA8018B010F5F1F4FB80189010F5FBF
:10060C001F4F9801E6CF8A0101C08A01F801B0E0C2
:10061C00B083142D252D135F2F4FF1013B960081D4
:10062C00E12FF22F00838201065E1F4F088319838E
:10063C008101045E1F4F3F922F9218010E94AA0F56
:10064C002F903F9048815981FA0101931193219386
:10065C0031938201025E1F4F088319838101065E6C
:10066C001F4F3F922F921801ACD72F903F902881AB
:10067C003981F901019311938101025F1F4FF80138
:10068C002081F80131960081102F002730E0200FD7
:10069C00311FA9018201025F1F4FF8013396BBE0A5
:1006AC00890116950795BA95E1F700838201025FDF
:1006BC001F4FF8013496B5E08A0116950795BA9547
:1006CC00E1F70F7300838201025F1F4FF80135962B
:1006DC00042F0F71000F00838101005F1F4FF80181
:1006EC002081F80131960081102F002730E0200F77
:1006FC00311FA9018201025F1F4FF8013296022FB0
:10070C000F7100838201025F1F4FF8013196B5E033
:10071C008A0116950795BA95E1F70F700083F201DF
:10072C003E96B9E08A0116950795BA95E1F70083D4
:10073C0081010A5E1F4FF8012081F801319600817A
:10074C00102F002730E0200F311FA90182010C5E11
:10075C001F4FF8013396BBE0890116950795BA95A2
:10076C00E1F7008382010C5E1F4FF8013496B5E06F
:10077C008A0116950795BA95E1F70F7300838201EC
:10078C000C5E1F4FF8013596042F0F71000F00837C
:10079C008101085E1F4FF8012081F801319600811C
:1007AC00102F002730E0200F311FA90182010C5EB1
:1007BC001F4FF8013296022F0F71008382010C5EDD
:1007CC001F4FF8013196B5E08A0116950795BA9539
:1007DC00E1F70F700083F2017496B9E08A01169567
:1007EC000795BA95E1F700832196CDBFDEBFDF9167
:0407FC00CF910895FC
:100C5200CF93DF93CDB7DEB72897CDBFDEBF219606
:100C62004F925F928101065E1F4F3F922F921801B1
:100C7200ADD42F903F90F30101931193F3010191B1
:100C82001191B02FB12B81F57F926F925F924F92AB
:100C92003F922F92B4DD2F903F904F905F906F90D4
:100CA2007F90F30101931193F301019111911F3F81
:100CB20009F40F3F29F4B4E0B093C3010FEF83C1ED
:100CC200F301019111917F926F925F924F923F9245
:100CD2002F92BFEF4B2E5B2E180183DE2F903F9099
:100CE2004F905F906F907F90F3010191119120E0FE
:100CF200322F025010402040304040913601509136
:100D0200370160E0762FB3DA4091470150914801F4
:100D12006091490170914A01040F151F261F371F68
:100D2200F20101931193219331934091510150911A
:100D3200520160915301709154010091430110914D
:100D42004401209145013091460140175107620745
:100D5200730739F400913B0110913C010A831B8314
:100D62000CC000913601109137014091E20150917F
:100D7200E3010E94AA110A831B8300915101109181
:100D8200520120915301309154010C831D832E8313
:100D92003F8304EE11E01F930F937F926F923F9275
:100DA2002F92209051013090520140905301509067
:100DB20054017BDAB1E0B093E403B4EE2B2EB1E040
:100DC2003B2EC3DD2F903F906F907F900F911F912C
:100DD200B0E0B883B983A801288139810A811B81D7
:100DE2002017310708F0D7C0FA010081053E29F02B
:100DF200FA010081003208F097C05F934F937F920F
:100E02006F925F924F923F922F9256DB2F903F90BC
:100E12004F905F906F907F904F915F91002329F0E8
:100E2200B0E1B093C3010FEFCEC05F934F937F92B7
:100E32006F925F924F923F922F92B0E26B2EB0E090
:100E42007B2E21011A0144D12F903F904F905F9049
:100E52006F907F904F915F91142F252F165E2F4F29
:100E6200F3010081E12FF22F00838A01065E1F4FFA
:100E720098012F5F3F4FF30101911191012F10E073
:100E8200F9010083FA013E960091D10100838A01A3
:100E9200025F1F4FF80131960091D2010083FA01DF
:100EA20070960091CF0100838A01005F1F4FF80105
:100EB20031960091D0010083FA0176960091D1011A
:100EC20000838A010A5E1F4FF80131960091D20118
:100ED2000083FA0178960091CF0100838A01085EAF
:100EE2001F4FF80131960091D00100837F926F92DB
:100EF2005F924F923F922F92B4EE6B2EB1E07B2E17
:100F02002C803D804E805F80DED82F903F904F90A6
:100F12005F906F907F90002329F0B5E0B093C301FA
:100F22000FEF51C000E04FC09A01205E3F4FC90150
:100F320000913201109133012017310721F50C8104
:100F42001D812E813F810F5F1F4F2F4F3F4F0C831B
:100F52001D832E833F8384EE91E09F938F937F9234
:100F62006F925F924F923F922F92B4EE2B2EB1E08E
:100F72003B2EEBDC2F903F904F905F906F907F90D5
:100F82008F919F9100C0088119810F5F1F4F0883C5
:100F92001983AC0121CF7F926F925F924F923F9261
:100FA2002F928ADA2F903F904F905F906F907F90B0
:100FB200002329F0B0E1B093C3010FEF04C0B6E003
:100FC200B093C3010FEF5F904F902796CDBFDEBF66
:060FD200DF91CF910895AC
:10080000CF93DF93CDB7DEB72697CDBFDEBF21965E
:100810002F923F924F925F9200913D0110913E01C5
:100820004091E0015091E1010E94AA1108831983CF
:10083000B2E0BA83B0E0BB834091E0015091E101A6
:1008400002E010E0B0D68C01A80160E0762F0091A4
:100850003F01109140012091410130914201040F6C
:10086000151F261F371FA801B9017F936F935F9350
:100870004F934091E0015091E10102E010E093D6E6
:100880008D014F915F916F917F919801220F331FDE
:1008900004EE11E0020F131F0C831D831A012B01BC
:1008A00005DDB1E0B093E403B4EE2B2EB1E03B2EB6
:1008B0004DD02A813B81088119812017310738F5F5
:1008C000EC81FD8101911191103009F4003009F49F
:1008D0001EC00C811D8198012E5F3F4F2C833D83EC
:1008E0000A811B810F5F1F4F0A831B830091320116
:1008F000109133012017310749F4B4EEBC83B1E005
:10090000BD83B4EE2B2EB1E03B2E20D0D2CFD5DD6F
:10091000002331F0B0E1B093C3010FEF1FEF0CC023
:100920002A813B81088119812017310719F40FEFC3
:100930001FEF02C00A811B815F904F903F902F9064
:0C0940002596CDBFDEBFDF91CF9108955A
:1009E400CF93DF93CDB7DEB72897CDBFDEBF219677
:1009F4002F923F924F925F926F927F924E825F82CC
:100A04004091E0015091E1018101CBD58C010A8331
:100A14001B83B0E0BC83BD834A815B816C817D8193
:100A240000913F0110914001209141013091420118
:100A3400040F151F261F371F0A831B832C833D8336
:100A4400B1E0B093E4033F922F92B4EE6B2EB1E089
:100A54007B2E180129010E94DB132F903F90002365
:100A640031F0B0E1B093C3010FEF1FEF72C04091BA
:100A7400E0015091E101810194D58D019801220F8B
:100A8400331FA90104EE11E0200F311FFE01369639
:100A94000081F90100839A012F5F3F4F04EE11E0BA
:100AA400200F311F8E010A5F1F4FF801319600811C
:100AB400F9010083B4EE6B2EB1E07B2E2A803B80DB
:100AC4004C805D80FFDA002331F0B5E0B093C301C0
:100AD4000FEF1FEF3EC0B1E0B883B0E0B9831881D7
:100AE400298100913A011017B0E02B0780F54A8163
:100AF4005B816C817D8100913D0110913E0120E07C
:100B0400322F040F151F261F371F0A831B832C83C4
:100B14003D835F924F923F922F92B4EE6B2EB1E0E1
:100B24007B2E18012901CEDA2F903F904F905F90D1
:100B3400002331F0B5E0B093C3010FEF1FEF09C0FC
:100B4400088119810F5F1F4F08831983C8CF00E004
:100B540010E07F906F905F904F903F902F9027967A
:0A0B6400CDBFDEBFDF91CF910895F1
:1000C8002F923F924F925F920E94F012009160002F
:1000D80010E0103009F4043019F4810192010DC0C8
:1000E800B9E081019201000F111F221F331FBA9539
:1000F800D1F7A801B9018A019B017F926F92BFEFE6
:100108007B2E302E412E522E632EB8E12B2E0E94CC
:100118007D126F907F90002321F00E94F30A01E086
:100128009EC07F926F92BFEF2B2EE0917101F091EC
:1001380072010995BFEF2B2EE0917101F0917201C8
:100148000995BEEF2B2EE0917101F091720109958E
:100158006F907F9020E030E00FEF11E00217130757
:10016800F8F0F901E60DF71D00813F932F937F9278
:100178006F925F924F923F922F92202EE0917101E1
:10018800F091720109952F903F904F905F906F907A
:100198007F902F913F9189010F5F1F4F9801DCCF0E
:1001A8007F926F925F924F923F922F92BFEF2B2ECA
:1001B800E0917101F09172010995BFEF2B2EE0914A
:1001C8007101F09172010995BFEF2B2EE091710139
:1001D800F091720109952F903F904F905F906F902A
:1001E8007F90202F30E089010F711070103009F4D2
:1001F800053081F07F926F925F924F923F922F92DB
:100208000E94F30A2F903F904F905F906F907F90DD
:1002180002E025C07F926F925F924F923F922F9299
:10022800BFEF2B2EE0917101F091720109952F908B
:100238003F904F905F906F907F900F3F09F0EACF0B
:100248007F926F925F924F923F922F920E94F30A91
:100258002F903F904F905F906F907F9000E05F905D
:080268004F903F902F90089584
:10027000049FD001159FF001249FE00DF11D069F02
:10028000E00DF11D349FF00D259FF00D169FF00D30
:10029000079FF00D3327149FB00DE11DF31F059F3D
:0C02A000B00DE11DF31F8D019F010895BA
:1036E6002F923F924F925F9200916F01109170015D
:1036F60006701070B02FB12B21F4B7E0B093C30160
:1037060006C022243324442455240E940E0B5F90C5
:083716004F903F902F900895A1
:10161C0000916F0110917001B02FB12B41F4B7E024
:10162C00B093C3010FEF1FEF2FEF3FEFF2C0B1E00C
:10163C00B093E40300916B0110916C0120916D014A
:10164C0030916E01021513052405350588F40091BF
:10165C006B0110916C0120916D0130916E01009322
:10166C005D0110935E0120935F013093600108C00F
:10167C0020925D0130925E0140925F0150926001B8
:10168C00409134015091350160E0762F00915D015D
:10169C0010915E0120915F013091600133D48B0178
:1016AC009C01409136015091370160E0762F2AD48D
:1016BC008B019C01980100915B0110915C010093DE
:1016CC0061011093620100E010E002171307B0F5FE
:1016DC003F932F935F924F923F922F9220906101F4
:1016EC003090620165DA2F903F904F905F902F9170
:1016FC003F9100936101109362011F3F09F40F3F6A
:10170C00C1F400916B0110916C0120916D0130912D
:10171C006E0100935D0110935E0120935F01309385
:10172C006001BAE0B093C30100E010E020E030E0CB
:10173C0070C08901015010409801C5CF409134010F
:10174C005091350160E0762F00915D0110915E01A2
:10175C0020915F0130916001D5D38B019C014091A8
:10176C0036015091370160E0762FCCD38D019F016B
:10177C00009367011093680100916101109162015F
:10178C0020E0322F02501040204030404091360172
:10179C005091370160E0762F0E943801409147014B
:1017AC00509148016091490170914A01400F511FBD
:1017BC00621F731F009167011091680120E0322FA6
:1017CC00040F151F261F371F00936301109364012C
:1017DC00209365013093660140913401509135019D
:1017EC0060E0762F00915D0110915E0120915F0108
:1017FC003091600187D38D019F0100936901109393
:10180C006A0100915D0110915E0120915F013091A0
:04181C0060010895CA
:100BBC002F923F924F925F926F927F924091E00101
:100BCC005091E1018101E9D48C01A80160E0762FFC
:100BDC0000913F011091400120914101309142015F
:100BEC00040F151F261F371FB1E0B093E4033F928B
:100BFC002F92B4EE6B2EB1E07B2E180129010E94CE
:100C0C00DB132F903F90002331F0B0E1B093C30180
:100C1C000FEF1FEF11C04091E0015091E1018101F4
:100C2C00BCD48D019801220F331F04EE11E0020F8A
:100C3C00131F1801C6D418017F906F905F904F90CE
:060C4C003F902F90089577
:10371E00CF93DF93CDB7DEB72297CDBFDEBF219615
:10372E006F927F9200916F01109170010670107070
:10373E00B02FB12B21F4B7E0B093C3015BC2B42D0F
:10374E00B52909F457C2B1E0B093E40300916901C1
:10375E0010916A01123009F4003059F1009169019B
:10376E0010916A01103009F4003041F400913401D7
:10377E00109135014016510608F01BC05F924F9212
:10378E003F922F92B4EE6B2EB1E07B2E2090630110
:10379E0030906401409065015090660105D82F90DD
:1037AE003F904F905F90002321F0B0E1B093C301A2
:1037BE0021C280E090E08415950508F04CC124EEFE
:1037CE0031E00091690110916A01200F311FFC0157
:1037DE00E20DF31D0081F901008300916901109142
:1037EE006A010F5F1F4F0093690110936A01123037
:1037FE0009F4003009F02AC19F938F935F924F9284
:10380E003F922F92B4EE6B2EB1E07B2E209063018F
:10381E003090640140906501509066010E946400F2
:10382E002F903F904F905F908F919F910023C9F002
:10383E0000915D0110915E0120915F013091600158
:10384E00080F191FB0E02B1F3B1F00935D01109353
:10385E005E0120935F0130936001B5E0B093C30128
:10386E00C9C1B0E0B0936901B0936A0100916301E0
:10387E001091640120916501309166010F5F1F4F19
:10388E002F4F3F4F00936301109364012093650106
:10389E0030936601009167011091680198012F5FC6
:1038AE003F4F2093670130936801009136011091CC
:1038BE0037012017310709F08DC09F938F935F92C8
:1038CE004F923F922F9220906101309062010E94A0
:1038DE00DE052F903F904F905F908F919F910883C0
:1038EE0019831F3F09F40F3F09F043C09F938F9335
:1038FE005F924F923F922F920E9400042F903F9022
:10390E004F905F908F919F91088319831F3F09F409
:10391E000F3FA1F400916B0110916C0120916D018C
:10392E0030916E0100935D0110935E0120935F0153
:10393E0030936001BAE0B093C3015CC19F938F9343
:10394E005F924F923F922F92488059802090610152
:10395E00309062010E94F204BFEF4B2E5B2E288046
:10396E0039800E94F2042F903F904F905F908F917C
:10397E009F91088119810093610110936201B0E05B
:10398E00B0936701B09368010091610110916201DB
:10399E0020E0322F0250104020403040409136013E
:1039AE005091370160E0762F0E9438014091470117
:1039BE00509148016091490170914A01040F151F01
:1039CE00261F371F00936301109364012093650136
:1039DE00309366018201081B190B123009F4003076
:1039EE00A8F59F938F935F924F923F922F92B4EED2
:1039FE006B2EB1E07B2E20906301309064014090DD
:103A0E006501509066010E94DB132F903F904F90FE
:103A1E005F908F919F910023C9F000915D011091ED
:103A2E005E0120915F0130916001080F191FB0E017
:103A3E002B1F3B1F00935D0110935E0120935F01CE
:103A4E0030936001B0E1B093C301D4C08C010F5F1D
:103A5E001F4FC801B0CE0091690110916A01B02FBD
:103A6E00B12BE1F05F924F923F922F92B4EE6B2EFC
:103A7E00B1E07B2E2090630130906401409065018F
:103A8E00509066010E9464002F903F904F905F907F
:103A9E00002321F0B5E0B093C301ACC000915D01ED
:103AAE0010915E0120915F0130916001A20160E0F2
:103ABE00762F400F511F621F731F40935D0150936D
:103ACE005E0160935F017093600100916B01109134
:103ADE006C0120916D0130916E01041715072607B8
:103AEE00370780F400915D0110915E0120915F0116
:103AFE003091600100936B0110936C0120936D0166
:103B0E0030936E015F924F923F922F92B4EE6B2ED6
:103B1E00B1E07B2E20905501309056014090570118
:103B2E00509058010E94DB132F903F904F905F9062
:103B3E00002321F0B0E1B093C3015CC024EE31E06C
:103B4E000091590110915A01020F131F9801F801AB
:103B5E007C9600916B0100838901045E1F4FF80172
:103B6E00319600916C0100838901045E1F4FF801AC
:103B7E00329600916D0100838901045E1F4FF8019A
:103B8E00339600916E010083F90176960091D10172
:103B9E00008389010A5E1F4FF80131960091D20110
:103BAE000083F90178960091CF0100838901085EA8
:103BBE001F4FF80131960091D00100835F924F9212
:103BCE003F922F92B4EE6B2EB1E07B2E20905501DA
:103BDE003090560140905701509058010E94640059
:103BEE002F903F904F905F90002321F0B5E0B0935F
:103BFE00C30100C07F906F902196CDBFDEBFDF91D5
:043C0E00CF910895B5
:103C1200992779E004C0991F941708F0941B001F9C
:083C22007A95C9F70095089599
:104234002F923F924F925F926F927F928F92B2E44D
:10424400B093EE031091EE030AE5011708F44AC097
:104254002090EE030E94020B0091EE030093BF0036
:1042640088247724B9E06B2EB3E15B2EB4E04B2EA7
:10427400BAED2B2EB7E03B2E0E94DF17B0EA4B2E8F
:10428400B8EB2B2EB0E03B2ECCD82BDAB1E0B093B8
:10429400E5031091E5030CE20117F0F00091E5034A
:1042A4004AE0B5DC005D0093C6000091E5034AE0F6
:1042B400AEDC092F005D0093C700BAE24B2EB0E0DC
:1042C4005B2EB6EC2B2EB0E03B2E27DA0091E503F3
:1042D4000F5F0093E503DDCF0091EE030F5F0093C2
:1042E400EE03B0CF8F907F906F905F904F903F9090
:0442F4002F9008956A
:1042F8002F923F924F925F92B3E4B093BF00442451
:10430800B8EB2B2EB0E03B2E8AD8E9D9B1E0B093B8
:10431800E5031091E50307E30117F0F00091E503C9
:104328004AE073DC005D0093C6000091E5034AE0B3
:104338006CDC092F005D0093C700BAE24B2EB0E099
:104348005B2EB6EC2B2EB0E03B2EE5D90091E503B1
:104358000F5F0093E503DDCF5F904F903F902F9064
:024368000895B6
:1041D2002F923F924F925F926F927F928F92B2E4B0
:1041E200B093BF004424B8EB2B2EB0E03B2E1AD97B
:1041F2008824B4E17B2EB9E06B2EB3E15B2EB4E0F0
:104202004B2EBAED2B2EB7E03B2E0E94DF1775DE48
:10421200BBE14B2EB0E05B2EB6E62B2EB0E03B2E80
:104222007DDA8F907F906F905F904F903F902F90AC
:024232000895ED
:103EFC002F923F924F925F9200916F01109170013F
:103F0C0006701070B02FB12B21F4B7E0B093C30141
:103F1C000AC020906B0130906C0140906D01509064
:103F2C006E010E940E0B5F904F903F902F90089562
:003F3C0085
:10402200CF93DF93CDB7DEB72197CDBFDEBF219609
:104032002F923F924F92B2E4B093BF004424B8EB68
:104042002B2EB0E03B2EEED9BAEE2B2EB3E03B2E58
:1040520074DFB1E0B093E603B0E0B093E703B0934E
:10406200E803B093E9034091E6035091E7036091BE
:10407200E8037091E9030091EA031091EB032091A8
:10408200EC033091ED030417150726073707D8F024
:104092008E01180111DA28800E94020B0091E603BA
:1040A2001091E7032091E8033091E9030F5F1F4F5E
:1040B2002F4F3F4F0093E6031093E7032093E8034B
:1040C2003093E903D0CF4F903F902F90CDBFDEBF0A
:0640D200DF91CF9108957B
:103F3C004F925F9200916F011091700100FD0AC0C9
:103F4C00F101B0E0B193B193B193B193B7E0B093F9
:103F5C00C30117C03F922F922224332444245524AA
:103F6C000E940E0B2F903F9000916B0110916C01F1
:103F7C0020916D0130916E01F10101931193219308
:083F8C0031935F904F900895FE
:1034BA004F925F926F927F9200916F01109170010B
:1034CA0000FD04C0B7E0B093C30103C140915D01A0
:1034DA0050915E0160915F017091600100916B01F2
:1034EA0010916C0120916D0130916E0140175107C6
:1034FA006207730720F0BBE0B093C301EAC00091F2
:10350A00690110916A01123009F4003009F099C07A
:10351A00B0E0B0936901B0936A010091670110911C
:10352A00680198012F5F3F4F20936701309368012C
:10353A0000913601109137012017310709F052C066
:10354A00B0E0B0936701B09368013F922F92209048
:10355A006101309062010E94DE052F903F90009336
:10356A006101109362011F3F09F40F3FA1F400911A
:10357A006B0110916C0120916D0130916E010093E5
:10358A005D0110935E0120935F0130936001BAE000
:10359A00B093C3019EC0009161011091620120E0C5
:1035AA00322F025010402040304040913601509155
:1035BA00370160E0762F0E9438014091470150910F
:1035CA0048016091490170914A01040F151F261F95
:1035DA00371F0093630110936401209365013093B0
:1035EA00660114C000916301109164012091650184
:1035FA00309166010F5F1F4F2F4F3F4F00936301BA
:10360A00109364012093650130936601B0E0B09392
:10361A00E4033F922F92B4EE6B2EB1E07B2E209002
:10362A006301309064014090650150906601BED8F4
:10363A002F903F90002321F0B0E1B093C30149C01D
:10364A001EC00091E4030023D1F0B0E0B093E4037C
:10365A003F922F92B4EE6B2EB1E07B2E2090630145
:10366A003090640140906501509066019FD82F9078
:10367A003F90002321F0B0E1B093C3012AC024EEA9
:10368A0031E00091690110916A01F801E20FF31F1C
:10369A000081F10100830091690110916A010F5FB5
:1036AA001F4F0093690110936A0100915D01109107
:1036BA005E0120915F01309160010F5F1F4F2F4F14
:1036CA003F4F00935D0110935E0120935F01309399
:0C36DA0060017F906F905F904F9008950A
:1040D8002F923F924F92B6E4B093BF004424B8EBBE
:1040E8002B2EB0E03B2E9BD90E9441154F903F905C
:0440F8002F90089568
:102A82002F923F924F925F926F927F928F929F927C
:102A920000916F0110917001B02FB12B29F4B7E0B2
:102AA200B093C30101E032C0B0E0B0936F01B093C4
:102AB20070010CE110E04091C40150E047FD5FEF6E
:102AC20048DC2BE831E0D801A20FB31F1CE1E5E599
:102AD200F1E001910D931150E1F7BFEFB093C40102
:102AE2008090590190905A014090550150905601A2
:102AF200609057017090580120905B0130905C010A
:102B02006FD8003014F402E001C000E09F908F9073
:0E2B12007F906F905F904F903F902F900895AE
:101BE200BFEF3B1611F4BFEF2B1661F19F928F925C
:101BF2007F926F925F924F923F922F920E94DE05E8
:101C02002F903F904F905F906F907F908F909F901A
:101C12001F930F939F928F927F926F925F924F9238
:101C22003F922F92442455240E94F2042F903F9019
:101C32004F905F906F907F908F909F900F911F9128
:101C42001801CECFB1E0B093E4039F928F927F92BE
:101C52006F925F924F923F922F9212012301B4EE44
:101C62006B2EB1E07B2EA6D52F903F904F905F90C8
:101C72006F907F908F909F90002329F0B0E1B093F6
:101C8200C3010FEF27C004EE11E0F401E00FF11FD2
:101C9200B5EEB0839F928F927F926F925F924F9236
:101CA2003F922F9212012301B4EE6B2EB1E07B2EF4
:101CB2000E9464002F903F904F905F906F907F90B2
:101CC2008F909F90002329F0B5E0B093C3010FEFEE
:061CD20001C000E00895CE
:10436A00CF93DF93CDB7DEB76297CDBFDEBF21967D
:10437A002F923F924F925F926F927F928F929F926B
:10438A00B2E4B093BF004424B8EB2B2EB0E03B2E2E
:10439A0045D8002309F4D4C0CE010596BE016C5F4E
:1043AA007F4FAE014D5F5F4F9E012E5F3F4F8E01E3
:1043BA004B013A01290118019F938F930E9490158E
:1043CA00ADB7BEB71296ADBFBEBFB6E92B2EB0E0F1
:1043DA003B2E77DD8E010A5F1F4F28012880398026
:1043EA000E9412168E010A5F1F4F18016ADD8E01A4
:1043FA000A5F1F4F302E412E2A800E9400158E011F
:10440A000A5F1F4F18015DDD8E010A5F1F4F2801E9
:10441A002B80B0E03B2E0E9412168E010A5F1F4FBE
:10442A0018014FDD8E010A5F1F4F28012C80B0E072
:10443A003B2E0E9412168E010A5F1F4F180141DDA2
:10444A008E010A5F1F4F28012D80B0E03B2E0E948B
:10445A0012168E010A5F1F4F180133DDCE01059631
:10446A00BE016C5F7F4FAE014D5F5F4F9E012E5FB5
:10447A003F4F8E014B013A01290118019F938F93F7
:10448A000E947E14ADB7BEB71296ADBFBEBFB1EAE9
:10449A002B2EB0E03B2E15DD8E010A5F1F4F28013F
:1044AA00288039800E9412168E010A5F1F4F180158
:1044BA0008DD8E010A5F1F4F302E412E2A800E948E
:1044CA0000158E010A5F1F4F1801FBDC8E010A5F7F
:1044DA001F4F28012B80B0E03B2E0E9412168E013E
:1044EA000A5F1F4F1801EDDC8E010A5F1F4F28017A
:1044FA002C80B0E03B2E0E9412168E010A5F1F4FDD
:10450A001801DFDC8E010A5F1F4F28012D80B0E001
:10451A003B2E0E9412168E010A5F1F4F1801D1DC32
:10452A000E949919AE014A5F5F4F3A0118012901A9
:10453A000E94B1198E010A5F1F4F180120D011C0C5
:10454A00B5E52B2E0E94020B29E216E900E80A952E
:10455A00F1F71A95E1F72A95D1F7B5E52B2E0E94C6
:10456A00020B9F908F907F906F905F904F903F903B
:0E457A002F906196CDBFDEBFDF91CF910895E7
:102B2000CF93DF93CDB7DEB7A697CDBFDEBF21969B
:102B30000AA51BA50AA71BA700916F0110917001A0
:102B4000B02FB12B21F4B7E0B093C30165C0B1E061
:102B5000B093E4039F928F927F926F925F924F9215
:102B60003F922F92B4EE6B2EB1E07B2E2090550158
:102B70003090560140905701509058011CDE2F9024
:102B80003F904F905F906F907F908F909F90002329
:102B900021F0B0E1B093C3013FC024EE31E00091D9
:102BA000590110915A01200F311F8E015F924F92EF
:102BB0003F922F92280119010E94B6022F903F9058
:102BC0004F905F908E01025F1F4FF8013496008195
:102BD000EAA5FBA500838E01025F1F4FF801339623
:102BE0000081F40100838E01025F1F4FF8013296CD
:102BF0000081F30100838E01025F1F4FF8013196BF
:102C00000081F2010083FE013E96008110E0045431
:102C1000184FF10101931193A596CDBFDEBFDF914F
:042C2000CF910895B3
:102C2400CF93DF93CDB7DEB72297CDBFDEBF21961A
:102C340010E0153050F4E12FF0E0E40DF51DB0E2A2
:102C4400B083012F0F5F102FF4CFE12FF0E0E40DDC
:102C5400F51DB0E0B083012F0150302F032F10E099
:102C6400040D151D088319834AE050E081010E9478
:102C7400D30A8D01202F205D08811981F80120835A
:102C84004AE050E081010E94D30A8C0118011030FF
:102C940009F4003009F404C0032F0150302FDECFB3
:0C2CA4002196CDBFDEBFDF91CF910895D7
:102A0000CF93DF93CDB7DEB72297CDBFDEBF219640
:102A100010E0133050F4E12FF0E0E30DF41DB0E2CC
:102A2000B083012F0F5F102FF4CFE12FF0E0E30D03
:102A3000F41DB0E0B083012F0150302F032F10E0C0
:102A4000030D141D088319834AE0022D0E94091EFC
:102A5000092F202F205D08811981F80120834AE089
:102A6000022D0E94091E202E003009F404C0032FFD
:102A70000150302FE3CF2196CDBFDEBFDF91CF9144
:022A80000895B7
:1028FC00CF93DF93CDB7DEB7A697CDBFDEBF2196C2
:10290C000AA51BA50AA71BA700916F0110917001C6
:10291C00B02FB12B21F4B7E0B093C30165C0B1E087
:10292C00B093E4039F928F927F926F925F924F923B
:10293C003F922F92B4EE6B2EB1E07B2E209055017E
:10294C003090560140905701509058012EDF2F9037
:10295C003F904F905F906F907F908F909F9000234F
:10296C0021F0B0E1B093C3013FC024EE31E00091FF
:10297C00590110915A01200F311F8E015F924F9215
:10298C003F922F92280119010E94B6022F903F907E
:10299C004F905F908E010C5E1F4FF80134960081B2
:1029AC00EAA5FBA500838E010C5E1F4FF801339640
:1029BC000081F40100838E010C5E1F4FF8013296EA
:1029CC000081F30100838E010C5E1F4FF8013196DC
:1029DC000081F2010083FE017496008110E0045422
:1029EC00184FF10101931193A596CDBFDEBFDF9176
:0429FC00CF910895DA
:1033320000916F0110917001B02FB12B41F4B7E0F1
:10334200B093C3010FEF1FEF2FEF3FEF08C00091C3
:103352006B0110916C0120916D0130916E01089505
:003362006B
:103362002F923F924F925F9240E050E0B101C20132
:1033720000E010E020E030E020163106420653065D
:103382007CF441E050E000E010E020E030E002197F
:10339200130924093509B801C9018B019C0102C036
:1033A2008B019C015F934F93180129010E946C0EBF
:1033B2004F915F916BE070E000E010E00617170795
:1033C20088F49B01260D371D8B0101501040F80136
:1033D200E60DF71D0081F90100838B0101501040B9
:1033E200B801EACFF301B0E2B083B42FB52BA9F054
:1033F20020E030E0F901E60DF71D0081003229F4EA
:1034020089010F5F1F4F9801F5CF890101501040CC
:10341200F801E60DF71DBDE2B0835F904F903F903B
:043422002F9008954A
:101CD800CF93DF93CDB7DEB72297CDBFDEBF219676
:101CE80020E030E0303009F42A3050F4F901E60DF4
:101CF800F71DB0E2B08389010F5F1F4F9801F2CF43
:101D0800F901E60DF71DB0E0B083890101501040DC
:101D1800A8018A01060D171D088319835F934F9345
:101D28004AE050E060E070E081019201EDD08D0161
:101D38009F01202F205D08811981F80120834AE046
:101D480050E060E070E081019201DED08B019C01DF
:101D58004F915F9118012901303029F4203019F48E
:101D6800103009F4003009F405C08A010150104010
:101D7800A801CFCF2196CDBFDEBFDF91CF910895C7
:001D88005B
:1045A4002F923F924F925F926F927F928F92B0E2DE
:1045B4008B2EBDEA6B2EB0E07B2EB8E82B2EB3E138
:1045C4003B2EB0E04B2E5B2E0E9458160093EA035C
:1045D4001093EB032093EC033093ED0320E030E0E1
:1045E400323009F4203058F404EE11E0F901E00F00
:1045F400F11F208389010F5F1F4F9801F1CF0091B4
:10460400EA031091EB032091EC033091ED03B02FFA
:10461400B12BB22BB32B09F448C0B2E86B2EB0E037
:104624007B2E2090EA033090EB034090EC035090F3
:10463400ED030E94B119B2E82B2EB0E03B2EA2DFAD
:1046440040E050E0533109F4483878F55F934F93D4
:10465400B4EE6B2EB1E07B2E2090EA033090EB0396
:104664004090EC035090ED030E9464004F915F91E1
:104674000091EA031091EB032091EC033091ED03D8
:104684000F5F1F4F2F4F3F4F0093EA031093EB032D
:104694002093EC033093ED03BEE22B2E0E94020B19
:1046A4008A010F5F1F4FA801CDCF8F907F906F902D
:0A46B4005F904F903F902F90089503
:102CB000CF93DF93CDB7DEB7E297CDBFDEBF2196CE
:102CC0002F923F924F925F926F927F925F924F92BC
:102CD0003F922F9213010E9417082F903F904F9020
:102CE0005F90002341F0B2E1B093C30100E010E037
:102CF00020E030E058C1409136015091370160E04A
:102D0000762F8101920104D98B019C0108831983DC
:102D1000409136015091370160E0762F8101920198
:102D2000F7D88D019F01B02FB12BB22BB32B31F00F
:102D3000088119810F5F1F4F088319838F927F923B
:102D40006F925F924F923F922F92288039801CD8C9
:102D50002F903F904F905F906F907F908F900A835D
:102D60001B83103009F4023028F400E010E020E06A
:102D700030E019C10091510110915201209153018D
:102D8000309154010C831D832E833F8300914301B6
:102D90001091440120914501309146010093510169
:102DA0001093520120935301309354018F927F92DC
:102DB0006F925F924F923F922F9213010E94100CDC
:102DC0002F903F904F905F906F907F908F90002357
:102DD00089F08F927F926F925F924F923F922F92E3
:102DE00013010E942C0C2F903F904F905F906F909A
:102DF0007F908F905F924F923F922F922301B3ED7D
:102E00002B2EB1E03B2E0E94EC07B3ED2B2EB1E050
:102E10003B2E0E94A7018E010E5E1F4FB0E25B2E7B
:102E2000B0E06B2E442418019DDA8E010E5E1F4F18
:102E3000BBE06B2EB0E07B2EB3ED4B2EB1E05B2EF2
:102E400018010E9469082F903F904F905F90082DC5
:102E50000F770D8F1C2F2D2F145D2F4FFE013296F3
:102E60000081E12FF22F00838E01045D1F4F980136
:102E70002F5F3F4F8E010E5F1F4FF801319600818B
:102E8000F901008381019201409134015091350193
:102E900060E0762F0E943801088719872A873B87D0
:102EA0001C2F2D2F125D2F4FFE0138960081E12F30
:102EB000F22F00838E01025D1F4F98012F5F3F4F5D
:102EC0008E01085F1F4FF80131960081F9010083E0
:102ED0008E01025D1F4F98012E5F3F4F8E01085FEC
:102EE0001F4FF80132960081F90100838E01025DC7
:102EF0001F4F98012D5F3F4F8E01085F1F4FF80154
:102F000033960081F9010083AE01405F5F4F9E015F
:102F1000245F3F4F8E010E5E1F4F3A0129011801B9
:102F20000E94290600308CF40C811D812E813F8186
:102F30000093510110935201209353013093540197
:102F400000E010E020E030E02EC0488059802A8068
:102F50003B800E94D00C0C811D812E813F8100930B
:102F600051011093520120935301309354010A816F
:102F70001B8120E0322F0250104020403040409111
:102F800036015091370160E0762F0E943801409160
:102F90004701509148016091490170914A01040F25
:102FA000151F261F371F7F906F905F904F903F90A7
:0E2FB0002F90E196CDBFDEBFDF91CF91089547
:101D8800CF93DF93CDB7DEB72A97CDBFDEBF2196BD
:101D98004F925F9200913D0110913E014091E00108
:101DA8005091E101D3D20C831D83B2E0B883B0E037
:101DB800B9834091E0015091E10102E010E0EFDBCE
:101DC8008C01A80160E0762F00913F01109140013D
:101DD8002091410130914201040F151F261F371F22
:101DE800A801B9017F936F935F934F934091E001EE
:101DF8005091E10102E010E0D2DB8D014F915F913B
:101E08006F917F919801220F331F2E823F82B2E09B
:101E1800BA83B0E0BB8304EE11E0020F131F0887FA
:101E280019873F922F921A012B010E945601B1E0A7
:101E3800B093E403B4EE2B2EB1E03B2E0E94A6042F
:101E48002F903F90288139810C811D8120173107FF
:101E580008F03EC0E885F98501911191103009F428
:101E6800003059F40E811F81015010400E831F83EA
:101E7800B02FB12B09F42CC008C02E823F820881F4
:101E880019810F5F1F4F0A831B83088519859801E5
:101E98002E5F3F4F28873987088119810F5F1F4FB1
:101EA80008831983009132011091330120173107FB
:101EB80071F4B4EEB887B1E0B9873F922F92B4EECF
:101EC8002B2EB1E03B2E0E94A6042F903F90BACF54
:101ED8000E945D02002331F0B0E1B093C3010FEF1F
:101EE8001FEF0AC00E811F81B02FB12B19F40A8190
:101EF8001B8102C000E010E05F904F902996CDBF93
:081F0800DEBFDF91CF910895C7
:101820002F923F924F925F922101B3ED2B2EB1E0A8
:101830003B2ED2DBB0E04B2E5B2EB3ED2B2EB1E076
:101840003B2E60DC003014F400E001C001E05F904A
:081850004F903F902F90089586
:10185800CF93DF93CDB7DEB7CB55D040CDBFDEBF3A
:1018680021962F923F924F925F926F927F928F9222
:101878009F92D9DB002329F0B2E1B093C30101E0C4
:101888007CC02101B3ED2B2EB1E03B2EA1DB8E01F4
:10189800045B1F4FBDE06B2EB0E07B2EB3ED4B2EEB
:1018A800B1E05B2E180111DC8E010A5D1F4F280183
:1018B800B3ED2B2EB1E03B2E21DC00302CF4B2E04E
:1018C800B093C30102E059C00BA904FF39C0FE015F
:1018D800E75AFF4FB0E0B193B1938E01045B1F4FFD
:1018E8001801FCDD003014F402E047C08E013F927D
:1018F8002F92180105DD2F903F90002391F0FE01F3
:10190800E75AFF4F019111910F5F1F4FFE01E75AF0
:10191800FF4F01931193103009F4033009F401C00B
:10192800E5CFD3DDFE01E75AFF4F01911191103049
:1019380009F4033028F0BCE0B093C30103E01DC0F4
:10194800FE01E65BFF4F01911191B5E0000F111FF9
:10195800BA95E1F74801FE01EA5BFF4F41905190CB
:1019680061907190FE01EC5BFF4F2190319035D171
:10197800003014F404E001C000E09F908F907F9045
:101988006F905F904F903F902F90C65ADF4FCDBF1A
:08199800DEBFDF91CF9108953D
:1014E400CF93DF93CDB7DEB7A697CDBFDEBF2196EE
:1014F4004F925F92B0E0B0934F01B0935001F1016D
:1015040000810023A9F18E012801FADD00302CF4BA
:10151400B2E0B093C3010FEF3CC00D8504FD05C0DC
:10152400B1E0B093C3010FEF34C00E8D1F8D025094
:10153400104020E0322F409136015091370160E095
:10154400762F0E94380140914701509148016091E3
:10155400490170914A01040F151F261F371F00937C
:101564004B0110934C0120934D0130934E0110C058
:101574000091510110915201209153013091540175
:1015840000934B0110934C0120934D0130934E0175
:1015940001E05F904F90A596CDBFDEBFDF91CF9164
:0215A4000895A8
:10130800CF93DF93CDB7DEB72897CDBFDEBF219649
:101318002F923F924F925F9240914B0150914C0116
:1013280060914D0170914E0100914301109144016B
:101338002091450130914601401751076207730714
:1013480039F400913B0110913C01088319830BC0CB
:1013580000913601109137014091E2015091E3016B
:10136800F5D70883198320914F01309150010881E6
:1013780019812017310711F400E09DC04091E20166
:101388005091E30100914F011091500108D18C0157
:1013980040914B0150914C0160914D0170914E016B
:1013A80020E0322F040F151F261F371F0C831D83C3
:1013B8002E833F834091E2015091E30100914F0158
:1013C80010915001ECD08D01B5E09801220F331F28
:1013D800BA95E1F704EE11E0020F131F0A831B838D
:1013E8003F922F922C803D804E805F800E94560154
:1013F800B1E0B093E403B4EE2B2EB1E03B2EA2DAB9
:101408002F903F9020914F01309150010881198110
:101418002017310708F042C000914F011091500188
:101428000F5F1F4F00934F0110935001EA81FB811A
:101438000081053EB9F0EA81FB810081003290F01D
:101448003F922F9236D82F903F90002329F0B0E199
:10145800B093C3010FEF2FC021012A803B8082D8AF
:1014680001E029C00A811B819801205E3F4F2A8331
:101478003B8300913201109133012017310769F441
:10148800B4EEBA83B1E0BB833F922F92B4EE2B2E19
:10149800B1E03B2E57DA2F903F90B4CF3F922F9276
:1014A80008D82F903F90002329F0B0E1B093C301F2
:1014B8000FEF01C000E05F904F903F902F9027966C
:0A14C800CDBFDEBFDF91CF91089584
:0414D20000E0089599
:1019A000CF93DF93CDB7DEB72997CDBFDEBF2196AA
:1019B0002F923F926F927F9200913D0110913E01D4
:1019C0004091E0015091E101C5D49201220D331DF7
:1019D0000217130708F4FBC04091E0015091E101A8
:1019E0008101E1DD8C0109831A83B0E0BB83BC83F4
:1019F00049815A816B817C8100913F0110914001A6
:101A00002091410130914201040F151F261F371FFD
:101A100009831A832B833C834091E0015091E101BB
:101A20008101C1DD8D019801220F331F2D823E827D
:101A300004EE11E0020F131F0F831887B1E0B0937B
:101A4000E403303009F4203041F40091E0011091BA
:101A5000E1014016510608F013C05F924F92B4EEB8
:101A60006B2EB1E07B2E29803A804B805C80A3D620
:101A70004F905F90002321F0B0E1B093C301A7C065
:101A80008201015010402801B02FB12B09F46EC023
:101A90000D811E810F5F1F4F0D831E83EF81F8851F
:101AA000019311930F81188598012E5F3F4F2F836B
:101AB000388700913201109133012017310709F066
:101AC00054C0B0E0B883188100913A01101728F58E
:101AD000088110E040913D0150913E013BD4498185
:101AE0005A816B817C8120E0322F040F151F261F45
:101AF000371F5F924F923F922F92B4EE6B2EB1E060
:101B00007B2E180129010E9464002F903F904F9076
:101B10005F9008810F5F0883D6CF09811A812B81DE
:101B20003C810F5F1F4F2F4F3F4F09831A832B8339
:101B30003C83B4EEBF83B1E0B8870091E00110911F
:101B4000E1014016510688F45F924F923F922F9226
:101B5000B4EE6B2EB1E07B2E29803A804B805C8006
:101B60002AD62F903F904F905F908ACFEF81F885D3
:101B7000BFEFB193B193B0E0B883188100913A01FF
:101B8000101728F5088110E040913D0150913E0169
:101B9000E1D349815A816B817C8120E0322F040F8F
:101BA000151F261F371F5F924F923F922F92B4EE60
:101BB0006B2EB1E07B2E180129010E9464002F904A
:101BC0003F904F905F9008810F5F0883D6CF7F9042
:101BD0006F903F902F902896CDBFDEBFDF91CF91C1
:021BE000089566
:0A40FC0005900D920197E1F7089579
:103FDA00B2E0B093C501BBE0B093C601BFEFB093A6
:103FEA00CD01BFEFB093CE01BFEFB093CB01BFEFCE
:103FFA00B093CC01BFEFB093C901BFEFB093CA0130
:10400A00B1B3BE7FB1BBB1B3B260B1BB0AB1086193
:08401A000AB9B6E8B0BD089533
:10484200A0E6B0E0E0E7F7E481ED90E00E947E2090
:024852000895C7
:014770000048
:024771002E0018
:034773002E2E00E7
:1047760020666F72206D696B726F456C656B747223
:0C4786006F6E696B6120323031300A0028
:104792004641543136206E6F7420666F756E640028
:0447A2000000000013
:0B47A60020637265617465643A2000B6
:0C47B100206D6F6469666965643A200041
:0B47BD006D696B726F452E74787400FC
:0E47C8004D494B524F3030782E54585400005B
:1047D6005858204D4D432F534420464154313620DE
:1047E6006C69627261727920627920416E746F6EB3
:0B47F60020526965636B6572740A0055
:0C480100546573742053746172742E00AF
:10480D006D6963726F5344204361726420696E73E6
:06481D0065727465640081
:0A4823005465737420456E642E0086
:10482D00496E73657274206D6963726F53442043D2
:04483D006172640040
:00000001FF
