:10000000C0EF04F00000000000EF00F0000000006E
:0A0010000000000000000000F3D71C
:10001C0014C3C9FFC7B002D00000FCD7C9CF00F091
:02002C001200C0
:10002E0014C36FFF6DB002D00000FCD76FCF00F08D
:02003E001200AE
:10004000F250026EF29E0500FF6A0150FE6E0050F3
:08005000FD6E02BEF28E1200EB
:0E005800ACB202D00000FCD70BC3ADFF12000B
:10006600400E03010B25006EE1C2E1FFE2C2E2FF92
:1000760000C0E6FFDFC200F0E0C201F0DEDFE1C251
:10008600E1FFE2C2E2FF0FC3E6FFDFC200F0E0C21B
:1000960001F0D3DFE1C2E1FFE2C2E2FF0EC3E6FFF9
:1000A600DFC200F0E0C201F0C8DFE1C2E1FFE2C258
:1000B600E2FF0DC3E6FFDFC200F0E0C201F0BDDFE4
:1000C600E1C2E1FFE2C2E2FF0CC3E6FFDFC200F0DD
:1000D600E0C201F0B2DFE1C2E1FFE2C2E2FF10C31B
:1000E600E6FFDFC200F0E0C201F0A7DF0301126BFA
:1000F600136BE1C2E1FFE2C2E2FFFF0EE66EDFC272
:1001060000F0E0C201F099DF00C011F30301124BC9
:10011600132B800E0014016E0150000A07E0000E3A
:10012600135D02E1640E125D01E2E3D711C300F034
:020136001200B5
:040138008D90120094
:10013C008D80E1C2E1FFE2C2E2FFFF0EE66EDFC29C
:0A014C0000F0E0C201F076DF1200BF
:100156000301096B07C3E9FF08C3EAFFEECF00F30B
:100166000051000A0EE000C30BF373DF0301092BF5
:1001760009510725E96E000E0821EA6EEECF00F35D
:04018600EFD712009D
:10018A000301076B086B270E085D02E1100E075D7D
:10019A00D8B0A0D0000E000A02E1000E001916E144
:1001AA00C6DF010E0B6F0C6B0D6B0E6B0F6BFF0E28
:1001BA00106F54DF00C009F3BCDF03010951000AC4
:1001CA0004E10001896B006A87D080D0B0DF370E66
:1001DA0003010B6F0C6B0D6B0E6B0F6BFF0E106F29
:1001EA003DDF00C009F3A5DF03010951010AD8A4C4
:1001FA006CD09DDF290E0B6F000E0C6F000E0D6F79
:10020A00000E0E6F400E0F6FFF0E106F27DF00C03B
:10021A0009F38FDF03010951000A56E1000E000AB3
:10022A0002E1020E00194BE182DF3A0E0B6F0C6BF2
:10023A000D6B0E6B0F6BFF0E106F10DF00C009F312
:10024A00E1C2E1FFE2C2E2FFFF0EE66EDFC200F0AA
:10025A00E0C201F0F0DE00C00AF3E1C2E1FFE2C24F
:10026A00E2FFFF0EE66EDFC200F0E0C201F0E3DE5D
:10027A00E1C2E1FFE2C2E2FFFF0EE66EDFC200F07A
:10028A00E0C201F0D8DEE1C2E1FFE2C2E2FFFF0E06
:10029A00E66EDFC200F0E0C201F0CDDE4ADF030104
:1002AA000951000A0BE10AAD04D0040E0001896F5E
:1002BA0003D00001030E896F006A0ED005D0000139
:1002CA00010E896F006A08D001D004D00301074BE0
:0A02DA00082B59D7010E006E120028
:1002E40029DF000E000A03E1040E0001891909E167
:1002F400F8C201F3F9C202F3FAC203F3FBC204F336
:1003040014D0090E006EF8C201F3F9C202F3FAC266
:1003140003F3FBC204F3005008E003010137019129
:10032400023703370437FF0FF7D70301180E0B6F9B
:1003340001C30CF302C30DF303C30EF304C30FF3A1
:10034400FF0E106F8EDE005204E0F6DE010E006E2A
:100354008BD0E1C2E1FFE2C2E2FFFF0EE66EDFC234
:1003640000F0E0C201F06ADEE1C2E1FFE2C2E2FFB6
:10037400FF0EE66EDFC200F0E0C201F05FDEE1C214
:10038400E1FFE2C2E2FFFE0EE66EDFC200F0E0C271
:1003940001F054DE0201FE6BFF6BFF51010802E124
:1003A400FE51FF0815E3FE51FC25E96EFF51FD21C6
:1003B400EA6EE1C2E1FFE2C2E2FFEECFE6FFDFC296
:1003C40000F0E0C201F03ADE0201FE4BFF2BE5D75C
:1003D400E1C2E1FFE2C2E2FFFF0EE66EDFC200F01F
:1003E400E0C201F02BDEE1C2E1FFE2C2E2FFFF0E58
:1003F400E66EDFC200F0E0C201F020DEE1C2E1FF00
:10040400E2C2E2FFFF0EE66EDFC200F0E0C201F0DE
:1004140015DE00C0FEF2000E0201FF6F1F0EFE1576
:10042400016EFFC202F0000E021601C0FEF202C00D
:10043400FFF2000E021802E1050E011804E07CDE52
:10044400020E006E11D0E1C2E1FFE2C2E2FFFF0E34
:10045400E66EDFC200F0E0C201F0F0DD0050FF0AFA
:0A04640001E0F1D769DE006A120022
:10046E00580E0201E36F000EE46F0B0EE56F030EE4
:10047E00E66FFF0EEF6FFF0EF06F000EF16F000EC6
:10048E00F26FFF0EEB6FFF0EEC6F000EED6F000EB6
:10049E00EE6FFF0EE76FFF0EE86F000EE96F000EB6
:1004AE00EA6FAC8A900EAB6E948E949C9EAA03D08B
:0804BE00AECF00F0FBD71200E5
:1004C60038DE000E000A03E1040E0001891909E175
:1004D600F8C201F3F9C202F3FAC203F3FBC204F352
:1004E60014D0090E006EF8C201F3F9C202F3FAC283
:1004F60003F3FBC204F3005008E003010137019146
:10050600023703370437FF0FF7D70301110E0B6FBE
:1005160001C30CF302C30DF303C30EF304C30FF3BD
:10052600FF0E106F9DDD005204E005DE010E006E29
:100536004ED0E1C2E1FFE2C2E2FFFF0EE66EDFC28D
:1005460000F0E0C201F079DD0050FE0A01E0F1D7CB
:100556000201FE6BFF6B020EFF5D02E1000EFE5D07
:100566001EE2FE51FC250301056F0201FF51FD212C
:100576000301066FE1C2E1FFE2C2E2FFFF0EE66E93
:10058600DFC200F0E0C201F058DD05C3E1FF06C39B
:10059600E2FF00C0E6FF0201FE4BFF2BDCD7E1C203
:1005A600E1FFE2C2E2FFFF0EE66EDFC200F0E0C24C
:1005B60001F043DDE1C2E1FFE2C2E2FFFF0EE66EBB
:1005C600DFC200F0E0C201F038DDB5DD006A1200DE
:1005D600F8C207F3F9C208F3BBDD0D0E0B6F39DD68
:0A05E6000A0E03010B6F35DD120051
:1005F000C69A1C0E0201DF6F000EE06F140EE16F51
:10060000030EE26FFF0EDB6FFF0EDC6FFF0EDD6F80
:10061000FF0EDE6F949AF851040A02E1948601D02D
:1006200094969488C66AF851C612FA51C612F951C6
:10063000C712FA5305E0FB51000AD8B4C78C03D0A7
:0A064000FB53D8A4C78CC68A120031
:10064A000900F5CFE6FF0006FBE10106F9E1120019
:10065A00F00E0201F815026E02C0F9F202C000F0B3
:10066A000032009E0032009E0032009E0032009E40
:10067A0000C0F9F2300E0024016E01C0F9F20150F7
:10068A00390802E2070EF9270F0EF815006E300E30
:10069A000024016E01C0FAF20150390802E2070E85
:1006AA00FA27F9C20BF3D3DCFAC20BF3D0DC12003F
:1006BA003EDD0A0E03010B6F0C6B0D6B0E6B0F6B9D
:1006CA00FF0E106FCBDC005204E033DD010E006E2A
:1006DA0046D0E1C2E1FFE2C2E2FFFF0EE66EDFC2F0
:1006EA0000F0E0C201F0A7DC0050FE0A01E0F1D7F9
:1006FA000201FA6B100EFA5D1AE2FA51F825FB6F45
:10070A00000EF921FC6FE1C2E1FFE2C2E2FFFF0E37
:10071A00E66EDFC200F0E0C201F08DDCFBC2E1FF51
:10072A00FCC2E2FF00C0E6FF0201FA2BE3D7E1C2F6
:10073A00E1FFE2C2E2FFFF0EE66EDFC200F0E0C2B6
:10074A0001F079DCE1C2E1FFE2C2E2FFFF0EE66EF0
:10075A00DFC200F0E0C201F06EDCEBDC006A1200DE
:10076A00050E0001896F9690E4DC0201F86BF96BC3
:10077A00000EF95D02E10A0EF85D0FE2E1C2E1FF47
:10078A00E2C2E2FFFF0EE66EDFC200F0E0C201F055
:10079A0052DC0201F84BF92BEBD7C9DC03010B6BD6
:1007AA000C6B0D6B0E6B0F6B950E106F57DC00C048
:1007BA00FAF2BFDC0201FA51010A03E0010E006EEF
:1007CA007BD0B5DC080E03010B6FAA0E0C6F010E6D
:1007DA000D6F000E0E6F0F6F870E106F3FDC00C09B
:1007EA00FAF2E1C2E1FFE2C2E2FFFF0EE66EDFC209
:1007FA0000F0E0C201F01FDCE1C2E1FFE2C2E2FF69
:10080A00FF0EE66EDFC200F0E0C201F014DCE1C2C6
:10081A00E1FFE2C2E2FFFF0EE66EDFC200F0E0C2D5
:10082A0001F009DCE1C2E1FFE2C2E2FFFF0EE66E7F
:10083A00DFC200F0E0C201F020EC00F07ADC020135
:10084A00FA51010A0AE0010E0301006F99DC005215
:10085A0003E00301006B94DC04D0020E0301006F75
:10086A008FDC000E000A03E1050E0001891903E17D
:10087A00020E006E21D0000E000A03E10001040EF0
:10088A00891919E054DC100E03010B6F000E0C6F6E
:10089A00020E0D6F000E0E6F0F6FFF0E106F33EC0E
:1008AA0000F000C0FAF245DC0201FA51000A03E046
:0A08BA00030E006E01D0006A120068
:1008C40039DC090E03010B6F0C6B0D6B0E6B0F6B98
:1008D400FF0E106F33EC00F0005204E02DDC010E2B
:1008E400006E4BD0E1C2E1FFE2C2E2FFFF0EE66E12
:1008F400DFC200F0E0C201F020EC00F00050FE0A7C
:1009040001E0F0D70201FA6B100EFA5D1BE2FA5116
:10091400F825FB6F000EF921FC6FE1C2E1FFE2C292
:10092400E2FFFF0EE66EDFC200F0E0C201F020EC51
:1009340000F0FBC2E1FFFCC2E2FF00C0E6FF0201DF
:10094400FA2BE2D7E1C2E1FFE2C2E2FFFF0EE66E5C
:10095400DFC200F0E0C201F020EC00F0E1C2E1FFF0
:10096400E2C2E2FFFF0EE66EDFC200F0E0C201F079
:0C09740020EC00F09EEC00F0006A120085
:100980005EEC06F00F01386B3A6B3C6B606A928448
:10099000B886010EB06EA00EAF6EAC8468DD680E36
:1009A0000C6EE40E0D6E0D2EFED70C2EFCD7000043
:1009B000430E0201F86F000EF96F0DDE80A401D026
:1009C000FDD7150E0B6E4B0E0C6EBE0E0D6E0D2E62
:1009D000FED70C2EFCD70B2EFAD70000570E0201C3
:1009E000F86F000EF96FF7DD0201F86BF96BFA6B27
:1009F000010EFB6FFDDDB9DE0050000A07E17C0E41
:100A00000201F86F000EF96FE6DD06D06D0E0201EF
:100A1000F86F000EF96FDFDD0201F36BF46BF45138
:100A2000010802E1F351FF080BE3DB0EF325E16E51
:100A3000000EF421E26E6D0EE66EF34BF42BEFD751
:100A40004E0EF56F020EF66F4E0EF86F020EF96F36
:100A5000000EFA6FFB6FDB0EFC6F000EFD6F42DCC9
:100A60000050000A07E1210E0201F86F000EF96F35
:100A7000B2DD06D0150E0201F86F000EF96FABDD86
:100A8000CB0E0201F86F000EF96F17DE0050000A5E
:100A900025E12A0E0301076F000E086FABEC00F092
:100AA0000201F36BF46B000E006EF451005C02E186
:100AB000F3510F080DE3CB0EF325E96E000EF42180
:100AC000EA6EEECFF8F2C9DD0201F34BF42BEBD75F
:100AD000420EF86F000EF96F7EDD06D0380E02016F
:100AE000F86F000EF96F77DDCB0E0201F86F000E84
:100AF000F96FE8DE0050000A25E1310E0301076FAF
:100B0000000E086FABEC00F00201F36BF46B000E0B
:100B1000006EF451005C02E1F3510F080DE3CB0EBF
:100B2000F325E96E000EF421EA6EEECFF8F295DDC2
:100B30000201F34BF42BEBD7880EF86F000EF96F20
:100B40004ADD06D0930E0201F86F000EF96F43DD07
:100B5000F5C2F8F2F6C2F9F2000E0201FA6FFB6F6D
:100B6000DB0EFC6F000EFD6FAEDC0050000A3EE1B4
:100B70008B0E0201F86F000EF96F2DDD0201F78177
:100B8000F36BF46BF451010802E1F351FF0819E330
:100B9000DB0EF325E96E000EF421EA6EEECF0BF3C7
:100BA0002CEC00F0DB0E0201F325E96E000EF421BF
:100BB000EA6EEE506D0A02E0F79103D0F34BF42B8E
:100BC000E1D78A0EF86F000EF96F05DD0201F7A17B
:100BD00006D09D0EF86F000EF96FFDDC06D0BD0E3D
:100BE0000201F86F000EF96FF6DC06D0B20E0201BA
:100BF000F86F000EF96FEFDCA80E0201F86F000E1F
:060C0000F96FE9DCFFD7EB
:100CBC0010EE15F0B60E006E010E016E060EF66EFD
:0E0CCC000C0EF76E000EF86E25EC03F0120011
:0C0C060057726974652D4572726F7200A0
:090C120057726974652D4F4B0007
:070C1B00434944203A200088
:070C2200435344203A200077
:0A0C29004349442D6572726F72009A
:010C330000C0
:100C3400496E73657274206D6963726F5344204307
:040C44006172640075
:100C48006D6963726F5344204361726420696E73E7
:060C580065727465640082
:0F0C5E004D4D4320496E69742D6572726F72009F
:0C0C6D004D4D4320496E69742D4F4B0023
:010C7900007A
:010C7A000079
:010C7B000078
:080C7C00526561642D4F4B002D
:0A0C84004353442D6572726F720035
:0B0C8E00436F6E74656E742D4F4B00B9
:0A0C99005465737420456E642E004C
:0B0CA300526561642D4572726F720093
:0E0CAE00436F6E74656E742D4572726F720026
:020000040030CA
:0D000100331F3CFFBD81FF0FC00FE00F401B
:00000001FF
