:10000000FC7F0120D94F0000CD4F0000CD4F0000F4
:10001000CD4F0000CD4F0000CD4F0000CD4F000070
:10002000CD4F0000CD4F0000CD4F0000CD4F000060
:10003000CD4F0000CD4F0000CD4F0000CD4F000050
:10004000CD4F0000CD4F0000CD4F0000CD4F000040
:10005000CD4F0000CD4F0000CD4F0000CD4F000030
:10006000CD4F0000CD4F0000CD4F0000CD4F000020
:10007000CD4F0000CD4F0000CD4F0000CD4F000010
:10008000CD4F0000CD4F0000CD4F0000CD4F000000
:10009000CD4F0000CD4F0000CD4F0000CD4F0000F0
:1000A000CD4F0000CD4F0000CD4F0000CD4F0000E0
:1000B000CD4F0000CD4F0000CD4F0000CD4F0000D0
:1000C000CD4F0000CD4F0000CD4F0000CD4F0000C0
:1000D000CD4F0000CD4F0000CD4F0000CD4F0000B0
:1000E000CD4F0000CD4F0000CD4F0000CD4F0000A0
:1000F000CD4F0000CD4F0000CD4F0000CD4F000090
:10010000CD4F0000CD4F0000CD4F0000CD4F00007F
:10011000CD4F0000CD4F0000CD4F0000FFFFFFFF8F
:1001200040F21707C0F200077F1EFDD100BF00BFDD
:1001300000BF00BF704781B00091014600980A7867
:1001400032B10B780278934202D1491C401CF6E789
:100150000B7802789A1A10B201B0704781B0CDF8CE
:1001600000E0FF20044C2468A047FE2800D0F8E7F8
:10017000DDF800E001B07047B404002083B0CDF892
:1001800000E00346029101F01DFB2B4A1278042A7D
:1001900001D1184600E05802FF220146182001F064
:1001A0001BFB18B101F07CFF012040E0FF20234C35
:1001B0002468A047FF20214C2468A047FE201F4C44
:1001C0002468A047002040F2FF1290420FD8029A04
:1001D00012181278D4B2ADF80400A0B2174C2468FB
:1001E000A047BDF80400421C91B288B2EBE7FF20A3
:1001F000124C2468A047FF20104C2468A047FF2021
:100200000E4C2468A04700F01F0292B2052A03D0CA
:1002100001F046FF02200AE0FF20084C2468A047B6
:10022000B0F1FF0F00D0F7E701F03AFF0020DDF852
:1002300000E003B0704700BF9E020020B40400201D
:1002400081B0202806D00D2802D8092800D301E06B
:10025000002100E00121C8B201B0704781B0CDF8A3
:1002600000E0002464B20B4B1C60012252B20A4928
:100270000A600A490A600A4908700A490C600A6063
:100280001A60FFF74DFFFFF74BFFDDF800E001B00C
:10029000704700BF987F4E42947F0C429C7F4C4237
:1002A000FCD30340907F4E4282B0CDF800E002467E
:1002B0000846154604460021134608290AD22A7822
:1002C000202A00D106E02A782270641C6D1C491C8B
:1002D00089B2F2E703F2080211461278202A16D0FA
:1002E0002E222270661C002205460C4691B203297C
:1002F0000AD22278202A00D106E022783270761CB9
:10030000641C491C89B2F2E730461E4602E01E46D4
:10031000054620460022027005F20D0306F20B028C
:1003200012781A7005F21C02019206F21C021046A5
:1003300001F0F4FC019A106005F22002019206F22D
:100340001A02104600F030FE019A108006F20E02EA
:100350001378521C1278120292B29C18A4B2A0B266
:1003600005F20E02D31CE20A1A7005F20E02131DEA
:10037000420992B202F03F021A7005F20E02531DBA
:1003800000F01F0292B252001A7006F210021378A7
:10039000521C1278120292B29C18A4B2A0B205F2BA
:1003A0000E02931C04F01F021A7005F20E02531C79
:1003B000420992B202F00F021A7005F20E03420ACD
:1003C0001A7006F216021378521C1278120292B2B8
:1003D0009C18A4B2A0B205F21402D31CE20A1A704F
:1003E00005F21402131D420992B202F03F021A7084
:1003F00005F21402531D00F01F0292B252001A704F
:1004000006F218021378521C1278120292B29C184B
:10041000A4B2A0B205F21402931C04F01F021A70D9
:1004200005F21402531C420992B202F00F021A7034
:1004300005F21403420A1A70DDF800E002B07047BA
:1004400000235BB204490B6004490870044A13603E
:10045000012149B2116070479C7F4C42FCD303409C
:10046000907F4E4281B0CDF800E0FFF759FEFFF7D4
:1004700057FE002464B2094B1C60012252B20849A5
:100480000A6008490C600849087008490C600A6055
:100490001A60DDF800E001B0704700BF987F4E425F
:1004A000947F0C429C7F4C42FCD30340907F4E4291
:1004B00001235BB204490B6004490870002252B268
:1004C00003490A600B6070479C7F4C42FCD3034099
:1004D000907F4E4287B0CDF800E004A90D46044657
:1004E0000194029503900B2212B20846202101F0DC
:1004F00059F90398029D019C0646317831B1317853
:10050000C8B2FFF79DFE08B1761CF6E723493046D6
:10051000FFF711FE38B904AA2E211170521C2E21AA
:100520001170204630E01E493046FFF704FE20B926
:1005300004AA2E211170204626E022462C4633467E
:10054000197871B11978C8B2FFF77AFE48B91978ED
:100550002E2906D019782170611C08465B1C0446C0
:10056000EEE719782E2901D1581C00E0184604AB9B
:10057000083301901046019A1178202904D9117886
:1005800019705B1C521CF7E704A90B2212B200F091
:10059000BDFCDDF800E007B0704700BF9F020020FF
:1005A000A202002081B07A2808D8612807D34FF62C
:1005B000DF7109B200EA0101C8B2FFE7FFE701B04D
:1005C000704781B0014608460B460246401C117830
:1005D00001B1FAE7C11A491E08B201B07047FFFF26
:1005E00081B0CDF800E0024601F0ECF80A49097844
:1005F000042901D1104600E05002FF2201461220DA
:1006000001F0EAF818B101F04BFD012000E00020F4
:10061000DDF800E001B070479E02002082B0CDF806
:1006200000E04C20214C2468A04700201F4C246887
:10063000A04700201D4C2468A04700201B4C2468C4
:10064000A0470020194C2468A047FF20174C2468BD
:10065000A0470022ADF80420FF20144C2468A047D6
:10066000BDF8042083B2511C8AB200F0800080B231
:1006700010B1642A00D2EDE703F0800080B238B1F7
:10068000ADF8043001F00CFDBDF8043098B208E07C
:10069000FF20064C2468A0470028F9D001F000FD97
:1006A0000020DDF800E002B0704700BFB404002075
:1006B00081B0ADF800200246BDF9000004B2431E2F
:1006C00018B25CB114780B789C4204D014780B7883
:1006D000E31A18B204E0521C491CEFE7002000B2F4
:1006E00001B0704785B0CDF800E00290FFF736FD0D
:1006F00000239AB2B2F5007F10D2029989180491B2
:10070000ADF80420FF200B4C2468A047BDF804205E
:1007100004990870511C8BB29AB2EBE7FF20054C8C
:100720002468A047FF20034C2468A047DDF800E0C0
:1007300005B07047B404002081B0CDF800E000247B
:1007400010B401F005FE01B0DDF800E001B0704723
:1007500084B0CDF800E0ADF80C1081B2304A1288B8
:10076000B1FBF2F292B202922E4A1368029AD418A6
:10077000029401232C4A1370ADF804102B49204633
:1007800000F0C2FEBDF8041028B11023284A1370EF
:100790004FF6FF7040E0224A1388B1FBF3F203FBEF
:1007A000121292B253009BB298B2204AD31803ACF3
:1007B00022781A70431C9BB21C4AD318621C127810
:1007C0001A701A490298FFF7D9FC28B10523184A74
:1007D00013704FF6FF701FE00122ADF80620154A96
:1007E0001378BDF806209A4215D2134A1388029A4C
:1007F000D21802920D491046FFF7C0FC28B105231C
:100800000B4A13704FF6FF7006E0BDF80620521C2D
:10081000ADF80620E3E70020DDF800E004B0704703
:10082000DA060020C8040020D4060020D4040020EA
:10083000D8060020C2040020C604002083B0CDF8F2
:1008400000E0304A1188304800884843ADF8040081
:100850000220ADF806001046018840F20200B0FB0D
:10086000F1F080B281B229480068081803461046AA
:10087000028840F20201B1FBF2F002FB101080B2DC
:10088000410089B22248401802901846FFF7A8FE9E
:100890000121204801701E48FFF724FFBDF8041015
:1008A000BDF80600884215D20298008800B911E010
:1008B0000298811C0291BDF80600401CADF80600AC
:1008C00015480068814204D1114802901048FFF792
:1008D00009FFE3E7FFF7A2FE28B110210F480170DE
:1008E0004FF6FF700AE0BDF80410BDF8060088421C
:1008F00002D14FF6FF7001E0BDF80600DDF800E020
:1009000003B07047DA060020C6040020C8040020A7
:10091000D4040020D4060020DC060020D8060020E5
:1009200086B0CDF800E004900591049A12B9FF203A
:1009300040B273E00498FFF7CDFD3A4A13683A4A93
:1009400012689A4204D1394A1288ADF8062006E0AE
:10095000374A1388374A12885A43ADF80620324B7B
:100960001A680392344A02921A461068FFF738FE5A
:100970000123324A13703048FFF7B4FE0022ADF86D
:100980000420BDF80630BDF804209A423BD20B2269
:1009900012B204990298FFF78BFEF0B9FFF73EFE02
:1009A00028B11023264A1370FF2040B236E0059A82
:1009B00082B105990298FFF777FC059A02F22403A9
:1009C000039A1A60059A02F228041B4B029AD21A63
:1009D00052092280002040B220E0029A02F2200355
:1009E0000293184A1268934207D1039A521C039249
:1009F000114A02921048FFF775FEBDF80420521C00
:100A0000ADF80420BDE7FFF709FE28B110230C4A1A
:100A10001370FF2040B201E0FF2040B2DDF800E09B
:100A200006B07047CC040020B8040020C4040020A5
:100A3000AE040020BE040020D4040020D406002010
:100A4000D8060020DC06002084B0CDF800E003903A
:100A50003C490A683C490968914204D13B490988EC
:100A6000ADF8041006E03A490A883A49098851432A
:100A7000ADF80410BDF8042037490988914202D12D
:100A8000002040B25AE0324B1A88334D2988B1FB1E
:100A9000F2F292B22C490968891808462F4C19467F
:100AA0000B8829460A88B2FBF3F103FB112189B2B6
:100AB000490161180291FFF793FD012228490A704C
:100AC0002648FFF70FFEBDF804202349098891420C
:100AD00029D2214A1188491C118002990978E529F7
:100AE00013D00299097820290FD3FFF797FD28B179
:100AF00010221C490A70FF2040B21FE0039902989F
:100B0000FFF7D2FB012040B218E0029901F2200267
:100B10000292154909688A4204D1104902910F488E
:100B2000FFF7E0FDCFE7FFF779FD28B110220D496F
:100B30000A70FF2040B201E0002040B2DDF800E082
:100B400004B07047CC04002010070020C40400202B
:100B5000AE040020BE040020EE060020D4040020D5
:100B6000D4060020D8060020DC06002081B005490C
:100B70000860054A116801B9FBE70249086801B03D
:100B8000704700BF088000408801104281B08A4948
:100B900000EA01010846F1E08849096841F00102D4
:100BA00086490A6086490A686FF001010A40844953
:100BB0000A603FE18149096841F001027F490A600A
:100BC0007F49096841F001027D490A6032E17B49B1
:100BD000096841F0020279490A6079490A686FF0B0
:100BE00002010A4076490A6024E17449096841F02B
:100BF000020272490A607249096841F002027049B2
:100C00000A6017E16D49096841F004026B490A6006
:100C10006B490A686FF004010A4069490A6009E1FA
:100C20006649096841F0040264490A606449096838
:100C300041F0040262490A60FCE06049096841F041
:100C400008025E490A605E490A686FF008010A40BE
:100C50005B490A60EEE05949096841F008025749CA
:100C60000A605749096841F0080255490A60E1E005
:100C70005249096841F0100250490A6050490A6817
:100C80006FF010010A404E490A60D3E04B490968F1
:100C900041F0100249490A604949096841F01002CF
:100CA00047490A60C6E04549096841F020024349C6
:100CB0000A6043490A686FF020010A4040490A600F
:100CC000B8E03E49096841F020023C490A603C49CD
:100CD000096841F020023A490A60ABE037490968E7
:100CE00041F0400235490A6035490A686FF0400119
:100CF0000A4033490A609DE03049096841F04002EA
:100D00002E490A602E49096841F040022C490A60C8
:100D100090E02A49096841F0800228490A60284980
:100D2000096801F07F0226490A6083E023490968C7
:100D300041F0800221490A602149096841F080029E
:100D40001F490A6076E01D49096841F480721B4919
:100D50000A601B490A686FF480710A4018490A60EA
:100D600068E01649096841F4807214490A60144920
:100D7000096841F4807212490A605BE0B0F1402FCB
:100D80003FF40AAF0F4988423FF414AF0E4988423E
:100D90003FF41DAF0D4988423FF427AF0C4988420C
:100DA0003FF430AF0B4988423FF43AAF0A498842DA
:100DB0003FF443AF00F012B800F0FFFF08E10F402E
:100DC0006CE00F400080054000500040009005405E
:100DD0000060004000A005400070004016498842B5
:100DE0003FF439AF154988423FF442AF1449884275
:100DF0003FF44CAF134988423FF455AF1249884243
:100E00003FF45FAF114988423FF468AF1049884210
:100E10003FF472AF0F4988423FF47BAF0E498842DE
:100E20003FF484AF0D4988423FF48DAF0C498842AE
:100E30003FF497AF01B0704700B00540004002405A
:100E400000C005400050024000D005400060024054
:100E500000E005400070024000F0054000D0034073
:100E60000000064081B005490860054A116801B9D3
:100E7000FBE70249086801B0704700BF08900040D6
:100E8000880112428CB0CDF800E0002219490A8096
:100E9000017821B301A9FFF743FD002805DA0222FA
:100EA00015490A70FF2040B21FE09DF8111001F0B3
:100EB0001001C9B229B901220F490A70FF2040B2BE
:100EC00013E0BDF82410891E89B28AB20B49098843
:100ED0004A430B4909688A180A490A6003E00A492B
:100EE0000A6808490A60012040B2DDF800E00CB051
:100EF000704700BFEE060020D8060020BE04002088
:100F0000D004002010070020B804002081B00B4658
:100F1000014618460D4614B2531E1AB224B1037886
:100F20002B706D1C401CF6E7084601B07047FFFFB0
:100F300082B0CDF800E0ADF804200AB201B2BDF8ED
:100F40000400002904DB134B1B88994200D200E007
:100F50001BE0002A04DB104B1B889A4200D200E001
:100F600013E0002464B20D4B1C60ADF8040088B29D
:100F700091B20B4C2468A047BDF80400094C2468CA
:100F8000A047012464B2054B1C60DDF800E002B00C
:100F9000704700BF8007002082070020987F4E42E4
:100FA0007C0700208407002081B0411C09780A02D8
:100FB00092B20178511888B201B0704785B0CDF86F
:100FC00000E0154D0346002922D904AC0193ADF889
:100FD0000810039522461846104C2468A047039D2C
:100FE000BDF80810019B04460020BDF81020904277
:100FF00006D222782A706D1C641C401C80B2F4E773
:10100000BDF81020891A89B2BDF810209B18DAE7C4
:10101000DDF800E005B07047AC070020B8070020FD
:1010200081B0002040B201B0704782B0CDF800E03E
:10103000002504460B460D2D0BD2621901925A1958
:101040001278D0B2FFF7AEFA019A10706D1CEDB2B3
:10105000F1E7DDF800E002B0704781B0CDF800E0C4
:1010600004462046FFF7ADFAC6B2C1B211B9FF205F
:1010700040B23EE00C2E02D9FE2040B239E0217889
:101080002E2902D1FD2040B233E000256DB2234667
:10109000F2B2F0B2002A11D9A11809782E290AD18A
:1010A00001235BB2082A02D9FC2040B221E0511C86
:1010B00009B2621804E0521ED2B2EBE71A466BB2D4
:1010C000012B04D0082802D9FB2040B211E0012BEB
:1010D0000DD11046FFF775FAC2B2C1B211B9F520B1
:1010E00040B206E0032A02D9F42040B201E0002019
:1010F00040B2DDF800E001B07047FFFF87B0CDF8E7
:1011000000E0049005910692049B1A331846FFF7FD
:101110004BFF069B1880069B1B88B3B9FFF78EFB1D
:10112000069B1880069B1C884FF6FF739C4205D1D6
:1011300004246A4B1C70FF2040B2CAE0069B1B8847
:101140004FF6FF7198B2FFF703FB069B1B889C1EAE
:10115000634B1B885C43634B1B681C19059B1C601D
:10116000614B1C68614B1B68A34204D1604B1B8818
:10117000ADF80A3006E05F4B1C88594B1B8863436F
:10118000ADF80A30594C236803935B4B184623464D
:1011900001901868FFF724FA0124584B1C70564838
:1011A000FFF7A0FA01980023ADF808300146BDF81A
:1011B0000A40BDF80830A34280F07D800B78E52B13
:1011C00003D00B78202B00D35AE00191FFF726FAC9
:1011D000019928B11024414B1C70FF2040B278E0E7
:1011E0000191202212B208460499FFF78FFE01995F
:1011F00001F21A04069B1B8803F0FF03237001F21F
:101200001A035C1C069B1B881B0A237001F20E0448
:101210003B4B1B78237001F20E035C1C394E337874
:10122000237001F21004384B1B78237001F2100375
:101230005C1C364D2B78237001F21604304B1B7862
:10124000237001F216035C1C33461B78237001F2F5
:1012500018042D4B1B78237001F218035C1C2B46DD
:101260001B78237024490398FEF788FF28B10524D2
:101270001A4B1C70FF2040B22BE0002040B228E047
:1012800001F22004A046224B1B689C420CD1039B18
:101290005B1C0393DFF86080CDF804801648FFF7ED
:1012A00021FADDF80480FFE7BDF808305B1CADF8DB
:1012B000083041467BE7FFF7B1F928B11024074B0E
:1012C0001C70FF2040B204E00624044B1C70FF2079
:1012D00040B2DDF800E007B0704700BFD80600203C
:1012E000BE040020D0040020CC040020B80400205C
:1012F000C4040020AE040020D4040020D406002042
:1013000014070020150700201607002017070020EB
:10131000DC060020FFFFFFFF4DF2BE47C0F20107D1
:101320007F1EFDD100BF00BF00BF00BF00BF00BFD8
:101330007047FFFFFFFFFFFF4AF67F17C0F203076A
:101340007F1EFDD100BF00BF00BF00BF7047FFFF81
:1013500049F6FF67C0F224077F1EFDD100BF00BF22
:1013600000BF00BF7047FFFF82B0CDF800E08DF8EE
:10137000041000235BB2094A1360094C2468A0479B
:101380009DF80400074C2468A04701235BB2034A80
:101390001360DDF800E002B0704700BF987F4E4256
:1013A000880700208C07002081B0CDF800E047F2CC
:1013B0000040C4F202004FF001014FEA411140F237
:1013C00040130122C9B2FFF7B7F9002149B22B48F7
:1013D000016046F20040C4F202004FF001014FEA02
:1013E000C11140F240130122C9B2FFF7A5F9012152
:1013F00049B22348016047F20040C4F202004FF0B6
:1014000001014FEA811140F240130122C9B2FFF7F6
:1014100093F9012149B21B48016046F20040C4F231
:1014200000004FF001014FEA411140F24013012248
:10143000C9B2FFF781F947F20040C4F202004FF051
:1014400001014FEA011140F240130122C9B2FFF736
:1014500073F9012149B20C4801600C4801604DF25A
:101460000040C4F2030040F240130122FF21FFF7C5
:1014700063F9DDF800E001B0704700BF947F4E4291
:101480009C7F4C42987F4E42947F0C42907F4E420C
:1014900082B0CDF800E084B216490988B4FBF1F1BE
:1014A00089B288B2144909684318012213490A70A5
:1014B000ADF804401249184600F026F8BDF8044083
:1014C00028B110220F490A704FF6FF700DE009494C
:1014D0000A88B4FBF2F102FB114189B24A0092B2D0
:1014E000074989180846FFF75FFDDDF800E002B004
:1014F000704700BFDA060020C8040020D406002090
:10150000D4040020D806002085B0CDF800E00346C2
:10151000029100F057F91E4A1278042A01D11846A8
:1015200000E05802FF220146112000F055F918B1E1
:1015300000F0B6FD012027E0FF20164C2468A047EC
:10154000FE2800D0F8E7002399B2B1F5007F10D251
:10155000029A52180492ADF80410FF200D4C246832
:10156000A047BDF80410049A10704A1C93B299B2B7
:10157000EBE7FF20074C2468A047FF20054C2468B8
:10158000A04700F08DFD0020DDF800E005B07047B9
:101590009E020020B40400209CB0CDF800E0074675
:1015A0003846FFF75AFD20B112222C490A7001205B
:1015B00050E039462A48FFF738FD18A90D2212B22B
:1015C00008462749FFF7A2FC0DA92548FFF7A8F90F
:1015D000002804DA022221490A7002203AE09DF82C
:1015E000411001F01001C9B231B340F2000218A954
:1015F000ADF804200846FFF745FCBDF8042000289C
:1016000001DA022026E002A9ADF804200846FFF71F
:101610001BFABDF8042030B1511C89B28AB20329EB
:1016200000D100E0EFE7FFF7FBFC032A04D30C2214
:101630000A490A7003200DE0BDF85C1049018AB226
:101640001699BDF8540000F0FBFA002801DA0420D6
:1016500000E00020DDF800E01CB07047D806002054
:10166000E006002085B0CDF800E001213648017089
:1016700036480078C10036484018001D00683549DA
:10168000FFF742FF28B1102133480170FF2040B21C
:1016900055E03248FFF788FC314904910880314811
:1016A0000178314801803148FFF77EFC30490391D1
:1016B0000880304801783048029001702F48FFF7C9
:1016C00073FC2F49019108802E48FFF76DFC2E4BCB
:1016D00018801E480078C1001D484018001D016890
:1016E000039800880818294A106018460188029853
:1016F0000078414389B2104600684018244B1860B6
:1017000001980088410189B2049A10460088B1FB13
:10171000F0F189B21846006841181E480160104671
:10172000008841081C4801801046008841091B4878
:101730000180184601681A480160002040B2DDF8B7
:1017400000E005B0704700BFD4060020ED06002081
:1017500058070020D4040020D8060020DF04002011
:10176000BC040020E1040020BE040020E2040020AC
:10177000C0040020E4040020C2040020E50400208E
:10178000C4040020EA040020C6040020C80400208D
:10179000CC040020D0040020DA060020AE04002093
:1017A000B804002081B013B20246C8B211461DB27F
:1017B0002CB26B1E1DB214B10870491CF8E710461C
:1017C00001B0704781B0002149B20248016001B008
:1017D000704700BF807F4C4284B0CDF800E002919A
:1017E0008DF80C2000F24004A0B21F4C2468A047E2
:1017F00002ABDB1C1B78DCB2A0B21B4C2468A047F8
:1018000002AB9B1C1B78DCB2A0B2174C2468A0472B
:1018100002AB5B1C1B78DCB2A0B2134C2468A0475F
:1018200002AB1B78DCB2A0B20F4C2468A0479DF835
:101830000C000D4C2468A0470021ADF80410FF20D7
:10184000094C2468A047BDF8041082B24B1C99B221
:1018500000F080039BB213B1642900D2EDE790B28F
:10186000DDF800E004B07047B404002084B0CDF887
:1018700000E08DF80C000021ADF80410BDF8042044
:1018800042F210718A4280F077809DF80C1099B96D
:10189000FFF798FFFF2200210120FFF79DFFADF821
:1018A000060000F0FDFBBDF8061021B90022354905
:1018B0000A70002061E059E0FFF784FFFF22002159
:1018C0003720FFF789FFADF8060000F0E9FBBDF80F
:1018D0000610012949D1FFF775FFFF224FF0804123
:1018E0002920FFF779FFADF8060000F0D9FBBDF81D
:1018F0000610002938D19DF80C1002292FD1FFF7CE
:1019000061FFFF2200213A20FFF766FFADF80600D5
:10191000FF201D4C2468A047ADF80800FF201A4C9A
:101920002468A047FF20184C2468A047FF20164CCD
:101930002468A04700F0B4FBBDF8061071B9BDF8EB
:10194000081001F0400189B219B104220D490A7052
:1019500002E003220B490A7000200EE004E001229D
:1019600008490A70002008E000E005E0BDF8041016
:10197000491CADF8041081E70120DDF800E004B057
:10198000704700BF9E020020B404002081B0CDF853
:1019900000E001460848FFF748FB4FF00001064809
:1019A000FEF7BEFF002801DA002000E00120DDF88C
:1019B00000E001B0704700BFE006002086B0CDF81F
:1019C00000E0ADF814104F4A13884F4A1288534371
:1019D0009BB2BDF81420821892B29A4200D98CE0D2
:1019E000484C2288B0FBF2F292B20292474A136846
:1019F000029AD218029222461388B0FBF3F203FB3C
:101A0000120292B25400A4B2ADF80C00404A12196E
:101A1000049201233F4A137034B93A4A1388BDF83F
:101A200014209A4200D308E039490298FFF76CFD70
:101A300018B11023384A13705FE0BDF81420521E0D
:101A400092B2ADF81420002A38D0BDF80C20531CF7
:101A5000ADF80C30049A1380049A931C04932F4A17
:101A60001268934229D100228DF804202C4A137861
:101A70009DF804209A4211D2234A13889DF804202D
:101A800053439BB2029AD21821491046FEF776FBC7
:101A90009DF80420521C8DF80420E7E7029A521C9E
:101AA00002921B4A0492174A1388BDF814209A42E6
:101AB00003D217490298FFF727FDBEE74FF6FF73E1
:101AC000049A138000228DF80420154A13789DF89B
:101AD00004209A4211D20C4A13889DF804205343E3
:101AE0009BB2029AD2180A491046FEF747FB9DF8AE
:101AF0000420521C8DF80420E7E7DDF800E006B072
:101B0000704700BFDA060020C6040020C804002089
:101B1000D4040020D4060020D8060020DC060020D3
:101B2000C204002082B0CDF800E03849098829B904
:101B3000072237490A704FF0FF3062E00122354931
:101B40000A7035490968884204D933490A6833491B
:101B50000A6001E03149086031490A882F49096863
:101B6000B1FBF2F22F490988B2FBF1F188B22E499C
:101B70000A882E490A8082B2002A1AD92B4909887C
:101B8000ADF8042088B2FFF783FCBDF80420274994
:101B900008804FF6FF71884208D11F490A681F4923
:101BA0000A600A221A490A7000202AE0521E92B2E4
:101BB000E2E71B4E3288194D2968B1FBF2F3194C4C
:101BC0002288B3FBF2F102FB1131194B198017493E
:101BD00009888A1E214609884A43164909688A18D5
:101BE00019460988521814490A6031460B8829465B
:101BF0000968B1FBF3F203FB121210490A8029466F
:101C00000868DDF800E002B0704700BF0C07002054
:101C1000D8060020D406002008070020F80600207F
:101C2000BC040020BE040020F6060020FC060020B4
:101C300004070020D0040020000700200607002031
:101C400084B0CDF800E00291ADF80C2081B24FF6DF
:101C5000FF73994210D0ADF8041088B2FFF718FC5A
:101C6000BDF80410ADF8060088B20021FEF770FD43
:101C7000BDF80640A1B2EAE70124124B1C701249DC
:101C80000298FFF741FC28B11024104B1C70FF2074
:101C900040B212E0BDF80C400B4B1C19E523237039
:101CA00009490298FEF76AFA28B10524074B1C700F
:101CB000FF2040B201E0002040B2DDF800E004B0B7
:101CC000704700BFD4060020D4040020D8060020AE
:101CD00081B00A46014600200D4611460A2805D269
:101CE0000B1820221A70401C80B2F7E70B18002254
:101CF0001A70401E80B20C180A23B5FBF3F203FBE6
:101D00001252303222700A22B5FBF2F2154602B9A5
:101D100002E0401E80B2EEE701B0704781B0C11C06
:101D200009780A02811C097851180A02411C0978B5
:101D300051180A0201785118084601B07047FFFF98
:101D40009BB0CDF800E007468DF864108DF8682050
:101D50003846FFF782F928B11224864B1C70FF2009
:101D600040B203E139468448FFF75FF9834B1B8893
:101D7000BBB1834B93F900305C01824B1B192026C9
:101D80001D46814C23782B70761EF6B2641C6D1CA8
:101D9000002EF7D10024794B1C80FF2464B2784BCD
:101DA0001C7014AB0D2212B273491846FFF7AEF83F
:101DB00009AB19467048FEF7B3FD00284CDA9DF8D0
:101DC0006840C4F3C013002B40D040F20003ADF8CC
:101DD0005E304FF0000318939DF8683003F058030D
:101DE000DBB22BB10824634B1C70FF2040B2BDE076
:101DF00001AB202212B200211846FFF7D3FC9DF858
:101E0000683003F07F038DF80F3001AB0B2212B264
:101E100059491846FFF77AF80DF15E0518AC01AB89
:101E20002A4621461846FFF769F9002802DAFF2002
:101E300040B29BE009AC14AB21461846FEF770FD9A
:101E4000002802DAFF2040B290E005E00D24494B63
:101E50001C70FF2040B289E09DF8313003F0580338
:101E6000DBB22BB10824434B1C70FF2040B27DE055
:101E70000020022824D24401424B1B1919461C336E
:101E80001B88D3B18B1D1C88BDF84430A34214D1EC
:101E900001F21C049DF86430238020263A4D0C4644
:101EA000FFE723782B70761EF6B2641C6D1C002EA3
:101EB000F7D1334B187040B258E0401C80B2D8E7DD
:101EC0000027022F4DD27C012E4B1B191C331B887F
:101ED000002B42D17C012B4B1B199846202212B2B9
:101EE00000211846FFF75EFC08F1060508F10C0416
:101EF000BDF84430238023882B8008F11C049DF812
:101F000064302380129BC8F8003008F10404BDF847
:101F10004C305B01238008F11804109B236008F10A
:101F2000100508F10C031B889C1E184B1B885C4392
:101F3000174B1B681B192B602026134D4446B8B263
:101F4000FFE723782B70761EF6B2641C6D1C002E02
:101F5000F7D10B4B187040B208E07B1C98B287B2E7
:101F6000AFE70924034B1C70FE2040B2DDF800E00F
:101F70001BB07047D8060020E00600200C070020A8
:101F8000D906002018070020F0060020BE0400201B
:101F9000D004002085B0CDF800E0ADF81000394B3A
:101FA0001A88394909885143ADF808100221ADF863
:101FB000041019460A8840F20201B1FBF2F03349DD
:101FC0000968401819460B8840F20202B2FBF3F18F
:101FD00003FB112189B24A0092B2BDF81010ADF88E
:101FE0000A1040F20201ADF8061029498918039140
:101FF000FEF7F6FA012227490A702548FEF772FB20
:10200000BDF80820BDF80410914227D20399098831
:1020100049B9BDF80A10491E89B2ADF80A10002965
:1020200000D11BE008E0BDF81010ADF80A10BDF8B3
:102030000410491CADF8061003998A1C0392BDF8E0
:102040000410491CADF80410134909688A4204D1F0
:102050000F4903910E48FEF745FBD1E7FEF7DEFA84
:1020600028B110220D490A704FF6FF7006E0BDF846
:102070000A1011B9BDF8060000E00020DDF800E00C
:1020800005B07047DA060020C6040020C80400200E
:10209000D4040020D4060020DC060020D80600204E
:1020A00081B0CDF800E0012149B205480160FF2070
:1020B000044C2468A047DDF800E001B0704700BF81
:1020C000807F4C42B404002081B0CDF800E085B29E
:1020D0008EB22A20FEF7C6F92A0AD0B2FEF7BEF861
:1020E000E8B2FEF7BBF80320FEF7B8F81F20FEF7B2
:1020F000B5F82B20FEF7B6F9320AD0B2FEF7AEF8EB
:10210000F0B2FEF7ABF80120FEF7A8F8DF20FEF7EB
:10211000A5F82C20FEF7A6F9DDF800E001B0704725
:1021200081B0CDF800E0FEF721FDDDF800E001B060
:102130007047FFFF83B0CDF800E0ADF80400ADF8C4
:1021400008102A20144C2468A04701AA521C1278B7
:10215000D4B2E0B2114C2468A047BDF804000F4C83
:102160002468A0472B200C4C2468A04702AA521CCC
:102170001278D4B2E0B2094C2468A047BDF8080038
:10218000064C2468A0472C20034C2468A047DDF8A7
:1021900000E003B0704700BF880700208C070020D4
:1021A00083B0CDF800E0ADF80400ADF808102A20A7
:1021B000134C2468A047BDF80420140AE0B2114C67
:1021C0002468A047BDF804000E4C2468A0472B20CB
:1021D0000B4C2468A047BDF80820140AE0B2094C53
:1021E0002468A047BDF80800064C2468A0472C20AE
:1021F000034C2468A047DDF800E003B0704700BF3F
:10220000880700208C07002081B0CDF800E0FEF7A1
:1022100029FEDDF800E001B07047FFFF81B0044AFD
:10222000116801B1FBE70349086001B0704700BFC6
:1022300014031C4200E0004081B0ADF8000001260C
:1022400076B209490E6000AD691C0978074C21700F
:1022500000235BB2064A1360166029782170136070
:10226000166001B0704700BF9C7F4C42FCD3034016
:10227000907F4E4281B0044A116801B1FBE70349E7
:10228000086001B0704700BF1403184200C000404E
:1022900081B0044A116801B1FBE70349086001B04D
:1022A000704700BF14031A4200D0004083B0CDF83D
:1022B00000E0ADF80400ADF808100220174C2468C7
:1022C000A047BDF80420140AE0B2154C2468A047CA
:1022D0000320124C2468A047BDF80400104C246869
:1022E000A04706200D4C2468A047BDF80820140A1A
:1022F000E0B20B4C2468A0470720084C2468A04794
:10230000BDF80800064C2468A0472220034C24682E
:10231000A047DDF800E003B0704700BF8807002049
:102320008C07002081B0002149B2044801600448B4
:1023300001600448016001B0704700BF0006184208
:1023400020061842240618420048704780380100D1
:1023500082B0CDF800E01FFA83F9CBB2D5B29DF878
:102360000870C44C00EA0404A0462046FEF70EFCA8
:102370003DB908F58066DD43EDB234682C40346029
:1023800006E0012D04D108F580652C681C432C6003
:1023900009F00104A4B22CB108F5A2652C681C4315
:1023A0002C6006E008F5A266DD43EDB234682C40EF
:1023B000346009F00204A4B22CB108F214552C6860
:1023C0001C432C6006E008F21456DD43EDB234687D
:1023D0002C40346009F00804A4B22CB108F20C556A
:1023E0002C681C432C6006E008F20C56DD43EDB26D
:1023F00034682C40346009F01004A4B22CB108F504
:10240000A0652C681C432C6006E008F5A066DD433F
:10241000EDB234682C40346009F02004A4B22CB131
:1024200008F204552C681C432C6006E008F20456A0
:10243000DD43EDB234682C40346009F04004A4B2AE
:102440002CB108F5A1652C681C432C6006E008F54A
:10245000A166DD43EDB234682C40346009F080049D
:10246000A4B264B109F04004A4B22CB108F5A3658C
:102470002C681C432C6001E00120F6E006E008F522
:10248000A366DD43EDB234682C40346009F48074F7
:10249000A4B22CB108F21C552C681C432C6006E039
:1024A00008F21C56DD43EDB234682C40346009F468
:1024B0000074A4B2002C3DD06F4CA04540F2000542
:1024C00000D00125EDB26D4CA04540F2000400D0D3
:1024D0000124E4B22540EDB2694CA04540F200046D
:1024E00000D00124E4B22540EDB2664CA04540F294
:1024F000000400D00124E4B22540EDB2624CA045B6
:1025000040F2000400D00124E4B22540EDB25F4C5B
:10251000A04540F2000400D00124E4B205EA04041E
:10252000E4B20CB10120A0E008F5A5652C681C43BD
:102530002C603CE0504CA04540F2000500D1012544
:10254000EDB24E4CA04540F2000400D10124E4B2AB
:102550002543EDB24A4CA04540F2000400D10124CD
:10256000E4B22543EDB2474CA04540F2000400D14F
:102570000124E4B22543EDB2434CA04540F20004EF
:1025800000D10124E4B22543EDB2404CA04540F215
:10259000000400D10124E4B245EA0404E4B234B1F9
:1025A00008F5A566DD43EDB234682C40346009F4CB
:1025B0008064A4B22CB108F584652C681C432C609F
:1025C00006E008F58466DD43EDB234682C403460E3
:1025D0000FB9002049E00B2F01D9012045E000216F
:1025E00000200191DAB2C3B24046F9B2019F082B34
:1025F00012D222FA03F4E4B204F00104E4B244B1CA
:102600009D002DB24FF00F04AC4047EA04052F4661
:10261000FFE75B1CDBB2EAE700F22C56FD433468AF
:102620002C403460002600238DF80420CAB29DF8A7
:102630000410082B13D221FA03F4E4B204F00104CD
:10264000E4B24CB1D5B29C0024B205FA04F446EAD7
:10265000040425462E46FFE75B1CDBB2E9E700F2E7
:102660002C552C6834432C600020DDF800E002B0CB
:10267000704700BF00F0FFFF0070004000400240C4
:102680000050004000B0054000C0054000900540EB
:1026900081B0CDF800E082460AF108010978A9B9B5
:1026A0000AF108010978CCB20AF1060109888BB257
:1026B0000AF104010978CAB2DAF800100846D1B26A
:1026C000002210B4FFF744FE01B014E00AF1080143
:1026D0000978CCB20AF1060109888BB20AF104012B
:1026E0000978CAB2DAF800100846D1B20F2210B445
:1026F000FFF72EFE01B0DDF800E001B07047FFFFEC
:1027000081B0012149B204480160044801600448D5
:10271000016001B0704700BF000618422006184251
:1027200024061842024A1080024A1180704700BFF6
:102730009E070020A007002081B0CDF800E0FEF742
:1027400033FEFEF705FE012149B297480160FEF70E
:10275000FFFDFEF7FDFD0021EA20FEF705FE20212A
:10276000EB20FEF701FE0C21EC20FEF7FDFDC4215D
:10277000ED20FEF7F9FD4021E820FEF7F5FD3821B8
:10278000E920FEF7F1FD0121F120FEF7EDFD10211A
:10279000F220FEF7E9FDA3212720FEF7E5FD002149
:1027A0004020FEF7E1FD00214120FEF7DDFD012183
:1027B0004220FEF7D9FD13214320FEF7D5FD10215D
:1027C0004420FEF7D1FD26214520FEF7CDFD08214E
:1027D0004620FEF7C9FD51214720FEF7C5FD022125
:1027E0004820FEF7C1FD12214920FEF7BDFD18214A
:1027F0004A20FEF7B9FD19214B20FEF7B5FD142143
:102800004C20FEF7B1FD19215020FEF7ADFD2F2120
:102810005120FEF7A9FD2C215220FEF7A5FD3E21F7
:102820005320FEF7A1FD3F215420FEF79DFD3F21DF
:102830005520FEF799FD2E215620FEF795FD7721B4
:102840005720FEF791FD0B215820FEF78DFD062144
:102850005920FEF789FD07215A20FEF785FD0D213D
:102860005B20FEF781FD1D215C20FEF77DFDCC2164
:102870005D20FEF779FD4D4800785A2810D10021DF
:102880000420FEF771FDEF210520FEF76DFD01210B
:102890000820FEF769FD3F210920FEF765FD0FE0E6
:1028A00001210420FEF760FD3F210520FEF75CFDBD
:1028B00000210820FEF758FDEF210920FEF754FD06
:1028C0003A4800785A280DD139480078012804D1B7
:1028D000C8211620FEF748FD03E008211620FEF768
:1028E00043FD0CE032480078012804D1A8211620CD
:1028F000FEF73AFD03E068211620FEF735FD1B21A7
:102900001B20FEF731FD01211A20FEF72DFD2F219E
:102910002420FEF729FD57212520FEF725FD8D21D6
:102920002320FEF721FD36211820FEF71DFD012191
:102930001920FEF719FD00210120FEF715FD882161
:102940001F20FEF711FDFEF7E7FC80211F20FEF798
:102950000BFDFEF7E1FC90211F20FEF705FDFEF7C1
:10296000DBFCD0211F20FEF7FFFCFEF7D5FC052184
:102970001720FEF7F9FC00213620FEF7F5FC382180
:102980002820FEF7F1FCFEF7D7FCFEF7D5FCFEF79A
:10299000D3FCFEF7D1FC3C212820FEF7E5FCDDF856
:1029A00000E001B0704700BF947F4E429C070020BA
:1029B000A6020020024A1080024A1170704700BF30
:1029C0009007002092070020BDF80050BDF8046079
:1029D000064C2070064C2180064C2270064C237059
:1029E000064C2580064C2680704700BF93070020C8
:1029F00094070020960700209707002098070020E2
:102A00009A07002085B0CDF800E0ADF80C1001B2B7
:102A1000ADF81020BDF90C30994205DD88B2BDF942
:102A20000C10ADF80C00FFE7002903DA002109B211
:102A300008B205E03A4B1B88994200D36CE008B21B
:102A4000BDF90C30002B00DA66E0354B1C88BDF96F
:102A50000C30A34204D3324B1B885B1EADF80C3004
:102A600001238DF808302F4B1C789DF80830A342C5
:102A700052D89DF8084004F001031BB21BB9634211
:102A80001CB221B200E021B24C1024B221B2BDF937
:102A900010301B191BB2002B08DBBDF910305C187D
:102AA00024B2214B1B889C4200D201E002B22CE0F0
:102AB000002464B21D4B1C60BDF910305C18ADF8E9
:102AC0000400A1B280B21A4C2468A047BDF90400EA
:102AD00086B2B1B2BDF90C30994211D8154B1C88A1
:102AE000ADF80400ADF80610A0B2134C2468A0475E
:102AF000BDF80610BDF904004B1C9EB2B1B2E9E767
:102B0000012464B2094B1C6002B29DF808305B1CC2
:102B10008DF8083010B2A6E7DDF800E005B0704788
:102B2000800700209207002082070020987F4E42F5
:102B30007C070020900700208407002086B0CDF895
:102B400000E085B240F20001ADF8121000218DF8CE
:102B500014108049097849B97F490022084640F29B
:102B6000000101F01BF901227A490A707B490988AA
:102B70008D4200D2EAE07A4909888D4200D9E5E029
:102B800076490988691A89B28A0092B2754C21681F
:102B900008318B1819788DF81010591C0978CAB2B1
:102BA000991C0978090289B25218D91C09780904BC
:102BB00089B2521821460968891803916A4909782F
:102BC000002940F062806949B1F80080002368491B
:102BD00009888B4253D267490988ADF8121040F238
:102BE000000B00218DF80810D8B25FFA8BF99DF820
:102BF00010209DF8081091423AD2B9F1000F0BD184
:102C0000039909788DF814100399491C039140F237
:102C100001095FFA89F201E05FFA89F29DF8141068
:102C20001140C9B2A1B1544909888DF804208DF82A
:102C30000500ADF806808AB20FFA88F1BDF81200DF
:102C4000FEF776F9BDF806809DF805009DF8042092
:102C5000BDF81210491CADF8121051005FFA81FB4B
:102C60009DF80810491C8DF808105FFA8BF9BEE733
:102C700008F101081FFA88F8431CDBB2A7E7BDF88A
:102C800012104A1C3B490A8060E03A49B1F80080C2
:102C90000023374909888B4253D234490988ADF85B
:102CA000121040F2000B00218DF80810D8B25FFA24
:102CB0008BF99DF810209DF8081091423AD2B9F195
:102CC000000F0BD1039909788DF814100399491C52
:102CD000039140F201095FFA89F201E05FFA89F29B
:102CE0009DF814101140C9B2A1B1234909888DF88B
:102CF00004208DF80500ADF806808AB2BDF81210E8
:102D00000FFA88F0FEF714F9BDF806809DF805006B
:102D10009DF80420BDF81210491EADF812105100A4
:102D20005FFA81FB9DF80810491C8DF808105FFAC6
:102D30008BF9BEE708F101081FFA88F8411CCBB2F5
:102D4000A7E7BDF812104A1E08490A80DDF800E026
:102D500006B07047A702002072610000A2070020A1
:102D6000A4070020C0070020B6070020A00700200D
:102D7000A60700209E070020BC07002086B0CDF8E3
:102D800000E00CB201B2A14204DD88B221B203B26C
:102D900018B200E020B2002902DA002109B204E0F2
:102DA0002F4B1B88994200D355E0002800DA52E0EF
:102DB0002B4B1B88984205D3294B1B885B1E18B2EE
:102DC00003B200E003B2012015B20AB219B2254BDA
:102DD0001B7898423FD8C4B204F001031BB213B968
:102DE000644224B2FFE763101BB21EB2EB181BB2A1
:102DF000002B06DBAC1924B21B4B1B889C4200D273
:102E000000E025E097B28F4222D8184B1C88AB19FE
:102E10008DF80400ADF80810ADF80C20ADF8105096
:102E2000ADF81260ADF81470A2B239B218B2FEF764
:102E30007FF8BDF81470BDF91260BDF91050BDF9EE
:102E40000C20BDF908109DF804007F1CBFB2DAE722
:102E5000401CC0B2BBE7DDF800E006B0704700BF21
:102E600082070020920700208007002090070020A2
:102E700081B0CDF800E085B2E90AC8B2C100CEB297
:102E8000F109C9B2012902D1F11DC8B200E0F0B2C6
:102E9000FDF7E4F96909C8B28100CEB2F109C9B2FF
:102EA000012902D1F11CC8B200E0F0B2FDF7D6F959
:102EB000E900CDB2E909C9B2012902D1E91DC8B2C0
:102EC00000E0E8B2FDF7CAF9DDF800E001B07047B4
:102ED0008BB0CDF800E040F20001ADF826100021E3
:102EE0008DF82810AF490988884200D256E1AE49D2
:102EF0000988884200D951E1AA490988411A89B252
:102F00008A0092B2A9490968083189180846042143
:102F1000FEF754F8A64803788DF82430411C097850
:102F2000CAB2811C0978090289B25218C11C0978F9
:102F3000090489B252189D49096889180491DA0870
:102F4000D2B29C490988514389B206919DF8241058
:102F500001F00701C9B221B196490A88069989187A
:102F600006910699089105AC224606990498924C60
:102F70002468A0470446059A049989180491059A83
:102F80000699891A0691002107918C490978002930
:102F900040F082808A490988ADF80A1000218DF836
:102FA000091084490A889DF80910914280F06E80CA
:102FB00084490988ADF8261000218DF80C100021F5
:102FC0008DF808109DF824209DF80810914252D2E7
:102FD0009DF80C1059BB0799491C0791089A05994F
:102FE00091421AD2059A0799914214D90121079169
:102FF00005AC2246069904986F4C2468A047044605
:1030000006990891059A049989180491059A0699D8
:10301000891A0691FFE7204600E0204601788DF8E6
:103020002810441C01218DF80C10204600E0204699
:103030009DF80C209DF828101140C9B251B1624989
:10304000098801908AB2BDF80A10BDF82600FDF784
:103050006FFF0198BDF82610491CADF826109DF8A9
:103060000C1049008DF80C109DF80810491C8DF8C3
:1030700008100446A6E7BDF80A10491CADF80A106E
:103080009DF80910491C8DF809108AE7BDF8261033
:103090004A1C4C490A8081E04A490988ADF80A1067
:1030A00000218DF8091043490A889DF809109142C2
:1030B00080F06F8042490988ADF8261000218DF814
:1030C0000C1000218DF808109DF824209DF80810A0
:1030D000914253D29DF80C1061BB0799491C07918E
:1030E000089A059991421AD2059A0799914214D9E2
:1030F0000121079105AC2246069904982E4C2468BC
:10310000A047044606990891059A049989180491E4
:10311000059A0699891A0691FFE7204600E02046A5
:1031200001788DF82810411C0C4601218DF80C10F7
:10313000204600E020469DF80C209DF82810114004
:10314000C9B251B12049098801908AB2BDF8261050
:10315000BDF80A00FDF7ECFE0198BDF82610491EE7
:10316000ADF826109DF80C1049008DF80C109DF854
:103170000810491C8DF808100446A5E7BDF80A1090
:10318000491CADF80A109DF80910491C8DF809106A
:1031900089E7BDF826104A1E09490A80DDF800E0DB
:1031A0000BB07047A2070020A4070020A80700204A
:1031B000AC070020A6070020B8070020B6070020B3
:1031C000A00700209E070020BC07002090B0CDF88B
:1031D00000E00C900D910E920F93109C10941C4CDB
:1031E00024881CB907251B4C25702DE001251A4C9D
:1031F00025701A4C24681A492046FEF785F918B143
:103200001025144C25701FE0164C2588144C6519A8
:1032100001AC21462846FDF747F80DF11206341D92
:103220002578109C2570F41C25780F9C2570B41C03
:1032300025780E9C2570741C25780D9C257034789B
:1032400004F2BC750C9C2580DDF800E010B07047DE
:103250000C070020D8060020D4060020F00600202D
:10326000D4040020F406002081B00A4681B2002078
:103270001546052805D22B1820221A70401CC0B212
:10328000F7E72B1800221A70401EC0B22C180A2330
:10329000B1FBF3F203FB121292B2303222700A2217
:1032A000B1FBF2F292B291B202B902E0401EC0B29A
:1032B000ECE701B07047FFFF81B0CDF800E00121DD
:1032C0002B48017040F2002212B200212948FEF77B
:1032D00069FA0026022E0AD27101274840182022DE
:1032E00012B20021FEF75EFA761CF6B2F2E7202257
:1032F00012B200212148FEF755FA0026042E0AD208
:10330000F1001F484018082212B20021FEF74AFAC5
:10331000761CF6B2F2E7182212B200211948FEF725
:1033200041FA134918480160002118480170002132
:1033300017480160002117480170002116480180DC
:10334000002116480160FF2149B2154801700D2285
:1033500012B200211348FEF725FA0021124801801D
:10336000002112480180DDF800E001B0704700BF85
:10337000D4060020D404002018070020F006002006
:1033800058070020BC040020DC060020ED060020C9
:10339000B8040020D8060020EE0600201007002008
:1033A000D9060020E00600201407002016070020A0
:1033B00082B0CDF800E00C49098801F0010189B222
:1033C00029B900210160072208490A7007E001902D
:1033D0000020FEF7A7FB0198054909680160DDF8A8
:1033E00000E002B0704700BF0C070020D8060020A4
:1033F0000807002081B0CDF800E00948008800F0FF
:10340000060080B218B907210648017003E006489B
:103410000068FEF787FBDDF800E001B0704700BFF1
:103420000C070020D80600200807002081B0CDF846
:1034300000E01848008820B90721174801700120D2
:1034400024E0002113480180144890F90000410154
:1034500013484018202302461249087810705B1E5A
:10346000DBB2491C521C002BF7D1FF2149B20B489B
:1034700001700D4802880B4801680C480088FEF76F
:10348000DFFB002801DA022000E00020DDF800E088
:1034900001B070470C070020D8060020D906002094
:1034A00018070020F0060020F4060020F606002091
:1034B00082B0CDF800E004464149098801F00101DD
:1034C00089B219B907223F490A7075E03E490A6876
:1034D0003E490968914203D30B223A490A706BE0D6
:1034E0003B490988B1F5007F40F04580002238490A
:1034F0000A80384B19884A1C92B21A8036490988CA
:103500008A4223D1002233490A8034490988019430
:1035100088B2FDF7BDFF019C304908804FF6FF716E
:10352000884207D128490A6828490A600A222549A1
:103530000A7041E0294909888A1E274909884A43B7
:10354000274909688A1827490A6003E0254A116853
:10355000491C1160002224490A702249096801941B
:1035600008462249FDF7D0FF019C18B110221549E9
:103570000A7021E012E01C49097879B100221A4949
:103580000A7018490968019408461849FDF7BCFFFC
:10359000019C18B110220B490A700DE00C4B1A88DF
:1035A000124989180978217019460988491C19801F
:1035B000064A1168491C1160DDF800E002B070474E
:1035C0000C070020D806002008070020F80600207D
:1035D0000607002004070020BE040020FC0600208F
:1035E000D004002000070020D4060020D4040020CE
:1035F00081B00A46C1B200201446032805D2231820
:1036000020221A70401CC0B2F7E7231800221A705B
:10361000401EC0B225462C180A23B1FBF3F203FB6F
:103620001212D2B2303222700A22B1FBF2F2D2B2BE
:10363000D1B202B902E0401EC0B2ECE701B070475F
:103640000021014801807047A402002081B0CDF81C
:1036500000E08346214A22490A60224A22490A6040
:10366000224A23490A60234A23490A602348FFF774
:103670000FF8012252B222490A6000BF00BF00BF0A
:10368000FEF750FEFEF760FE40F2E83100FB01F26B
:1036900010464FEA0B11914206D9012252B2194944
:1036A0000A604FEA5B0204E0002252B215490A6048
:1036B0005A46C100B1FBF2F1491C4B089A09124964
:1036C0000A6003F03F0211490A60602210490A6053
:1036D000FFF716F8DDF800E001B070477522000032
:1036E000C4070020FFFFFFFFC8070020FFFFFFFF08
:1036F000CC070020FFFFFFFFD00700203C73000035
:103700008020FC431406184224C0004028C000401A
:103710002CC0004081B0CDF800E0002204B440F29B
:1037200040130122FEF714FE01B0DDF800E001B005
:103730007047FFFF82B0CDF800E005213D480170E1
:1037400046F20040C4F202004FF001014FEA0101CD
:1037500040F240130122C9B2FCF7EEFFFEF7A0FCD5
:1037600000210A290AD2ADF80410FF20324C246847
:10377000A047BDF80410481C81B2F2E7FEF722F81A
:10378000952200210020FEF727F8ADF80600FEF78D
:1037900087FCBDF80600012801D0012046E0FEF7B5
:1037A00011F8872240F2AA110820FEF715F8ADF8AB
:1037B0000600FF20204C2468A047FF201E4C2468F0
:1037C000A047FF201C4C2468A047FF201A4C246807
:1037D000A047FEF765FCBDF80600012807D00120D0
:1037E000FEF744F810B10020FEF740F802E0022096
:1037F000FEF73CF80F480078052801D1022015E0BB
:103800000C480078042810D0FDF7DCFFFF2240F2BE
:1038100000211020FDF7E0FFADF80600FEF740FCA8
:10382000BDF8060008B1032000E00020DDF800E04C
:1038300002B070479E020020B404002093B0CDF87F
:1038400000E00E900F918DF840200F98FDF705FCD9
:1038500020B11224484B1C70002089E0474D2C8871
:103860000E9BB3FBF4F3ADF804302B461D880E9C81
:10387000B4FBF5F305FB134323B1BDF804305B1C27
:10388000ADF80430BDF80400FEF784FBADF8060087
:10389000022801D200206BE0394C23680293394B97
:1038A0001B6823600F98FEF771F810B10F98FDF7B1
:1038B00073FE0F993448FDF7B8FB3348FCF70AFE56
:1038C0000DF116031293202212B200211846FDF7C3
:1038D00069FF0DF116030B2212B22B491846FDF7B2
:1038E00015FB9DF8403003F07F038DF821300CACC0
:1038F0000DF106052B782370641C6B1C1B7823705C
:10390000224B1C880E9B634303930DF1320603ADDB
:103910002B783370741C6B1C1B782370B41CAB1C8D
:103920001B782370F41CEB1C1B78237005AD04ACD2
:10393000129B2A4621461846FDF7E0FB002804DAD0
:10394000029C0F4B1C60002012E0BDF80410BDF873
:103950000600FEF733F8029C094B1C60BDF80630E8
:103960009C1E064B1B885C43094B1B681B191846A1
:10397000DDF800E013B07047D8060020BE04002038
:10398000B8040020CC040020E0060020BC04002085
:10399000D004002081B00648008828B907210548D6
:1039A00001704FF0FF3001E00348006801B070473C
:1039B0000C070020D80600200807002090B0CDF8A2
:1039C00000E00C900D910E920F93109C10941C4CE3
:1039D00024881CB907251B4C25702CE001251A4CA6
:1039E00025701A4C24681A492046FDF78DFD18B140
:1039F0001025144C25701EE0164C2588144C6519B2
:103A000001AC21462846FCF74FFC06AE341D257854
:103A1000109C2570F41C25780F9C2570B41C25780B
:103A20000E9C2570741C25780D9C2570347804F24A
:103A3000BC750C9C2580DDF800E010B0704700BF1D
:103A40000C070020D8060020D4060020F006002035
:103A5000D4040020F406002081B01CF8019B0BF870
:103A6000019BBBEB0A0FF8D101B0704781B0CDF8D4
:103A700000E00E4600210346002804DA01214042FE
:103A800000468FB201E018468FB23146FEF720F9AA
:103A90000B213446B8B2002908D963184A1E92B2E5
:103AA000A21812781A70491E89B2F4E720222270F7
:103AB00070B1002081B2204642181278202A02D12B
:103AC000491C89B2F8E74A1E92B283182D221A7057
:103AD000DDF800E001B0704783B0CDF800E002905F
:103AE0001C4B1B88994200D32FE01B4B1B889A422A
:103AF00000D32AE00020ADF8040088B291B2FEF7AE
:103B000011FEBDF80400029B1B181B78EBB1134B90
:103B10001B7863B1029B1B181B78ADF8040098B2A8
:103B2000FFF7D6F9BDF80400411C89B20BE0029BF7
:103B30001B181B78ADF8040098B2FEF7FFFFBDF824
:103B40000400411C89B288B2DDE7DDF800E003B073
:103B5000704700BF80070020820700209D070020DB
:103B600084B0CDF800E0ADF80C00002252B212494A
:103B70000A6000210020114C2468A04710490A88DF
:103B8000104909885143029100210191029A01993B
:103B9000914208D2BDF80C000B4C2468A047019953
:103BA000491C0191F2E7012252B203490A60DDF893
:103BB00000E004B0704700BF987F4E427C070020B1
:103BC00080070020820700208407002081B0CDF804
:103BD00000E00848008800F0060080B218B907210C
:103BE0000548017002E00020FDF79CFFDDF800E0D1
:103BF00001B070470C070020D806002083B0CDF834
:103C000000E001215948017059490020FDF77CFC72
:103C100020B1102157480170FF20A2E0544901F55E
:103C2000FF700078552801D001209AE001F2FF10C2
:103C30000078AA2801D0012093E000220878E92822
:103C400002D10120C2B2FFE70878EB2805D1881C19
:103C50000078902803D1012000E0D0B200E0D0B27B
:103C6000002848D0444A80201070111D00200860B0
:103C70000192FDF7F7FC019A002801DA012070E0BB
:103C80003E480088002830D03D4801783D48007803
:103C90000843C0B248B13A48007801023948007878
:103CA0000B18511C0420087004E037480368511CAD
:103CB0000620087035480068191A35480088B1FB9D
:103CC000F0F10B4640F6F570814204D2511C012000
:103CD0000870012045E04FF6F570834204D9511C6D
:103CE0000B20087001203CE004E0511C0B20087000
:103CF000012036E034E0274C0023042B16D2D900F3
:103D00001D4841180A4620780870201D0446511CA1
:103D100000780870211D0C46101D02900846FDF722
:103D2000FDFF029908605B1C9BB2E6E71A48007829
:103D3000C10011484018401C007804280AD01648D9
:103D40000078C1000C484018401C0078062801D0BB
:103D5000012006E0FDF786FC002801DA012000E0E2
:103D60000020DDF800E003B0704700BFD40600205B
:103D7000D4040020D806002058070020C6040020E4
:103D8000E8040020E7040020F4040020D004002010
:103D9000BE04002092060020ED060020114B1860A2
:103DA000831C1C78C31C1B781B029BB2E4180E4BAF
:103DB0001C80031D1C78431D1B781B029BB2E4185A
:103DC0000A4B1C80831D1C78094B1C80094B1980F1
:103DD000094B1A700124094B1C700024084B1C70FD
:103DE000704700BFC0070020A2070020A4070020E2
:103DF000A6070020BC070020B6070020A70200206D
:103E00009D07002084B0CDF800E0CCB201461D4AE9
:103E100092F900208DF80C201B4A12788DF80D20A5
:103E20008DF804400291E2B208460721FDF788FFB1
:103E300002999DF8044043B200281DDA6FF0010298
:103E4000934217D19DF80D300F4A13709DF90C2045
:103E500053010E4AD21802F21C0300221A80E2B269
:103E600008460721FDF76CFF002801DA002004E076
:103E7000022002E0002000E00120DDF800E004B0B4
:103E8000704700BFD9060020D80600201807002080
:103E900088B0CDF800E0ADF81800ADF81C101DB2E8
:103EA00013B2A9B298B2FEF73DFCBDF918409C428E
:103EB00007D1BDF9182029B2BDF91C00FEF75EFF3D
:103EC00029E1BDF91C40AC4207D1BDF91C2019B253
:103ED000BDF91800FEF796FD1DE10024ADF8104075
:103EE000BDF918401C1B24B2ADF80640002C0ADABC
:103EF000BDF906406442ADF80640BDF81040641EAE
:103F0000ADF8104004E0BDF81040641CADF810405E
:103F10000024ADF81240BDF91C402C1B24B2ADF8B2
:103F20000840002C0ADABDF908406442ADF80840A8
:103F3000BDF81240641EADF8124004E0BDF8124016
:103F4000641CADF812400024ADF81440BDF90850CF
:103F5000BDF90640AC4245DABDF81440641CADF82A
:103F60001440BDF90600BDF90840ADF80640ADF8B3
:103F70000800BDF91800BDF91C40ADF81840ADF8B7
:103F80001C00BDF81000BDF81240ADF81040ADF8AF
:103F9000120040F2010A5FFA8AF0614C2478A042D4
:103FA0001FD8C1B201F0010424B214B9494209B2C8
:103FB000FFE74E1036B25B4C2588BDF91C40A419B2
:103FC0008DF80400AAB2BDF9181020B2FCF7B0FFBA
:103FD0009DF8040000F1010A5FFA8AFA5FFA8AF09C
:103FE000DBE726E040F2010A5FFA8AF04C4C2478C5
:103FF000A0421ED8C1B201F0010424B214B9494252
:1040000009B2FFE74E1036B2464C2588BDF91C4078
:10401000A4198DF80400AAB221B2BDF91800FCF76A
:1040200087FF9DF80400441C5FFA84FA5FFA8AF067
:10403000DCE7BDF906406400ADF80E40BDF908406C
:1040400065002DB2ADF80C50BDF906402C1BADF843
:104050000A40BDF90640641E24B2ADF80640002CAB
:1040600059DBBDF90A40002C0DDBBDF81250BDF93B
:104070001C406419ADF81C40BDF90E50BDF90A4052
:10408000641BADF80A40BDF81050BDF91840641922
:10409000ADF81840BDF90C50BDF90A406419ADF8EF
:1040A0000A4001201E4C2478A04233D8C5B205F046
:1040B000010424B21CB96C4225B229B200E029B235
:1040C000491009B2BDF814407CB1164C2588BDF9E1
:1040D0001C4064188DF80400AAB2BDF9181020B273
:1040E000FCF726FF9DF804000EE00E4C2588BDF974
:1040F0001C4064188DF80400AAB221B2BDF9180062
:10410000FCF716FF9DF80400441C5FFA84F85FFA80
:1041100088F0C7E79DE7DDF800E008B0704700BF12
:10412000920700209007002081B0CDF800E0024601
:1041300000241078134640B1FEF79CF8611CC9B208
:10414000CCB259180978C8B2F5E7DDF800E001B043
:104150007047FFFF81B0D5B282B2CEB29DF8041095
:104160009DF8080040F2BC74A24203D3A2F2BC72D4
:1041700092B2FFE702F07F0292B206F00F04E4B2BF
:10418000E6B20C2C02D90C24E7B200E0F7B2012F02
:1041900001D20127FFE71F2D03D91F245FFA84F8FE
:1041A00001E05FFA85F8B8F1010F02D240F2010890
:1041B000FFE7172B01D90023FFE73B2901D9002195
:1041C000FFE73B2801D90020FFE75602B6B20F4DAA
:1041D0002E80FCB26401A4B246EA0404A4B22C808E
:1041E00044EA08042C80DCB2E502ADB2084E35800A
:1041F000CCB26401A4B22543ADB235804408E4B228
:1042000045EA0404348001B0704700BF160700205F
:104210001407002081B0CDF800E01D4A1288012A61
:1042200008D01C4B1C4A13601C4B1D4A13601D4BCD
:104230001D4A13601D4A10801D4A1180884203D90F
:1042400000231C4A137002E05A231A4A13700121FA
:1042500040F20000FEF7AEFB0023002208B404B4D5
:104260000023002200210020FEF7AEFB02B0002157
:104270000020FEF757FA00230F4A1370FEF75CFA8E
:104280000E4B0F4A1360DDF800E001B0704700BF2D
:10429000A40200204104000088070020B1040000AF
:1042A0008C070020392200008407002080070020AE
:1042B000820700209C0700209D070020AD220000FF
:1042C0007C07002084B0CDF800E00290ADF80C101F
:1042D000974A128802F0060292B21AB90723954A49
:1042E000137020E1BDF80C2002B91CE10123924AB1
:1042F0001370924A1288B2F5007F14D08F4A128848
:1043000032B98F4A1388BDF80C209A4200D30AE0D4
:104310008C4A12688C491046FDF7F6F818B1102344
:10432000844A1370FFE00022ADF80420BDF80C3081
:10433000BDF804209A4280F09280804A1288B2F53B
:10434000007F40F07880BDF8042082B17D4A126879
:104350007D491046FBF712FF48B1BDF804407B4B86
:104360001A6812191A600523724A1370DBE00023E1
:10437000724A1380734B1A68521C1A60744C22885C
:10438000531C9BB22380734A1288934239D1724ADC
:10439000128890B2FDF77CF8ADF806004FF6FF7278
:1043A00090421CD1FCF74AFAADF806004FF6FF72B6
:1043B000904207D1694A1368644A13600A235D4A30
:1043C0001370B0E0644A1288BDF8061090B2FCF792
:1043D000BFF94FF6FF71BDF80600FCF7B9F9BDF85B
:1043E00006205D4C22800023594A13802246128801
:1043F000931E584A12885343594A1268D318514A97
:104400001360BDF80430BDF80C20D21A92B2B2F598
:10441000007F10D24B4A12684B491046FDF774F8E2
:1044200048B1BDF80440494B1A6812191A601023AC
:10443000404A137077E0414D2B88434AD418BDF8A9
:104440000430029AD218127822702A461288521C1E
:104450002A80BDF80420521CADF8042066E7374AD4
:10446000128852B1374A126837491046FBF786FE68
:1044700018B105232F4A137055E0BDF80C30334CAA
:104480002268D3182360354A1268934203D92F4A11
:104490001368324A1360334A12682B491046FDF7FD
:1044A00033F818B11023234A13703CE02E4A1388C6
:1044B000254AD218104602F21C03284A12781A70B4
:1044C00000F21C02531C294A12781A7000F21C02D6
:1044D000931C274A12781A7000F21C02D31C254A3A
:1044E00012781A7000F21603234A12781A7000F23A
:1044F0001602531C214A12781A7000F21803204A3F
:1045000012781A7000F21802531C1E4A12781A70A0
:10451000144A12680C491046FBF730FE18B1052307
:10452000044A1370FFE7DDF800E004B0704700BFF5
:104530000C070020D8060020D40600200607002023
:10454000BC04002000070020D4040020F80600204E
:1045500004070020BE040020FC06002008070020FD
:10456000D0040020F0060020F406002009070020F7
:104570000A0700200B070020140700201507002061
:10458000160700201707002082B0CDF800E0422176
:104590001048017000211048FFF734FC0F48FEF767
:1045A00007FF01210E4801600C4801680C480068B3
:1045B00088420BD801A8FEF77BFF9DF80400FDF7A9
:1045C00059FE07490868401C0860EDE7DDF800E087
:1045D00002B07047450000203E000020A8040020E3
:1045E000B004002082B0CDF800E000228DF8042055
:1045F000FFF7A0F89DF80420521CD2B2C0B210B14F
:10460000322A00D2F2E7322A01D3FF2003E0FEF77C
:1046100053FEFFF7F3FADDF800E002B07047FFFF4A
:1046200081B0CDF800E041213D480170002100201B
:1046300002B401B409231322042140F2DA70FFF717
:1046400089FD02B0A0213748FFF7DCFBFFF7BEFA77
:1046500001213548017034480078632850D82E2055
:10466000FDF708FE31489B226421FFF735FA4AF630
:104670007F17C0F2030700BF00BF7F1EFDD100BF40
:1046800000BF00224FF6FF712948FFF787FB29483A
:104690009B226421FFF720FA4AF67F17C0F2030736
:1046A0007F1EFDD100BF00BF00BF00BF002240F24F
:1046B00000011F48FFF772FB1F489B226421FFF790
:1046C0000BFA194A11780A20B1FBF0F0C0B200F2DF
:1046D00030011A480170104602780A21B2FBF1F04D
:1046E00001FB1020C0B200F23001154801702A21F0
:1046F0001248FFF7E7FD0C490878401C0870AAE74C
:1047000000224FF6FF710A48FFF748FB0D489B2235
:104710006421FFF7E1F9DDF800E001B0704700BF68
:10472000450000203E000020AC0400208200002054
:104730007261000097000020AC000020C100002042
:10474000C2000020EC00002081B0CDF800E008217C
:104750001648FEF7DFFF002001B440F200130122EB
:1047600001211348FDF7F4FD01B008210F48FEF7C1
:10477000D1FFFEF765FF4FF4E130FEF767FFF02150
:1047800040F24010FFF746FD43F2FF57C0F26E17AC
:104790007F1EFDD100BF00BF00BF00BF012149B295
:1047A00004480160DDF800E001B0704700400040BF
:1047B000FC6302408C7F084281B04FF000094BF847
:1047C000049BBBEB0A0FFAD101B07047FFFFFFFF5C
:1047D00081B0CDF800E04321354801700021354813
:1047E000FFF710FBFFF7F2F901213348017032485F
:1047F000007837284DD8304A11780A20B1FBF0F004
:10480000C0B200F230012D480170104602780A2132
:10481000B2FBF1F001FB1020C0B200F230012848D9
:1048200001702A212548FFF74DFD26489B2264216F
:10483000FFF752F94AF67F17C0F2030700BF00BF27
:104840007F1EFDD100BF00BF002240F200011E48C4
:10485000FFF7A4FA1D489B226421FFF73DF94AF6B1
:104860007F17C0F2030700BF00BF7F1EFDD100BF4E
:1048700000BF00224FF6FF711348FFF78FFA14486C
:104880009B226421FFF728F90B490878401C087027
:10489000ADE700224FF6FF710B48FFF77FFA0D4896
:1048A0009B226421FFF718F9DDF800E001B07047A2
:1048B000450000203E000020AC040020C100002084
:1048C000C2000020010100207261000016010020DA
:1048D0002B0100204001002081B0CDF800E04221F2
:1048E0001D48017000211D48FFF78CFA002114209B
:1048F00002B401B409231322042140F2DA70FFF755
:1049000029FC02B0FEF776FD15481B21FFF7DAFC03
:10491000002240F200011348FFF740FA12489B22A0
:104920006421FFF7D9F84AF67F17C0F2030700BFEA
:1049300000BF7F1EFDD100BF00BF00224FF6FF71F8
:104940000848FFF72BFA09489B226421FFF7C4F8B7
:10495000DDF800E001B07047450000203E00002077
:10496000C101002072610000DD010020F101002082
:1049700081B0CDF800E04FF6FF70FFF7F1F80121AC
:1049800040F20000FEF716F8DC231BB240F22C12B6
:1049900012B2DC2109B2142000B2FFF779FA2E23FB
:1049A0001BB240F22C1212B22E2109B2142000B216
:1049B000FFF76EFA00224FF600011448FFF7EEF9F8
:1049C00013480E224B21FFF787F8002240F2000126
:1049D0001048FFF7E3F91048DF221321FFF77CF8B6
:1049E00000224FF600010B48FFF7D8F90B48DF22F1
:1049F000C821FFF771F8002240F200010848FFF7D4
:104A0000CDF9DDF800E001B0704700BF645100004F
:104A100000000020EA690000130000202F000020A1
:104A20007261000089B0CDF800E007901846ADF83B
:104A300020200DF1100B0BF10B0ADFF818C1FFF766
:104A40000BF8ADF80410FDF723FEBDF804100125A6
:104A50006DB2414C2560414C206800256DB2404C40
:104A60002560404C2160BDF820503F4C25603F4DF3
:104A70003F4C25603F4D404C2560FDF765FC40F202
:104A8000E83400FB04F5079CB5FBF4F4029429B963
:104A9000029C022C01DA0224029404E0029C0C2CF9
:104AA00001DA0C240294022109B2B1F1FF0F3BDAC2
:104AB000002212B210B2B0F5807F2DDA0DB2441C84
:104AC00024B26543029C641B0394002C04DA039D0A
:104AD0004FF0FF346C43039410B9039C059404E039
:104AE000039D059CAC4200DA16E0039D049CAC4299
:104AF00002DC039C04B105E0039C04948DF81810BB
:104B00008DF81900049C1CB901248DF81A4003E0AB
:104B1000441C22B210B2CEE79DF81A40012C00D1FD
:104B200002E0891C09B2C0E79DF81850134C2560BB
:104B30009DF8194025022DB20B4C246844EA050566
:104B4000094C256001256DB2054C2560DDF800E0BB
:104B500009B07047547300009020FC4308E10F40F7
:104B60008400104204800040008000406D0B000073
:104B7000B4040020212100007807002010800040AC
:104B800086B0CDF800E042215A48017000215A4811
:104B9000FFF738F9002800F098800DF1090402AB06
:104BA0000DF107020DF1060101A810B4FEF70EFB8E
:104BB00001B05248FFF7B8FA0DF10A000146BDF8FE
:104BC0000400FEF751FB0DF10A00FFF7ADFA0DF1FD
:104BD0000A0001469DF80600FEF70AFD0DF10A00E5
:104BE000FFF7A2FA0DF10A0001469DF80700FEF753
:104BF0003BFB0DF10A00FFF797FA0DF10A000146A1
:104C00009DF80800FEF730FB0DF10A00FFF78CFA63
:104C10000DF10A0001469DF80900FEF725FB0DF194
:104C20000A00FFF781FA0DF1090402AB0DF107024A
:104C30000DF1060101A810B4FEF7C0FE01B0304826
:104C4000FFF772FA0DF10A000146BDF80400FEF705
:104C50000BFB0DF10A00FFF767FA0DF10A000146A0
:104C60009DF80600FEF7C4FC0DF10A00FFF75CFAA0
:104C70000DF10A0001469DF80700FEF7F5FA0DF167
:104C80000A00FFF751FA0DF10A0001469DF80800ED
:104C9000FEF7EAFA0DF10A00FFF746FA0DF10A00F5
:104CA00001469DF80900FEF7DFFA0DF10A00FFF753
:104CB0003BFAFEF76FFE0DF10A010046FEF7D6FE45
:104CC0000DF10A0000F01CF90FE05520FDF7D2FAB3
:104CD00043F2FF57C0F26E177F1EFDD100BF00BF29
:104CE00000BF00BF5520FDF7C5FADDF800E006B0B3
:104CF000704700BF450000203E0000204C0000200F
:104D00005700002081B0CDF800E046210548017031
:104D100000210548FFF776F8FEF788FBDDF800E094
:104D200001B07047450000203E000020FFFFFFFF5C
:104D300081B0CDF800E0422144480170434800783A
:104D40005A2800F27F8041480078FDF793FA3F48E7
:104D500001783F4801700021002002B401B409230A
:104D60001322042140F2DA70FFF7F4F902B0A02117
:104D70003848FFF747F8FEF729FF01213648017050
:104D8000354800782C284DD8334A11780A20B1FBD9
:104D9000F0F0C0B200F230013048017010460278E5
:104DA0000A21B2FBF1F001FB1020C0B200F2300189
:104DB0002B4801702B489B226421FEF78DFE4AF69A
:104DC0007F17C0F2030700BF00BF7F1EFDD100BFE9
:104DD00000BF00224FF6FF712348FEF7DFFF234894
:104DE0009B226421FEF778FE4AF67F17C0F2030784
:104DF0007F1EFDD100BF00BF00BF00BF002240F2F8
:104E000000011948FEF7CAFF19489B226421FEF7EA
:104E100063FE2A211148FFF755FA0F490878401C14
:104E20000870ADE700224FF6FF710F48FEF7B6FF9E
:104E300010489B226421FEF74FFE04490878401C6D
:104E400008707BE7DDF800E001B07047AD0400209A
:104E5000450000203E000020AC040020C1000020DE
:104E6000C200002055010020726100007001002086
:104E70008B010020A601002082B0CDF800E00021C7
:104E8000B1F5007F05D21A4840180170491C89B25B
:104E9000F6E718482022014641F28830FEF7CEFCA2
:104EA00015490860F8B11549134C2068FEF7DEFD7E
:104EB000124800F025F8002241F28830824212D2D6
:104EC0000D480068ADF804200949FBF757F90A4975
:104ED0000868401C08602E20FDF7CCF9BDF80420BE
:104EE000521C92B2E8E7DDF800E002B0704700BF64
:104EF000A802002063000020A80400206E0000200B
:104F000081B0CDF800E0FFF70FF90D20FDF7B2F901
:104F10000A20FDF7AFF9DDF800E001B07047FFFFB0
:104F200081B0012676B2214A1660214A1660214AD4
:104F3000166000256DB2204C2560204A13686FF47E
:104F4000707213401D4A136000F00F0293011B4A58
:104F5000126842EA0303194A1360194A13686FF092
:104F600070021340164A1360164A1560144A1368FB
:104F70006FF0FC521340124A136001F03F02D30558
:104F80000F4A126842EA03030D4A136026600E4B73
:104F90001A6802B9FBE701235BB2044A13600023DD
:104FA0005BB2034A136001B0704700BF180BFC43AB
:104FB0002C0EFC437C0EFC43580CFC4360E00F407D
:104FC00070E00F40340EFC43180AFC4381B0FEE74A
:104FD00001B07047FFFFFFFF00F094F802210E20A0
:104FE000FFF79EFF02F0FCF902F0BAF9FFF7ACFB05
:104FF000FFF7BEFC4AF67F17C0F2030700BF00BFF1
:105000007F1EFDD100BF00BF2F4837225A21FEF777
:1050100063FD2E484B225A21FEF75EFD2C4B40F2D9
:10502000070240F200012B48FFF7FCFC012149B2C6
:1050300029480160FFF7D6FA00283CD127486922A9
:105040005A21FEF749FD224B40F2070240F20001CF
:105050002348FFF7E7FC012149B21F4801602148BE
:1050600087225A21FEF738FD1F48FFF749FF1F48E6
:10507000CD225A21FEF730FDFFF7D2FAFFF758FE96
:10508000FFF7A6FBFFF728FCFFF77EFAFFF73AFED3
:10509000FFF776FDFFF7F0FE1548FFF731FF00221E
:1050A00040F200011348FEF779FE1348A5225A2169
:1050B000FEF712FD07E0114869225A21FEF70CFDA8
:1050C0000F48FFF71DFFFEE7050200201402002035
:1050D0004873000040420F008C7F084228020020E5
:1050E00000093D00400200204E0200205A0200202C
:1050F0007702002072610000810200208A020020F5
:105100006E00002081B0134A134B02F0010068B911
:10511000124801686FF0010001401048016040F63C
:10512000D507C0F202077F1EFDD100BF6FF002005D
:1051300002EA0001094801600948036040F21007D3
:10514000C0F200077F1EFDD100BF0448026001B01D
:10515000704700BF903BC001006800C160E00F4095
:1051600070E00F40000020007F0016000188010061
:10517000059E010006B401000ECA01000EF60100F2
:10518000112202000F6402000390020006A6020032
:1051900006BC020009D202000EFE0200032A030030
:1051A0000640030003560300086C03000E82030050
:1051B00004AE03000CC403000BF003000F1C04003A
:1051C0000C4804000E7404000CA004000DCC040074
:1051D0000DF8040003240500033A05000D500500F6
:1051E0000D7C05000DA805000DD405001200060079
:1051F0000F4206000D6E06000C9A06000EC6060051
:105200000CF206000C1E07000E4A07000C76070081
:1052100004A2070009B807000DE407000A100800FF
:10522000103C08000D6808000F9408000DC008002D
:1052300010EC08000E1809000E4409000B7009005C
:105240000D9C09000EC8090015F409000D360A006E
:105250000C620A000D8E0A0006BA0A0008D00A0085
:1052600005E60A000FFC0A000A280B0007540B0091
:105270000B6A0B000B960B000AC20B000BEE0B0027
:105280000A1A0C0008460C000B5C0C000A880C0083
:1052900004B40C0004CA0C000BE00C00040C0D005C
:1052A0000E220D000A4E0D000C7A0D000BA60D000B
:1052B0000BD20D0008FE0D000B140E0008400E006E
:1052C0000A560E000B820E0011AE0E000AF00E0000
:1052D0000A1C0F000A480F0008740F00068A0F000E
:1052E00007A00F000DB60F000BE20F00000000003A
:1052F00000000000000000000000000000000000AE
:105300000000000000001C1C1C1C1C1C1C1C1C1C85
:105310001C001C1C00000000000000000036363697
:105320003636000000000000000000000000000011
:10533000000000000000C01CC00C600C600EFC3FB0
:10534000FC1F32033003FE1FFF0F98018C01CC00BD
:10535000CE0000000000000000000000000000007F
:105360008000F81FFC1F9E008E008E009E00FC0F28
:10537000F81F803880388038803CFC1FFC0F80008C
:10538000000000000000000000000000000000001D
:1053900000003E08007F0C00630400630600630207
:1053A000007F03003E010080F90080FD01808C0138
:1053B000C08C01408C0160FC0120F800000000005E
:1053C00000000000000000000000000000000000DD
:1053D000F803FC031E000E000E001E007C7E7C7E87
:1053E0001E1C0E1C0E0E1E0FFC07F8010000000014
:1053F000000000000000000000060606060600008F
:10540000000000000000000000000000000038184C
:105410000C0C0C0606060606060C0C0C18380000D0
:10542000000000000E0C18181830303030303018E2
:1054300018180C0E000000000000000000003000F2
:10544000B400FE017800FE01B4003000000000004E
:10545000000000000000000000000000000000004C
:1054600000000000000000000000000000008001BB
:105470008001800180018001FC3FFC3F80018001B0
:105480008001800180010000000000000000000099
:105490000000000000000000000000000000060600
:1054A00004020000000000000000000000000000F6
:1054B0003F3F00000000000000000000000000006E
:1054C00000000000000000000000060600000000D0
:1054D00000000000C04040602030101808080C0494
:1054E0000602020300000000000000000000F003BC
:1054F000FC0F1E1E0E1C0738073807380738073800
:1055000007380E1C1E1EFC0FF003000000000000F8
:105510000000000000000E0E0E0E0E0E0E0E0E0EFF
:105520000E0E0E0E00000000000000000000000043
:10553000FF03FF07000E000E000E000EFC07FE0327
:105540000F00070007000700FF0FFF0F000000001B
:10555000000000000000000000000000FF01FF0349
:105560008007000700078007FE03FE03800700078F
:1055700000078007FF03FF0100000000000000009B
:105580000000000000000000001E001F801FC01F60
:10559000E01DF01C781C3C1C1E1CFE7FFE7F001CC6
:1055A000001C001C000000000000000000000000C3
:1055B00000000000FF07FF070700070007000700C3
:1055C000FF03FF07000E000E000E000EFF07FF0393
:1055D00000000000000000000000000000000000CB
:1055E000E01FF81F3C001C000E000E00FE0FFE1F07
:1055F0000E380E381C383C3CF81FE0070000000055
:10560000000000000000000000000000FF0FFF0F7E
:10561000000F00078003C003C001E000F000780025
:1056200038003C001E000F000000000000000000D9
:105630000000000000000000FC07FE0F0F1E071C0A
:10564000071C0F1EFE0FFE0F0F1E071C071C0F1E50
:10565000FE0FFC070000000000000000000000003A
:1056600000000000F801FE070F0F070E071C071CC3
:10567000FE1FFC1F001C001C000E000FFE07FE0199
:10568000000000000000000000000000000000001A
:1056900000000006060000000606000000000000F2
:1056A00000000000000000000006060000000606E2
:1056B00004020000000000000000000000000000E4
:1056C00000000010001E800FE0037C001C007C0026
:1056D000E003800F001E001000000000000000002A
:1056E00000000000000000000000000000000000BA
:1056F0000000FC1FFC1F00000000FC1FFC1F00003E
:105700000000000000000000000000000000000099
:105710000000000000000000000004003C00F80051
:10572000E003001F001C001FE003F8003C00040021
:105730000000000000000000000000000000000069
:10574000FE07FE0F001C001C001C001CF80FFC07CD
:105750001E000E000E0000000E000E0000000000F3
:105760000000000000000000000000000000000039
:10577000801F00E07F0070E0003880019CB703CC00
:105780001703C61803661803661803668C0166CCF7
:1057900001E6FB00CC79001C000078E000F03F003F
:1057A000C00F000000000000000000000000E00149
:1057B000E003E003F00330073807380E180EFC1F33
:1057C000FC1F0E1C0E380638077800000000000091
:1057D00000000000000000000000FE07FE0F0E1C8D
:1057E0000E1C0E1C0E1CFE0FFE0F0E1C0E1C0E1CA3
:1057F0000E1CFE0FFE07000000000000000000006D
:10580000000000000000F00FF80F1C001C000E004C
:105810000E000E000E000E000E000C001C00F80F13
:10582000F00F000000000000000000000000000079
:105830000000FE07FE0F0E1C0E1C0E380E380E3830
:105840000E380E380E380E1C0E1CFE0FFE07000020
:105850000000000000000000000000000000F00F49
:10586000F80F1C001C000E000E00FE0FFE0F0E00B5
:105870000E000C001C00F80FF00F000000000000EC
:1058800000000000000000000000F00FFC0F1C00F2
:105890000E000E000E00FE0FFE0F0E000E000E009A
:1058A0000E000E000E0000000000000000000000CE
:1058B000000000000000F03FF83F3C001C000E001C
:1058C0000E008E3F8E3F0E380E381C383C38F83FA5
:1058D000F03F000000000000000000000000000099
:1058E00000000E0E0E0E0E0E0E0E0E0E0E0EFE0F03
:1058F000FE0F0E0E0E0E0E0E0E0E0E0E0E0E0000F3
:10590000000000000000000000000E0E0E0E0E0E43
:105910000E0E0E0E0E0E0E0E000000000000000017
:1059200000000000C001C001C001C001C001C001F1
:10593000C001C001C001C001C001E001FF007F0043
:105940000000000000000000000000000000000057
:105950000E1E0E0F8E078E03CE01EE00FE00FE001F
:10596000EE01CE018E038E070E0F0E1E000000000A
:105970000000000000000000000000000E000E000B
:105980000E000E000E000E000E000E000E000E00A7
:105990000E001E00FC03F8030000000000000000E1
:1059A00000000000000000001EF03EF83EF83EF847
:1059B0007EFC7EFC6EEC6EEEEEEECEE6CEE6CEE744
:1059C0008EE38EE3000000000000000000000000F5
:1059D000000000001E1C1E1C3E1C7E1C7E1CEE1CBB
:1059E000CE1CCE1D8E1D8E1F0E1F0E1F0E1E0E1ED8
:1059F00000000000000000000000000000000000A7
:105A0000E007F81F3C3C1C380E700E700E700E70D4
:105A10000E700E701C383C3CF81FE00700000000C0
:105A2000000000000000000000000000FE07FE0F64
:105A30000E1E0E1C0E1C0E1C0E1EFE0FFE070E0070
:105A40000E000E000E000E0000000000000000001E
:105A50000000000000000000E007F81F3C3C1C387C
:105A60000E700E700E700E700E700E701C783C3C36
:105A7000F83FE0F700000000000000000000000018
:105A800000000000FE07FE0F0E1C0E1C0E1C0E1C5C
:105A9000FE0FFE070E070E070E0E0E0E0E1C0E3C1E
:105AA00000000000000000000000000000000000F6
:105AB000F81FFC1F1E000E000E000E00FC0FF81F4A
:105AC0000038003800380038FC1FFC0F00000000D0
:105AD000000000000000000000000000FF07FF07BA
