:02000004000BEF
:10000000FCFF0020E90F0B00910F0B00910F0B007C
:10001000910F0B00910F0B00910F0B00910F0B0034
:10002000910F0B00910F0B00910F0B00910F0B0024
:10003000910F0B00910F0B00910F0B00910F0B0014
:10004000910F0B00910F0B00910F0B00910F0B0004
:100FE800FFF7ECFF00F010F8FFF7D2FF00F01CF954
:100FF80000F05AF800F0D8F8FFF76AFFFFF7B4FFDF
:08100800FFF78EFFFCE7FEE795
:100E880081B01CF8019B0BF8019BBBEB0A0FF8D152
:040E980001B07047EE
:100E9C0081B04FF000094FF0000CBDEB0A0F04DCE1
:100EAC00BDEB0B0F01DBD446EA464BF8049BBBEBC6
:100EBC000A0FFAD1BCEB0A0F05DDE246D9F800B0F7
:0A0ECC000BF1040BF1E701B07047D1
:100ED80081B0CDF800E0002202210020FFF776FF64
:100EE800002201210020FFF771FF002206210020C7
:100EF800FFF76CFF094801460020FFF7A9FF46F6F7
:100F0800FE17C0F2180700BF00BF7F1EFDD100BF4B
:100F180000BF00BFDDF800E001B070479C110B0076
:100DD40081B0CDF800E05FFA81F95FFA82FA0FE0A2
:100DE4005FFA8AF15FFA89F0FFF74AFD0DE05FFAD6
:100DF4008AF15FFA89F0FFF725FE06E0012004E09E
:100E04000028EDD00128F2D0F8E7DDF800E001B0C9
:020E1400704725
:1008840081B0CDF800E0A9E0012905D140F20101D1
:100894006548FFF705FF04E040F201016248FFF7F5
:1008A400F1FEBBE0012905D140F220015F48FFF7CA
:1008B400F7FE04E040F220015C48FFF7E3FEADE000
:1008C400012905D140F208015948FFF7E9FE04E087
:1008D40040F208015648FFF7D5FE9FE0012905D1F3
:1008E40040F210015348FFF7DBFE04E040F2100130
:1008F4005048FFF7C7FE91E0012905D140F24001BD
:100904004C48FFF7CDFE04E040F240014948FFF7B0
:10091400B9FE83E0012905D140F210014448FFF7F4
:10092400BFFE04E040F210014148FFF7ABFE75E062
:10093400012905D140F210013F48FFF7B1FE04E060
:1009440040F210013C48FFF79DFE67E0012905D104
:1009540040F201013748FFF7A3FE04E040F2010131
:100964003448FFF78FFE59E0012905D140F22001F8
:100974003248FFF795FE04E040F220012F48FFF7CC
:1009840081FE4BE0012905D140F210012B48FFF70D
:1009940087FE04E040F210012848FFF773FE3DE0B3
:1009A400012905D140F201012548FFF779FE04E051
:1009B40040F201012248FFF765FE2FE0012905D12D
:1009C40040F280011A48FFF76BFE04E040F2800118
:1009D4001748FFF757FE21E0012020E000283FF4EC
:1009E40053AF01283FF45EAF02283FF469AF0328F8
:1009F4003FF474AF04283FF47FAF05283FF48AAF77
:100A040006283FF495AF0728A0D00828ACD00928C1
:100A1400B8D00A28C4D00B28D0D0DDE70020DDF8F8
:100A240000E001B0704700BF001208408010084089
:100A34000010084060100840601108400011084090
:040A44002010084036
:1006A40081B0CDF800E0044AC9B2FFF7E1FEDDF8FD
:0C06B40000E001B0704700BF000410001F
:1004740081B01446314B984203D8314B984200D393
:1004840000E058E02E4BC31A03F01F0303B152E0FF
:10049400064600F5A0624FF6FF7304EA030318460C
:1004A400284B04EA03031B0C40F20008CFB20146B8
:1004B4001846B8F1080F3ED201231BB203FA08F321
:1004C4001BB21CB207EA0403A34231D101F4405326
:1004D4008BB14FEA8803F5182C686FF4405304EA93
:1004E40003032B604FEA8803F51801F440542B688A
:1004F40023432B601CE04FEA8803F5182C68114B4A
:1005040004EA03032B604FEA8803F41823680B43BF
:1005140023604FEA8803D5182C686FF0FF0304EAC0
:1005240003032B604FEA8803D41823680343236032
:1005340008F10108BDE701B0704700BFC0120840D0
:08054400001008400000FFFF59
:1006880081B0CDF800E0044AC9B2FFF7EFFEDDF80B
:0C06980000E001B0704700BF0006200029
:100A480081B0CDF800E0A9E0012905D140F202010A
:100A58006548FFF723FE04E040F202016248FFF711
:100A68000FFEBBE0012905D140F220015F48FFF7E6
:100A780015FE04E040F220015C48FFF701FEADE0FE
:100A8800012905D140F208015948FFF707FE04E0A3
:100A980040F208015648FFF7F3FD9FE0012905D110
:100AA80040F210015348FFF7F9FD04E040F210014D
:100AB8005048FFF7E5FD91E0012905D140F24001DA
:100AC8004C48FFF7EBFD04E040F240014948FFF7CE
:100AD800D7FD83E0012905D140F210014448FFF712
:100AE800DDFD04E040F210014148FFF7C9FD75E063
:100AF800012905D140F204013D48FFF7CFFD04E08C
:100B080040F204013A48FFF7BBFD67E0012905D12F
:100B180040F204013848FFF7C1FD04E040F2040147
:100B28003548FFF7ADFD59E0012905D140F2200114
:100B38003248FFF7B3FD04E040F220012F48FFF7E9
:100B48009FFD4BE0012905D140F210012B48FFF72A
:100B5800A5FD04E040F210012848FFF791FD3DE0B3
:100B6800012905D140F201012548FFF797FD04E06E
:100B780040F201012248FFF783FD2FE0012905D14A
:100B880040F280011A48FFF789FD04E040F2800135
:100B98001748FFF775FD21E0012020E000283FF409
:100BA80053AF01283FF45EAF02283FF469AF032832
:100BB8003FF474AF04283FF47FAF05283FF48AAFB1
:100BC80006283FF495AF0728A0D00828ACD00928FC
:100BD800B8D00A28C4D00B28D0D0DDE70020DDF833
:100BE80000E001B0704700BF0012084080100840C4
:100BF800001008406010084020110840001108400B
:040C08002010084070
:100E580081B0CDF800E009E00846FFF7D3FE0AE0CC
:100E68000846FFF7E3FE06E0012004E00028F3D07F
:0E0E78000128F5D0F8E7DDF800E001B0704782
:100C0C0081B0CDF800E000F208010B68011D0A6804
:100C1C000168084691B2DAB2FFF7FAFC0020DDF861
:060C2C0000E001B070477A
:10061C0081B0CDF800E0064C064B1C60064C074B35
:10062C001C60FFF78DFFDDF800E001B0704700BFE4
:10063C0061040B001800002009060B001C000020B0
:10054C0082B0CDF800E08346D0B21FFA81FC8DF862
:10055C0004002348FFF758FF9DF80400214B1B684B
:10056C0043EA00041F4B1C601E4B1868BCF1000FC3
:10057C0008D01D4B1B6843F001041B4B1C601A4B2D
:10058C00186805E0184B1B6803F0FE04164B1C6042
:10059C001648B0FBFBF080280BD2002809D9114B70
:1005AC001B6803F0EF040F4B1C604408104B1C60DD
:1005BC000CE0104BB3FBFBF00A4B1B6843F0100430
:1005CC00084B1C6043081846094B18600A4B1B6803
:1005DC0043F00104084B1C60DDF800E002B07047EA
:1005EC00D4100B001494004004940040006CDC0206
:0C05FC001894004080841E000094004011
:1004140081B0CDF800E040F2000A81464FEA8A013B
:1004240009EB01010968B1F1FF3F12D009F1340170
:100434004FEA8A03C91809680A4609EB03010968E7
:1004440008461146FFF7ACFF0AF1010A1FFA8AFABF
:0A045400E4E7DDF800E001B07047B6
:1003A40082B0CDF800E000F0FF02130902F00F0262
:1003B4001446D8B2FFF778FF012212B2A240ADF87A
:1003C400042000460A469DF8041000F051F8DDF8B8
:0603D40000E002B07047DA
:1002AC0081B027E028484DE028484BE0284849E039
:1002BC00284847E0284845E0284843E0284841E0E2
:1002CC0028483FE028483DE028483BE0284839E0F2
:1002DC00284837E0284835E0284833E0284831E002
:1002EC0028482FE028482DE028482BE0284829E012
:1002FC00284827E00028D5D00128D5D00228D5D011
:10030C000328D5D00428D5D00528D5D00628D5D09B
:10031C000728D5D00828D5D00928D5D00A28D5D07B
:10032C000B28D5D00C28D5D00D28D5D00E28D5D05B
:10033C000F28D5D01028D5D01128D5D01228D5D03B
:10034C001328D5D001B07047001008402010084089
:10035C00401008406010084080100840A010084071
:10036C00C0100840E010084000110840201108405F
:10037C00401108406011084080110840A01108404D
:10038C00C0110840E011084000120840201208403B
:08039C00401208406012084005
:100C340081B0CDF800E000F208010B68011D0A68DC
:100C44000168084691B2DAB2FFF7E6FC0020DDF84D
:060C540000E001B0704752
:100F700081B0CDF800E004490448FFF74DFFDDF8EB
:100F800000E001B0704700BFA8110B003C110B003E
:100E180081B0CDF800E003460846FFF7A1FC18466C
:100E2800FFF7D6FC0120074C2468A0470120064C98
:100E38002468A0470120054C2468A047DDF800E09D
:100E480001B0704704000020080000200C000020BA
:10085400024A117860F30001117070479013084048
:10086400024A117860F345111170704784130840EF
:10087400024A117860F3C301117070478013084075
:100CAC00024A117860F304111170704783130840E5
:100C9C00024A117860F38611117070478313084073
:100CBC00024A117860F304111170704780130840D8
:100C6C00024A117860F30411117070478B1308401D
:100C5C00024A117860F30001117070478313084049
:100C8C00024A117860F345111170704788130840BF
:100C7C00024A117860F30411117070478813084010
:10084400024A117860F30001117070478113084067
:10072800024A117860F3C7111170704780130840AE
:10074800024A117860F34101117070479013084014
:10071800024A117860F3C7111170704784130840BA
:10073800024A117860F34511117070478E13084012
:1006E800024A117860F304111170704783130840AF
:1006D800024A117860F3861111707047831308403D
:10070800024A117860F30411117070478013084091
:1006F800024A117860F38201117070478013084034
:10075800024A117860F382011170704789130840CA
:10081400024A117860F3451111707047881308403B
:10080400024A117860F3041111707047881308408C
:10083400024A117860F30001117070478113084077
:10082400024A117860F3C7111170704780130840B1
:10076800026803490A60011D0A6802490A60704765
:08077800100000201400002015
:1007D80000F208010A6806490A60011D0A6805490D
:1007E8000A6000F218010A6803490A60704700BFEE
:0C07F800040000200C000020080000207D
:100F280081B0CDF800E000210E4801700D4800782E
:100F38000B2813D20B480078FFF7C4FE46F6FE17BD
:100F4800C0F2180700BF00BF7F1EFDD100BF00BF61
:100F580000BF04490878401C0870E7E7DDF800E0A6
:080F680001B0704700000020F9
:100CCC0081B0CDF800E0C1B2C8B262E0FFF76AFDB6
:100CDC000020FFF74FFD73E0FFF764FD0120FFF7E5
:100CEC0049FD6DE0FFF75EFD0320FFF743FD67E074
:100CFC00FFF758FD0720FFF73DFD61E0FFF752FDC0
:100D0C000F20FFF737FD5BE0FFF74CFD4020FFF7AE
:100D1C0031FD1F20FFF72EFD52E0FFF743FDC020F1
:100D2C00FFF728FD3F20FFF725FD49E0FFF73AFDCF
:100D3C000120FFF71FFDC020FFF71CFD7F20FFF7F0
:100D4C0019FD3DE0FFF72EFD0320FFF713FDC0203A
:100D5C00FFF710FDFF20FFF70DFD31E0FFF722FD3F
:100D6C000720FFF707FDC020FFF704FDFF20FFF76A
:100D7C0001FD25E0FFF716FD0F20FFF7FBFCC0205F
:100D8C00FFF7F8FCFF20FFF7F5FC19E0FFF70AFD71
:100D9C0016E000289AD001289ED00228A2D0032861
:100DAC00A6D00428AAD00528AED00628B5D007288E
:100DBC00BCD00828C6D00928D0D00A28DAD0E5E75C
:080DCC00DDF800E001B0704702
:1007B00081B0CDF800E00020064C2468A047FFF788
:1007C0007FFF0120034C2468A047DDF800E001B062
:0807D000704700BF0C0000207F
:1006C00046F6FE17C0F2180700BF00BF7F1EFDD11F
:0806D00000BF00BF00BF70472E
:1007800082B0CDF800E001A908700020074C246871
:10079000A04701A908460121FFF758FF0120034C9B
:1007A0002468A047DDF800E002B070470400002094
:10064C0083B0CDF800E08AB2014690B283B2421E6C
:10065C0090B26BB10A78D4B2ADF804000291A0B29A
:10066C00054C2468A0470299BDF80400491CEDE72D
:0C067C00DDF800E003B070471000002023
:1006080081B0CDF800E0FFF727FFDDF800E001B08A
:02061800704729
:1004600081B0CDF800E0FFF7B9FFDDF800E001B0A2
:020470007047D3
:1003DC0081B00A49096801F004010849096801F073
:1003EC000201074908600549096801F0020101B9D9
:1003FC00F9E70449086801B0704700BF0894004051
:08040C000C9400401094004024
:1010100081B0CDF800E01F4B1F4A204C20480068EB
:1010200040F002011E480160012A08D0032A06D0C0
:10103000042A04D0102A02D0302A00D002E0194835
:10104000026002E0012117480160C4F3C0021649A2
:10105000086862F3C3000860C4F38002124908689C
:1010600062F382000860C4F340020F49086862F32B
:1010700041000860C4F300020B49086862F30000F5
:101080000860FFF71DFB09480360DDF800E001B0D0
:10109000704700BFE00100000100000000000000F8
:1010A00008E000E00401084008A4004008010840EE
:1010B00081B004490448016004490548016001B059
:1010C000704700BF80BB000020000020000000002F
:0410D00024000020D8
:080F900081B0FEE701B07047DB
:100F980081B04EF68850CEF20000016841F470012D
:100FA800016000BF00BF00BF00BFF1EE100A40F4AF
:0A0FB8004000E1EE100A01B070479E
:100FC40081B0DFF81000DFF810100860D0F800D00E
:100FD40000F004B800000B0008ED00E000BF01B011
:020FE400704754
:1011B00000B5DFF814B0DFF814A0DFF814C0FFF7B3
:1011C00063FE00BD704700BF00000020010000204A
:0411D000DA030B0033
:1012300000B5DFF810B0DFF810A0FFF72FFE00BDFB
:0C124000704700BF0000002028000020C4
:0103DA000022
:1010D400340000003600000004000000FFFFFFFFA2
:1010E40000000000000000000000000000000000FC
:1010F40000000000000000000000000000000000EC
:10110400000000000020000000200000002000007B
:1011140000000000000000000000000000000000CB
:1011240000000000000000000000000000000000BB
:081134000000000000000000B3
:10113C0055080B0065080B0075080B00AD0C0B0077
:10114C009D0C0B00BD0C0B006D0C0B005D0C0B0013
:10115C008D0C0B007D0C0B0045080B0029070B00B8
:10116C00FFFFFFFFFFFFFFFFFFFFFFFFFFFFFFFF83
:10117C00FFFFFFFFFFFFFFFFFFFFFFFFFFFFFFFF73
:10118C00FFFFFFFFFFFFFFFFFFFFFFFFFFFFFFFF63
:0C119C0040420F000000000000000000B6
:0811A80009060B0061040B00B5
:00000001FF
