:100000000C94F7230C9400000C9400000C94000056
:100010000C9400000C9400000C9400000C94000060
:100020000C9400000C9400000C9400000C94000050
:100030000C9400000C9400000C9400000C94000040
:100040000C9400000C9400000C9400000C94000030
:040050000C9400000C
:1047EE00BFE5BDBFB8E0BEBF2F923F924F92E3E64A
:1047FE00F1E0B6E4B193B1E4B193B4E5B193B1E3B2
:10480E00B193B6E3B193B0E2B193BEE6B193BFE616
:10481E00B193B4E7B193B0E2B193B6E6B193BFE60C
:10482E00B193B5E7B193BEE6B193B4E6B193B0E000
:10483E00B193E6E3F1E0B8E5B193B8E5B193B0E238
:10484E00B193BDE4B193BDE4B193B3E4B193BFE2D0
:10485E00B193B3E5B193B4E4B193B0E2B193B6E4DE
:10486E00B193B1E4B193B4E5B193B1E3B193B6E3CF
:10487E00B193B0E2B193BCE6B193B9E6B193B2E6AF
:10488E00B193B2E7B193B1E6B193B2E7B193B9E7A1
:10489E00B193B0E2B193B2E6B193B9E7B193B0E29E
:1048AE00B193B1E4B193BEE6B193B4E7B193BFE671
:1048BE00B193BEE6B193B0E2B193B2E5B193B9E66E
:1048CE00B193B5E6B193B3E6B193BBE6B193B5E65A
:1048DE00B193B2E7B193B4E7B193B3E2B193B0E061
:1048EE00B193BAE0B0935F01ECE7F1E0BDE4B193B0
:1048FE00B9E4B193BBE4B193B2E5B193BFE4B19324
:10490E00B0E3B193B0E3B193B8E7B193BEE2B19324
:10491E00B4E5B193B8E5B193B4E5B193B0E0B1931A
:10492E00BAB3B068BABBB9E1B9B9B0E0B0BD08DC92
:10493E0018E605EE0A95F1F71A95E1F7ECE9F3E0C2
:10494E00B9E4B193BEE6B193B3E7B193B5E6B193D3
:10495E00B2E7B193B4E7B193B0E2B193BDE6B193D0
:10496E00B9E6B193B3E6B193B2E7B193BFE6B193B3
:10497E00B3E5B193B4E4B193B0E2B193B3E4B193C0
:10498E00B1E6B193B2E7B193B4E6B193B0E0B193AF
:10499E00BCE92B2EB3E03B2EC5DBBBB3B7FF02C089
:1049AE000000FBCF25E11BE40FEB0A95F1F71A95FA
:1049BE00E1F72A95D1F70000E0EBF3E0BDE6B19305
:1049CE00B9E6B193B3E6B193B2E7B193BFE6B19353
:1049DE00B3E5B193B4E4B193B0E2B193B3E4B19360
:1049EE00B1E6B193B2E7B193B4E6B193B0E2B1934D
:1049FE00B9E6B193BEE6B193B3E7B193B5E6B19321
:104A0E00B2E7B193B4E7B193B5E6B193B4E6B1931F
:104A1E00B0E0B193B0EB2B2EB3E03B2E83DB4424FE
:104A2E00B2E03B2EB0E12B2EAFDB21DC003061F586
:104A3E00B0EFB5BB4424B4E03B2EB0E12B2EA4DB8B
:104A4E00C6DB2CDC23DE5BDEDBDD87DC98DCCBDA41
:104A5E00EBE9F0E0B4E5B193B5E6B193B3E7B1930A
:104A6E00B4E7B193B0E2B193B5E4B193BEE6B193BE
:104A7E00B4E6B193BEE2B193B0E0B193BBE92B2E95
:104A8E00B0E03B2E4FDB05C0B3E62B2EB1E03B2E44
:0A4A9E0049DB4F903F902F90FFCFAF
:104132002F923F9209DBBDE02B2E0E94140CBAE0B5
:0C4142002B2E0E94140C3F902F9008952B
:10374A009101F9010081003071F0F90100813F9285
:10375A002F92202E0E94140C2F903F9089010F5F08
:08376A001F4F9801EECF0895F6
:10182800BBB1B5FD02C00000FBCFBBB1B6FF03C022
:0A183800BBB1B064BBB92CB8089531
:10419600BEE5B0939900B0E1B0939A00BFEFB0933B
:1041A600FC00BFEFB093FD00B7B3B068B7BBB7B3C1
:1041B600BF7BB7BBB7B3B062B7BBB7B3B061B7BB72
:1041C60032FABEB1B0F9BEB9032D03700429022933
:0641D60000640DB908951C
:10427C0010E01F930E9418151F91003009F406C01E
:10428C00123321F0012F0F5F102FF3CF123310F0E8
:0E429C001FEF03C0ACD936D8102F012F0895A4
:102A3000CF93DF93CDB7DEB72197CDBFDEBF219611
:102A40002F923F924F925F926F927F92B5E0B09338
:102A50009800B0913A00B062B0933A00B0913B0058
:102A6000B062B0933B0020E030E03F932F93BFEF84
:102A70002B2EE0919900F0919A0009952F913F91AA
:102A8000303009F4293029F089010F5F1F4F980178
:102A9000ECCF6CDEB5E97B2E332444245524662428
:102AA00022246ADE088353DE0881013011F011E030
:102AB00058C05CDEB7E87B2EBAEA3B2EB1E04B2E65
:102AC000B0E05B2E6B2EB8E02B2E56DE0883BFEFF6
:102AD0002B2EE0919900F0919A000995BFEF2B2ED3
:102AE000E0919900F0919A000995BFEF2B2EE091AB
:102AF0009900F0919A000995BFEF2B2EE091990073
:102B0000F0919A00099523DE0881013041F0B1E08F
:102B10002B2EAEDE003011F02224AADE03C0B2E07C
:102B20002B2EA6DE00919800053011F412E019C09A
:102B3000009198000430A1F019DEBFEF7B2EB0E0C9
:102B40003B2EB2E04B2EB0E05B2E6B2EB0E12B2E75
:102B500013DE0883FCDD0881003011F013E001C0B2
:102B600010E0012F7F906F905F904F903F902F90DB
:0A2B7000CDBFDEBFDF91CF910895C5
:1020BC002FB8BEB1B7FD02C00000FBCF1FB1012F7E
:0220CC00089575
:0C276C00B0913B00BF7DB0933B0008958E
:102778002F92022D005C7F926F925F924F923F9250
:10278800202EE0919900F0919A0009953F904F9082
:102798005F906F906F925F924F923F92262CE091DC
:1027A8009900F0919A0009953F904F905F906F9033
:1027B8006F925F924F923F92252CE0919900F09191
:1027C8009A0009953F904F905F906F906F925F923B
:1027D8004F923F92242CE0919900F0919A0009952C
:1027E8003F904F905F906F90232CE0919900F0916B
:1027F8009A0009957F90272CE0919900F0919A0012
:10280800099550E060E06F935F937F926F925F92BB
:102818004F923F922F92BFEF2B2EE0919900F091AB
:102828009A0009952F903F904F905F906F907F90FE
:102838005F916F91402F252F362F2F5F3F4F522FDB
:10284800632F042F0078003010E009F41FEF3030B8
:1028580009F4243600E008F00FEF012B002309F4F7
:08286800D2CF042F2F90089538
:10274E002F92B0913B00B062B0933B00BFEF2B2EA7
:0E275E00E0919900F0919A0009952F9008954E
:10287000CF93DF93CDB7DEB72497CDBFDEBF2196D0
:102880003F924F925F926F927F92B0E0B883B9838C
:10289000B0E02B16B9F46ADF2F92BFEF7B2E332402
:1028A000442455246624B1E02B2E66DF0A834FDFD3
:1028B0002F900A81003029F4B0E0B093980010E026
:1028C0007CC06DC053DF2F92BFEF7B2E3324442496
:1028D00055246624B7E32B2E4FDF0A8338DF2F9071
:1028E0000A81013009F05AC041DF2F92BFEF7B2EE1
:1028F000B0E03B2E4B2E5B2EB0E46B2EB9E22B2EBC
:102900003BDF0A8324DF2F900A81003009F045C0A5
:10291000B2E02B1609F03CC029DF2F92BFEF7B2ECF
:102920003324442455246624BAE32B2E25DF0A835E
:10293000BFEF2B2EE0919900F0919A0009950B833F
:10294000BFEF2B2EE0919900F0919A000995BFEF0F
:102950002B2EE0919900F0919A000995BFEF2B2E54
:10296000E0919900F0919A000995F1DE2F900A818B
:10297000003069F40B810074003021F0B4E0B093B2
:10298000980003C0B3E0B093980010E016C005C0F3
:10299000B1E0B093980010E010C001C00DC00881F4
:1029A0001981173209F40F3039F0088119810F5F4E
:1029B0001F4F088319836CCF11E0012F7F906F9018
:1029C0005F904F903F902396CDBFDEBFDF91CF91B8
:0229D000089568
:1035FA002F923F924F925F926F92B1E0B0939003F5
:10360A00B0E05B2EB2E06B2E4424B0E92B2EB1E081
:10361A003B2E0E94C31140E050E05F934F930CE1B0
:10362A0010E088D84F915F9125EA30E0020F131F0E
:10363A00BCE15B2EB0E06B2E442418010E94C3113A
:10364A00503009F4413029F08A010F5F1F4FA80159
:10365A00E4CFBCE15B2EB0E06B2E4424BEED2B2EF2
:10366A00B0E03B2E0E94C31140E050E05F934F93BD
:10367A0006E010E05FD84F915F9129E730E0020F32
:10368A00131FB6E05B2EB0E06B2E442418010E9493
:10369A00C311503009F4433029F08A010F5F1F4FDC
:1036AA00A801E4CFB7E15B2EB0E06B2E4424B2E66A
:1036BA002B2EB0E03B2E0E94C31100E911E000500E
:1036CA001E4F0093600010936100B0E0B093970022
:1036DA00B0E0B0939300B0939400B0939500B09388
:1036EA009600B0E0B093DD00B0E0B0939100B093E3
:1036FA009200B0E0B0931401B0931501B093160193
:10370A00B0931701BFEFB0931301BDE05B2EB0E099
:10371A006B2E4424B6E02B2EB1E03B2E0E94C3113F
:10372A00B0E0B0931C01B0931D01B0E0B0931A0150
:10373A00B0931B016F905F904F903F902F90089528
:00374A007F
:10238600F101B0E06B1611F4B0E05B1649F0052DD3
:10239600162D01501040502E612E40823196F1CFFD
:0223A600089598
:10273E009801249F8001259F100D349F100D089540
:00274E008B
:10331000CF93DF93CDB7DEB72497CDBFDEBF219625
:103320002F923F924F925F926F927F92B1E0B09353
:103330009003B0E96B2EB1E07B2E22243324442489
:1033400055240E94710B002329F0B0E1B093DD00F9
:103350001FEF29C100918E03053511F011E023C143
:1033600000918F030A3A11F011E01DC120E0009195
:103370009001093E11F421E000C0009190010B3E44
:1033800010E009F41FEF009192010039B0E009F458
:10339000BFEF0B2F0123002311F001E001C0022F2A
:1033A000003009F496C0B9E7B883B0E0B983E8818A
:1033B000F981B0E8B08308811981F8013296B0E054
:1033C000B193B193B193B1930E94210C003014F4E6
:1033D00011E0E9C000916B0010916C00103009F40D
:1033E000003009F46DC01091A3010091A401012BDC
:1033F0000030D9F00091A40110E0212F312F722F5D
:10340000612F502F44270091A30110E0212F312F6D
:10341000040F151F261F371FA801B9010881198144
:10342000F8013196B4E0B0830FC040EB51E0FA01EF
:103430000191119121913191A801B901088119815E
:10344000F8013196B6E0B0830090750010907600D8
:103450008A010019110900907700109078009B01F3
:1034600020093109409164005091650060E0762F99
:103470000E944F0B8B019C01A801B901303029F447
:10348000203019F41F3009F4053F40F408811981F8
:10349000F8013196B1E0B08311E085C005EF1FEF70
:1034A00020E030E0041715072607370740F40881AD
:1034B0001981F8013196BBE0B08311E074C008C0F7
:1034C00008811981F8013196BBE0B08311E06BC02F
:1034D00069C04EE453E060E070E05F934F9306E014
:1034E00010E0AB012CD94F915F9129E730E0200F1C
:1034F000311F28833983CA01FC010081F90100834F
:10350000AC014C5F5F4FCA010881198198012F5FA0
:103510003F4FFA010081F90100839C012C5F3F4F6E
:10352000C901088119810E5F1F4F0A831B8319018E
:103530000E94A2114A815B81FA01019311932193A8
:103540003193703009F4633031F08B010F5F1F4FFE
:10355000B801AC01C2CF06E010E04091970050E006
:10356000EED829E730E0200F311FF9013196208194
:10357000243040E009F04FEF29E730E0020F131F3D
:10358000F801319600810630B0E009F0BFEF0B2F53
:10359000042311F011E007C00E94210C003014F444
:1035A00011E001C010E0012F7F906F905F904F906D
:1035B0003F902F902396CDBFDEBFDF91CF9108952E
:0035C0000B
:1016E200CF93DF93CDB7DEB72297CDBFDEBF219672
:1016F2002F923F924F925F920E94B61300919800F0
:10170200043019F4810192010DC0B9E08101920106
:10171200000F111F221F331FBA95D1F7A801B9017B
:101722008A019B017F926F92BFEF7B2E302E412E5A
:10173200522E632EB1E12B2E0E94BC136F907F902C
:10174200003021F00E94A71311E062C07F926F92D5
:101752005F924F923F922F92BFEF2B2EE091990012
:10176200F0919A0009952F903F904F905F906F9063
:101772007F900E3F11F00000E9CF30E040E0032FF0
:10178200142F060D171D088319834F933F937F92E1
:101792006F925F924F923F922F92BFEF2B2EE0916A
:1017A2009900F0919A0009952F903F904F905F9089
:1017B2006F907F903F914F9118812981E12FF22FF5
:1017C2000083413009F43F3F39F0032F142F0F5F9C
:1017D2001F4F302F412FD3CF7F926F925F924F9244
:1017E2003F922F92BFEF2B2EE0919900F0919A0039
:1017F2000995BFEF2B2EE0919900F0919A0009957F
:10180200A5D72F903F904F905F906F907F9010E000
:10181200012F5F904F903F902F902196CDBFDEBF5A
:06182200DF91CF91089553
:101842002F923F924F925F926F927F92B1E0B0934C
:10185200900306E010E04091970050E06FD729E72F
:1018620030E0020F131FF80132960191119121917C
:101872003191B0E96B2EB1E07B2E1801290130DFE6
:10188200002329F0B0E1B093DD001FEFC7C000E9EB
:1018920011E0055F1F4F1801CCDE00936200109328
:1018A200630000919D0100936400B0E0B093650075
:1018B20000E911E0025F1F4F1801BBDE00936600D2
:1018C200109367000091A0010093680000E911E005
:1018D2000F5E1F4F1801ADDE0093690010936A007E
:1018E20000E911E00A5E1F4F1801A3DE00936B00AE
:1018F20010936C0006E010E04091970050E01ED774
:1019020029E730E0020F131FF801329641915191FD
:1019120061917191009166001091670020E0322F71
:10192200040F151F261F371F00936D0010936E00C2
:1019320020936F00309370000091680010E0212F17
:10194200312F40916B0050916C0060E0762F88DE61
:1019520040916D0050916E0060916F007091700027
:10196200040F151F261F371F00937100109372007A
:1019720020937300309374000091690010916A0003
:10198200B5E020E0322F000F111F221F331FBA953E
:10199200D1F7409162005091630060E0762F7EDEC5
:1019A2008B019C0140917100509172006091730013
:1019B20070917400040F151F261F371F00937500C6
:1019C20010937600209377003093780000916200A4
:1019D20010916300169507950093FE001093FF0087
:1019E2000091620010916300B5E016950795BA95D3
:1019F200E1F7009318011093190100917100109101
:101A02007200209173003091740000939300109340
:101A12009400209395003093960010E0012F7F9060
:0C1A22006F905F904F903F902F900895C0
:10163400CF93DF93CDB7DEB72297CDBFDEBF219620
:10164400F10100810883F101319600810983088149
:0E16540019812196CDBFDEBFDF91CF910895A1
:10166200049FD001159FF001249FE00DF11D069FFC
:10167200E00DF11D349FF00D259FF00D169FF00D2A
:10168200079FF00D3327149FB00DE11DF31F059F37
:0C169200B00DE11DF31F8D019F010895B4
:10169E00C9019A01AB01B801A1E21A2EAA1BBB1B0C
:1016AE00FD010DC0AA1FBB1FEE1FFF1FA217B30720
:1016BE00E407F50720F0A20BB30BE40BF50B661F46
:1016CE00771F881F991F1A9469F7609570958095FA
:0416DE009095089546
:10234400CF93DF93CDB7DEB72497CDBFDEBF219601
:10235400F10100810883F101319600810983F101C3
:10236400329600810A83F101339600810B83088140
:1023740019812A813B812396CDBFDEBFDF91CF91A6
:022384000895BA
:1041DC002F923F924F925F926F927F928F92B1E4A7
:1041EC00B093830188247724B9E06B2EB3E15B2E66
:1041FC00B4E04B2EBAED2B2EB7E03B2E13D8B0EA21
:10420C004B2EBCE72B2EB1E03B2EA0DED3D9B1E078
:10421C00B0936201BEE22B2E0E94140C009162013D
:10422C004AE088DE005D00933601009162014AE0AD
:10423C0081DE092F005D00933701BAE24B2EB0E00E
:10424C005B2EB6E32B2EB1E03B2E8DDA0091620192
:10425C00033631F0009162010F5F00936201DACFF7
:10426C008F907F906F905F904F903F902F9008951C
:00427C0042
:10323000B7E03B1611F4BCEB2B1620F081010C5BC0
:103240001740180181010F7710701801142D1F709D
:10325000412E0CE0011710F4BCE04B2EB1E04B16F0
:1032600010F4B1E04B2E0FE1051510F4BFE15B2E19
:10327000B1E05B1610F4B1E05B2E07E1061508F42F
:1032800066240BE3071508F477240BE3081508F40C
:103290008824B9E09101220F331FBA95E1F72093FA
:1032A0001A0130931B01042D10E0B5E0000F111F2F
:1032B000BA95E1F7022B132B00931A0110931B010F
:1032C000052900931A0110931B01062D10E0BBE0A5
:1032D0009801220F331FBA95E1F720931C01309318
:1032E0001D01072D10E0B5E0000F111FBA95E1F7A1
:1032F000202B312B20931C0130931D01082D0695A6
:1033000010E0022B132B00931C0110931D01089554
:00331000BD
:103F5800CF93DF93CDB7DEB72397CDBFDEBF2196D2
:103F68004F925F920091130109830091DD000A834B
:103F78004F923F922F92542CB7E04B2E0E94D411AF
:103F88002F903F904F90102F00302CF51E3F01F5D9
:103F9800B2E0B8830A810093DD000CE110E04981AA
:103FA80050E047FD5FEF0E949F1325EA30E0020FC3
:103FB800131FF8017A96B0E0B193B193542CB7E08F
:103FC8004B2E0E94D411003014F4B0E0B88302C024
:103FD800B0E0B88302C0B1E0B88308815F904F9029
:0C3FE8002296CDBFDEBFDF91CF9108957F
:1023A800CF93DF93CDB7DEB7CD55D040CDBFDEBFDD
:1023B80021962F923F925F926F927F92FE01E95A87
:1023C800FF4FB0E0B193B193B193B193FE01EB5AD3
:1023D800FF4FB0E0B193B1930E941107003029F08C
:1023E800B2E1B093DD001FEF99C15F924F922101D6
:1023F800B6E02B2EB1E03B2E0E946C074F905F9009
:102408000091F8001091F900103009F40030E1F063
:102418000CE110E04091130150E047FD5FEF8BD1D4
:1024280025EA30E0020F131FA02FB12FEEEDF0E0E8
:102438008CE190E00E940C07B0E0B093F800B093F4
:10244800F900BFEFB0931301AC2FBD2FAE5FBF4FA4
:10245800E6E0F1E00E94FA0500E00D938E01015FCD
:102468001F4F5F924F922801B6E02B2EB1E03B2E12
:102478000E9400064F905F9000300CF056C057FE47
:102488004FC0052D087529F0B8E0B093DD001FEFA7
:1024980045C18E010B5C1F4F5F924F92B0E25B2EDD
:1024A800B0E06B2E442418016ADF4F905F90052D31
:1024B8000F77FE01E05CFF4F00838E010B5C1F4F1E
:1024C8004F92BBE06B2EB0E07B2EB6E04B2EB1E016
:1024D8005B2E18010E943B09AE014B5A5F4F9E01CB
:1024E800295A3F4F8E010B5C1F4F3A0129011801F1
:1024F8000E9455094F90003014F41FEF0FC19E0140
:10250800215F3F4F8E010E5F1F4F4F922901180127
:102518000E9400064F90003014F41FEFFFC005C062
:10252800BDE0B093DD001FEFF9C00C8D08750023E6
:1025380029F0B8E0B093DD001FEFF0C050E05F93E2
:102548000CE110E0452F50E0F6D05F9125EA30E02D
:10255800200F311F288339838901065E1F4FF80138
:1025680001911191103009F4003040E009F04FEF6B
:1025780089010A5F1F4FF801219131910DA51EA510
:1025880002171307B0E009F4BFEF0B2F0423A9F0DB
:1025980008811981065E1F4FF8014192B0E0B1939E
:1025A800AEEDB0E0E881F9818CE190E00E940C0783
:1025B800052F50931301102FB1C0513021F0052F72
:1025C8000F5F502FBCCF60E00CE110E0462F50E0C9
:1025D800B2D025EA30E0020F131F065E1F4FF80144
:1025E80001911191103009F4003009F08DC00CE10F
:1025F80010E0462F50E09FD025EA30E0020F131F6D
:10260800088319835F924F923F922F92BCE15B2E11
:10261800B0E06B2E44241801B2DE2F903F904F900B
:102628005F900881198198012A5F3F4F0DA51EA56B
:10263800F90101931193088119819801245F3F4F93
:102648000DA51EA5F9010193119308811981065E54
:102658001F4FF8014192B0E0B1930FA518A929A91D
:102668003AA9E881F9810193119321933193088163
:10267800198198012C5F3F4F0BA91CA9B5E0000FE9
:10268800111FBA95E1F7F901019311930881198196
:10269800A8014A5E5F4F09A51AA52BA53CA5FA011A
:1026A8000193119321933193288139818901025F24
:1026B8001F4FFE01E55AFF4F019311938901045FF3
:1026C8001F4FF801019111916F933F922F921801BA
:1026D8000E94E4032F903F906F91FE01E55AFF4F4F
:1026E80041915191FA010193119321933193AEEDE8
:1026F800B0E0E881F9818CE190E00E940C07062F98
:1027080060931301102F0AC0613021F0062F0F5F6C
:10271800602F5ACFB9E0B093DD001EEF012F7F90F4
:102728006F905F903F902F90C45ADF4FCDBFDEBFB0
:06273800DF91CF9108952E
:100E22002F923F929DDA202F003011F41FEF4FC016
:100E32000CE0021710F41EEF4AC0F10100810E32DD
:100E420011F41DEF44C000E0322D432D122F21304A
:100E5200E8F0502FE12FF0E0E20DF31D00810E3299
:100E620079F431E008E0011710F41CEF30C0012FD3
:100E72000F5F10E0020D131D532F302F412F08C0BA
:100E8200113031F0012F0150102FE4CF502F00C04C
:100E9200513010E009F01FEF08E00217B0E008F44B
:100EA200BFEF0B2F0123002311F01BEF10C05130B5
:100EB20069F4232E342E54DA202F003011F415EF6A
:100EC20006C003E0021710F414EF01C010E0012F76
:060ED2003F902F900895EF
:10036200F1010081003011F03196FBCF8F010219AB
:080372001309980189010895A7
:100ED800CF93DF93CDB7DEB72297CDBFDEBF219684
:100EE80030E0032F10E0020D131D08831983E32F50
:100EF800F0E0E40DF51D00813F922F92202E39DAA3
:100F08002F903F9018812981E12FF22F00833B30E9
:100F180021F0032F0F5F302FE4CF2196CDBFDEBF26
:060F2800DF91CF91089556
:10037A000AE7021510E008F01FEFB1E62B1600E0BD
:10038A0008F00FEF012319F0022D0F7D202E122DF8
:04039A00012F089592
:0A0E180001900D920197E1F7089593
:0C0BF4000190002011F00D92D9F7089537
:100C0000CF93DF93CDB7DEB72F97CDBFDEBF219651
:100C10002F923F926F927F925F924F92C0DB4F90E4
:100C20005F90409193005091940060919500709175
:100C30009600009171001091720020917300309124
:100C40007400401751076207730739F40091690077
:100C500010916A000F8318870CC0009164001091F6
:100C6000650040911801509119010E949F130F8354
:100C70001887009193001091940020919500309175
:100C800096000B831C832D833E83B0E9B987B1E0C6
:100C9000BA875F924F923F922F92209093003090AC
:100CA00094004090950050909600DADAB1E0B0934D
:100CB0009003B0E92B2EB1E03B2E07DB2F903F9045
:100CC0004F905F90B0E0B983BA832F81388521506F
:100CD00030402D873E8709811A812017310708F49B
:100CE0007DC05F924F923F922F92BBE06B2EB0E09F
:100CF0007B2E210129843A8486DD2F903F904F90EE
:100D00005F90103009F4003081F55F924F92A7DDBB
:100D10004F905F90002331F0B0E1B093DD00BFEF62
:100D2000B8836FC0B0E05B1611F4B0E04B16E1F091
:100D300029843A8401DEF201B0960B811C812D8159
:100D40003E810193119321933193F201B496098569
:100D50001A8500591140B5E016950795BA95E1F747
:100D600001931193B0E0B8834CC009851A859801AE
:100D7000205E3F4F29873A87009160001091610003
:100D800020173107E9F40B811C812D813E810F5F13
:100D90001F4F2F4F3F4F0B831C832D833E83B0E9A2
:100DA000B987B1E0BA875F924F923F922F92B0E934
:100DB0002B2EB1E03B2E89DA2F903F904F905F9021
:100DC00029813A810D851E852017310739F0098167
:100DD0001A810F5F1F4F09831A8377CF5F924F925B
:100DE0003F922F923CDD2F903F904F905F900023D9
:100DF00031F0B0E1B093DD00BFEFB88302C0BFEFC8
:100E0000B88308817F906F903F902F902E96CDBF32
:080E1000DEBFDF91CF910895D0
:10039E00CF93DF93CDB7DEB72D97CDBFDEBF2196BE
:1003AE004F925F926F928E019801A1013F922F9210
:1003BE00BBE05B2EB0E06B2EB0E24B2E18010E941C
:1003CE00C3112F903F90B0E0BB87FA01108110301F
:1003DE0000E009F00FEF0C873F932F933F922F927F
:1003EE00212E31DE2F903F902F913F91003010E063
:1003FE0009F01FEF0C85012329F08A010F5F1F4FB3
:10040E00A801E3CFFA0100810E3251F4BEE2B883A7
:10041E00FA01319600810E3211F4BEE2B98355C055
:10042E003F932F939A014F915F91F90110811030F4
:10043E0000E009F00FEF0C873F932F933F922F921E
:10044E00212E01DE2F903F902F913F91003010E032
:10045E0009F41FEF0C851023F90100810E32B0E074
:10046E0009F0BFEF0B2F012369F0F9010081FA01AA
:10047E0000838A010F5F1F4FA80189010F5F1F4F75
:10048E009801D3CFF90100810E3229F489010F5F53
:10049E001F4F980100C08E01085F1F4FA801F90180
:1004AE000081003091F0FA010081003009F40DC096
:1004BE00F9010081FA0100838A010F5F1F4FA80125
:1004CE0089010F5F1F4F9801EACFA22DB32DFE01B8
:1004DE008AD300E00D936F905F904F902C96CDBF16
:0804EE00DEBFDF91CF910895FC
:10005400B0E22B1620E009F42FEF0FE0021510E0B8
:1000640008F01FEFBBE02B1600E008F00FEF0123B0
:08007400022B102F012F08954B
:100260002F923F924F925F926F927F920E94B613AD
:1002700000919800043019F4810192010DC0B9E099
:1002800081019201000F111F221F331FBA95D1F770
:10029000A801B9018A019B01BFEF7B2E302E412EB0
:1002A000522E632EB2E12B2E0E94BC13003021F09F
:1002B0000E94A71311E001C010E0012F7F906F9002
:0A02C0005F904F903F902F9008953B
:1002CA00CF93DF93CDB7DEB72297CDBFDEBF21969E
:1002DA003F922F92E2DE2F903F9030E040E0032FD2
:1002EA00142F020D131D088319834F933F933F92D6
:1002FA002F92BFEF2B2EE0919900F0919A00099569
:10030A002F903F903F914F9118812981E12FF22F31
:10031A000083413009F43F3F39F0032F142F0F5F58
:10032A001F4F302F412FDBCF3F922F92BFEF2B2E43
:10033A00E0919900F0919A000995BFEF2B2EE09178
:10034A009900F0919A0009952F903F902196CDBF80
:08035A00DEBFDF91CF91089591
:1000A4002F92BFEF2B2EE0919900F0919A000995C1
:0800B4000E3FB9F72F900895EB
:10080600B101920100E010E0B0E07B1611F4B0E017
:100816006B16F9F08301015010403801F90110817F
:10082600FB010081012EB0E01B2E10E0001911091A
:10083600A801503009F4403011F09A010BC08B0129
:100846000F5F1F4FB80189010F5F1F4F98018A0183
:08085600DBCF98018901089530
:10085E00CF93DF93CDB7DEB72197CDBFDEBF219605
:10086E002F92BCE42B2EE0919900F0919A000995FD
:10087E002224E0919900F0919A0009952224E091AA
:10088E009900F0919A0009952224E0919900F09137
:10089E009A0009952224E0919900F0919A00099509
:1008AE00BFEF2B2EE0919900F0919A00099540E050
:1008BE0050E05F934F93BFEF2B2EE0919900F09194
:1008CE009A0009954F915F9108839A012F5F3F4FD0
:1008DE00A9010078003010E009F41FEF303009F460
:1008EE00243600E009F40FEF012B002309F4E1CFC9
:1008FE0008810078003021F00E94A71318810EC0E5
:10090E00BFEF2B2EE0919900F0919A000995088384
:10091E00003009F4F5CF0E94A71310E0012F2F909D
:0A092E00CDBFDEBFDF91CF91089529
:10093800CF93DF93CDB7DEB72297CDBFDEBF219629
:10094800C101B20140E050E0FC010081003211F425
:10095800AB0117C0FC010081FB0100838B010F5F15
:100968001F4F98018C010F5F1F4FC801503009F4C9
:10097800473031F08A010F5F1F4FA801B901E4CF5A
:10098800A9018101085F1F4F9801F8010081003219
:1009980041F1FA01BEE2B0838A010F5F1F4FB8012F
:1009A80040E050E0C901FC010081003211F48B01E4
:1009B80017C0FC010081FB0100838B010F5F1F4FF3
:1009C80098018C010F5F1F4FC801503009F4423065
:1009D80031F08A010F5F1F4FA801B901E4CF8901E7
:1009E80001C08A01F801B0E0B083142D252D135FF2
:1009F8002F4FF1013B960081E12FF22F00838201F6
:100A0800065E1F4F088319838101045E1F4F3F92C2
:100A18002F9218010E94A2112F903F90488159816E
:100A2800FA0101931193219331938201025E1F4FC2
:100A3800088319838101065E1F4F3F922F92180188
:100A4800F5D52F903F9028813981F90101931193B1
:100A58009101225F3F4F8101025F1F4FF8013196DC
:100A68000081502F4427F9010081202F30E0240F06
:100A7800351FA9018201025F1F4FF8013396BBE0C1
:100A8800890116950795BA95E1F700838201025FFF
:100A98001F4FF8013496B5E08A0116950795BA9567
:100AA800E1F70F7300838201025F1F4FF80135964B
:100AB800042F0F71000F00839101205F3F4F8101C8
:100AC800005F1F4FF80131960081502F4427F9012C
:100AD8000081202F30E0240F351FA9018201025F19
:100AE8001F4FF8013296022F0F7100838201025FB7
:100AF8001F4FF8013196B5E08A0116950795BA950A
:100B0800E1F70F700083F2013E96B9E08A0116956D
:100B18000795BA95E1F7008391012A5E3F4F81015D
:100B28000A5E1F4FF80131960081502F4427F901C2
:100B38000081202F30E0240F351FA90182010C5EAF
:100B48001F4FF8013396BBE0890116950795BA95B2
:100B5800E1F7008382010C5E1F4FF8013496B5E07F
:100B68008A0116950795BA95E1F70F7300838201FC
:100B78000C5E1F4FF8013596042F0F71000F00838C
:100B88009101285E3F4F8101085E1F4FF8013196A1
:100B98000081502F4427F9010081202F30E0240FD5
:100BA800351FA90182010C5E1F4FF8013296022FF2
:100BB8000F71008382010C5E1F4FF8013196B5E07A
:100BC8008A0116950795BA95E1F70F700083F2012F
:100BD8007496B9E08A0116950795BA95E1F70083EE
:0C0BE8002196CDBFDEBFDF91CF910895B4
:10127600A1019201B0E07B1611F4B0E06B1689F083
:101286008301015010403801F9010081FA01008301
:101296008A010F5F1F4FA80189010F5F1F4F980139
:0412A600E9CF0895EF
:1012AA00CF93DF93CDB7DEB72A97CDBFDEBF2196A6
:1012BA002F923F924F925F926F927F928101065EC8
:1012CA001F4F3F922F921801B0D12F903F90F301F8
:1012DA0001931193F30101911191103009F4003037
:1012EA0081F57F926F925F924F923F922F92FED832
:1012FA002F903F904F905F906F907F90F3010193F2
:10130A001193F301019111911F3F09F40F3F29F441
:10131A00B4E0B093DD001FEF7BC1F301019111919D
:10132A007F926F925F924F923F922F92BFEF4B2E16
:10133A005B2E180186D92F903F904F905F906F9047
:10134A007F90F301019111913F922F92180137DAA0
:10135A002F903F90F2010193119321933193B1E0C1
:10136A00B09390037F926F923F922F92B0E05B2EE0
:10137A00B2E06B2E4424B0E92B2EB1E03B2EFED70F
:10138A002F903F906F907F904091930050919400DE
:10139A006091950070919600009171001091720011
:1013AA002091730030917400401751076207730748
:1013BA0039F40091690010916A00088319830CC0FE
:1013CA000091640010916500409118015091190133
:1013DA000E949F130883198300919300109194002F
:1013EA0020919500309196000A831B832C833D83BC
:1013FA0000E911E01F930F937F926F923F922F9211
:10140A002090930030909400409095005090960060
:10141A000E943001B1E0B0939003B0E92B2EB1E005
:10142A003B2E0E9465012F903F906F907F900F9105
:10143A001F9140E050E0B801088119810150104025
:10144A00088719870417150708F4CAC0FB01008129
:10145A00053E10E009F41FEF0032B0E008F4BFEFD8
:10146A000B2F012B002309F47BC07F936F937F928C
:10147A006F923F922F92EED92F903F906F907F906C
:10148A006F917F91002329F0B0E1B093DD001FEF47
:10149A00BFC07F926F92B0E26B2EB0E07B2E21012B
:1014AA001B01E4DE6F907F909B01265E3F4FF301A4
:1014BA0001911191F90100838B01065E1F4F98017A
:1014CA002F5F3F4FF30101911191012F10E0F901B4
:1014DA000083FB013E9600911C0100838B01025F91
:1014EA001F4FF801319600911D010083FB01709690
:1014FA0000911A0100838B01005F1F4FF80131969A
:10150A0000911B010083FB01769600911C01008368
:10151A008B010A5E1F4FF801319600911D0100836D
:10152A00FB01789600911A0100838B01085E1F4F18
:10153A00F801319600911B010083B0E96B2EB1E0EE
:10154A007B2E2A803B804C805D800E945E000030AA
:10155A0029F0B5E0B093DD001FEF5AC010E058C083
:10156A009B01205E3F4FC90100916000109161000C
:10157A002017310749F50A811B812C813D810F5FB4
:10158A001F4F2F4F3F4F0A831B832C833D8380E9D4
:10159A0091E09F938F935F934F937F926F925F92A5
:1015AA004F923F922F92B0E92B2EB1E03B2E0E9430
:1015BA0065012F903F904F905F906F907F904F9171
:1015CA005F918F919F9100C0088519854017510737
:1015DA0039F08A010F5F1F4FB801AB01BC012CCF54
:1015EA007F926F925F924F923F922F9233D92F90B0
:1015FA003F904F905F906F907F90002329F0B0E169
:10160A00B093DD001FEF04C0B6E0B093DD001FEF1A
:10161A00012F7F906F905F904F903F902F90299667
:0A162A00CDBFDEBFDF91CF91089520
:1004F600CF93DF93CDB7DEB72C97CDBFDEBF219666
:100506002F923F924F925F9200916B0010916C0078
:100516004091FE005091FF000E949F130A831B83A7
:10052600B2E0BC83B0E0BD834091FE005091FF0075
:1005360060E0762F02E010E020E030E00E944F0BF2
:100546008B019C0140916D0050916E0060916F008F
:1005560070917000040F151F261F371F0E831F830F
:10056600288739874091FE005091FF0002E010E095
:1005760082DD8D019801220F331F00E911E0020F81
:10058600131F0A871B872E803F804884598465DEA7
:10059600B1E0B0939003B0E92B2EB1E03B2E92DE92
:1005A6002C813D810A811B812017310738F5EA85A8
:1005B600FB8501911191103009F4003009F41EC039
:1005C6000A851B8598012E5F3F4F2A873B870C8142
:1005D6001D810F5F1F4F0C831D83009160001091DA
:1005E60061002017310749F4B0E9BA87B1E0BB874B
:1005F600B0E92B2EB1E03B2E65DED2CF2DD1002304
:1006060039F0B0E1B093DD00BFEFB883B9830FC016
:100616002C813D810A811B812017310721F4BFEF10
:10062600B883B98304C00C811D81088319830881AE
:1006360019815F904F903F902F902B96CDBFDEBFD4
:06064600DF91CF91089541
:10007C00C801BA01AA1BBB1B51E107C0AA1FBB1FB9
:10008C00A617B70710F0A61BB70B881F991F5A9518
:08009C00A9F7809590950895E5
:10064C00CF93DF93CDB7DEB72697CDBFDEBF219614
:10065C002F923F924F925F926F927F924091FE0049
:10066C005091FF0060E0762F810120E0322F0E9434
:10067C004F0B8B019C0140916D0050916E0060916D
:10068C006F0070917000040F151F261F371F088311
:10069C0019832A833B83B1E0B09390035F924F920E
:1006AC003F922F92B0E96B2EB1E07B2E18012901FD
:1006BC000E94710B2F903F904F905F90003029F06B
:1006CC00B0E1B093DD001FEF6CC04091FE00509183
:1006DC00FF008101CDDC8D019801220F331FA90190
:1006EC0000E911E0F901E00FF11F40829A012F5F40
:1006FC003F4F00E911E0F901E00FF11F5082B0E922
:10070C006B2EB1E07B2E288039804A805B80D0DC58
:10071C00003029F0B5E0B093DD001FEF42C081E05E
:10072C0090E00091680001500D8310E00817190744
:10073C00B8F1488159816A817B8100916B001091DD
:10074C006C0020E0322F040F151F261F371F088363
:10075C0019832A833B839F938F935F924F923F928F
:10076C002F92B0E96B2EB1E07B2E18012901A0DC91
:10077C002F903F904F905F908F919F91003029F078
:10078C00B5E0B093DD001FEF0CC00D818017B0E019
:10079C009B0731F08C010F5F1F4FA801CA01C1CF1D
:1007AC0010E0012F7F906F905F904F903F902F90B3
:0C07BC002596CDBFDEBFDF91CF910895E0
:1000BC002F923F924F925F920E94B613009198003C
:1000CC00043019F4810192010DC0B9E08101920153
:1000DC00000F111F221F331FBA95D1F7A801B901C8
:1000EC008A019B017F926F92BFEF7B2E302E412EA7
:1000FC00522E632EB8E12B2E0E94BC136F907F9072
:10010C00003021F00E94A71311E09EC07F926F92E5
:10011C00BFEF2B2EE0919900F0919A000995BFEF5B
:10012C002B2EE0919900F0919A000995BEEF2B2EA1
:10013C00E0919900F0919A0009956F907F9020E0E2
:10014C0030E0F901E60DF71D00813F932F937F926C
:10015C006F925F924F923F922F92202EE0919900D6
:10016C00F0919A0009952F903F904F905F906F906F
:10017C007F902F913F91313009F42F3F29F0890165
:10018C000F5F1F4F9801DDCF7F926F925F924F925E
:10019C003F922F92BFEF2B2EE0919900F0919A0095
:1001AC000995BFEF2B2EE0919900F0919A000995DB
:1001BC00BFEF2B2EE0919900F0919A0009952F90AA
:1001CC003F904F905F906F907F90202F30E089018F
:1001DC000F711070103009F4053081F07F926F921E
:1001EC005F924F923F922F920E94A7132F903F90B5
:1001FC004F905F906F907F9012E026C07F926F922D
:10020C005F924F923F922F92BFEF2B2EE09199006D
:10021C00F0919A0009952F903F904F905F906F90BE
:10022C007F900F3F11F00000E9CF7F926F925F92A9
:10023C004F923F922F920E94A7132F903F904F9076
:10024C005F906F907F9010E0012F5F904F903F90E8
:04025C002F90089542
:1007C800810120E0322F02501040204030404091FB
:1007D80064005091650060E0762F3FD74091750026
:1007E800509176006091770070917800040F151F82
:0E07F800261F371FA801B9018A019B01089531
:1035C0002F923F924F925F920091F8001091F90074
:1035D00006701070103009F4003021F4B7E0B09399
:1035E000DD0006C022243324442455240E943A0FCF
:0A35F0005F904F903F902F900895D8
:101E74000091F8001091F900103009F4003041F499
:101E8400B7E0B093DD0040E050E060E070E0E6C011
:101E9400B1E0B09390030091F4001091F50020910B
:101EA400F6003091F700021513052405350588F472
:101EB4000091F4001091F5002091F6003091F700A4
:101EC4000093E6001093E7002093E8003093E900C4
:101ED40008C02092E6003092E7004092E800509259
:101EE400E900409164005091650060E0762F009114
:101EF400E6001091E7002091E8003091E900CDDB85
:101F04008B019C01409162005091630060E0762F48
:101F1400C4DB8B019C0198010091E4001091E50061
:101F24000093EA001093EB0000E010E0021713079F
:101F340008F03AC03F932F935F924F923F922F92B3
:101F44002090EA003090EB0058D82F903F904F90AB
:101F54005F902F913F910093EA001093EB00009162
:101F6400EA001091EB001F3F09F40F3FC1F4009108
:101F7400F4001091F5002091F6003091F7000093E1
:101F8400E6001093E7002093E8003093E900BAE0FC
:101F9400B093DD0040E050E060E070E05FC0890194
:101FA400015010409801C0CF4091620050916300ED
:101FB40060E0762F0091E6001091E7002091E800A0
:101FC4003091E9006ADB8B019C01409164005091DF
:101FD400650060E0762F61DB8D019F010093F000C6
:101FE4001093F1005F924F923F922F922090EA005B
:101FF4003090EB000E94E4032F903F904F905F904D
:102004004091F0005091F100040F151FB0E02B1F18
:102014003B1F0093EC001093ED002093EE003093EF
:10202400EF00409162005091630060E0762F0091D0
:10203400E6001091E7002091E8003091E9002DDBE3
:102044008D019F010093F2001093F3004091E6008C
:102054005091E7006091E8007091E9008A019B01CA
:022064000895DD
:100FFE002F923F924F925F926F927F924091FE009E
:10100E005091FF0060E0762F810120E0322F40D317
:10101E008B019C0140916D0050916E0060916F00AC
:10102E0070917000040F151F261F371FB1E0B0938B
:10103E0090033F922F92B0E96B2EB1E07B2E1801F8
:10104E00290148D32F903F90003031F0B0E1B0939A
:10105E00DD002FEF3FEF12C04091FE005091FF00D8
:10106E00810105D88D019801220F331F00E911E08F
:10107E00020F131F1801D7D21801980189017F9012
:0C108E006F905F904F903F902F9008955E
:10377200CF93DF93CDB7DEB72497CDBFDEBF2196BF
:103782006F927F920091F8001091F900067010700C
:10379200103009F4003021F4B7E0B093DD006CC2C0
:1037A200B0E05B1611F4B0E04B1609F465C2B1E06B
:1037B200B09390030091F2001091F300123009F4DB
:1037C200003089F10091F2001091F300103009F4F9
:1037D200003020E009F02FEF0091620010916300A9
:1037E2004016510600E008F40FEF022BE1F05F9261
:1037F2004F923F922F92B0E96B2EB1E07B2E209038
:10380200EC003090ED004090EE005090EF000E94EE
:10381200710B2F903F904F905F90003021F0B0E1FC
:10382200B093DD0029C240E050E082010150104017
:103832000A831B830417150708F448C120E931E005
:103842000091F2001091F300200F311FFA01E20DF6
:10385200F31D0081F90100830091F2001091F30041
:103862000F5F1F4F0093F2001093F3000091F200DC
:103872001091F300123009F4003009F01DC15F937A
:103882004F935F924F923F922F92B0E96B2EB1E02D
:103892007B2E2090EC003090ED004090EE00509096
:1038A200EF000E945E002F903F904F905F904F91EB
:1038B2005F910030C9F00091E6001091E70020917D
:1038C200E8003091E900040F151FB0E02B1F3B1FE9
:1038D2000093E6001093E7002093E8003093E9009C
:1038E200B5E0B093DD00C8C1B0E0B093F200B09390
:1038F200F3000091EC001091ED002091EE00309168
:10390200EF000F5F1F4F2F4F3F4F0093EC001093BC
:10391200ED002093EE003093EF000091F000109143
:10392200F1000F5F1F4F0093F0001093F100209100
:10393200F0003091F10000916400109165002017B1
:10394200310709F07DC05F934F935F924F923F9290
:103952002F922090EA003090EB000E94FF072F90F8
:103962003F904F905F904F915F91088319831F3F63
:1039720009F40F3F09F043C05F934F935F924F9258
:103982003F922F920E947B022F903F904F905F9028
:103992004F915F91088319831F3F09F40F3FA1F4F0
:1039A2000091F4001091F5002091F6003091F7009B
:1039B2000093E6001093E7002093E8003093E900BB
:1039C200BAE0B093DD0058C15F934F935F924F927C
:1039D2003F922F92488059802090EA003090EB006D
:1039E2000E942603BFEF4B2E5B2E288039800E9457
:1039F20026032F903F904F905F904F915F910881E7
:103A020019810093EA001093EB00B0E0B093F0004C
:103A1200B093F1005F934F933F922F922090EA0070
:103A22003090EB000E94E4032F903F904F915F9102
:103A32000093EC001093ED002093EE003093EF0022
:103A42008201041B150B123009F40030A8F55F93B4
:103A52004F935F924F923F922F92B0E96B2EB1E05B
:103A62007B2E2090EC003090ED004090EE005090C4
:103A7200EF000E94710B2F903F904F905F904F91FB
:103A82005F910030C9F00091E6001091E7002091AB
:103A9200E8003091E900040F151FB0E02B1F3B1F17
:103AA2000093E6001093E7002093E8003093E900CA
:103AB200B0E1B093DD00E0C00A811B8140175107DD
:103AC20029F08A010F5F1F4FA801AFCE0091F200CB
:103AD2001091F300103009F40030E1F05F924F9240
:103AE2003F922F92B0E96B2EB1E07B2E2090EC003A
:103AF2003090ED004090EE005090EF000E945E008A
:103B02002F903F904F905F90003021F0B5E0B0933E
:103B1200DD00B2C00091E6001091E7002091E800BC
:103B22003091E900040D151DB0E02B1F3B1F0093DF
:103B3200E6001093E7002093E8003093E9004091FB
:103B4200E6005091E7006091E8007091E900009171
:103B5200F4001091F5002091F6003091F70004175F
:103B620015072607370780F40091E6001091E70059
:103B72002091E8003091E9000093F4001093F500E1
:103B82002093F6003093F7005F924F923F922F926C
:103B9200B0E96B2EB1E07B2E2090DE003090DF008A
:103BA2004090E0005090E1000E94710B2F903F90F6
:103BB2004F905F90003021F0B0E1B093DD005CC027
:103BC20020E931E00091E2001091E300020F131F9F
:103BD2009801F8017C960091F40000838901045E4B
:103BE2001F4FF80131960091F50000838901045EB0
:103BF2001F4FF80132960091F60000838901045E9E
:103C02001F4FF80133960091F7000083F901769671
:103C120000911C01008389010A5E1F4FF801319651
:103C220000911D010083F901789600911A01008329
:103C32008901085E1F4FF801319600911B01008334
:103C42005F924F923F922F92B0E96B2EB1E07B2EA2
:103C52002090DE003090DF004090E0005090E100C4
:103C62000E945E002F903F904F905F90002321F0C2
:103C7200B5E0B093DD0000C07F906F902396CDBF7A
:083C8200DEBFDF91CF91089530
:103F4000992779E004C0991F941708F0941B001F6B
:083F50007A95C9F70095089568
:1042AA002F923F924F925F926F927F928F92B2E4D7
:1042BA00B0933501209035010E94140C009135010C
:1042CA000093830188247724B9E06B2EB3E15B2E37
:1042DA00B4E04B2EBAED2B2EB7E03B2E0E941819F4
:1042EA00B0EA4B2EBCE72B2EB1E03B2E30DE63D971
:1042FA00B1E0B0936201009162014AE01CDE005D08
:10430A0000933601009162014AE015DE092F005D33
:10431A0000933701BAE24B2EB0E05B2EB6E32B2EA8
:10432A00B1E03B2E21DA009162010C3231F00091AA
:10433A0062010F5F00936201DECF009135010A35F9
:10434A0031F0009135010F5F00933501B3CF8F90A3
:0E435A007F906F905F904F903F902F9008954E
:10469A002F923F924F925F92B3E4B09383014424E6
:1046AA00BCE72B2EB1E03B2E52DC0E94E01AB1E0AF
:1046BA00B0936201009162014AE03DDC005D009323
:1046CA003601009162014AE036DC092F005D009351
:1046DA003701BAE24B2EB0E05B2EB6E32B2EB1E0E7
:1046EA003B2E42D800916201073331F000916201FA
:1046FA000F5F00936201DECF5F904F903F902F9043
:02470A00089510
:10470C002F923F924F925F926F927F928F92B2E470
:10471C00B09383014424BCE72B2EB1E03B2E16DC76
:10472C00B1E08B2EB5E17B2EBAE06B2EB4E15B2EA3
:10473C00B9E04B2EBAED2B2EB7E03B2E0E94181988
:10474C00D8DBE6E3F1E0B0E2B193B6E6B193BFE6B5
:10475C00B193B2E7B193B0E2B193BDE6B193B9E6D0
:10476C00B193BBE6B193B2E7B193BFE6B193B5E4B5
:10477C00B193BCE6B193B5E6B193BBE6B193B4E7A4
:10478C00B193B2E7B193BFE6B193BEE6B193B9E68C
:10479C00B193BBE6B193B1E6B193B0E2B193B2E39E
:1047AC00B193B0E3B193B1E3B193B0E3B193B0E0A3
:1047BC00B193BDE0B0935001BAE0B0935101BBE1AD
:1047CC004B2EB0E05B2EB6E32B2EB1E03B2E0E94BD
:1047DC00B91B8F907F906F905F904F903F902F9070
:0247EC0008952E
:103EFE002F923F924F925F920091F8001091F9002D
:103F0E0006701070103009F4003021F4B7E0B09351
:103F1E00DD000AC02090F4003090F5004090F600CD
:103F2E005090F7000E943A0F5F904F903F902F9065
:023F3E000895E4
:10460E002F923F924F92B2E4B09383014424BCE7C1
:10461E002B2EB1E03B2E99DCB8E72B2EB1E03B2ED2
:10462E000E94E914409178015091790160917A01CC
:10463E0070917B0100E010E020E030E004171507D8
:10464E0026073707FCF4BBE82B2EB1E03B2E0E9469
:10465E00BD1520908B010E94140C009178011091D1
:10466E00790120917A0130917B0101501040204058
:10467E003040009378011093790120937A013093A2
:0C468E007B01D0CF4F903F902F900895FB
:1029D2004F925F920091F8001091F900017010700F
:1029E200103009F4003051F4F101B0E0B193B19329
:1029F200B193B193B7E0B093DD0016C03F922F922E
:102A0200222433244424552434DA2F903F90009119
:102A1200F4001091F5002091F6003091F700F101D9
:0E2A220001931193219331935F904F9008958B
:102B7A004F925F926F927F920091F8001091F90044
:102B8A0001701070103009F4003021F4B7E0B093EE
:102B9A00DD00F8C04091E6005091E7006091E8003E
:102BAA007091E9000091F4001091F5002091F6006F
:102BBA003091F700401751076207730720F0BBE016
:102BCA00B093DD00DFC00091F2001091F3001230E3
:102BDA0009F4003009F08DC0B0E0B093F200B09370
:102BEA00F3000091F0001091F1000F5F1F4F009366
:102BFA00F0001093F1002091F0003091F100009163
:102C0A006400109165002017310709F042C0B0E056
:102C1A00B093F000B093F1003F922F922090EA0017
:102C2A003090EB000E94FF072F903F900093EA003C
:102C3A001093EB000091EA001091EB001F3F09F49A
:102C4A000F3FA1F40091F4001091F5002091F600D5
:102C5A003091F7000093E6001093E7002093E80014
:102C6A003093E900BAE0B093DD008CC03F922F9216
:102C7A002090EA003090EB000E94E4032F903F90EE
:102C8A000093EC001093ED002093EE003093EF00D8
:102C9A0014C00091EC001091ED002091EE003091EB
:102CAA00EF000F5F1F4F2F4F3F4F0093EC00109321
:102CBA00ED002093EE003093EF00B0E0B093900364
:102CCA003F922F92B0E96B2EB1E07B2E2090EC0060
:102CDA003090ED004090EE005090EF000E94710B92
:102CEA002F903F90003021F0B0E1B093DD004AC050
:102CFA001FC0009190030023D9F0B0E0B093900375
:102D0A003F922F92B0E96B2EB1E07B2E2090EC001F
:102D1A003090ED004090EE005090EF000E94710B51
:102D2A002F903F90003021F0B0E1B093DD002AC02F
:102D3A0020E931E00091F2001091F300F801E20F6E
:102D4A00F31F0081F10100830091F2001091F3005A
:102D5A000F5F1F4F0093F2001093F3000091E600FB
:102D6A001091E7002091E8003091E9000F5F1F4FB2
:102D7A002F4F3F4F0093E6001093E7002093E8009F
:0E2D8A003093E9007F906F905F904F90089516
:104368002F923F924F92B6E4B09383014424BCE766
:104378002B2EB1E03B2EECDD0E94CC164F903F90E7
:044388002F900895D5
:102D98002F923F924F925F926F927F928F929F9263
:102DA8000091F8001091F900103009F4003029F46E
:102DB800B7E0B093DD0011E033C0B0E0B093F800A5
:102DC800B093F9000CE110E04091130150E047FD89
:102DD8005FEFB1DC25EA30E0020F131FA02FB12FFF
:102DE800EEEDF0E08CE190E00E940C07BFEFB093AD
:102DF80013018090E2009090E3004090DE00509034
:102E0800DF006090E0007090E1002090E4003090D6
:102E1800E5000E94230E003014F412E001C010E017
:102E2800012F9F908F907F906F905F904F903F9071
:042E38002F9008953A
:101C4600BFEF3B1611F4BFEF2B1659F19F928F92FF
:101C56007F926F925F924F923F922F92CDD92F90A3
:101C66003F904F905F906F907F908F909F901F93C3
:101C76000F939F928F927F926F925F924F923F92B5
:101C86002F92442455240E9426032F903F904F9074
:101C96005F906F907F908F909F900F911F9118018A
:101CA600CFCFB1E0B09390039F928F927F926F92C5
:101CB6005F924F923F922F9212012301B0E96B2E51
:101CC600B1E07B2E0BDD2F903F904F905F906F9091
:101CD6007F908F909F90003029F0B0E1B093DD00A7
:101CE6001FEF27C000E911E0F401E00FF11FB5EE88
:101CF600B0839F928F927F926F925F924F923F92A4
:101D06002F9212012301B0E96B2EB1E07B2E0E94C7
:101D16005E002F903F904F905F906F907F908F90D6
:101D26009F90003029F0B5E0B093DD001FEF01C0B1
:061D360010E0012F0895EA
:10438C00CF93DF93CDB7DEB76397CDBFDEBF21965A
:10439C002F923F924F925F926F927F928F929F9249
:1043AC00B2E4B09383014424BCE72B2EB1E03B2E46
:1043BC00CDDD003009F406C1CE010596BE016C5F5F
:1043CC007F4FAE014D5F5F4F9E012E5F3F4F8E01C1
:1043DC004B013A01290118019F938F930E947D187C
:1043EC00ADB7BEB71296ADBFBEBFEAE2F1E0B0E228
:1043FC00B193B3E6B193B2E7B193B5E6B193B1E63D
:10440C00B193B4E7B193B5E6B193B4E6B193BAE323
:10441C00B193B0E2B193B0E0B193BAE22B2EB1E01C
:10442C003B2E8DD98E010A5F1F4F280128803980C1
:10443C000E94EB188E010A5F1F4F180180D98E0164
:10444C000A5F1F4F302E412E2A800E941E178E01AC
:10445C000A5F1F4F180173D98E010A5F1F4F280185
:10446C002B80B0E03B2E0E94EB188E010A5F1F4F91
:10447C00180165D98E010A5F1F4F28012C80B0E00E
:10448C003B2E0E94EB188E010A5F1F4F180157D963
:10449C008E010A5F1F4F28012D80B0E03B2E0E9439
:1044AC00EB188E010A5F1F4F180149D9CE010596F2
:1044BC00BE016C5F7F4FAE014D5F5F4F9E012E5F63
:1044CC003F4F8E014B013A01290118019F938F93A5
:1044DC000E944317ADB7BEB71296ADBFBEBFEEE19B
:1044EC00F1E0B0E2B193BDE6B193BFE6B193B4E6AF
:1044FC00B193B9E6B193B6E6B193B9E6B193B5E62B
:10450C00B193B4E6B193BAE3B193B0E2B193B0E036
:10451C00B193BEE12B2EB1E03B2E11D98E010A5F77
:10452C001F4F2801288039800E94EB188E010A5FEA
:10453C001F4F180104D98E010A5F1F4F302E412ED8
:10454C002A800E941E178E010A5F1F4F1801F7D890
:10455C008E010A5F1F4F28012B80B0E03B2E0E947A
:10456C00EB188E010A5F1F4F1801E9D88E010A5F04
:10457C001F4F28012C80B0E03B2E0E94EB188E01BF
:10458C000A5F1F4F1801DBD88E010A5F1F4F2801ED
:10459C002D80B0E03B2E0E94EB188E010A5F1F4F5E
:1045AC001801CDD80E94B117AE014A5F5F4F3A0196
:1045BC00180129010E94CC178E010A5F1F4F1801A8
:1045CC00B2DD11C0B5E52B2E0E94140C29E216E9C0
:1045DC0000E80A95F1F71A95E1F72A95D1F7B5E5B8
:1045EC002B2E0E94140C9F908F907F906F905F9059
:1045FC004F903F902F906296CDBFDEBFDF91CF9151
:02460C0008950F
:1030FA00CF93DF93CDB7DEB7A697CDBFDEBF2196BC
:10310A000AA51BA50AA71BA70091F8001091F900B0
:10311A00103009F4003021F4B7E0B093DD0050C05C
:10312A00B1E0B09390039F928F927F926F925F92D9
:10313A004F923F922F92B0E96B2EB1E07B2E2090F6
:10314A00DE003090DF004090E0005090E1000E94E5
:10315A00710B2F903F904F905F906F907F908F9060
:10316A009F90003021F0B0E1B093DD0029C020E942
:10317A0031E00091E2001091E300200F311F8E012F
:10318A005F924F923F922F92280119010E949C044C
:10319A002F903F904F905F900A89EAA5FBA5008384
:1031AA000989F40100830889F30100830F85F2017C
:1031BA0000830E8510E00454184FF1010193119316
:0C31CA00A596CDBFDEBFDF91CF91089528
:1031D600F201B0E2B193B0E2B193B0E2B193B0E2E2
:1031E600B193B0E3B193B0E0B19382010C5F1F4F8E
:1031F6009801B0E03B1611F4B0E02B16A9F04AE0B6
:1032060050E081010E943E008D01005DF9010083BE
:103216004AE050E081010E943E008C0118018901BC
:0A322600015010409801E5CF089513
:102E3C00E32DF42DB0E2B193B0E2B193B0E3B193D2
:102E4C00B0E0B193032D142D0E5F1F4F9801B0E02D
:102E5C002B1691F04AE0022D0E94A01F092F005D55
:102E6C00F90100834AE0022D0E94A01F202E890147
:0A2E7C00015010409801EBCF0895BB
:102E8600CF93DF93CDB7DEB7A697CDBFDEBF219632
:102E96000AA51BA50AA71BA70091F8001091F90027
:102EA600103009F4003021F4B7E0B093DD0050C0D3
:102EB600B1E0B09390039F928F927F926F925F9250
:102EC6004F923F922F92B0E96B2EB1E07B2E20906D
:102ED600DE003090DF004090E0005090E1000E945C
:102EE600710B2F903F904F905F906F907F908F90D7
:102EF6009F90003021F0B0E1B093DD0029C020E9B9
:102F060031E00091E2001091E300200F311F8E01A5
:102F16005F924F923F922F92280119010E949C04C2
:102F26002F903F904F905F90088DEAA5FBA50083F8
:102F36000F89F40100830E89F30100830D89F201E4
:102F460000830C8910E00454184FF101019311938A
:0C2F5600A596CDBFDEBFDF91CF9108959E
:102F62000091F8001091F900103009F4003041F49A
:102F7200B7E0B093DD004FEF5FEF6FEF7FEF08C078
:102F82004091F4005091F5006091F6007091F700C5
:062F92008A019B01089575
:102F9800CF93DF93CDB7DEB72397CDBFDEBF2196A2
:102FA800B0E85B1641F4B0E04B1629F4B0E03B16EC
:102FB80011F4B0E02B16D1F4F301BDE2B193B2E302
:102FC800B193B1E3B193B4E3B193B7E3B193B4E38D
:102FD800B193B8E3B193B3E3B193B6E3B193B4E378
:102FE800B193B8E3B193B0E0B1937DC0B0E0BA83D8
:102FF80000E010E020E030E02016310642065306DB
:1030080064F4BFEFBA8300E010E020E030E002197A
:1030180013092409350918012901F301B0E2B19314
:10302800B0E2B193B0E2B193B0E2B193B0E2B19340
:10303800B0E2B193B0E2B193B0E2B193B0E2B19330
:10304800B0E2B193B0E3B193B0E0B1938301065F0E
:103058001F4F08831983B0E05B1641F4B0E04B16AC
:1030680029F4B0E03B1611F4B0E02B16A9F17F92D9
:103078006F925F924F923F922F924AE050E060E049
:1030880070E0810192010E94E20D8B019C012F905A
:103098003F904F905F90005DE881F98100835F92D7
:1030A8004F923F922F924AE050E060E070E0810139
:1030B80092010E94E20D89019A012F903F904F9052
:1030C8005F906F907F901801290108811981015044
:1030D800104008831983BFCF0A81002321F0E881BB
:1030E800F981BDE2B0832296CDBFDEBFDF91CF91DB
:0230F800089539
:101BC400C9019A01AB01B80197FB092E05260ED075
:101BD40057FD04D014D00AD0001C38F45095409519
:101BE400309521953F4F4F4F5F4F0895F6F79095ED
:101BF4008095709561957F4F8F4F9F4F0895A1E217
:101C04001A2EAA1BBB1BFD010DC0AA1FBB1FEE1F72
:101C1400FF1FA217B307E407F50720F0A21BB30BBD
:101C2400E40BF50B661F771F881F991F1A9469F739
:101C340060957095809590959B01AC01BD01CF0195
:021C4400089501
:103FF4002F923F924F925F926F927F928F92E1E95C
:10400400F3E0BDE6B193B9E6B193BBE6B193B2E791
:10401400B193BFE6B193B5E4B193BEE2B193B4E713
:10402400B193B8E7B193B4E7B193B0E0B193B0E220
:104034008B2EB1E96B2EB3E07B2EB8E82B2EB3E1C7
:104044003B2EB0E04B2E5B2E1EDE009378011093C6
:10405400790120937A0130937B01303029F42030A8
:1040640019F4103009F4003009F459C020E030E0AC
:1040740000E911E0F901E00FF11F2083313009F468
:104084002F3F29F089010F5F1F4F9801F1CFB3E64D
:104094006B2EB1E07B2E2090780130907901409016
:1040A4007A0150907B010E94CC17B3E62B2EB1E02D
:1040B4003B2E3DD040E050E05F934F93B0E96B2E30
:1040C400B1E07B2E209078013090790140907A0104
:1040D40050907B010E945E004F915F9100917801A6
:1040E4001091790120917A0130917B010F5F1F4F6C
:1040F4002F4F3F4F009378011093790120937A0159
:1041040030937B01BEE22B2E0E94140C533109F430
:10411400473829F08A010F5F1F4FA801CDCF8F9038
:0E4124007F906F905F904F903F902F90089586
:103C8A00CF93DF93CDB7DEB7AE97CDBFDEBF219618
:103C9A002F923F924F925F926F927F925F924F92D2
:103CAA003F922F9213010E9411072F903F904F903D
:103CBA005F90003041F0B2E1B093DD0040E050E0A7
:103CCA0060E070E009C1B0E0BC87BD87B0E0B887AA
:103CDA00B987BA87BB87409164005091650060E05C
:103CEA00762F810192010E944F0B8B019C01088360
:103CFA001983409164005091650060E0762F81013C
:103D0A0092010E944F0B8D019F01303029F420301F
:103D1A0019F4103009F4003031F0088119810F5F6D
:103D2A001F4F088319838F927F926F925F924F92EF
:103D3A003F922F92288039800E94170D2F903F9032
:103D4A004F905F906F907F908F900A831B83103003
:103D5A0009F4023028F440E050E060E070E0BCC0B2
:103D6A000091930010919400209195003091960053
:103D7A000C831D832E833F83009171001091720082
:103D8A002091730030917400009393001093940073
:103D9A0020939500309396008F927F926F925F9254
:103DAA004F923F922F9213010E9433102F903F900F
:103DBA004F905F906F907F908F90003089F08F9234
:103DCA007F926F925F924F923F922F9213010E94BD
:103DDA009E0E2F903F904F905F906F907F908F90A4
:103DEA005F924F923F922F922301B6E02B2EB1E0C1
:103DFA003B2E0E946C07B6E02B2EB1E03B2E0E94B0
:103E0A00CF018E01025F1F4FB0E25B2EB0E06B2E36
:103E1A00442418010E94C3118E01025F1F4FBBE0A8
:103E2A006B2EB0E07B2EB6E04B2EB1E05B2E180174
:103E3A000E943B092F903F904F905F90082D0F777B
:103E4A00098F0A8108A70B8109A781019201409174
:103E5A0062005091630060E0762F0E94310B0AA73E
:103E6A001BA72CA73DA7AE01445F5F4F9E01285FA9
:103E7A003F4F8E01025F1F4F3A01290118010E942C
:103E8A00550900308CF40C811D812E813F810093ED
:103E9A00930010939400209395003093960040E08D
:103EAA0050E060E070E018C0488059802A803B806A
:103EBA000E9467100C811D812E813F81009393001F
:103ECA001093940020939500309396002A803B80AB
:103EDA000E94E403A801B9018A019B017F906F90B7
:103EEA005F904F903F902F90AD96CDBFDEBFDF9190
:043EFA00CF910895C7
:101A2E00CF93DF93CDB7DEB76097CDBFDEBF2196E4
:101A3E004F925F9200916B0010916C004091FE00EE
:101A4E005091FF0075D60E831F83B2E0BA83B0E0CB
:101A5E00BB834091FE005091FF0060E0762F02E0C4
:101A6E0010E020E030E014DE8B019C0140916D000F
:101A7E0050916E0060916F0070917000040F151FF1
:101A8E00261F371F0A871B872C873D874091FE0034
:101A9E005091FF0002E010E00E943E008D0198017F
:101AAE00220F331F28863986B2E0BC83B0E0BD8397
:101ABE0000E911E0020F131F0E871F873F922F922E
:101ACE002A843B844C845D840E943001B1E0B09343
:101ADE009003B0E92B2EB1E03B2E0E9465012F90B2
:101AEE003F902A813B810E811F812017310708F01C
:101AFE003FC0EE85FF8501911191103009F4003041
:101B0E0061F4088519850150104008871987103037
:101B1E0009F4003009F42CC008C0288639860A81E1
:101B2E001B810F5F1F4F0C831D830E851F85980130
:101B3E002E5F3F4F2E873F870A811B810F5F1F4FFE
:101B4E000A831B83009160001091610020173107FA
:101B5E0071F4B0E9BE87B1E0BF873F922F92B0E932
:101B6E002B2EB1E03B2E0E9465012F903F90B9CFF6
:101B7E000E942F04002339F0B0E1B093DD00BFEFD7
:101B8E00B883B9830EC008851985103009F400306A
:101B9E0029F40C811D810883198303C0B0E0B8833A
:101BAE00B983088119815F904F902F96CDBFDEBF0C
:061BBE00DF91CF910895B4
:10206600CF93DF93CDB7DEB7A697CDBFDEBF219660
:102076002F923F924F925F922101B6E02B2EB1E054
:102086003B2E0E946C078E012801B6E02B2EB1E094
:102096003B2E0E940006003014F410E001C011E04F
:1020A600012F5F904F903F902F90A596CDBFDEBF3A
:0620B600DF91CF910895B7
:101D3C00CF93DF93CDB7DEB7CB55D040CDBFDEBF51
:101D4C0021962F923F924F925F926F927F928F9239
:101D5C009F9261D8003029F0B2E1B093DD0011E020
:101D6C0073C02101B6E02B2EB1E03B2EAFD8AC2FC7
:101D7C00BD2FAA5DBF4FE6E0F1E00E94FA0500E03E
:101D8C000D938E012801B6E02B2EB1E03B2E0E9464
:101D9C00000600302CF4B2E0B093DD0012E054C029
:101DAC000D850071003009F43BC0FE01E75AFF4F6E
:101DBC00B0E0B193B1938E010A5D1F4F1801B4D8F6
:101DCC00003014F412E040C08E010D5C1F4F3F92A6
:101DDC002F9218015CD92F903F90003091F0FE01AA
:101DEC00E75AFF4F019111910F5F1F4FFE01E75A08
:101DFC00FF4F01931193103009F4033009F401C023
:101E0C00E3CF8FD8FE01E75AFF4F019111911030AB
:101E1C0009F4033028F0BCE0B093DD0013E014C0EB
:101E2C000CA11DA1B5E0000F111FBA95E1F74801F7
:101E3C0048A059A06AA07BA02E8C3F8CFEDE0030FF
:101E4C0014F414E001C010E0012F9F908F907F904C
:101E5C006F905F904F903F902F90C65ADF4FCDBF41
:081E6C00DEBFDF91CF91089564
:100F3400CF93DF93CDB7DEB7A697CDBFDEBF2196A3
:100F44004F925F92B0E0B0939100B0939200F101A0
:100F54000081003009F437C08E0128014FDE0030D3
:100F64002CF4B2E0B093DD001FEF3EC00D8500719C
:100F7400003029F4B1E0B093DD001FEF35C00E8DD1
:100F84001F8D20E0322F025010402040304040910D
:100F940064005091650060E0762F61D34091750044
:100FA400509176006091770070917800040F151FBE
:100FB400261F371F00931401109315012093160167
:100FC4003093170110C00091930010919400209168
:100FD400950030919600009314011093150120930D
:100FE40016013093170111E0012F5F904F90A596E1
:0A0FF400CDBFDEBFDF91CF9108955D
:10109A00CF93DF93CDB7DEB72897CDBFDEBF2196BA
:1010AA002F923F924F925F924091140150911501F5
:1010BA0060911601709117010091710010917200F0
:1010CA00209173003091740040175107620773072B
:1010DA0039F40091690010916A00088319830CC0E1
:1010EA000091640010916500409118015091190116
:1010FA000E949F13088319832091910030919200D6
:10110A00088119812017310711F410E0A4C0409119
:10111A0018015091190160E0762F00919100109109
:10112A00920020E0322FB6D28B019C01409114012B
:10113A00509115016091160170911701040F151F46
:10114A00261F371F0C831D832E833F83409118016E
:10115A005091190100919100109192000E943E0055
:10116A008D01B5E09801220F331FBA95E1F700E926
:10117A0011E0020F131F0A831B833F922F922C80C8
:10118A003D804E805F8067D8B1E0B0939003B0E9AC
:10119A002B2EB1E03B2E94D82F903F9020919100B6
:1011AA0030919200088119812017310708F046C052
:1011BA0000919100109192000F5F1F4F00939100D0
:1011CA0010939200EA81FB810081053E10E009F04C
:1011DA001FEF0032B0E008F0BFEF0B2F012391F0B0
:1011EA003F922F9237DB2F903F90002329F0B0E1F6
:1011FA00B093DD001FEF2FC021012A803B8097DBCF
:10120A0011E029C00A811B819801205E3F4F2A8381
:10121A003B8300916000109161002017310769F447
:10122A00B0E9BA83B1E0BB833F922F92B0E92B2E8B
:10123A00B1E03B2E45D82F903F90B0CF3F922F92EE
:10124A0009DB2F903F90002329F0B0E1B093DD0035
:10125A001FEF01C010E0012F5F904F903F902F9039
:0C126A002796CDBFDEBFDF91CF91089525
:060F2E0010E0012F089500
:1020CE00CF93DF93CDB7DEB72B97CDBFDEBF219673
:1020DE002F923F926F927F9200916B0010916C0045
:1020EE004091FE005091FF0023D39201220D331D2B
:1020FE000217130708F415C14091FE005091FF001E
:10210E0060E0762F810120E0322FC2DA8B019C0134
:10211E0040916D0050916E0060916F007091700053
:10212E00040F151F261F371F09831A832B833C8329
:10213E004091FE005091FF0081010E943E008D01F2
:10214E009801220F331F2D823E8200E911E0020F0B
:10215E00131F0F831887B1E0B0939003303009F44A
:10216E002030B0E009F0BFEF2B2F0091FE00109150
:10217E00FF004016510600E008F40FEF022B99F015
:10218E005F924F92B0E96B2EB1E07B2E29803A80A0
:10219E004B805C809FDA4F905F90003021F0B0E171
:1021AE00B093DD00BEC08201015010402801B0E0A6
:1021BE005B1611F4B0E04B1609F47AC0820101509F
:1021CE00104028010D811E810F5F1F4F0D831E834E
:1021DE00EF81F885019311930F81188598012E5F79
:1021EE003F4F2F83388700916000109161002017B8
:1021FE00310709F05CC0B0E0B8831091680011504F
:10220E001A870881101758F1088110E0212F312FFD
:10221E0040916B0050916C0060E0762F1BDA498183
:10222E005A816B817C81040F151F261F371F5F9209
:10223E004F923F922F92B0E96B2EB1E07B2E180198
:10224E0029010E945E002F903F904F905F90188161
:10225E000A85101721F008810F5F0883CECF098100
:10226E001A812B813C810F5F1F4F2F4F3F4F0983E8
:10227E001A832B833C83B0E9BF83B1E0B88700910A
:10228E00FE001091FF004016510688F45F924F92A7
:10229E003F922F92B0E96B2EB1E07B2E29803A80CF
:1022AE004B805C8017DA2F903F904F905F907FCFDE
:1022BE00EF81F885BFEFB193B193B0E0B883109181
:1022CE00680011501A870881101758F1088110E024
:1022DE00212F312F40916B0050916C0060E0762FD2
:1022EE00B9D949815A816B817C81040F151F261F34
:1022FE00371F5F924F923F922F92B0E96B2EB1E053
:10230E007B2E180129010E945E002F903F904F9066
:10231E005F9018810A85101721F008810F5F0883DE
:10232E00CECF7F906F903F902F902A96CDBFDEBF7D
:06233E00DF91CF9108952C
:10414E00B4E1B093FA00BCE0B093FB00BFEFB093C4
:10415E000401BFEFB0930501BFEFB0930201BFEFB3
:10416E00B0930301BFEFB0930001BFEFB093010115
:10417E00B1B3BE7FB1BBB1B3B260B1BB0AB108611E
:08418E000AB9B6E8B0BD0895BE
:00000001FF
