:10000000FC7F0020815300008552000085520000D3
:100010008552000085520000855200008552000084
:100020008552000085520000855200008552000074
:100030008552000085520000855200008552000064
:100040008552000085520000855200008552000054
:10026000855200008552000085520000FFFFFFFF0D
:1002700040F21707C0F200077F1EFDD100BF00BF8C
:1002800000BF00BF704781B00091014600980A7816
:1002900032B10B780278934202D1491C401CF6E738
:1002A0000B7802789A1A10B201B0704781B0CDF87D
:1002B00000E0FF20044C2468A047FE2800D0F8E7A7
:1002C000DDF800E001B07047B804002083B0CDF83D
:1002D00000E00346029101F029FB2B4A1278042A20
:1002E00001D1184600E05802FF220146182001F013
:1002F00027FB18B101F08EFC012040E0FF20234CC9
:100300002468A047FF20214C2468A047FE201F4CF2
:100310002468A047002040F2FF1290420FD8029AB2
:1003200012181278D4B2ADF80400A0B2174C2468A9
:10033000A047BDF80400421C91B288B2EBE7FF2051
:10034000124C2468A047FF20104C2468A047FF20CF
:100350000E4C2468A04700F01F0292B2052A03D079
:1003600001F058FC02200AE0FF20084C2468A04756
:10037000B0F1FF0F00D0F7E701F04CFC0020DDF8F2
:1003800000E003B0704700BFA4020020B8040020C2
:1003900081B0202806D00D2802D8092800D301E01A
:1003A000002100E00121C8B201B0704781B0CDF852
:1003B00000E0002464B20B4B1C60012252B20A49D7
:1003C0000A600A490A600A4908700A490C600A6012
:1003D0001A60FFF74DFFFFF74BFFDDF800E001B0BB
:1003E000704700BF987F4E42947F0C429C7F4C42E6
:1003F000FCD30340907F4E4282B0CDF800E002462D
:100400000846154604460021134608290AD22A78D0
:10041000202A00D106E02A782270641C6D1C491C39
:1004200089B2F2E703F2080211461278202A16D0A8
:100430002E222270661C002205460C4691B203292A
:100440000AD22278202A00D106E022783270761C67
:10045000641C491C89B2F2E730461E4602E01E4683
:10046000054620460022027005F20D0306F20B023B
:1004700012781A7005F21C02019206F21C02104654
:1004800001F018FF019A106005F22002019206F2B5
:100490001A02104600F09AFC019A108006F20E0231
:1004A0001378521C1278120292B29C18A4B2A0B215
:1004B00005F20E02D31CE20A1A7005F20E02131D99
:1004C000420992B202F03F021A7005F20E02531D69
:1004D00000F01F0292B252001A7006F21002137856
:1004E000521C1278120292B29C18A4B2A0B205F269
:1004F0000E02931C04F01F021A7005F20E02531C28
:10050000420992B202F00F021A7005F20E03420A7B
:100510001A7006F216021378521C1278120292B266
:100520009C18A4B2A0B205F21402D31CE20A1A70FD
:1005300005F21402131D420992B202F03F021A7032
:1005400005F21402531D00F01F0292B252001A70FD
:1005500006F218021378521C1278120292B29C18FA
:10056000A4B2A0B205F21402931C04F01F021A7088
:1005700005F21402531C420992B202F00F021A70E3
:1005800005F21403420A1A70DDF800E002B0704769
:1005900081B000235BB205490B6005490870054A2C
:1005A0001360012149B2116001B070479C7F4C4239
:1005B000FCD30340907F4E4281B0CDF800E0FFF7BE
:1005C00057FEFFF755FE002464B2094B1C60012260
:1005D00052B208490A6008490C6008490870084985
:1005E0000C600A601A60DDF800E001B0704700BFDF
:1005F000987F4E42947F0C429C7F4C42FCD3034038
:10060000907F4E4281B001235BB205490B600549E2
:100610000870002252B204490A600B6001B07047B2
:100620009C7F4C42FCD30340907F4E4287B0CDF874
:1006300000E004A90D4604460194029503900B22A4
:1006400012B20846202101F089F80398029D019C0E
:100650000646317831B13178C8B2FFF799FE08B15A
:10066000761CF6E723493046FFF70DFE38B904AA99
:100670002E211170521C2E211170204630E01E498F
:100680003046FFF700FE20B904AA2E211170204643
:1006900026E022462C463346197871B11978C8B243
:1006A000FFF776FE48B919782E2906D019782170FF
:1006B000611C08465B1C0446EEE719782E2901D11F
:1006C000581C00E0184604AB083301901046019A0C
:1006D0001178202904D9117819705B1C521CF7E796
:1006E00004A90B2212B200F039FCDDF800E007B0DB
:1006F000704700BFA5020020A802002081B07A2820
:1007000008D8612807D34FF6DF7109B200EA01016A
:10071000C8B2FFE7FFE701B0704781B00146084665
:100720000B460246401C117801B1FAE7C11A491E76
:1007300008B201B07047FFFF81B0CDF800E002467B
:1007400001F0F4F80A490978042901D1104600E0C3
:100750005002FF220146122001F0F2F818B101F018
:1007600059FA012000E00020DDF800E001B07047F8
:10077000A402002082B0CDF800E04C20214C246877
:10078000A04700201F4C2468A04700201D4C24686F
:10079000A04700201B4C2468A0470020194C246867
:1007A000A047FF20174C2468A0470022ADF8042082
:1007B000FF20144C2468A047BDF8042083B2511CCC
:1007C0008AB200F0800080B210B1642A00D2EDE756
:1007D00003F0800080B238B1ADF8043001F01AFAAD
:1007E000BDF8043098B208E0FF20064C2468A0470A
:1007F0000028F9D001F00EFA0020DDF800E002B088
:10080000704700BFB804002081B0ADF80020024658
:10081000BDF9000004B2431E18B25CB114780B7825
:100820009C4204D014780B78E31A18B204E0521CEE
:10083000491CEFE7002000B201B0704785B0CDF849
:1008400000E00290FFF732FD00239AB2B2F5007F7C
:1008500010D2029989180491ADF80420FF200B4CA6
:100860002468A047BDF8042004990870511C8BB27D
:100870009AB2EBE7FF20054C2468A047FF20034C09
:100880002468A047DDF800E005B07047B8040020F8
:1008900081B0CDF800E0002410B401F053FF01B0A6
:1008A000DDF800E001B0704783B0CDF800E0304AD9
:1008B0001188304800884843ADF804000220ADF8A4
:1008C00006001046018840F20200B0FBF1F080B251
:1008D00081B229480068081803461046028840F291
:1008E0000201B1FBF2F002FB101080B2410089B2AC
:1008F0002248401802901846FFF71EFF01212048A9
:1009000001701E48FFF79AFFBDF80410BDF80600FD
:10091000884215D20298008800B911E00298811C23
:100920000291BDF80600401CADF8060015480068AD
:10093000814204D1114802901048FFF77FFFE3E79E
:10094000FFF718FF28B110210F4801704FF6FF7014
:100950000AE0BDF80410BDF80600884202D14FF647
:10096000FF7001E0BDF80600DDF800E003B070475D
:100970005607002036050020380500204C050020D1
:100980004C07002050070020BC04002084B0CDF8A4
:1009900000E0ADF80C1081B2304A1288B1FBF2F2DF
:1009A00092B202922E4A1368029AD418029401233A
:1009B0002C4A1370ADF804102B49204600F0DEFEDF
:1009C000BDF8041028B11023284A13704FF6FF70A9
:1009D00040E0224A1388B1FBF3F203FB121292B2F9
:1009E00053009BB298B2204AD31803AC22781A70F5
:1009F000431C9BB21C4AD318621C12781A701A4905
:100A00000298FFF763FC28B10523184A13704FF6CC
:100A1000FF701FE00122ADF80620154A1378BDF8DB
:100A200006209A4215D2134A1388029AD2180292CB
:100A30000D491046FFF74AFC28B105230B4A1370F5
:100A40004FF6FF7006E0BDF80620521CADF80620F8
:100A5000E3E70020DDF800E004B07047560700200F
:100A6000380500204C0700204C050020BC04002065
:100A7000320500203605002081B005490860054A8E
:100A8000116801B9FBE70249086801B0704700BF6F
:100A900008A000408801144286B0CDF800E0049020
:100AA0000591049A12B9FF2040B273E00498FFF751
:100AB000BDFD3A4A13683A4A12689A4204D1394A4B
:100AC0001288ADF8062006E0374A1388374A1288A4
:100AD0005A43ADF80620324B1A680392344A029208
:100AE0001A461068FFF728FE0123324A1370304877
:100AF000FFF7A4FE0022ADF80420BDF80630BDF8D3
:100B000004209A423BD20B2212B204990298FFF7BA
:100B10007BFEF0B9FFF72EFE28B11023264A137092
:100B2000FF2040B236E0059A82B105990298FFF79E
:100B300063FC059A02F22403039A1A60059A02F2F2
:100B400028041B4B029AD21A52092280002040B27C
:100B500020E0029A02F220030293184A126893429C
:100B600007D1039A521C0392114A02921048FFF7D0
:100B700065FEBDF80420521CADF80420BDE7FFF768
:100B8000F9FD28B110230C4A1370FF2040B201E098
:100B9000FF2040B2DDF800E006B070473C050020C1
:100BA0004405002034050020480500202E050020C3
:100BB0004C0500204C070020BC04002050070020FA
:100BC00081B005490860054A116801B9FBE702498F
:100BD000086801B0704700BF08B0004088011642A5
:100BE00081B005490860054A116801B9FBE702496F
:100BF000086801B0704700BF0880004088011042BB
:100C000081B005490860054A116801B9FBE702494E
:100C1000086801B0704700BF089000408801124288
:100C200084B0CDF800E003903C490A683C4909686B
:100C3000914204D13B490988ADF8041006E03A49D5
:100C40000A883A4909885143ADF80410BDF80420D8
:100C500037490988914202D1002040B25AE0324B14
:100C60001A88334D2988B1FBF2F292B22C490968F7
:100C7000891808462F4C19460B8829460A88B2FB6A
:100C8000F3F103FB112189B2490161180291FFF7C9
:100C900053FD012228490A702648FFF7CFFDBDF811
:100CA000042023490988914229D2214A1188491CEC
:100CB000118002990978E52913D002990978202931
:100CC0000FD3FFF757FD28B110221C490A70FF20EF
:100CD00040B21FE003990298FFF78EFB012040B25B
:100CE00018E0029901F220020292154909688A422D
:100CF00004D1104902910F48FFF7A0FDCFE7FFF79D
:100D000039FD28B110220D490A70FF2040B201E0E0
:100D1000002040B2DDF800E004B070473C05002040
:100D20005807002034050020480500202E0500202B
:100D30005C0700204C0500204C070020BC0400206C
:100D4000500700208CB0CDF800E0002219490A803D
:100D5000017821B301A9FFF79FFE002805DA0222DE
:100D600015490A70FF2040B21FE09DF8111001F0F4
:100D70001001C9B229B901220F490A70FF2040B2FF
:100D800013E0BDF82410891E89B28AB20B49098884
:100D90004A430B4909688A180A490A6003E00A496C
:100DA0000A6808490A60012040B2DDF800E00CB092
:100DB000704700BF5C070020BC0400202E05002007
:100DC00040050020580700204405002081B0411C48
:100DD00009780A0292B20178511888B201B07047BE
:100DE00082B0CDF800E0ADF804200AB201B2BDF83F
:100DF0000400002904DB134B1B88994200D200E059
:100E00001BE0002A04DB104B1B889A4200D200E052
:100E100013E0002464B20D4B1C60ADF8040088B2EE
:100E200091B20B4C2468A047BDF80400094C24681B
:100E3000A047012464B2054B1C60DDF800E002B05D
:100E4000704700BF5E0700208C070020987F4E424D
:100E5000880700209007002085B0CDF800E0154DF0
:100E60000346002922D904AC0193ADF8081003957C
:100E700022461846104C2468A047039DBDF8081070
:100E8000019B04460020BDF81020904206D2227833
:100E90002A706D1C641C401C80B2F4E7BDF8102061
:100EA000891A89B2BDF810209B18DAE7DDF800E056
:100EB00005B07047C0070020CC07002081B0CDF8F6
:100EC00000E004462046FFF728FCC6B2C1B211B9C3
:100ED000FF2040B23EE00C2E02D9FE2040B239E0A5
:100EE00021782E2902D1FD2040B233E000256DB2D9
:100EF0002346F2B2F0B2002A11D9A11809782E299E
:100F00000AD101235BB2082A02D9FC2040B221E0B9
:100F1000511C09B2621804E0521ED2B2EBE71A4625
:100F20006BB2012B04D0082802D9FB2040B211E09B
:100F3000012B0DD11046FFF7F0FBC2B2C1B211B9BF
:100F4000F52040B206E0032A02D9F42040B201E0C5
:100F5000002040B2DDF800E001B0704781B00B46E0
:100F6000014618460D4614B2531E1AB224B1037836
:100F70002B706D1C401CF6E7084601B0704781B02D
:100F8000002040B201B0704782B0CDF800E00025EB
:100F900004460B460D2D0BD2621901925A19127894
:100FA000D0B2FFF7ABFB019A10706D1CEDB2F1E708
:100FB000DDF800E002B070474DF2BE47C0F2010715
:100FC0007F1EFDD100BF00BF00BF00BF00BF00BF3C
:100FD0007047FFFFFFFFFFFF4AF67F17C0F20307CE
:100FE0007F1EFDD100BF00BF00BF00BF7047FFFFE5
:100FF00082B0CDF800E084B216490988B4FBF1F163
:1010000089B288B2144909684318012213490A7049
:10101000ADF804401249184600F0B0FBBDF804409A
:1010200028B110220F490A704FF6FF700DE00949F0
:101030000A88B4FBF2F102FB114189B24A0092B274
:10104000074989180846FFF7C1FEDDF800E002B045
:10105000704700BF56070020380500204C070020CD
:101060004C050020BC04002081B0CDF800E047F220
:101070000040C4F202004FF001014FEA411140F27A
:1010800040130122C9B2FFF703FC002149B22B48EB
:10109000016046F20040C4F202004FF001014FEA45
:1010A000C11140F240130122C9B2FFF7F1FB012147
:1010B00049B22348016047F20040C4F202004FF0F9
:1010C00001014FEA811140F240130122C9B2FFF73A
:1010D000DFFB012149B21B48016046F20040C4F227
:1010E00000004FF001014FEA411140F2401301228C
:1010F000C9B2FFF7CDFB47F20040C4F202004FF047
:1011000001014FEA011140F240130122C9B2FFF779
:10111000BFFB012149B20C4801600C4801604DF24F
:101120000040C4F2030040F240130122FF21FFF708
:10113000AFFBDDF800E001B0704700BF947F4E4286
:101140009C7F4C42987F4E42947F0C42907F4E424F
:1011500087B0CDF800E0049005910692049B1A3305
:101160001846FFF733FE069B1880069B1B88B3B911
:10117000FFF79AFB069B1880069B1C884FF6FF73AF
:101180009C4205D104246A4B1C70FF2040B2CAE087
:10119000069B1B884FF6FF7198B2FFF7F7FB069B83
:1011A0001B889C1E634B1B885C43634B1B681C198C
:1011B000059B1C60614B1C68614B1B68A34204D1FA
:1011C000604B1B88ADF80A3006E05F4B1C88594B1A
:1011D0001B886343ADF80A30594C236803935B4B7B
:1011E0001846234601901868FFF7A6FA0124584BC9
:1011F0001C705648FFF722FB01980023ADF8083019
:101200000146BDF80A40BDF80830A34280F07D8059
:101210000B78E52B03D00B78202B00D35AE00191FB
:10122000FFF7A8FA019928B11024414B1C70FF2048
:1012300040B278E00191202212B208460499FFF7EB
:101240008DFE019901F21A04069B1B8803F0FF032F
:10125000237001F21A035C1C069B1B881B0A237077
:1012600001F20E043B4B1B78237001F20E035C1C51
:10127000394E3378237001F21004384B1B782370F9
:1012800001F210035C1C364D2B78237001F216041A
:10129000304B1B78237001F216035C1C33461B781D
:1012A000237001F218042D4B1B78237001F21803F0
:1012B0005C1C2B461B78237024490398FFF706F823
:1012C00028B105241A4B1C70FF2040B22BE00020EF
:1012D00040B228E001F22004A046224B1B689C4249
:1012E0000CD1039B5B1C0393DFF86080CDF8048076
:1012F0001648FFF7A3FADDF80480FFE7BDF80830D1
:101300005B1CADF8083041467BE7FFF733FA28B1A4
:101310001024074B1C70FF2040B204E00624044B4D
:101320001C70FF2040B2DDF800E007B0704700BF3E
:10133000BC0400202E050020400500203C050020B4
:101340004405002034050020480500204C050020FD
:101350004C07002054070020550700204A050020B4
:101360004B0500205007002082B0CDF800E08DF83A
:10137000041000235BB2094A1360094C2468A0479B
:101380009DF80400074C2468A04701235BB2034A80
:101390001360DDF800E002B0704700BF987F4E4256
:1013A000940700209807002049F6FF67C0F2240741
:1013B0007F1EFDD100BF00BF00BF00BF7047FFFF11
:1013C00081B0874900EA0101084639E18549096889
:1013D00041F0010283490A6083490A686FF0010104
:1013E0000A4081490A6087E17E49096841F00102AB
:1013F0007C490A607C49096841F001027A490A6027
:101400007AE17849096841F0020276490A60764932
:101410000A686FF002010A4073490A606CE1714981
:10142000096841F002026F490A606F49096841F09A
:1014300002026D490A605FE16A49096841F00402ED
:1014400068490A6068490A686FF004010A40664901
:101450000A6051E16349096841F0040261490A6088
:101460006149096841F004025F490A6044E15D494D
:10147000096841F008025B490A605B490A686FF03D
:1014800008010A4058490A6036E15649096841F0A6
:10149000080254490A605449096841F00802524957
:1014A0000A6029E14F49096841F010024D490A607C
:1014B0004D490A686FF010010A404B490A601BE170
:1014C0004849096841F0100246490A6046490968DE
:1014D00041F0100244490A600EE14249096841F0B6
:1014E000200240490A6040490A686FF020010A4022
:1014F0003D490A6000E13B49096841F02002394951
:101500000A603949096841F0200237490A60F3E06E
:101510003449096841F0400232490A6032490A6898
:101520006FF040010A4030490A60E5E02D49096842
:1015300041F040022B490A602B49096841F0400202
:1015400029490A60D8E02749096841F08002254905
:101550000A602549096801F07F0223490A60CBE04F
:101560002049096841F080021E490A601E49096845
:1015700041F080021C490A60BEE01A49096841F442
:10158000807218490A6018490A686FF480710A402D
:1015900015490A60B0E01349096841F480721149A5
:1015A0000A601149096841F480720F490A60A3E09A
:1015B0000C49096841F400720A490A600A4909683D
:1015C00041F4007208490A6096E00649096841F44E
:1015D000806204490A600449096841F4806205E0B8
:1015E00000F0FFFF08E60F406CE00F4043490A603F
:1015F00082E04349096841F4006241490A603F4979
:10160000096841F400623D490A6075E03C49096897
:1016100041F480523A490A603849096841F48052DD
:1016200036490A6068E03649096841F40052344995
:101630000A603249096841F4005230490A605BE0AF
:10164000B0F1402F3FF4C2AE2E4988423FF4CCAEF9
:101650002D4988423FF4D5AE2C4988423FF4DFAE95
:101660002B4988423FF4E8AE2A4988423FF4F2AE63
:10167000294988423FF4FBAE284988423FF405AF30
:10168000274988423FF40EAF264988423FF418AFFD
:10169000254988423FF421AF244988423FF42BAFCB
:1016A000234988423FF434AF224988423FF43EAF99
:1016B000214988423FF447AF204988423FF450AF68
:1016C0001F4988423FF459AF1E4988423FF463AF37
:1016D0001D4988423FF46CAF1C4988423FF475AF06
:1016E0001B4988423FF485AF1A4988423FF48EAFC8
:1016F000194988423FF497AF01B070476CE00F4042
:1017000008E60F4000800540005000400090054072
:101710000060004000A005400070004000B005409F
:101720000040024000C005400050024000D005408B
:101730000060024000E005400070024000F00540FB
:1017400000D0034000000640001006400020064084
:1017500000300640004006400050064081B013B201
:101760000246C8B211461DB22CB26B1E1DB214B196
:101770000870491CF8E7104601B0704785B0CDF8F5
:1017800000E00346029100F0D1F81E4A1278042AC4
:1017900001D1184600E05802FF220146112000F056
:1017A000CFF818B100F036FA012027E0FF20164CE0
:1017B0002468A047FE2800D0F8E7002399B2B1F5CD
:1017C000007F10D2029A52180492ADF80410FF2044
:1017D0000D4C2468A047BDF80410049A10704A1CF0
:1017E00093B299B2EBE7FF20074C2468A047FF2093
:1017F000054C2468A04700F00DFA0020DDF800E059
:1018000005B07047A4020020B804002084B0CDF8D1
:1018100000E08DF80C000021ADF80410BDF80420A4
:1018200042F210718A4280F077809DF80C1099B9CD
:1018300000F07CF8FF220021012000F081F8ADF8D3
:10184000060000F0E7F9BDF8061021B9002235497D
:101850000A70002061E059E000F068F8FF220021E2
:10186000372000F06DF8ADF8060000F0D3F9BDF8B0
:101870000610012949D100F059F8FF224FF08041AC
:10188000292000F05DF8ADF8060000F0C3F9BDF8BE
:101890000610002938D19DF80C1002292FD100F034
:1018A00045F8FF2200213A2000F04AF8ADF8060082
:1018B000FF201D4C2468A047ADF80800FF201A4CFB
:1018C0002468A047FF20184C2468A047FF20164C2E
:1018D0002468A04700F09EF9BDF8061071B9BDF864
:1018E000081001F0400189B219B104220D490A70B3
:1018F00002E003220B490A7000200EE004E00122FE
:1019000008490A70002008E000E005E0BDF8041076
:10191000491CADF8041081E70120DDF800E004B0B7
:10192000704700BFA4020020B804002081B000214D
:1019300049B20248016001B0704700BF807F4C424D
:1019400084B0CDF800E002918DF80C2000F2400444
:10195000A0B21F4C2468A04702ABDB1C1B78DCB292
:10196000A0B21B4C2468A04702AB9B1C1B78DCB2C6
:10197000A0B2174C2468A04702AB5B1C1B78DCB2FA
:10198000A0B2134C2468A04702AB1B78DCB2A0B213
:101990000F4C2468A0479DF80C000D4C2468A0470C
:1019A0000021ADF80410FF20094C2468A047BDF8C1
:1019B000041082B24B1C99B200F080039BB213B1A9
:1019C000642900D2EDE790B2DDF800E004B0704782
:1019D000B804002086B0CDF800E085B240F20001E6
:1019E000ADF8121000218DF814108049097849B91A
:1019F0007F490022084640F2000102F033FF012235
:101A00007A490A707B4909888D4200D2EAE07A4916
:101A100009888D4200D9E5E076490988691A89B2BA
:101A20008A0092B2754C216808318B1819788DF8AC
:101A30001010591C0978CAB2991C0978090289B298
:101A40005218D91C0978090489B25218214609682C
:101A5000891803916A490978002940F06280694930
:101A6000B1F800800023684909888B4253D2674946
:101A70000988ADF8121040F2000B00218DF8081013
:101A8000D8B25FFA8BF99DF810209DF808109142AA
:101A90003AD2B9F1000F0BD1039909788DF81410DF
:101AA0000399491C039140F201095FFA89F201E0B0
:101AB0005FFA89F29DF814101140C9B2A1B15449DE
:101AC00009888DF804208DF80500ADF806808AB2EB
:101AD0000FFA88F1BDF81200FFF782F9BDF8068011
:101AE0009DF805009DF80420BDF81210491CADF8C2
:101AF000121051005FFA81FB9DF80810491C8DF807
:101B000008105FFA8BF9BEE708F101081FFA88F8A0
:101B1000431CDBB2A7E7BDF812104A1C3B490A8000
:101B200060E03A49B1F800800023374909888B42C8
:101B300053D234490988ADF8121040F2000B00214D
:101B40008DF80810D8B25FFA8BF99DF810209DF837
:101B5000081091423AD2B9F1000F0BD103990978DC
:101B60008DF814100399491C039140F201095FFAA2
:101B700089F201E05FFA89F29DF814101140C9B2B0
:101B8000A1B1234909888DF804208DF80500ADF82E
:101B900006808AB2BDF812100FFA88F0FFF720F91C
:101BA000BDF806809DF805009DF80420BDF81210D0
:101BB000491EADF8121051005FFA81FB9DF8081024
:101BC000491C8DF808105FFA8BF9BEE708F101088F
:101BD0001FFA88F8411CCBB2A7E7BDF812104A1EC5
:101BE00008490A80DDF800E006B07047AD02002029
:101BF0003E650000B0070020B2070020AC070020BF
:101C0000B8070020AA070020B4070020A80700207A
:101C1000B607002081B0CDF800E0012149B20548A7
:101C20000160FF20044C2468A047DDF800E001B00B
:101C3000704700BF807F4C42B804002085B0CDF8CB
:101C400000E001213648017036480078C10036486E
:101C50004018001D00683549FFF790FD28B110219C
:101C600033480170FF2040B255E03248FFF7AEF82C
:101C70003149049108803148017831480180314868
:101C8000FFF7A4F8304903910880304801783048C4
:101C9000029001702F48FFF799F82F4901910880B1
:101CA0002E48FFF793F82E4B18801E480078C1008D
:101CB0001D484018001D0168039800880818294A2B
:101CC00010601846018802980078414389B2104696
:101CD00000684018244B186001980088410189B2BF
:101CE000049A10460088B1FBF0F189B218460068EA
:101CF00041181E4801601046008841081C480180B8
:101D00001046008841091B480180184601681A489E
:101D10000160002040B2DDF800E005B0704700BF70
:101D20004C070020CB040020600700204C05002059
:101D3000BC040020570500202C0500205905002078
:101D40002E0500205A050020300500205C050020EB
:101D5000320500205D0500203405002062050020CA
:101D600036050020380500203C05002040050020F5
:101D700056070020480500204405002085B0CDF816
:101D800000E0ADF81000394B1A88394909885143F1
:101D9000ADF808100221ADF8041019460A8840F287
:101DA0000201B1FBF2F033490968401819460B886B
:101DB00040F20202B2FBF3F103FB112189B24A00A7
:101DC00092B2BDF81010ADF80A1040F20201ADF861
:101DD0000610294989180391FEF7AEFC0122274914
:101DE0000A702548FEF72AFDBDF80820BDF804104A
:101DF000914227D20399098849B9BDF80A10491EB2
:101E000089B2ADF80A10002900D11BE008E0BDF846
:101E10001010ADF80A10BDF80410491CADF80610FA
:101E200003998A1C0392BDF80410491CADF80410F4
:101E3000134909688A4204D10F4903910E48FEF7FD
:101E4000FDFCD1E7FEF796FC28B110220D490A707F
:101E50004FF6FF7006E0BDF80A1011B9BDF8060094
:101E600000E00020DDF800E005B0704756070020D4
:101E700036050020380500204C0500204C070020C6
:101E800050070020BC04002081B00A460146002013
:101E90000D4611460A2805D20B1820221A70401C44
:101EA00080B2F7E70B1800221A70401E80B20C189F
:101EB0000A23B5FBF3F203FB1252303222700A22DE
:101EC000B5FBF2F2154602B902E0401E80B2EEE721
:101ED00001B070479CB0CDF800E007463846FEF7E9
:101EE000EDFF20B112222C490A70012050E0394642
:101EF0002A48FFF749F818A90D2212B208462749C7
:101F0000FFF72CF80DA92548FEF7C6FD002804DAD6
:101F1000022221490A7002203AE09DF8411001F0A6
:101F20001001C9B231B340F2000218A9ADF8042083
:101F30000846FEF707FFBDF80420002801DA02205A
:101F400026E002A9ADF804200846FEF769FEBDF8B8
:101F5000042030B1511C89B28AB2032900D100E0BB
:101F6000EFE7FFF70CF8032A04D30C220A490A70A2
:101F700003200DE0BDF85C1049018AB21699BDF846
:101F8000540000F025F8002801DA042000E00020C9
:101F9000DDF800E01CB07047BC040020BD04002048
:101FA00081B0CDF800E001460848FEF7EDFF4FF0A4
:101FB00000010648FEF770FD002801DA002000E06D
:101FC0000120DDF800E001B0704700BFBD04002033
:101FD00084B0CDF800E00291ADF80C2081B24FF64C
:101FE000FF73994210D0ADF8041088B2FFF700F8E3
:101FF000BDF80410ADF8060088B20021FEF7C6FC5B
:10200000BDF80640A1B2EAE70124124B1C70124948
:102010000298FFF7B3FB28B11024104B1C70FF206F
:1020200040B212E0BDF80C400B4B1C19E5232370A5
:1020300009490298FEF74AF928B10524074B1C709C
:10204000FF2040B201E0002040B2DDF800E004B023
:10205000704700BF4C0700204C050020BC04002046
:102060009BB0CDF800E007468DF864108DF868202D
:102070003846FEF723FF28B11224864B1C70FF2040
:1020800040B203E139468448FEF77EFF834B1B884C
:10209000BBB1834B93F900305C01824B1B192026A6
:1020A0001D46814C23782B70761EF6B2641C6D1C85
:1020B000002EF7D10024794B1C80FF2464B2784BAA
:1020C0001C7014AB0D2212B273491846FEF746FF7E
:1020D00009AB19467048FEF7DFFC00284CDA9DF882
:1020E0006840C4F3C013002B40D040F20003ADF8A9
:1020F0005E304FF0000318939DF8683003F05803EA
:10210000DBB22BB10824634B1C70FF2040B2BDE052
:1021100001AB202212B200211846FFF71FFB9DF8E9
:10212000683003F07F038DF80F3001AB0B2212B241
:1021300059491846FEF712FF0DF15E0518AC01ABC8
:102140002A4621461846FFF703F8002802DAFF2046
:1021500040B29BE009AC14AB21461846FEF79CFC4C
:10216000002802DAFF2040B290E005E00D24494B40
:102170001C70FF2040B289E09DF8313003F0580315
:10218000DBB22BB10824434B1C70FF2040B27DE032
:102190000020022824D24401424B1B1919461C334B
:1021A0001B88D3B18B1D1C88BDF84430A34214D1C9
:1021B00001F21C049DF86430238020263A4D0C4621
:1021C000FFE723782B70761EF6B2641C6D1C002E80
:1021D000F7D1334B187040B258E0401C80B2D8E7BA
:1021E0000027022F4DD27C012E4B1B191C331B885C
:1021F000002B42D17C012B4B1B199846202212B296
:1022000000211846FFF7AAFA08F1060508F10C04A8
:10221000BDF84430238023882B8008F11C049DF8EE
:1022200064302380129BC8F8003008F10404BDF824
:102230004C305B01238008F11804109B236008F1E7
:10224000100508F10C031B889C1E184B1B885C436F
:10225000174B1B681B192B602026134D4446B8B240
:10226000FFE723782B70761EF6B2641C6D1C002EDF
:10227000F7D10B4B187040B208E07B1C98B287B2C4
:10228000AFE70924034B1C70FE2040B2DDF800E0EC
:102290001BB07047BC040020BD040020E8040020EF
:1022A000CA040020EC040020CC0400202E050020ED
:1022B0004005002081B0C11C09780A02811C097800
:1022C00051180A02411C097851180A020178511864
:1022D000084601B07047FFFF82B0CDF800E03849F2
:1022E000098829B9072237490A704FF0FF3062E0A8
:1022F000012235490A7035490968884204D93349B1
:102300000A6833490A6001E03149086031490A88A6
:102310002F490968B1FBF2F22F490988B2FBF1F1AC
:1023200088B22E490A882E490A8082B2002A1AD918
:102330002B490988ADF8042088B2FEF759FEBDF894
:102340000420274908804FF6FF71884208D11F49B1
:102350000A681F490A600A221A490A7000202AE006
:10236000521E92B2E2E71B4E3288194D2968B1FB2A
:10237000F2F3194C2288B3FBF2F102FB1131194B35
:102380001980174909888A1E214609884A43164937
:1023900009688A1819460988521814490A60314692
:1023A0000B8829460968B1FBF3F203FB12121049AE
:1023B0000A8029460868DDF800E002B0704700BFD7
:1023C000E8040020BC0400204C070020E4040020A6
:1023D000D40400202C0500202E050020D20400206B
:1023E000D8040020E004002040050020DC04002088
:1023F000E204002086B0CDF800E0ADF814104F4A9A
:1024000013884F4A128853439BB2BDF81420821898
:1024100092B29A4200D98CE0484C2288B0FBF2F28A
:1024200092B20292474A1368029AD2180292224646
:102430001388B0FBF3F203FB120292B25400A4B271
:10244000ADF80C00404A1219049201233F4A137060
:1024500034B93A4A1388BDF814209A4200D308E0F0
:1024600039490298FFF78AF918B11023384A1370D6
:102470005FE0BDF81420521E92B2ADF81420002A7D
:1024800038D0BDF80C20531CADF80C30049A1380E2
:10249000049A931C04932F4A1268934229D1002274
:1024A0008DF804202C4A13789DF804209A4211D20A
:1024B000234A13889DF8042053439BB2029AD218F2
:1024C00021491046FDF702FF9DF80420521C8DF8AB
:1024D0000420E7E7029A521C02921B4A0492174A10
:1024E0001388BDF814209A4203D217490298FFF7C7
:1024F00045F9BEE74FF6FF73049A138000228DF86A
:102500000420154A13789DF804209A4211D20C4AEF
:1025100013889DF8042053439BB2029AD2180A49AB
:102520001046FDF7D3FE9DF80420521C8DF80420C0
:10253000E7E7DDF800E006B0704700BF560700206F
:1025400036050020380500204C0500204C070020EF
:10255000BC040020500700203205002081B0CDF8D7
:1025600000E0FEF74DFBDDF800E001B0704781B000
:10257000CDF800E0FEF780FADDF800E001B070472A
:1025800081B0CDF800E0FEF72BFBDDF800E001B0F4
:102590007047FFFF83B0CDF800E0ADF80400ADF860
:1025A00008102A20134C2468A047BDF80420140A00
:1025B000E0B2114C2468A047BDF804000E4C24681A
:1025C000A0472B200B4C2468A047BDF80820140A14
:1025D000E0B2094C2468A047BDF80800064C246806
:1025E000A0472C20034C2468A047DDF800E003B08E
:1025F000704700BF940700209807002081B0CDF8F5
:1026000000E085B28EB22A20FDF7D6FF2A0AD0B2AA
:10261000FDF7CCFEE8B2FDF7C9FE0320FDF7C6FECC
:102620001F20FDF7C3FE2B20FDF7C6FF320AD0B2F4
:10263000FDF7BCFEF0B2FDF7B9FE0120FDF7B6FED6
:10264000DF20FDF7B3FE2C20FDF7B6FFDDF800E03C
:1026500001B0704781B0CDF800E0FEF7B1FADDF8C7
:1026600000E001B07047FFFF81B0044A116801B17A
:10267000FBE70349086001B0704700BF14031E4226
:1026800000F0004081B0044A116801B1FBE7034942
:10269000086001B0704700BF1403204200000140F1
:1026A00081B0044A116801B1FBE70349086001B039
:1026B000704700BF14031C4200E0004081B0044A90
:1026C000116801B1FBE70349086001B0704700BF22
:1026D0001403184200C0004081B0044A116801B1DF
:1026E000FBE70349086001B0704700BF14031A42BA
:1026F00000D00040004870478038010081B00121BF
:1027000049B204480160044801600448016001B016
:10271000704700BF000618422006184224061842DF
:1027200081B0002149B204480160044801600448B6
:10273000016001B0704700BF000618422006184231
:102740002406184282B0CDF800E01FFA83F9CBB21C
:10275000D5B29DF80870CC4C00EA0404A04620468F
:10276000FEF72EFE3DB908F58066DD43EDB2346814
:102770002C40346006E0012D04D108F580652C68FA
:102780001C432C6009F00104A4B22CB108F5A26529
:102790002C681C432C6006E008F5A266DD43EDB210
:1027A00034682C40346009F00204A4B22CB108F261
:1027B00014552C681C432C6006E008F21456DD43C7
:1027C000EDB234682C40346009F00804A4B22CB196
:1027D00008F20C552C681C432C6006E008F20C56DD
:1027E000DD43EDB234682C40346009F01004A4B22B
:1027F0002CB108F5A0652C681C432C6006E008F598
:10280000A066DD43EDB234682C40346009F020044A
:10281000A4B22CB108F204552C681C432C6006E0CD
:1028200008F20456DD43EDB234682C40346009F000
:102830004004A4B22CB108F5A1652C681C432C609F
:1028400006E008F5A166DD43EDB234682C40346043
:1028500009F08004A4B264B109F04004A4B22CB120
:1028600008F5A3652C681C432C6001E0012007E1FA
:1028700006E008F5A366DD43EDB234682C40346011
:1028800009F48074A4B22CB108F21C552C681C43C6
:102890002C6006E008F21C56DD43EDB234682C4093
:1028A000346009F40074A4B2002C3DD0774CA045EC
:1028B00040F2000500D00125EDB2754CA04540F274
:1028C000000400D00124E4B22540EDB2714CA045D3
:1028D00040F2000400D00124E4B22540EDB26E4C79
:1028E000A04540F2000400D00124E4B22540EDB23E
:1028F0006A4CA04540F2000400D00124E4B2254017
:10290000EDB2674CA04540F2000400D00124E4B2CF
:1029100005EA0404E4B20CB10120B1E008F5A565B4
:102920002C681C432C603CE0584CA04540F200054C
:1029300000D10125EDB2564CA04540F2000400D173
:102940000124E4B22543EDB2524CA04540F200040C
:1029500000D10124E4B22543EDB24F4CA04540F232
:10296000000400D10124E4B22543EDB24B4CA04554
:1029700040F2000400D10124E4B22543EDB2484CFA
:10298000A04540F2000400D10124E4B245EA040469
:10299000E4B234B108F5A566DD43EDB234682C40ED
:1029A000346009F40064A4B22CB108F5A6652C6863
:1029B0001C432C6006E008F5A666DD43EDB23468E2
:1029C0002C40346009F48064A4B22CB108F584650D
:1029D0002C681C432C6006E008F58466DD43EDB2EC
:1029E00034682C4034600FB9002049E00B2F01D926
:1029F000012045E0002100200191DAB2C3B2404637
:102A0000F9B2019F082B12D222FA03F4E4B204F0C7
:102A10000104E4B244B19D002DB24FF00F04AC406C
:102A200047EA04052F46FFE75B1CDBB2EAE700F24A
:102A30002C56FD4334682C403460002600238DF86A
:102A40000420CAB29DF80410082B13D221FA03F413
:102A5000E4B204F00104E4B24CB1D5B29C0024B25B
:102A600005FA04F446EA040425462E46FFE75B1CFB
:102A7000DBB2E9E700F22C552C6834432C600020CF
:102A8000DDF800E002B0704700F0FFFF007000408A
:102A9000004002400050004000B0054000C005402A
:102AA0000090054081B0CDF800E082460AF10801AF
:102AB0000978A9B90AF108010978CCB20AF106012E
:102AC00009888BB20AF104010978CAB2DAF8001059
:102AD0000846D1B2002210B4FFF734FE01B02DE059
:102AE0000AF108010978CCB20AF1060109888BB213
:102AF0000AF104010978CAB2DAF800100846D1B226
:102B00000F2210B4FFF71EFE01B00AF1060109887A
:102B1000B1F5A16F12D10AF108010978CBB20AF11F
:102B2000040109784A08DAF8001008B440F240536A
:102B30000846D1B20F22FFF705FE01B0DDF800E034
:102B400001B0704781B0034A1080034A117001B090
:102B5000704700BF8E0700209C07002083B0CDF88F
:102B600000E0ADF80400ADF808100220174C24680E
:102B7000A047BDF80420140AE0B2154C2468A04711
:102B80000320124C2468A047BDF80400104C2468B0
:102B9000A04706200D4C2468A047BDF80820140A61
:102BA000E0B20B4C2468A0470720084C2468A047DB
:102BB000BDF80800064C2468A0472220034C246876
:102BC000A047DDF800E003B0704700BF9407002085
:102BD0009807002083B0CDF800E0ADF80400ADF810
:102BE00008102A20144C2468A04701AA521C12780D
:102BF000D4B2E0B2114C2468A047BDF804000F4CD9
:102C00002468A0472B200C4C2468A04702AA521C21
:102C10001278D4B2E0B2094C2468A047BDF808008D
:102C2000064C2468A0472C20034C2468A047DDF8FC
:102C300000E003B0704700BF940700209807002011
:102C400081B0CDF800E0FEF70FFAFEF7ADFB0121F1
:102C500049B297480160FEF7A7FBFEF7A5FB0021EC
:102C6000EA20FEF781FB2021EB20FEF77DFB0C2103
:102C7000EC20FEF779FBC421ED20FEF775FB402127
:102C8000E820FEF771FB3821E920FEF76DFB0121FA
:102C9000F120FEF769FB1021F220FEF765FBA3216E
:102CA0002720FEF761FB00214020FEF75DFB00219D
:102CB0004120FEF759FB01214220FEF755FB13216D
:102CC0004320FEF751FB10214420FEF74DFB262147
:102CD0004520FEF749FB08214620FEF745FB512120
:102CE0004720FEF741FB02214820FEF73DFB122161
:102CF0004920FEF739FB18214A20FEF735FB192140
:102D00004B20FEF731FB14214C20FEF72DFB19213F
:102D10005020FEF729FB2F215120FEF725FB2C2107
:102D20005220FEF721FB3E215320FEF71DFB3F21E1
:102D30005420FEF719FB3F215520FEF715FB2E21ED
:102D40005620FEF711FB77215720FEF70DFB0B21D4
:102D50005820FEF709FB06215920FEF705FB072145
:102D60005A20FEF701FB0D215B20FEF7FDFA1D2125
:102D70005C20FEF7F9FACC215D20FEF7F5FA4D480C
:102D800000785A2810D100210420FEF7EDFAEF2137
:102D90000520FEF7E9FA01210820FEF7E5FA3F21B8
:102DA0000920FEF7E1FA0FE001210420FEF7DCFA2A
:102DB0003F210520FEF7D8FA00210820FEF7D4FABB
:102DC000EF210920FEF7D0FA3A4800785A280DD1B1
:102DD00039480078012804D1C8211620FEF7C4FA2A
:102DE00003E008211620FEF7BFFA0CE03248007815
:102DF000012804D1A8211620FEF7B6FA03E06821C5
:102E00001620FEF7B1FA1B211B20FEF7ADFA0121B7
:102E10001A20FEF7A9FA2F212420FEF7A5FA572140
:102E20002520FEF7A1FA8D212320FEF79DFA3621F9
:102E30001820FEF799FA01211920FEF795FA0021D2
:102E40000120FEF791FA88211F20FEF78DFAFEF788
:102E5000B3F880211F20FEF787FAFEF7ADF8902126
:102E60001F20FEF781FAFEF7A7F8D0211F20FEF7FA
:102E70007BFAFEF7A1F805211720FEF775FA00216D
:102E80003620FEF771FA38212820FEF76DFAFEF79A
:102E9000A3F8FEF7A1F8FEF79FF8FEF79DF83C2196
:102EA0002820FEF761FADDF800E001B0704700BFAE
:102EB000947F4E42A6070020AC02002081B0BDF8EE
:102EC0000450BDF80860074C2070074C2180074C67
:102ED0002270074C2370074C2580074C268001B0D8
:102EE000704700BF9D0700209E070020A00700201C
:102EF000A1070020A2070020A407002081B0034AF8
:102F00001080034A118001B0704700BFA80700205D
:102F1000AA07002082B0ADF80400012676B2094964
:102F20000E6001AD691C0978074C217000235BB26B
:102F3000064A13601660297821701360166002B08B
:102F4000704700BF9C7F4C42FCD30340907F4E42B1
:102F500081B0044A116801B1FBE70349086001B080
:102F6000704700BF140326420030014081B0044A7C
:102F7000116801B1FBE70349086001B0704700BF69
:102F8000140324420020014086B0CDF800E00CB2CA
:102F900001B2A14204DD88B221B203B218B200E04E
:102FA00020B2002902DA002109B204E02F4B1B886D
:102FB000994200D355E0002800DA52E02B4B1B88E1
:102FC000984205D3294B1B885B1E18B203B200E060
:102FD00003B2012015B20AB219B2254B1B789842F0
:102FE0003FD8C4B204F001031BB213B9644224B247
:102FF000FFE763101BB21EB2EB181BB2002B06DBFF
:10300000AC1924B21B4B1B889C4200D200E025E087
:1030100097B28F4222D8184B1C88AB198DF8040048
:10302000ADF80810ADF80C20ADF81050ADF81260F6
:10303000ADF81470A2B239B218B2FDF7D1FEBDF8E6
:103040001470BDF91260BDF91050BDF90C20BDF926
:1030500008109DF804007F1CBFB2DAE7401CC0B224
:10306000BBE7DDF800E006B0704700BF8C0700202A
:103070009C0700205E0700208E07002085B0CDF859
:1030800000E0ADF80C1001B2ADF81020BDF90C3025
:10309000994205DD88B2BDF90C10ADF80C00FFE7D0
:1030A000002903DA002109B208B205E03A4B1B8877
:1030B000994200D36CE008B2BDF90C30002B00DA65
:1030C00066E0354B1C88BDF90C30A34204D3324B6B
:1030D0001B885B1EADF80C3001238DF808302F4B98
:1030E0001C789DF80830A34252D89DF8084004F09F
:1030F00001031BB21BB963421CB221B200E021B232
:103100004C1024B221B2BDF910301B191BB2002B98
:1031100008DBBDF910305C1824B2214B1B889C429F
:1031200000D201E002B22CE0002464B21D4B1C600E
:10313000BDF910305C18ADF80400A1B280B21A4C91
:103140002468A047BDF9040086B2B1B2BDF90C30C5
:10315000994211D8154B1C88ADF80400ADF8061043
:10316000A0B2134C2468A047BDF80610BDF90400B6
:103170004B1C9EB2B1B2E9E7012464B2094B1C605A
:1031800002B29DF808305B1C8DF8083010B2A6E73B
:10319000DDF800E005B070475E0700209C070020C6
:1031A0008C070020987F4E42880700208E07002061
:1031B0009007002081B0CDF800E085B2E90AC8B2DE
:1031C000C100CEB2F109C9B2012902D1F11DC8B2C4
:1031D00000E0F0B2FDF7EAF86909C8B28100CEB2AA
:1031E000F109C9B2012902D1F11CC8B200E0F0B264
:1031F000FDF7DCF8E900CDB2E909C9B2012902D135
:10320000E91DC8B200E0E8B2FDF7D0F8DDF800E053
:1032100001B070478BB0CDF800E040F20001ADF88E
:10322000261000218DF82810AF490988884200D265
:1032300056E1AE490988884200D951E1AA49098876
:10324000411A89B28A0092B2A949096808318918DD
:1032500008460421FDF700FEA64803788DF82430C7
:10326000411C0978CAB2811C0978090289B2521836
:10327000C11C0978090489B252189D490968891846
:103280000491DA08D2B29C490988514389B2069167
:103290009DF8241001F00701C9B221B196490A88AE
:1032A0000699891806910699089105AC2246069957
:1032B0000498924C2468A0470446059A04998918FA
:1032C0000491059A0699891A0691002107918C4963
:1032D0000978002940F082808A490988ADF80A10EF
:1032E00000218DF8091084490A889DF8091091423F
:1032F00080F06E8084490988ADF8261000218DF891
:103300000C1000218DF808109DF824209DF808105D
:10331000914252D29DF80C1059BB0799491C079154
:10332000089A059991421AD2059A0799914214D99F
:103330000121079105AC2246069904986F4C246838
:10334000A047044606990891059A049989180491A2
:10335000059A0699891A0691FFE7204600E0204663
:1033600001788DF82810441C01218DF80C1020469E
:1033700000E020469DF80C209DF828101140C9B2AD
:1033800051B16249098801908AB2BDF80A10BDF8AE
:103390002600FDF725FD0198BDF82610491CADF863
:1033A00026109DF80C1049008DF80C109DF808109F
:1033B000491C8DF808100446A6E7BDF80A10491C00
:1033C000ADF80A109DF80910491C8DF809108AE71C
:1033D000BDF826104A1C4C490A8081E04A490988F8
:1033E000ADF80A1000218DF8091043490A889DF8AC
:1033F0000910914280F06F8042490988ADF826108B
:1034000000218DF80C1000218DF808109DF8242063
:103410009DF80810914253D29DF80C1061BB07999A
:10342000491C0791089A059991421AD2059A079961
:10343000914214D90121079105AC224606990498BE
:103440002E4C2468A047044606990891059A0499D1
:1034500089180491059A0699891A0691FFE7204672
:1034600000E0204601788DF82810411C0C4601210F
:103470008DF80C10204600E020469DF80C209DF8A9
:1034800028101140C9B251B12049098801908AB26F
:10349000BDF82610BDF80A00FDF7A2FC0198BDF8A2
:1034A0002610491EADF826109DF80C1049008DF825
:1034B0000C109DF80810491C8DF808100446A5E76B
:1034C000BDF80A10491CADF80A109DF80910491CF6
:1034D0008DF8091089E7BDF826104A1E09490A80AF
:1034E000DDF800E00BB07047B0070020B207002005
:1034F000BC070020C0070020B4070020CC07002034
:10350000B8070020AA070020A8070020B60700205F
:1035100081B0044A116801B1FBE70349086001B0BA
:10352000704700BF140322420010014082B0CDF862
:1035300000E004464149098801F0010189B219B946
:1035400007223F490A7075E03E490A683E4909680A
:10355000914203D30B223A490A706BE03B49098838
:10356000B1F5007F40F04580002238490A80384B91
:1035700019884A1C92B21A80364909888A4223D196
:10358000002233490A8034490988019488B2FDF742
:103590002FFD019C304908804FF6FF71884207D10A
:1035A00028490A6828490A600A2225490A7041E028
:1035B000294909888A1E274909884A4327490968F1
:1035C0008A1827490A6003E0254A1168491C1160DE
:1035D000002224490A7022490968019408462249B8
:1035E000FEF7CCF8019C18B1102215490A7021E0B1
:1035F00012E01C49097879B100221A490A70184969
:103600000968019408461849FEF7B8F8019C18B1FA
:1036100010220B490A700DE00C4B1A8812498918C8
:103620000978217019460988491C1980064A1168D1
:10363000491C1160DDF800E002B07047E80400208A
:10364000BC040020E4040020D4040020E204002094
:10365000E00400202E050020D804002040050020B2
:10366000DC0400204C0700204C05002081B0002124
:103670000148018001B07047AA02002082B0CDF855
:1036800000E00C49098801F0010189B229B9002143
:103690000160072208490A7007E001900020FEF748
:1036A0001BFE0198054909680160DDF800E002B0E1
:1036B000704700BFE8040020BC040020E4040020A0
:1036C00081B0CDF800E00948008800F0060080B223
:1036D00018B907210648017003E006480068FEF7A4
:1036E000FBFDDDF800E001B0704700BFE8040020FA
:1036F000BC040020E404002081B0CDF800E0834643
:10370000214A22490A60224A22490A60224A234960
:103710000A60234A23490A602348FFF7C3F90122BC
:1037200052B222490A6000BF00BF00BFFEF7F8FF97
:10373000FEF7E0FF40F2E83100FB01F210464FEAED
:103740000B11914206D9012252B219490A604FEA7F
:103750005B0204E0002252B215490A605A46C100D9
:10376000B1FBF2F1491C4B089A0912490A6003F0B7
:103770003F0211490A60602210490A60FEF7BEFF4D
:10378000DDF800E001B07047BD260000D007002042
:10379000FFFFFFFFD4070020FFFFFFFFD807002037
:1037A000FFFFFFFFDC0700201077000000C3FC4391
:1037B0001406184224C0004028C000402CC000401D
:1037C00093B0CDF800E00E900F918DF840200F9847
:1037D000FDF774FB20B11224484B1C70002089E0D7
:1037E000474D2C880E9BB3FBF4F3ADF804302B4609
:1037F0001D880E9CB4FBF5F305FB134323B1BDF804
:1038000004305B1CADF80430BDF80400FEF7B6FAD6
:10381000ADF80600022801D200206BE0394C236885
:103820000293394B1B6823600F98FEF7B9FB10B168
:103830000F98FEF74FFB0F993448FDF7A5FB33486F
:10384000FCF7F4FE0DF116031293202212B20021B0
:103850001846FDF783FF0DF116030B2212B22B4918
:103860001846FDF77BFB9DF8403003F07F038DF891
:1038700021300CAC0DF106052B782370641C6B1CF9
:103880001B782370224B1C880E9B634303930DF11E
:10389000320603AD2B783370741C6B1C1B782370BD
:1038A000B41CAB1C1B782370F41CEB1C1B7823701E
:1038B00005AD04AC129B2A4621461846FDF748FC8C
:1038C000002804DA029C0F4B1C60002012E0BDF8B7
:1038D0000410BDF80600FEF78DFD029C094B1C602C
:1038E000BDF806309C1E064B1B885C43094B1B68C9
:1038F0001B191846DDF800E013B07047BC04002027
:103900002E050020440500203C050020BD040020B9
:103910002C0500204005002090B0CDF800E00C9070
:103920000D910E920F93109C10941C4C24881CB97E
:1039300007251B4C25702CE001251A4C25701A4CCC
:1039400024681A492046FDF719FF18B11025144CB8
:1039500025701EE0164C2588144C651901AC2146D3
:103960002846FCF749FD06AE341D2578109C2570CD
:10397000F41C25780F9C2570B41C25780E9C2570AE
:10398000741C25780D9C2570347804F2BC750C9C51
:103990002580DDF800E010B0704700BFE80400208B
:1039A000BC0400204C070020CC0400204C05002063
:1039B000D004002081B00A46C1B20020144603287A
:1039C00005D2231820221A70401CC0B2F7E7231832
:1039D00000221A70401EC0B225462C180A23B1FBE3
:1039E000F3F203FB1212D2B2303222700A22B1FB80
:1039F000F2F2D2B2D1B202B902E0401EC0B2ECE79C
:103A000001B0704781B0CDF800E00E4600210346BA
:103A1000002804DA0121404200468FB201E0184636
:103A20008FB23146FEF730FA0B213446B8B2002986
:103A300008D963184A1E92B2A21812781A70491E49
:103A400089B2F4E72022227070B1002081B22046B2
:103A500042181278202A02D1491C89B2F8E74A1E7E
:103A600092B283182D221A70DDF800E001B0704781
:103A700081B00648008828B90721054801704FF039
:103A8000FF3001E00348006801B07047E8040020FF
:103A9000BC040020E404002081B01CF8019B0BF85A
:103AA000019BBBEB0A0FF8D101B0704781B0CDF894
:103AB00000E01848008820B907211748017001204C
:103AC00024E0002113480180144890F900004101CE
:103AD00013484018202302461249087810705B1ED4
:103AE000DBB2491C521C002BF7D1FF2149B20B4815
:103AF00001700D4802880B4801680C480088FEF7E9
:103B000067FA002801DA022000E00020DDF800E07A
:103B100001B07047E8040020BC040020CA04002063
:103B2000EC040020CC040020D0040020D2040020AB
:103B300081B00A4681B200201546052805D22B180F
:103B400020221A70401CC0B2F7E72B1800221A700E
:103B5000401EC0B22C180A23B1FBF3F203FB121271
:103B600092B2303222700A22B1FBF2F292B291B2DA
:103B700002B902E0401EC0B2ECE701B07047FFFF9F
:103B800090B0CDF800E00C900D910E920F93109C28
:103B900010941C4C24881CB907251B4C25702DE063
:103BA00001251A4C25701A4C24681A492046FDF745
:103BB000E5FD18B11025144C25701FE0164C258822
:103BC000144C651901AC21462846FCF715FC0DF193
:103BD0001206341D2578109C2570F41C25780F9C46
:103BE0002570B41C25780E9C2570741C25780D9CBE
:103BF0002570347804F2BC750C9C2580DDF800E05B
:103C000010B07047E8040020BC0400204C070020DE
:103C1000CC0400204C050020D004002084B0CDF856
:103C200000E00290ADF80C10974A128802F00602EC
:103C300092B21AB90723954A137020E1BDF80C20FF
:103C400002B91CE10123924A1370924A1288B2F51C
:103C5000007F14D08F4A128832B98F4A1388BDF87A
:103C60000C209A4200D30AE08C4A12688C49104614
:103C7000FDF784FD18B11023844A1370FFE0002281
:103C8000ADF80420BDF80C30BDF804209A4280F055
:103C90009280804A1288B2F5007F40F07880BDF8AB
:103CA000042082B17D4A12687D491046FCF70EFB64
:103CB00048B1BDF804407B4B1A6812191A600523FD
:103CC000724A1370DBE00023724A1380734B1A6848
:103CD000521C1A60744C2288531C9BB22380734A76
:103CE0001288934239D1724A128890B2FDF780F956
:103CF000ADF806004FF6FF7290421CD1FCF7D4FDE0
:103D0000ADF806004FF6FF72904207D1694A13687A
:103D1000644A13600A235D4A1370B0E0644A128853
:103D2000BDF8061090B2FCF731FE4FF6FF71BDF8FA
:103D30000600FCF72BFEBDF806205D4C2280002318
:103D4000594A138022461288931E584A12885343B8
:103D5000594A1268D318514A1360BDF80430BDF8AF
:103D60000C20D21A92B2B2F5007F10D24B4A1268E0
:103D70004B491046FDF702FD48B1BDF80440494BE0
:103D80001A6812191A601023404A137077E0414DE7
:103D90002B88434AD418BDF80430029AD2181278FE
:103DA00022702A461288521C2A80BDF80420521C18
:103DB000ADF8042066E7374A128852B1374A1268D4
:103DC00037491046FCF782FA18B105232F4A1370C1
:103DD00055E0BDF80C30334C2268D3182360354AC7
:103DE0001268934203D92F4A1368324A1360334A48
:103DF00012682B491046FDF7C1FC18B11023234A65
:103E000013703CE02E4A1388254AD218104602F25D
:103E10001C03284A12781A7000F21C02531C294A0B
:103E200012781A7000F21C02931C274A12781A703A
:103E300000F21C02D31C254A12781A7000F21603F5
:103E4000234A12781A7000F21602531C214A127883
:103E50001A7000F21803204A12781A7000F2180241
:103E6000531C1E4A12781A70144A12680C491046E4
:103E7000FCF72CFA18B10523044A1370FFE7DDF8AC
:103E800000E004B0704700BFE8040020BC0400203C
:103E90004C070020E20400202C050020DC04002058
:103EA0004C050020D4040020E00400202E05002052
:103EB000D8040020E404002040050020CC040020A9
:103EC000D0040020E5040020E6040020E7040020E0
:103ED00054070020550700204A0500204B0500200C
:103EE00088B0CDF800E0ADF81800ADF81C101DB298
:103EF00013B2A9B298B2FFF701F8BDF918409C427D
:103F000007D1BDF9182029B2BDF91C00FFF73CF814
:103F100029E1BDF91C40AC4207D1BDF91C2019B202
:103F2000BDF91800FFF7AAF81DE10024ADF8104014
:103F3000BDF918401C1B24B2ADF80640002C0ADA6B
:103F4000BDF906406442ADF80640BDF81040641E5D
:103F5000ADF8104004E0BDF81040641CADF810400E
:103F60000024ADF81240BDF91C402C1B24B2ADF862
:103F70000840002C0ADABDF908406442ADF8084058
:103F8000BDF81240641EADF8124004E0BDF81240C6
:103F9000641CADF812400024ADF81440BDF908507F
:103FA000BDF90640AC4245DABDF81440641CADF8DA
:103FB0001440BDF90600BDF90840ADF80640ADF863
:103FC0000800BDF91800BDF91C40ADF81840ADF867
:103FD0001C00BDF81000BDF81240ADF81040ADF85F
:103FE000120040F2010A5FFA8AF0614C2478A04284
:103FF0001FD8C1B201F0010424B214B9494209B278
:10400000FFE74E1036B25B4C2588BDF91C40A41961
:104010008DF80400AAB2BDF9181020B2FCF7E0FE3A
:104020009DF8040000F1010A5FFA8AFA5FFA8AF04B
:10403000DBE726E040F2010A5FFA8AF04C4C247874
:10404000A0421ED8C1B201F0010424B214B9494201
:1040500009B2FFE74E1036B2464C2588BDF91C4028
:10406000A4198DF80400AAB221B2BDF91800FCF71A
:10407000B7FE9DF80400441C5FFA84FA5FFA8AF0E8
:10408000DCE7BDF906406400ADF80E40BDF908401C
:1040900065002DB2ADF80C50BDF906402C1BADF8F3
:1040A0000A40BDF90640641E24B2ADF80640002C5B
:1040B00059DBBDF90A40002C0DDBBDF81250BDF9EB
:1040C0001C406419ADF81C40BDF90E50BDF90A4002
:1040D000641BADF80A40BDF81050BDF918406419D2
:1040E000ADF81840BDF90C50BDF90A406419ADF89F
:1040F0000A4001201E4C2478A04233D8C5B205F0F6
:10410000010424B21CB96C4225B229B200E029B2E4
:10411000491009B2BDF814407CB1164C2588BDF990
:104120001C4064188DF80400AAB2BDF9181020B222
:10413000FCF756FE9DF804000EE00E4C2588BDF9F4
:104140001C4064188DF80400AAB221B2BDF9180011
:10415000FCF746FE9DF80400441C5FFA84F85FFA01
:1041600088F0C7E79DE7DDF800E008B0704700BFC2
:104170009C0700208E07002081B0CDF800E00121CF
:104180002B48017040F2002212B200212948FDF7AD
:10419000E5FA0026022E0AD2710127484018202293
:1041A00012B20021FDF7DAFA761CF6B2F2E720220D
:1041B00012B200212148FDF7D1FA0026042E0AD2BE
:1041C000F1001F484018082212B20021FDF7C6FA7C
:1041D000761CF6B2F2E7182212B200211948FDF758
:1041E000BDFA1349184801600021184801700021E8
:1041F000174801600021174801700021164801800E
:10420000002116480160FF2149B2154801700D22B6
:1042100012B200211348FDF7A1FA002112480180D3
:10422000002112480180DDF800E001B0704700BFB6
:104230004C0700204C050020EC040020CC0400209A
:10424000600700202C05002050070020CB04002030
:1042500044050020BC0400205C0700205807002013
:10426000CA040020BD040020540700204A05002095
:1042700084B0CDF800E0ADF80C00002252B2124933
:104280000A6000210020114C2468A04710490A88C8
:10429000104909885143029100210191029A019924
:1042A000914208D2BDF80C000B4C2468A04701993C
:1042B000491C0191F2E7012252B203490A60DDF87C
:1042C00000E004B0704700BF987F4E42880700208E
:1042D0005E0700208C0700209007002083B0CDF8F7
:1042E00000E001215948017059490020FDF746FAC4
:1042F00020B1102157480170FF20A2E0544901F578
:10430000FF700078552801D001209AE001F2FF10DB
:104310000078AA2801D0012093E000220878E9283B
:1043200002D10120C2B2FFE70878EB2805D1881C32
:104330000078902803D1012000E0D0B200E0D0B294
:10434000002848D0444A80201070111D00200860C9
:104350000192FDF773FC019A002801DA012070E058
:104360003E480088002830D03D4801783D4800781C
:104370000843C0B248B13A48007801023948007891
:104380000B18511C0420087004E037480368511CC6
:104390000620087035480068191A35480088B1FBB6
:1043A000F0F10B4640F6F570814204D2511C012019
:1043B0000870012045E04FF6F570834204D9511C86
:1043C0000B20087001203CE004E0511C0B20087019
:1043D000012036E034E0274C0023042B16D2D9000C
:1043E0001D4841180A4620780870201D0446511CBB
:1043F00000780870211D0C46101D02900846FDF73C
:1044000059FF029908605B1C9BB2E6E71A480078E6
:10441000C10011484018401C007804280AD01648F2
:104420000078C1000C484018401C0078062801D0D4
:10443000012006E0FDF702FC002801DA012000E07F
:104440000020DDF800E003B0704700BF4C070020FB
:104450004C050020BC040020600700203605002029
:10446000600500205F0500206C050020400500204D
:104470002E0500200A070020CB04002084B0CDF8D0
:1044800000E0CCB201461D4A92F900208DF80C20C4
:104490001B4A12788DF80D208DF804400291E2B28B
:1044A00008460721FDF7DCFD02999DF8044043B260
:1044B00000281DDA6FF00102934217D19DF80D30EC
:1044C0000F4A13709DF90C2053010E4AD21802F2C4
:1044D0001C0300221A80E2B208460721FDF7C0FD46
:1044E000002801DA002004E0022002E0002000E0C1
:1044F0000120DDF800E004B0704700BFCA040020CE
:10450000BC040020EC04002081B0D5B282B2CEB24F
:104510009DF804109DF8080040F2BC74A24203D339
:10452000A2F2BC7292B2FFE702F07F0292B206F0F2
:104530000F04E4B2E6B20C2C02D90C24E7B200E07E
:10454000F7B2012F01D20127FFE71F2D03D91F2446
:104550005FFA84F801E05FFA85F8B8F1010F02D242
:1045600040F20108FFE7172B01D90023FFE73B29A1
:1045700001D90021FFE73B2801D90020FFE75602BF
:10458000B6B20F4D2E80FCB26401A4B246EA040418
:10459000A4B22C8044EA08042C80DCB2E502ADB25F
:1045A000084E3580CCB26401A4B22543ADB235804B
:1045B0004408E4B245EA0404348001B0704700BF07
:1045C0004A0500205407002081B0CDF800E00246E3
:1045D00000241078134640B1FEF770F8611CC9B290
:1045E000CCB259180978C8B2F5E7DDF800E001B09F
:1045F0007047FFFF81B0CDF800E00848008800F068
:10460000060080B218B907210548017002E00020B9
:10461000FDF762FEDDF800E001B07047E80400201D
:10462000BC04002083B0CDF800E002901C4B1B8836
:10463000994200D32FE01B4B1B889A4200D32AE0FB
:104640000020ADF8040088B291B2FEF757FCBDF827
:104650000400029B1B181B78EBB1134B1B7863B152
:10466000029B1B181B78ADF8040098B2FEF7D2FD30
:10467000BDF80400411C89B20BE0029B1B181B789B
:10468000ADF8040098B2FDF7A5F9BDF80400411C8F
:1046900089B288B2DDE7DDF800E003B0704700BF03
:1046A0005E0700208C070020A707002082B0CDF80D
:1046B00000E005213D48017046F20040C4F20200CE
:1046C0004FF001014FEA010140F240130122C9B24B
:1046D000FCF7DEF8FDF79EFA00210A290AD2ADF8B0
:1046E0000410FF20324C2468A047BDF80410481C79
:1046F00081B2F2E7FDF71AF9952200210020FDF7BB
:104700001FF9ADF80600FDF785FABDF8060001288F
:1047100001D0012046E0FDF709F9872240F2AA11F5
:104720000820FDF70DF9ADF80600FF20204C2468A5
:10473000A047FF201E4C2468A047FF201C4C246883
:10474000A047FF201A4C2468A047FDF763FABDF884
:104750000600012807D00120FDF758F810B100200D
:10476000FDF754F802E00220FDF750F80F480078FA
:10477000052801D1022015E00C480078042810D04B
:10478000FDF7D4F8FF2240F200211020FDF7D8F801
:10479000ADF80600FDF73EFABDF8060008B10320AB
:1047A00000E00020DDF800E002B07047A402002025
:1047B000B804002081B0CDF800E01D4A1288012A1B
:1047C00008D01C4B1C4A13601C4B1D4A13601D4B28
:1047D0001D4A13601D4A10801D4A1180884203D96A
:1047E00000231C4A137002E05A231A4A1370012155
:1047F00040F20000FEF7A6F90023002208B404B43A
:104800000023002200210020FEF758FB02B0002107
:104810000020FEF773FB00230F4A1370FEF710FA17
:104820000E4B0F4A1360DDF800E001B0704700BF87
:10483000AA02002091050000940700200506000050
:1048400098070020152F0000900700205E07002029
:104850008C070020A6070020A70700205D2B000082
:104860008807002081B0124B1860831C1C78C31C81
:104870001B781B029BB2E4180E4B1C80031D1C7896
:10488000431D1B781B029BB2E4180B4B1C80831D3D
:104890001C780A4B1C800A4B19800A4B1A700124A1
:1048A000094B1C700024094B1C7001B0704700BFFD
:1048B000AC070020B0070020B2070020B40700209A
:1048C000B6070020B8070020AD020020A70700208F
:1048D00081B0CDF800E0002204B440F24013012280
:1048E000FDF730FF01B0DDF800E001B0704781B0A6
:1048F0004FF000094BF8049BBBEB0A0FFAD101B053
:104900007047FFFF89B0CDF800E007901846ADF87A
:1049100020200DF1100B0BF10B0ADFF818C1FFF787
:10492000BBF8ADF80410FEF7BDF8BDF80410012582
:104930006DB2414C2560414C206800256DB2404C61
:104940002560404C2160BDF820503F4C25603F4D14
:104950003F4C25603F4D404C2560FDF7CBFE40F2BB
:10496000E83400FB04F5079CB5FBF4F4029429B984
:10497000029C022C01DA0224029404E0029C0C2C1A
:1049800001DA0C240294022109B2B1F1FF0F3BDAE3
:10499000002212B210B2B0F5807F2DDA0DB2441CA5
:1049A00024B26543029C641B0394002C04DA039D2B
:1049B0004FF0FF346C43039410B9039C059404E05A
:1049C000039D059CAC4200DA16E0039D049CAC42BA
:1049D00002DC039C04B105E0039C04948DF81810DC
:1049E0008DF81900049C1CB901248DF81A4003E0CD
:1049F000441C22B210B2CEE79DF81A40012C00D11F
:104A000002E0891C09B2C0E79DF81850134C2560DC
:104A10009DF8194025022DB20B4C246844EA050587
:104A2000094C256001256DB2054C2560DDF800E0DC
:104A300009B070472877000080C3FC4308E10F40AD
:104A4000840010420480004000800040E10B000020
:104A5000B80400208125000080070020108000405D
:104A600081B0CDF800E008211648FFF731FF0020A3
:104A700001B440F20013012201211348FDF762FE48
:104A800001B008210F48FFF723FFFEF7EFFD4FF4B9
:104A9000E130FEF731FEF02140F24010FFF78AFED0
:104AA00043F2FF57C0F26E177F1EFDD100BF00BF5B
:104AB00000BF00BF012149B204480160DDF800E0F9
:104AC00001B0704700400040FC6302408C7F084208
:104AD00082B0CDF800E00021B1F5007F05D21A4880
:104AE00040180170491C89B2F6E718482022014697
:104AF00041F28830FEF764FE15490860F8B11549A7
:104B0000134C2068FEF77EFF124800F03DFA0022A9
:104B100041F28830824212D20D480068ADF804207C
:104B20000949FBF7D3FB0A490868401C08602E209E
:104B3000FDF7C4FDBDF80420521C92B2E8E7DDF891
:104B400000E002B0704700BFB80200207A010020E8
:104B5000B00200208501002081B0CDF800E04221A4
:104B600044480170434800785A2800F27F80414849
:104B70000078FDF7A3FD3F4801783F480170002110
:104B8000002002B401B409231322042140F2DA7098
:104B9000FFF7BAFC02B0A0213848FFF76FFCFFF71F
:104BA00029FD012136480170354800782C284DD860
:104BB000334A11780A20B1FBF0F0C0B200F23001A4
:104BC00030480170104602780A21B2FBF1F001FB77
:104BD0001020C0B200F230012B4801702B489B22FC
:104BE0006421FFF71FFD4AF67F17C0F2030700BFDD
:104BF00000BF7F1EFDD100BF00BF00224FF6FF7136
:104C00002348FFF72FFE23489B226421FFF70AFD6C
:104C10004AF67F17C0F203077F1EFDD100BF00BF19
:104C200000BF00BF002240F200011948FFF71AFE42
:104C300019489B226421FFF7F5FC2A211148FEF751
:104C4000EDFF0F490878401C0870ADE700224FF6D1
:104C5000FF710F48FFF706FE10489B226421FFF703
:104C6000E1FC04490878401C08707BE7DDF800E0AF
:104C700001B07047AF0200200700002000000020B4
:104C8000AE02002091000020920000203802002097
:104C90003E650000530200206E02002089020020C1
:104CA00081B0CDF800E0432135480170002135483E
:104CB000FFF7E4FBFFF79EFC012133480170324807
:104CC000007837284DD8304A11780A20B1FBF0F02F
:104CD000C0B200F230012D480170104602780A215E
:104CE000B2FBF1F001FB1020C0B200F23001284805
:104CF00001702A212548FEF791FF26489B22642156
:104D0000FFF790FC4AF67F17C0F2030700BF00BF11
:104D10007F1EFDD100BF00BF002240F200011E48EF
:104D2000FFF7A0FD1D489B226421FFF77BFC4AF69C
:104D30007F17C0F2030700BF00BF7F1EFDD100BF79
:104D400000BF00224FF6FF711348FFF78BFD144898
:104D50009B226421FFF766FC0B490878401C087011
:104D6000ADE700224FF6FF710B48FFF77BFD0D48C2
:104D70009B226421FFF756FCDDF800E001B070478C
:104D80000700002000000020AE020020910000205B
:104D900092000020D10000203E650000E6000020C7
:104DA000FB0000201001002081B0CDF800E04FF69C
:104DB000FF70FFF75DFA012140F20000FDF7C2FE2F
:104DC000DC231BB240F22C1212B2DC2109B21420F7
:104DD00000B2FFF785F82E231BB240F22C1212B25C
:104DE0002E2109B2142000B2FFF77AF800224FF604
:104DF00000011448FFF736FD13480E224B21FFF740
:104E000011FC002240F200011048FFF72BFD104872
:104E1000DF221321FFF706FC00224FF600010B48AA
:104E2000FFF720FD0B48DF22C821FFF7FBFB002224
:104E300040F200010848FFF715FDDDF800E001B081
:104E4000704700BF305500003C010020B66D0000E7
:104E50004F0100206B0100203E650000FFFFFFFFB7
:104E600081B0CDF800E041213D48017000210020D3
:104E700002B401B409231322042140F2DA70FFF7CF
:104E800043FB02B0A0213748FFF7F8FAFFF7B2FB67
:104E900001213548017034480078632850D82E200D
:104EA000FDF70CFC31489B226421FFF7BBFB4AF65F
:104EB0007F17C0F2030700BF00BF7F1EFDD100BFF8
:104EC00000BF00224FF6FF712948FFF7CBFC2948AD
:104ED0009B226421FFF7A6FB4AF67F17C0F2030767
:104EE0007F1EFDD100BF00BF00BF00BF002240F207
:104EF00000011F48FFF7B6FC1F489B226421FFF703
:104F000091FB194A11780A20B1FBF0F0C0B200F20F
:104F100030011A480170104602780A21B2FBF1F004
:104F200001FB1020C0B200F23001154801702A21A7
:104F30001248FEF773FE0C490878401C0870AAE777
:104F400000224FF6FF710A48FFF78CFC0D489B22A8
:104F50006421FFF767FBDDF800E001B0704700BF98
:104F60000700002000000020AE02002052000020B8
:104F70003E650000670000207C00002091000020BA
:104F800092000020BC00002081B0CDF800E0FFF7C7
:104F90001BFB0D20FDF792FB0A20FDF78FFBDDF8D0
:104FA00000E001B0704782B0CDF800E000228DF83B
:104FB0000420FFF77BFB9DF80420521CD2B2C0B244
:104FC00010B1322A00D2F2E7322A01D3FF2003E0E7
:104FD000FFF7D2F8FFF782F9DDF800E002B0704782
:104FE00086B0CDF800E042215A48017000215A48AD
:104FF000FFF744FA002800F098800DF1090402AB95
:105000000DF107020DF1060101A810B4FEF7B8FD7D
:1050100001B05248FFF7D8FA0DF10A000146BDF879
:105020000400FEF785FD0DF10A00FFF7CDFA0DF142
:105030000A0001469DF80600FEF7BCFC0DF10A00CF
:10504000FFF7C2FA0DF10A0001469DF80700FEF7CE
:105050006FFD0DF10A00FFF7B7FA0DF10A000146E6
:105060009DF80800FEF764FD0DF10A00FFF7ACFAA9
:105070000DF10A0001469DF80900FEF759FD0DF1FA
:105080000A00FFF7A1FA0DF1090402AB0DF10702C6
:105090000DF1060101A810B4FEF73EFC01B0304846
:1050A000FFF792FA0DF10A000146BDF80400FEF781
:1050B0003FFD0DF10A00FFF787FA0DF10A000146E6
:1050C0009DF80600FEF776FC0DF10A00FFF77CFA6A
:1050D0000DF10A0001469DF80700FEF729FD0DF1CC
:1050E0000A00FFF771FA0DF10A0001469DF8080069
:1050F000FEF71EFD0DF10A00FFF766FA0DF10A003A
:1051000001469DF80900FEF713FD0DF10A00FFF7B7
:105110005BFAFEF7ADFC0DF10A010046FEF772FCEA
:105120000DF10A00FFF730FF0FE05520FDF7C6FA3A
:1051300043F2FF57C0F26E177F1EFDD100BF00BFC4
:1051400000BF00BF5520FDF7B9FADDF800E006B05A
:10515000704700BF0700002000000020250100204C
:105160003001002081B0CDF800E0462105480170F3
:1051700000210548FFF782F9FEF798FCDDF800E012
:1051800001B070470700002000000020FFFFFFFF74
:1051900081B0CDF800E042211D48017000211D487A
:1051A000FFF76CF90021142002B401B40923132283
:1051B000042140F2DA70FFF7A7F902B0FEF780FA97
:1051C00015481B21FEF72AFD002240F2000113487A
:1051D000FFF748FB12489B226421FFF723FA4AF6A7
:1051E0007F17C0F2030700BF00BF7F1EFDD100BFC5
:1051F00000BF00224FF6FF710848FFF733FB094854
:105200009B226421FFF70EFADDF800E001B0704741
:1052100007000020000000200E0000203E65000076
:105220002A0000203E00002082B0CDF800E042219C
:105230001048017000211048FFF720F90F48FEF7D1
:105240001DFA01210E4801600C4801680C480068F5
:1052500088420BD801A8FEF769F99DF80400FDF714
:105260002DFA07490868401C0860EDE7DDF800E00A
:1052700002B070470700002000000020B0020020AC
:10528000B402002081B0FEE701B0704781B04EF655
:105290008850CEF20000016841F47001016000BF47
:1052A00000BF00BF00BFF1EE100A40F44000E1EE85
:1052B000100A01B07047FFFF81B0012676B2264A7E
:1052C0001660264A1660264A166000256DB2254CE7
:1052D0002560254A13686FF470721340224A1360E8
:1052E00000F00F029301204A126842EA03031E4AAB
:1052F00013601E4A13686FF0700213401B4A13605C
:105300001B4A1560194A13686FF0FC521340174A84
:10531000136001F03F02D305144A126842EA030306
:10532000124A13602660134B1A6802B9FBE7012387
:105330005BB2094A1360104A126832B90B4A13680B
:105340006FF480421340094A136000235BB2034AA2
:10535000136001B0704700BF180BFC432C0EFC43D8
:105360007C0EFC43580CFC4360E00F4070E00F40A3
:10537000340EFC43180AFC4384070020FFFFFFFFA4
:1053800000F096F802210E20FFF796FFFFF77EFF50
:1053900002F010FA02F0CEF9FFF762FBFFF704FD0E
:1053A0004AF67F17C0F203077F1EFDD100BF00BF82
:1053B00000BF00BF2F4837225A21FFF733F92E488C
:1053C0004B225A21FFF72EF92C4B40F2070240F2F4
:1053D00000012B48FFF796FA012149B229480160E4
:1053E000FFF7E1FD00283CD1274869225A21FFF749
:1053F00019F9224B40F2070240F200012348FFF75F
:1054000081FA012149B21F480160214887225A21AF
:10541000FFF708F91F48FFF7B7FD1F48CD225A21B3
:10542000FFF700F9FFF71CFDFFF796FBFFF738FCCD
:10543000FFF7AEFEFFF7F8FEFFF794FEFFF7D0FD93
:10544000FFF746FB1548FFF79FFD002240F20001E1
:105450001348FFF707FA1348A5225A21FFF7E2F88D
:1054600007E0114869225A21FFF7DCF80F48FFF7DF
:105470008BFDFEE799010020AE0100201C770000A3
:1054800040420F008C7F0842C201002000093D000D
:10549000DA010020E8010020F401002011020020C0
:1054A0003E6500001B020020240200208501002030
:1054B00081B01A4A1A4B01211A4801601A48006843
:1054C00000F4804030B103F480411648016043F499
:1054D0008043FFE702F0010068B9144801686FF0EB
:1054E000010001401148016040F6D507C0F20207F3
:1054F0007F1EFDD100BF6FF0020002EA00010B48E1
:1055000001600948036040F21007C0F200077F1EE7
:10551000FDD100BF0548026001B07047903BC0015B
:10552000002800C18407002070E00F4060E00F40B9
:10553000000020007F00160001880100059E010088
:1055400006B401000ECA01000EF60100112202008D
:105550000F6402000390020006A6020006BC0200CF
:1055600009D202000EFE0200032A030006400300D7
:1055700003560300086C03000E82030004AE030010
:105580000CC403000BF003000F1C04000C480400C3
:105590000E7404000CA004000DCC04000DF80400EF
:1055A00003240500033A05000D5005000D7C05009D
:1055B0000DA805000DD40500120006000F420600DC
:1055C0000D6E06000C9A06000EC606000CF20600D0
:1055D0000C1E07000E4A07000C76070004A2070005
:1055E00009B807000DE407000A100800103C080085
:1055F0000D6808000F9408000DC0080010EC0800AA
:105600000E1809000E4409000B7009000D9C0900DA
:105610000EC8090015F409000D360A000C620A00D4
:105620000D8E0A0006BA0A0008D00A0005E60A0034
:105630000FFC0A000A280B0007540B000B6A0B0032
:105640000B960B000AC20B000BEE0B000A1A0C00A3
:1056500008460C000B5C0C000A880C0004B40C001B
:1056600004CA0C000BE00C00040C0D000E220D000F
:105670000A4E0D000C7A0D000BA60D000BD20D008A
:1056800008FE0D000B140E0008400E000A560E0016
:105690000B820E0011AE0E000AF00E000A1C0F0065
:1056A0000A480F0008740F00068A0F0007A00F00B9
:1056B0000DB60F000BE20F0000000000000000001C
:1056C00000000000000000000000000000000000DA
:1056D00000001C1C1C1C1C1C1C1C1C1C1C001C1C5E
:1056E00000000000000000000036363636360000AC
:1056F00000000000000000000000000000000000AA
:105700000000C01CC00C600C600EFC3FFC1F32038C
:105710003003FE1FFF0F98018C01CC00CE0000006B
:105720000000000000000000000000008000F81FE2
:10573000FC1F9E008E008E009E00FC0FF81F80381C
:1057400080388038803CFC1FFC0F80000000000087
:1057500000000000000000000000000000003E0803
:10576000007F0C006304006306006302007F0300F7
:105770003E010080F90080FD01808C01C08C014059
:105780008C0160FC0120F800000000000000000017
:10579000000000000000000000000000F803FC030F
:1057A0001E000E000E001E007C7E7C7E1E1C0E1C49
:1057B0000E0E1E0FFC07F8010000000000000000A4
:1057C00000000000000606060606000000000000BB
:1057D0000000000000000000000038180C0C0C064F
:1057E00006060606060C0C0C183800000000000027
:1057F0000E0C1818183030303030301818180C0EC5
:10580000000000000000000000003000B400FE01B5
:105810007800FE01B400300000000000000000002D
:105820000000000000000000000000000000000078
:1058300000000000000000000000800180018001E5
:1058400080018001FC3FFC3F8001800180018001DC
:1058500080010000000000000000000000000000C7
:105860000000000000000000000006060402000026
:105870000000000000000000000000003F3F0000AA
:105880000000000000000000000000000000000018
:1058900000000000000006060000000000000000FC
:1058A000C04040602030101808080C0406020203B3
:1058B00000000000000000000000F003FC0F1E1EAE
:1058C0000E1C0738073807380738073807380E1C0A
:1058D0001E1EFC0FF003000000000000000000008E
:1058E00000000E0E0E0E0E0E0E0E0E0E0E0E0E0EF4
:1058F000000000000000000000000000FF03FF07A0
:10590000000E000E000E000EFC07FE030F00070045
:1059100007000700FF0FFF0F00000000000000005D
:105920000000000000000000FF01FF0380070007E7
:1059300000078007FE03FE038007000700078007BB
:10594000FF03FF0100000000000000000000000055
:1059500000000000001E001F801FC01FE01DF01C83
:10596000781C3C1C1E1CFE7FFE7F001C001C001CC3
:105970000000000000000000000000000000000027
:10598000FF07FF070700070007000700FF03FF07E7
:10599000000E000E000E000EFF07FF0300000000C7
:1059A000000000000000000000000000E01FF81FE1
:1059B0003C001C000E000E00FE0FFE1F0E380E38BD
:1059C0001C383C3CF81FE00700000000000000000D
:1059D0000000000000000000FF0FFF0F000F000795
:1059E0008003C003C001E000F000780038003C00F4
:1059F0001E000F000000000000000000000000007A
:105A000000000000FC07FE0F0F1E071C071C0F1EE6
:105A1000FE0FFE0F0F1E071C071C0F1EFE0FFC07BC
:105A20000000000000000000000000000000000076
:105A3000F801FE070F0F070E071C071CFE1FFC1FB7
:105A4000001C001C000E000FFE07FE0100000000FD
:105A50000000000000000000000000000000000640
:105A60000600000006060000000000000000000024
:105A70000000000000060600000006060402000008
:105A80000000000000000000000000000000001006
:105A9000001E800FE0037C001C007C00E003800FF0
:105AA000001E0010000000000000000000000000C8
:105AB0000000000000000000000000000000FC1FCB
:105AC000FC1F00000000FC1FFC1F00000000000085
:105AD00000000000000000000000000000000000C6
:105AE00000000000000004003C00F800E003001F7C
:105AF000001C001FE003F8003C0004000000000050
:105B0000000000000000000000000000FE07FE0F83
:105B1000001C001C001C001CF80FFC071E000E00DF
:105B20000E0000000E000E0000000000000000004B
:105B3000000000000000000000000000801F00E0E6
:105B40007F0070E0003880019CB703CC1703C618B3
:105B500003661803661803668C0166CC01E6FB0039
:105B6000CC79001C000078E000F03F00C00F00007E
:105B700000000000000000000000E001E003E0037E
:105B8000F00330073807380E180EFC1FFC1F0E1CE0
:105B90000E38063807780000000000000000000002
:105BA000000000000000FE07FE0F0E1C0E1C0E1C65
:105BB0000E1CFE0FFE0F0E1C0E1C0E1C0E1CFE0FEC
:105BC000FE070000000000000000000000000000D0
:105BD0000000F00FF80F1C001C000E000E000E005D
:105BE0000E000E000E000C001C00F80FF00F00005D
:105BF0000000000000000000000000000000FE07A0
:105C0000FE0F0E1C0E1C0E380E380E380E380E38D5
:105C10000E380E1C0E1CFE0FFE07000000000000D8
:105C200000000000000000000000F00FF80F1C0052
:105C30001C000E000E00FE0FFE0F0E000E000C00EA
:105C40001C00F80FF00F0000000000000000000032
:105C5000000000000000F00FFC0F1C000E000E0002
:105C60000E00FE0FFE0F0E000E000E000E000E00C6
:105C70000E00000000000000000000000000000016
:105C80000000F03FF83F3C001C000E000E008E3F6D
:105C90008E3F0E380E381C383C38F83FF03F00007D
:105CA00000000000000000000000000000000E0ED8
:105CB0000E0E0E0E0E0E0E0E0E0EFE0FFE0F0E0E22
:105CC0000E0E0E0E0E0E0E0E0E0E00000000000048
:105CD0000000000000000E0E0E0E0E0E0E0E0E0E38
:105CE0000E0E0E0E0000000000000000000000007C
