:10000000C0EF04F00000000000EF00F0000000006E
:100010000000000000000000F3D7FFFF15C3C9FF78
:10002000016A0150000A05E1000EC7B0010E016E21
:10003000F8D7C9CF00F0120015C36AFF016A01505A
:10004000000A05E1000E68B0010E016EF8D76ACF14
:1000500000F01200F250026EF29E0500FF6A01509D
:10006000FE6E0050FD6E02BEF28E1200ACB202D0E7
:100070000000FCD70CC3ADFF1200400E03010C259D
:10008000006EE1C2E1FFE2C2E2FF00C0E6FFDFC2B4
:1000900000F0E0C201F0DEDFE1C2E1FFE2C2E2FF18
:1000A00010C3E6FFDFC200F0E0C201F0D3DFE1C21F
:1000B000E1FFE2C2E2FF0FC3E6FFDFC200F0E0C2F1
:1000C00001F0C8DFE1C2E1FFE2C2E2FF0EC3E6FFDA
:1000D000DFC200F0E0C201F0BDDFE1C2E1FFE2C239
:1000E000E2FF0DC3E6FFDFC200F0E0C201F0B2DFC5
:1000F000E1C2E1FFE2C2E2FF11C3E6FFDFC200F0AE
:10010000E0C201F0A7DF0301136B146BE1C2E1FF52
:10011000E2C2E2FFFF0EE66EDFC200F0E0C201F0D5
:1001200099DF00C012F30301134B142B800E00144F
:10013000016E0150000A07E0000E145D02E1640E3A
:10014000135D01E2E3D712C300F012008D9012009C
:100150008D80E1C2E1FFE2C2E2FFFF0EE66EDFC288
:1001600000F0E0C201F076DF120003010A6B07C362
:10017000E9FF08C3EAFFEECF09F30951000A0EE0D8
:1001800009C30CF373DF03010A2B0A510725E96E3B
:10019000000E0821EA6EEECF09F3EFD7120003013B
:1001A000086B096B270E095D02E1100E085DD8B0DF
:1001B000A0D0000E000A02E1000E071916E1C6DF0A
:1001C000010E0C6F0D6B0E6B0F6B106BFF0E116F32
:1001D00054DF00C00AF3BCDF03010A51000A04E146
:1001E0000001896B006A87D080D0B0DF370E030131
:1001F0000C6F0D6B0E6B0F6B106BFF0E116F3DDFF5
:1002000000C00AF3A5DF03010A51010AD8A46CD08B
:100210009DDF290E0C6F000E0D6F000E0E6F000E8D
:100220000F6F400E106FFF0E116F27DF00C00AF333
:100230008FDF03010A51000A56E1000E000A02E1B5
:10024000020E07194BE182DF3A0E0C6F0D6B0E6B3D
:100250000F6B106BFF0E116F10DF00C00AF3E1C2CD
:10026000E1FFE2C2E2FFFF0EE66EDFC200F0E0C295
:1002700001F0F0DE00C00BF3E1C2E1FFE2C2E2FFF9
:10028000FF0EE66EDFC200F0E0C201F0E3DEE1C285
:10029000E1FFE2C2E2FFFF0EE66EDFC200F0E0C265
:1002A00001F0D8DEE1C2E1FFE2C2E2FFFF0EE66E3E
:1002B000DFC200F0E0C201F0CDDE4ADF03010A51E7
:1002C000000A0BE10BAD04D0040E0001896F03D0CE
:1002D0000001030E896F006A0ED005D00001010EE7
:1002E000896F006A08D001D004D00301084B092BA4
:1002F00059D7010E006E120029DF000E000A03E13B
:10030000040E0001891909E1F9C203F3FAC204F3EA
:10031000FBC205F3FCC206F314D0090E006EF9C24D
:1003200003F3FAC204F3FBC205F3FCC206F3005068
:1003300008E0030103370391043705370637FF0F41
:10034000F7D70301180E0C6F03C30DF304C30EF3AC
:1003500005C30FF306C310F3FF0E116F8EDE0052BC
:1003600004E0F6DE010E006E8ED0E1C2E1FFE2C2D3
:10037000E2FFFF0EE66EDFC200F0E0C201F06ADECF
:10038000E1C2E1FFE2C2E2FFFF0EE66EDFC200F073
:10039000E0C201F05FDEE1C2E1FFE2C2E2FFFE0E79
:1003A000E66EDFC200F0E0C201F054DE0301016B33
:1003B000026B0251010802E10151FF0818E30151EB
:1003C0000201FD25E96E030102510201FE21EA6EE0
:1003D000E1C2E1FFE2C2E2FFEECFE6FFDFC200F0E2
:1003E000E0C201F037DE0301014B022BE2D7E1C28C
:1003F000E1FFE2C2E2FFFF0EE66EDFC200F0E0C204
:1004000001F028DEE1C2E1FFE2C2E2FFFF0EE66E8C
:10041000DFC200F0E0C201F01DDEE1C2E1FFE2C296
:10042000E2FFFF0EE66EDFC200F0E0C201F012DE76
:1004300000C001F3000E0301026F1F0E0115016ED3
:1004400002C302F0000E021601C001F302C002F363
:10045000000E021802E1050E011804E079DE020E1A
:10046000006E11D0E1C2E1FFE2C2E2FFFF0EE66ED4
:10047000DFC200F0E0C201F0EDDD0050FF0A01E054
:10048000F1D766DE006A12006C0E0201E36F000E07
:10049000E46F0C0EE56F030EE66FFF0EEF6FFF0EBD
:1004A000F06F000EF16F000EF26FFF0EEB6FFF0E9C
:1004B000EC6F000EED6F000EEE6FFF0EE76FFF0E9C
:1004C000E86F000EE96F000EEA6FAC8A900EAB6E1B
:1004D000948E949C9EAA03D0AECF00F0FBD712005E
:1004E00035DE000E000A03E1040E0001891909E15E
:1004F000F9C203F3FAC204F3FBC205F3FCC206F32C
:1005000014D0090E006EF9C203F3FAC204F3FBC261
:1005100005F3FCC206F3005008E003010337039122
:10052000043705370637FF0FF7D70301110E0C6F9D
:1005300003C30DF304C30EF305C30FF306C310F397
:10054000FF0E116F9ADD005204E002DE010E006E14
:100550004FD0E1C2E1FFE2C2E2FFFF0EE66EDFC272
:1005600000F0E0C201F076DD0050FE0A01E0F1D7B4
:100570000301016B026B020E025D02E1000E015DE0
:100580001FE201510201FD25FF6F0301025102012B
:10059000FE210301006FE1C2E1FFE2C2E2FFFF0EB4
:1005A000E66EDFC200F0E0C201F054DDFFC2E1FF01
:1005B00000C3E2FF00C0E6FF0301014B022BDBD7C3
:1005C000E1C2E1FFE2C2E2FFFF0EE66EDFC200F031
:1005D000E0C201F03FDDE1C2E1FFE2C2E2FFFF0E57
:1005E000E66EDFC200F0E0C201F034DDB1DD006A8A
:1005F0001200F9C207F3FAC208F3B7DD0D0E0C6F53
:1006000035DD0A0E03010C6F31DD12001C0E0201F4
:10061000DF6F000EE06F150EE16F030EE26FFF0E4D
:10062000DB6FFF0EDC6FFF0EDD6FFF0EDE6F949A47
:10063000F951040A02E1948601D094969488C66A1E
:10064000F951C612FB51C612FA51C712FB5305E00D
:10065000FC51000AD8B4C78C03D0FC53D8A4C78C73
:10066000C68A12000900F5CFE6FF0006FBE101068D
:10067000F9E11200F00E0201F915FA6FFA33FA9F50
:10068000FA33FA9FFA33FA9FFA33FA9F300EFA27B9
:10069000FA51390802E2070EFA270F0EF915FB6F1F
:1006A000300EFB27FB51390802E2070EFB27FAC286
:1006B0000CF3DCDCFBC20CF3D9DC120047DD0A0EC4
:1006C00003010C6F0D6B0E6B0F6B106BFF0E116F38
:1006D000D4DC005204E03CDD010E006E46D0E1C2E5
:1006E000E1FFE2C2E2FFFF0EE66EDFC200F0E0C211
:1006F00001F0B0DC0050FE0A01E0F1D70201FB6B13
:10070000100EFB5D1AE2FB51F925FC6F000EFA2179
:10071000FD6FE1C2E1FFE2C2E2FFFF0EE66EDFC263
:1007200000F0E0C201F096DCFCC2E1FFFDC2E2FF96
:1007300000C0E6FF0201FB2BE3D7E1C2E1FFE2C20A
:10074000E2FFFF0EE66EDFC200F0E0C201F082DCE5
:10075000E1C2E1FFE2C2E2FFFF0EE66EDFC200F09F
:10076000E0C201F077DCF4DC006A1200050E000143
:10077000896F9690EDDC0201F96BFA6B000EFA5D61
:1007800002E10A0EF95D0FE2E1C2E1FFE2C2E2FF1F
:10079000FF0EE66EDFC200F0E0C201F05BDC02019A
:1007A000F94BFA2BEBD7D2DC03010C6B0D6B0E6B04
:1007B0000F6B106B950E116F60DC00C0FBF2C8DC94
:1007C0000201FB51010A03E0010E006E7AD0BEDC8B
:1007D000080E03010C6FAA0E0D6F010E0E6F000EB6
:1007E0000F6F106F870E116F48DC00C0FBF2E1C283
:1007F000E1FFE2C2E2FFFF0EE66EDFC200F0E0C200
:1008000001F028DCE1C2E1FFE2C2E2FFFF0EE66E8A
:10081000DFC200F0E0C201F01DDCE1C2E1FFE2C294
:10082000E2FFFF0EE66EDFC200F0E0C201F012DC74
:10083000E1C2E1FFE2C2E2FFFF0EE66EDFC200F0BE
:10084000E0C201F007DC84DC0201FB51010A0AE08E
:10085000010E0301076FA3DC005203E00301076BE5
:100860009EDC04D0020E0301076F99DC000E000A23
:1008700003E1050E0001891903E1020E006E21D08B
:10088000000E000A03E10001040E891919E05EDC84
:10089000100E03010C6F000E0D6F020E0E6F000E96
:1008A0000F6F106FFF0E116F3DEC00F000C0FBF2F8
:1008B0004FDC0201FB51000A03E0030E006E01D081
:1008C000006A120043DC090E03010C6F0D6B0E6B06
:1008D0000F6B106BFF0E116F3DEC00F0005204E047
:1008E00037DC010E006E4BD0E1C2E1FFE2C2E2FF55
:1008F000FF0EE66EDFC200F0E0C201F02AEC00F06D
:100900000050FE0A01E0F0D70201FB6B100EFB5D08
:100910001BE2FB51F925FC6F000EFA21FD6FE1C2CD
:10092000E1FFE2C2E2FFFF0EE66EDFC200F0E0C2CE
:1009300001F02AEC00F0FCC2E1FFFDC2E2FF00C0C2
:10094000E6FF0201FB2BE2D7E1C2E1FFE2C2E2FFD8
:10095000FF0EE66EDFC200F0E0C201F02AEC00F00C
:10096000E1C2E1FFE2C2E2FFFF0EE66EDFC200F08D
:10097000E0C201F02AEC00F0A8EC00F0006A1200DE
:1009800066EC06F00F01256B246B236B9280CF0E73
:10099000AF6EAC8479DDD00E0C6EC90E0D6E0D2ECF
:1009A000FED70C2EFCD700000000510E0201F96F9B
:1009B000000EFA6F1EDE80A001D0FDD7290E0B6E4F
:1009C000960E0C6E7F0E0D6E0D2EFED70C2EFCD7E4
:1009D0000B2EFAD73B0E0201F96F000EFA6F09DEFB
:1009E0000201F96BFA6BFB6B010EFC6F0FDEBEDED2
:1009F00000C0F7F20201F751000A06E1650EF96F37
:100A0000000EFA6FF6DD06D07A0E0201F96F000EC5
:100A1000FA6FEFDD0201F36BF46BF451010802E1B0
:100A2000F351FF080BE3DB0EF325E16E000EF4211A
:100A3000E26E6D0EE66EF34BF42BEFD74E0EF56FB4
:100A4000020EF66FF5C2F9F2F6C2FAF2000EFB6F73
:100A5000FC6FDB0EFD6F000EFE6F4EDC00C0F7F288
:100A60000201F751000A06E1710EF96F000EFA6FEC
:100A7000C0DD06D01C0E0201F96F000EFA6FB9DD61
:100A8000CB0E0201F96F000EFA6F18DE00C0F7F20C
:100A90000201F751000A25E1150E0301076F000E50
:100AA000086FB5EC00F00201F36BF46B000E006E02
:100AB000F451005C02E1F3510F080DE3CB0EF32576
:100AC000E96E000EF421EA6EEECFF9F2D3DD0201F9
:100AD000F34BF42BEBD7280EF96F000EFA6F89DD7C
:100AE00006D0310E0201F96F000EFA6F82DDCB0ED7
:100AF0000201F96F000EFA6FE5DE00C0F7F20201A5
:100B0000F751000A25E12A0E0301076F000E086F56
:100B1000B5EC00F00201F36BF46B000E006EF451C3
:100B2000005C02E1F3510F080DE3CB0EF325E96EF3
:100B3000000EF421EA6EEECFF9F29CDD0201F34BD8
:100B4000F42BEBD7290EF96F000EFA6F52DD06D0A9
:100B5000930E0201F96F000EFA6F4BDDF5C2F9F248
:100B6000F6C2FAF2000E0201FB6FFC6FDB0EFD6FA6
:100B7000000EFE6FB5DC00C0F7F20201F751000A6B
:100B80003DE18B0EF96F000EFA6F33DD0201F88143
:100B9000F36BF46BF451010802E1F351FF0819E320
:100BA000DB0EF325E96E000EF421EA6EEECF0CF3B6
:100BB00036EC00F0DB0E0201F325E96E000EF421A5
:100BC000EA6EEE506D0A02E0F89103D0F34BF42B7D
:100BD000E1D78A0EF96F000EFA6F0BDD0201F8A162
:100BE00006D09D0EF96F000EFA6F03DD06D0BD0E24
:100BF0000201F96F000EFA6FFCDC06D0B20E0201A2
:100C0000F96F000EFA6FF5DCA80E0201F96F000E05
:100C1000FA6FEFDCFFD7434944203A20005772694E
:100C200074652D4572726F72000000435344203A80
:100C300020004349442D6572726F72006D696372C2
:100C40006F5344204361726420696E7365727465EA
:100C50006400496E73657274206D6963726F5344EA
:100C60002043617264004D4D4320496E69742D4FDD
:100C70004B0057726974652D4F4B004D4D43204911
:100C80006E69742D6572726F720000005265616446
:100C90002D4F4B004353442D6572726F7200436FAA
:100CA0006E74656E742D4F4B005465737420456EE1
:100CB000642E00526561642D4572726F7200436F3D
:100CC0006E74656E742D4572726F720010EE15F0C1
:100CD000B60E006E010E016E160EF66E0C0EF76E5D
:100CE000000EF86E32EC03F01200FFFFFFFFFFFF73
:020000040030CA
:0E0000001D137F7CF98B91FFFFC0FFE0FF40D6
:00000001FF
