:10000000FCFF002009110000C1100000C110000019
:10001000C1100000C1100000C1100000C11000009C
:10002000C1100000C1100000C1100000C11000008C
:10003000C1100000C1100000C1100000C11000007C
:10004000C1100000C1100000C1100000C11000006C
:10005000C1100000C1100000C1100000C11000005C
:10006000C1100000C1100000C1100000C11000004C
:10007000C1100000C1100000C1100000C11000003C
:10008000C1100000C1100000C1100000C11000002C
:10009000C1100000C1100000C1100000C11000001C
:1000A000C1100000C1100000C1100000C11000000C
:1000B000C1100000C1100000C1100000C1100000FC
:1000C000C1100000C1100000C1100000C1100000EC
:1000D000C1100000C1100000C1100000C1100000DC
:1000E000C1100000C1100000C1100000C1100000CC
:1000F000C1100000C1100000C1100000C1100000BC
:1011080000F010F8FFF7DCFF00F09AF9FFF7EEFFA8
:1011180000F056F9FFF7A8FFFFF76CFFFFF77CFF19
:04112800FCE7FEE7FB
:100FE80081B01CF8019B0BF8019BBBEB0A0FF8D1F1
:040FF80001B070478D
:100F880081B04FF000094FF0000CBDEB0A0F04DCF4
:100F9800BDEB0B0F01DBD446EA464BF8049BBBEBD9
:100FA8000A0FFAD1BCEB0A0F05DDE246D9F800B00A
:0A0FB8000BF1040BF1E701B07047E4
:1010700081B0CDF800E0002202210020FFF7A6FE9B
:10108000002201210020FFF7A1FE002206210020FE
:10109000FFF79CFE094801460020FFF7B9FE44F621
:1010A0007D77C0F2120700BF7F1EFDD100BF00BFD9
:1010B00000BF00BFDDF800E001B07047AC130000D6
:100DCC0081B0CDF800E05FFA81F95FFA82FA0FE0AA
:100DDC005FFA8AF15FFA89F0FFF768FE0DE05FFABF
:100DEC008AF15FFA89F0FFF779FD06E0012004E053
:100DFC000028EDD00128F2D0F8E7DDF800E001B0D2
:020E0C0070472D
:100AB80081B0CDF800E0A9E0012905D140F201019B
:100AC8006548FFF7F3FD04E040F201016348FFF7D2
:100AD8004DFEBBE0012905D140F240016048FFF717
:100AE800E5FD04E040F240015E48FFF73FFEADE05F
:100AF800012905D140F201015948FFF7D7FD04E06B
:100B080040F201015748FFF731FE9FE0012905D166
:100B180040F220015448FFF7C9FD04E040F22001EB
:100B28005248FFF723FE91E0012905D140F28001E8
:100B38004D48FFF7BBFD04E040F280014B48FFF74A
:100B480015FE83E0012905D140F240014648FFF730
:100B5800ADFD04E040F240014448FFF707FE75E0B0
:100B6800012905D140F280014148FFF79FFD04E0CB
:100B780040F280013F48FFF7F9FD67E0012905D100
:100B880040F210013A48FFF791FD04E040F21001ED
:100B98003848FFF7EBFD59E0012905D140F204017F
:100BA8003548FFF783FD04E040F204013348FFF7BE
:100BB800DDFD4BE0012905D140F208012E48FFF781
:100BC80075FD04E040F208012C48FFF7CFFD3DE039
:100BD800012905D140F220011F48FFF767FD04E015
:100BE80040F220011D48FFF7C1FD2FE0012905D182
:100BF80040F210011848FFF759FD04E040F21001D7
:100C08001648FFF7B3FD21E0012020E000283FF45B
:100C180053AF01283FF45EAF02283FF469AF0328C1
:100C28003FF474AF04283FF47FAF05283FF48AAF40
:100C380006283FF495AF0728A0D00828ACD009288B
:100C4800B8D00A28C4D00B28D0D0DDE70020DDF8C2
:100C580000E001B0704700BF414C0040434C0040E9
:100C6800404C0040424C0040004C0040024C0040C8
:100C7800014C0040034C0040204C0040224C0040F6
:1006B40081B0CDF800E0002424B240F240031BB224
:1006C40040F2040212B242EA03031BB240F20102F6
:1006D40012B243EA020293B2002210B4FFF72EFED4
:0A06E40001B0DDF800E001B070473E
:1003400083B0CDF800E08DB20146D0B2BDF90C20EB
:1003500001F0010414B12F02BFB200E0AFB28F4C24
:100360000C1B640965018D4C6419A0468C4CA0429D
:1003700007D108F10406FD43ADB234882C40348027
:1003800007E0884CA04204D108F104052C883C43C6
:100390002C8040F2010403EA0404A4B23CB108F149
:1003A0000606FD43ADB234882C4034800AE040F2AA
:1003B000020403EA0404A4B224B108F106052C885F
:1003C0003C432C8040F2040403EA0404A4B23CB190
:1003D00008F10806FD43ADB234882C4034800AE0B1
:1003E00040F2080403EA0404A4B224B108F10805A9
:1003F0002C883C432C8040F2100403EA0404A4B28D
:100400003CB108F11806FD43ADB234882C4034806D
:100410000AE040F2200403EA0404A4B224B108F183
:1004200018052C883C432C8040F2400403EA040465
:10043000A4B23CB108F11A06FD43ADB234882C4099
:1004400034800AE040F2800403EA0404A4B224B138
:1004500008F11A052C883C432C8003F48074A4B264
:100460007CB908F10A06FD43ADB234882C403480D3
:1004700008F10C06FD43ADB234882C4034800020D6
:1004800087E01F2A01DD012083E0FFF75DFE0020E9
:10049000B9B2C7B24046102F80F07A8021FA07F433
:1004A000A4B204F00104A4B2002C00F06E8000F2AB
:1004B0000A06CD43ADB234882C40348000F20C06DD
:1004C000CD43ADB234882C40348003F48064A4B2B0
:1004D0002CB1ADF806100024ADF808400DE003F48F
:1004E0000064A4B22CB10024ADF80640ADF80810A9
:1004F00003E0ADF80610ADF8081000F20A063588E2
:10050000BDF8064045EA0404348000F20C06358844
:10051000BDF8084045EA04043480234C041B6409F8
:10052000ADF80440214CA24218D0BDF80440E400CC
:10053000A4B265001E4C65197C08E4B264002E1953
:1005400007F00104E4B2E5002DB240F2FF04AC4034
:10055000A4B2E543ADB234882C403480BDF80440E9
:10056000E400A4B26500124C65197C08E4B2640092
:100570002E1907F00104E4B2E5002DB294B204FA9A
:1005800005F5ADB234882C4334807F1CFFB282E77E
:100590000020DDF800E003B0704700BF004C0040D1
:1005A0000000000001000000004C004000000000BE
:0405B00008500040AF
:1001480081B042F6525103480180022102480180E1
:0C01580001B07047005000400250004011
:1007740081B0CDF800E0002424B240F240031BB263
:1007840040F2040212B242EA03031BB240F2010235
:1007940012B243EA020293B2012210B4FFF7CEFD73
:0A07A40001B0DDF800E001B070477D
:1008E80081B0CDF800E0A9E0012905D140F2080166
:1008F8006548FFF7DBFE04E040F208016348FFF7B4
:1009080035FFBBE0012905D140F280016048FFF7BF
:10091800CDFE04E040F280015E48FFF727FFADE01E
:10092800012905D140F204015B48FFF7BFFE04E04E
:1009380040F204015948FFF719FF9FE0012905D14A
:1009480040F220015648FFF7B1FE04E040F22001D2
:100958005448FFF70BFF91E0012905D140F28001CF
:100968004F48FFF7A3FE04E040F280014D48FFF72F
:10097800FDFE83E0012905D140F240014848FFF718
:1009880095FE04E040F240014648FFF7EFFE75E0AF
:10099800012905D140F240014348FFF787FE04E0F2
:1009A80040F240014148FFF7E1FE67E0012905D127
:1009B80040F240013648FFF779FE04E040F240017A
:1009C8003448FFF7D3FE59E0012905D140F204016C
:1009D8003548FFF76BFE04E040F204013348FFF7A7
:1009E800C5FE4BE0012905D140F208012E48FFF76A
:1009F8005DFE04E040F208012C48FFF7B7FE3DE039
:100A0800012905D140F220012148FFF74FFE04E0FB
:100A180040F220011F48FFF7A9FE2FE0012905D168
:100A280040F210011A48FFF741FE04E040F21001BD
:100A38001848FFF79BFE21E0012020E000283FF442
:100A480053AF01283FF45EAF02283FF469AF032893
:100A58003FF474AF04283FF47FAF05283FF48AAF12
:100A680006283FF495AF0728A0D00828ACD009285D
:100A7800B8D00A28C4D00B28D0D0DDE70020DDF894
:100A880000E001B0704700BF214C0040234C0040FB
:100A9800414C0040434C0040404C0040424C004018
:100AA800004C0040024C0040014C0040034C004008
:100E100081B0CDF800E009E00846FFF735FF0AE0B1
:100E20000846FFF767FF06E0012004E00028F3D042
:0E0E30000128F5D0F8E7DDF800E001B07047CA
:100C880081B0CDF800E0DFF8549000F218010B684D
:100C980000F214010A6800F21001D1F8008000F295
:100CA8000C010F6800F208010E68011D0D68046848
:100CB8001BB212B20FFA88F14DF8049D08B404B4BF
:100CC80002B43BB232B229B220B2FFF70DFD04B034
:100CD8000020DDF800E001B0704700BF701200008E
:1006F00084B0CDF800E00FFA80FCADF80410ADF83E
:100700000820ADF80C30BDF91040ADF81040BDF92F
:100710001440ADF81440BDF91840ADF81840079CDE
:100720002046FFF747FF0F4D0F4C25600F4D104C33
:100730002560BDF91860BDF91450BDF91040BDF930
:100740000C30BDF90820BDF904100FFA8CF040B44C
:1007500020B410B4FFF77CFD03B0DDF800E004B076
:10076000704700BFFFFFFFFF1800002019030000C3
:040770001C00002049
:1005B40081B0CDF800E040F2000A814609F1D8018B
:1005C40009788A453AD20C210AFB01F109EB0101B1
:1005D4008B460BF1080109781F2915D10BF108018D
:1005E4000978CCB20BF1060109888BB20BF1040136
:1005F40009888AB2DBF80010084691B2002210B4D0
:10060400FFF79CFE01B014E00BF108010978CCB2AD
:100614000BF1060109888BB20BF1040109888AB237
:10062400DBF80010084691B2FF2210B4FFF786FEF3
:1006340001B00AF1010A5FFA8AFABFE7DDF800E0C7
:0406440001B070474A
:1002500081B0BDF90460BDF90870BDF90C80184C7F
:10026000258841F23F042540154C2580144C2488F4
:1002700044F00105124C258040EA030424B23443C3
:1002800024B23C4324B244EA080424B244F4807506
:100290002DB20B4C248844EA0505094C2580084CF6
:1002A000248844EA0205064C2580064C2180044C33
:1002B00025884FF6FE742540014C258001B070471B
:0802C000002000400620004070
:100CF40081B0CDF800E0DFF8549000F218010B68E1
:100D040000F214010A6800F21001D1F8008000F228
:100D14000C010F6800F208010E68011D0D680468DB
:100D24001BB212B20FFA88F14DF8049D08B404B452
:100D340002B43BB232B229B220B2FFF7D7FC04B0FE
:100D44000020DDF800E001B0704700BF7012000021
:100FFC0081B0CDF800E004490448FFF79FFFDDF80D
:10100C0000E001B0704700BFC40F00004C1300009B
:100F480081B0CDF800E003460846FFF799FC184643
:100F5800FFF77AFC0120074C2468A0470120064CC3
:100F68002468A0470120054C2468A047DDF800E06C
:100F780001B07047080000200C0000200400002089
:0C0CE80001490870704700BF6088094295
:0C08DC0001490870704700BF58880942AD
:0C08AC0001490870704700BF40880942F5
:0C08A00001490870704700BF54800942F5
:0C08B80001490870704700BF5C800942D5
:0C08D00001490870704700BF58800942C1
:0C08C40001490870704700BF7C800942A9
:0C0D540001490870704700BF7080094220
:0C0D9C0001490870704700BF48840942FC
:0C0DC00001490870704700BF4C840942D4
:0C0DB40001490870704700BF74880942B4
:0C0D6C0001490870704700BF7088094200
:0C0D600001490870704700BF6C84094214
:0C0D900001490870704700BF7C880942D0
:0C0D840001490870704700BF4888094210
:0C0D780001490870704700BF5480094218
:0C0DA80001490870704700BF5C800942E0
:0C07D40001490870704700BF58800942BE
:0C07E00001490870704700BF7880094292
:0C07C80001490870704700BF78880942A2
:0C07B00001490870704700BF68800942D2
:0C07BC0001490870704700BF6C800942C2
:0C07EC0001490870704700BF7488094282
:0C087C0001490870704700BF70880942F5
:10088800026803490A60011D0A6802490A60704744
:080898001000002014000020F4
:1008500000F208010A6806490A60011D0A68054994
:100860000A6000F218010A6803490A60704700BF75
:0C08700008000020040000200C00002004
:1010200081B0CDF800E000210E4801700D48007835
:101030000B2813D20B480078FFF702FF44F67D77A8
:10104000C0F2120700BF00BF7F1EFDD100BF00BF6E
:1010500000BF04490878401C0870E7E7DDF800E0AD
:0810600001B070470000002000
:100E400081B0CDF800E0C1B2C8B262E0FFF7D4FCD7
:100E50000020FFF7E5FC73E0FFF7CEFC0120FFF771
:100E6000DFFC6DE0FFF7C8FC0320FFF7D9FC67E06B
:100E7000FFF7C2FC0720FFF7D3FC61E0FFF7BCFCE3
:100E80000F20FFF7CDFC5BE0FFF7B6FC4020FFF73B
:100E9000C7FC1F20FFF7C4FC52E0FFF7ADFCC020E9
:100EA000FFF7BEFC3F20FFF7BBFC49E0FFF7A4FCC7
:100EB0000120FFF7B5FCC020FFF7B2FC7F20FFF751
:100EC000AFFC3DE0FFF798FC0320FFF7A9FCC02032
:100ED000FFF7A6FCFF20FFF7A3FC31E0FFF78CFC37
:100EE0000720FFF79DFCC020FFF79AFCFF20FFF7CB
:100EF00097FC25E0FFF780FC0F20FFF791FCC02056
:100F0000FFF78EFCFF20FFF78BFC19E0FFF774FC66
:100F100016E000289AD001289ED00228A2D00328EB
:100F2000A6D00428AAD00528AED00628B5D0072818
:100F3000BCD00828C6D00928D0D00A28DAD0E5E7E6
:080F4000DDF800E001B070478C
:1007F80081B0CDF800E00020064C2468A047FFF740
:100808002BFF0120034C2468A047DDF800E001B06D
:08081800704700BF040000203E
:1006600044F67D77C0F2120700BF00BF7F1EFDD1A8
:0806700000BF00BF00BF70478E
:1008200082B0CDF800E001A908700020074C2468D0
:10083000A04701A908460121FFF71EFF0120034C34
:100840002468A047DDF800E002B0704708000020EF
:1006780083B0CDF800E08AB2014690B283B2421E40
:1006880090B26BB10A78D4B2ADF804000291A0B26E
:10069800054C2468A0470299BDF80400491CEDE701
:0C06A800DDF800E003B0704710000020F7
:10023C0081B0CDF800E0FFF78FFFDDF800E001B0F2
:02024C007047F9
:1001640081B00649098801B1FBE7054908800349C4
:10017400098801B1FBE701B0704700BF40010242AA
:040184000E10004019
:1002DC0081B0CDF800E0FFF751FFDDF800E001B090
:0202EC00704759
:1001880081B00649098801B1FBE7054908800349A0
:10019800098801B1FBE701B0704700BF4081024206
:0401A8000E140040F1
:1003040081B0CDF800E0FFF74FFFDDF800E001B069
:02031400704730
:1001AC0081B00649098801B1FBE70549088003497C
:1001BC00098801B1FBE701B0704700BF4001034261
:0401CC000E180040C9
:1002C80081B0CDF800E0FFF717FFDDF800E001B0DE
:0202D80070476D
:1001000081B00649098801B1FBE705490880034928
:10011000098801B1FBE701B0704700BF408103428D
:040120000E1C004071
:1003180081B0CDF800E0FFF701FFDDF800E001B0A3
:0203280070471C
:1001240081B00649098801B1FBE705490880034904
:10013400098801B1FBE701B0704700BF0001044228
:040144000E20004049
:10032C0081B0CDF800E0FFF74DFFDDF800E001B043
:02033C00704708
:1001D00081B00649098801B1FBE705490880034958
:1001E000098801B1FBE701B0704700BF00810442FC
:0401F0000E24004099
:1006480081B0CDF800E0FFF7D1FDDDF800E001B0A2
:020658007047E9
:1001F40081B00649098801B1FBE705490880034934
:10020400098801B1FBE701B0704700BF0001054256
:040214000E28004070
:1002F00081B0CDF800E0FFF78FFFDDF800E001B03E
:02030000704744
:1002180081B00649098801B1FBE70549088003490F
:10022800098801B1FBE701B0704700BF00810542B2
:040238000E2C004048
:10112C0083B0CDF800E0374B374C384D384E394F43
:10113C00394845F680213948018004F0070005281C
:10114C0004D004F07000502800D00BE0012252B201
:10115C0033480280002149B2324801803248028073
:10116C0032480180802132480160019502961E466A
:10117C0025463A46029B019C2E48006800F480707C
:10118C0000B1F9E72C492D48016001951146324612
:10119C001D46019B2748006800F4807000B1F9E7F8
:1011AC0027480160274801602749284801602848E2
:1011BC00026028480360200D00F0070028B944F0B5
:1011CC000301254801602A4610E044F4803040F0C9
:1011DC000301214801602A462048006830B1FFF71E
:1011EC00F1FE012149B21E480160F5E700211748C4
:1011FC00016042F4B44109480180DDF800E003B01D
:10120C00704700BF00000500330000000300010020
:10121C00840000000010000080BB00000C4800405F
:10122C004CA509428CA5094248A5094288A509424A
:10123C00143004E00400014001005A690000014030
:10124C0010100140141001405A69000000040140C4
:10125C0004040140080401400C04014004892042AC
:04126C00048A20428E
:100FD00040F20907C0F2000700BF00BF7F1EFDD12D
:080FE00000BF00BF00BF704715
:1010F40081B002490248016001B0704780BB000022
:0411040020000020A7
:0810C00081B0FEE701B07047AA
:1010C80081B04EF68850CEF20000016841F47001FC
:1010D800016000BF00BF00BF00BFF1EE100A40F47E
:0A10E8004000E1EE100A01B070476D
:1013C80000B5DFF814B0DFF814A0DFF814C0FFF799
:1013D80007FE00BD704700BF00000020010000208C
:0413E8004E020000B1
:1014480000B5DFF810B0DFF810A0FFF799FD00BD78
:0C145800704700BF0000002024000020AE
:01024E0000AF
:080FC40019030000FFFFFFFF0D
:10127000004C00402000050500000000004C00402C
:101280008000050500000000004C004040000505FE
:10129000000000000000000000000000000000004E
:1012A000000000000000000000000000000000003E
:1012B000000000000000000000000000000000002E
:1012C000000000000000000000000000000000001E
:1012D000000000000000000000000000000000000E
:1012E00000000000000000000000000000000000FE
:1012F00000000000000000000000000000000000EE
:1013000000000000000000000000000000000000DD
:1013100000000000000000000000000000000000CD
:1013200000000000000000000000000000000000BD
:1013300000000000000000000000000000000000AD
:0C1340000000000000000000030000009E
:10134C00E90C0000DD080000AD080000A108000059
:10135C00B9080000D1080000C5080000550D0000B8
:10136C009D0D0000C10D0000B50D00006D0D0000BD
:10137C00FFFFFFFFFFFFFFFFFFFFFFFFFFFFFFFF71
:10138C00FFFFFFFFFFFFFFFFFFFFFFFFFFFFFFFF61
:10139C00FFFFFFFFFFFFFFFFFFFFFFFFFFFFFFFF51
:1013AC000008000040000000800000000020000049
:0C13BC00000000000040000000000000E5
:00000001FF
