:100000000C94FD040C9400000C9400000C9400006F
:100010000C9400000C9400000C9400000C94000060
:100020000C9400000C9400000C9400000C94000050
:100030000C9400000C9400000C9400000C94000040
:100040000C9400000C9400000C9400000C94000030
:040050000C9400000C
:1009FA00BFE5BDBFB8E0BEBFCDB7DEB76697CDBF16
:100A0A00DEBF21962F923F924F925F926F927F9212
:100A1A00BAB3BF77BABBB9E1B9B9B0E0B0BD23DEAA
:100A2A0018E605EE0A95F1F71A95E1F7FE01B9E421
:100A3A00B193BEE6B193B3E7B193B5E6B193B2E72A
:100A4A00B193B4E7B193B0E2B193BDE6B193B9E61D
:100A5A00B193B3E6B193B2E7B193BFE6B193B3E50D
:100A6A00B193B4E4B193B0E2B193B3E4B193B1E614
:100A7A00B193B2E7B193B4E6B193B0E0B1938E010A
:100A8A001801DDDEBBB3B7FF02C00000FBCF25E1D2
:100A9A001BE40FEB0A95F1F71A95E1F72A95D1F7BE
:100AAA000000FE01BDE6B193B9E6B193B3E6B19396
:100ABA00B2E7B193BFE6B193B3E5B193B4E4B193AE
:100ACA00B0E2B193B3E4B193B1E6B193B2E7B193B3
:100ADA00B4E6B193B0E2B193B9E6B193BEE6B1938D
:100AEA00B3E7B193B5E6B193B2E7B193B4E7B19383
:100AFA00B5E6B193B4E6B193B0E0B1938E011801B3
:100B0A009EDE44243324B0E12B2ED1DDF3DD0093A5
:100B1A0080020030E9F4FE01BDE4B193BDE4B19373
:100B2A00B3E4B193B0E2B193B9E4B193BEE6B19341
:100B3A00B9E6B193B4E7B193BDE2B193BFE4B1931F
:100B4A00BBE4B193B0E0B1938E01180178DE22C004
:100B5A00FE01BDE4B193BDE4B193B3E4B193B0E255
:100B6A00B193B9E4B193BEE6B193B9E6B193B4E7F0
:100B7A00B193BDE2B193B5E6B193B2E7B193B2E7EF
:100B8A00B193BFE6B193B2E7B193B0E0B1938E01EE
:100B9A00180155DEB0E0B0937300B093740025E7F6
:100BAA0030E00091730010917400F801E20FF31F16
:100BBA00BDE6B0830091730010917400113009F4FE
:100BCA000F3F59F000917300109174000F5F1F4F8F
:100BDA000093730010937400E2CFBEE4B0937100E7
:100BEA00B2E0B0937200B5E76B2EB0E07B2EBEE4A4
:100BFA002B2EB2E03B2EB0E04B2E5B2E2CDE009368
:100C0A0080020030B9F4FE01B7E5B193B2E7B193BF
:100C1A00B9E6B193B4E7B193B5E6B193BDE2B19346
:100C2A00BFE4B193BBE4B193B0E0B1938E01180174
:100C3A0006DE1CC0FE01B7E5B193B2E7B193B9E68F
:100C4A00B193B4E7B193B5E6B193BDE2B193B5E41C
:100C5A00B193B2E7B193B2E7B193BFE6B193B2E70A
:100C6A00B193B0E0B1938E011801E9DDB0E62B2E05
:100C7A00B0E03B2E7ADB00938002003009F040C0DE
:100C8A00FE01B3E4B193B9E4B193B4E4B193B0E231
:100C9A00B193BAE3B193B0E2B193B0E0B1938E01EC
:100CAA0018012BDBB0E0B0937300B093740020E618
:100CBA0030E00091730010917400F801E20FF31F05
:100CCA000081202E2DDB00917300109174001030EA
:100CDA0009F40F3059F000917300109174000F5FFE
:100CEA001F4F0093730010937400E1CFB0E2B883F2
:100CFA00B0E2B983B0E0BA838E011801A0DD18C052
:100D0A00FE01B3E4B193B9E4B193B4E4B193BDE2A3
:100D1A00B193B5E6B193B2E7B193B2E7B193BFE647
:100D2A00B193B2E7B193B0E0B1938E01180187DDB8
:100D3A00B0E62B2EB0E03B2E8CDB00938002003015
:100D4A0009F040C0FE01B3E4B193B3E5B193B4E452
:100D5A00B193B0E2B193BAE3B193B0E2B193B0E028
:100D6A00B1938E011801C9DAB0E0B0937300B09361
:100D7A00740020E630E00091730010917400F801CD
:100D8A00E20FF31F0081202ECBDA0091730010913D
:100D9A007400103009F40F3059F00091730010916B
:100DAA0074000F5F1F4F0093730010937400E1CF1C
:100DBA00B0E2B883B0E2B983B0E0BA838E01180119
:100DCA003EDD18C0FE01B3E4B193B3E5B193B4E4D8
:100DDA00B193BDE2B193B5E6B193B2E7B193B2E78D
:100DEA00B193BFE6B193B2E7B193B0E0B1938E018C
:100DFA00180125DDB5E76B2EB0E07B2E209071003F
:100E0A0030907200B0E04B2E542C8DDB00938002A0
:100E1A00003009F08FC0FE01B2E5B193B5E6B19397
:100E2A00B1E6B193B4E6B193BDE2B193BFE4B19335
:100E3A00BBE4B193B0E0B1938E01180100DDB0912B
:100E4A007000B160B0937000B0E0B0937300B093DB
:100E5A00740025E730E00091730010917400F801E6
:100E6A00E20FF31F0081202EF0D825E730E0009131
:100E7A00730010917400F801E20FF31F00810D3620
:100E8A0031F0B0917000BE7FB093700013C0009132
:100E9A00730010917400113009F40F3F59F000915A
:100EAA007300109174000F5F1F4F0093730010932B
:100EBA007400CFCFB0917000B0FF1BC0FE01B3E445
:100ECA00B193BFE6B193BEE6B193B4E7B193B5E689
:100EDA00B193BEE6B193B4E7B193BDE2B193BFE477
:100EEA00B193BBE4B193B0E0B1938E011801A7DCD2
:100EFA0020C0FE01B3E4B193BFE6B193BEE6B1935D
:100F0A00B4E7B193B5E6B193BEE6B193B4E7B19352
:100F1A00BDE2B193B5E4B193B2E7B193B2E7B1934D
:100F2A00BFE6B193B2E7B193B0E0B1938E01180175
:100F3A0086DC1AC0FE01B2E5B193B5E6B193B1E61B
:100F4A00B193B4E6B193BDE2B193B5E4B193B2E71C
:100F5A00B193B2E7B193BFE6B193B2E7B193B0E010
:100F6A00B1938E0118016BDCFE01B4E5B193B5E6CD
:100F7A00B193B3E7B193B4E7B193B0E2B193B5E4F7
:100F8A00B193BEE6B193B4E6B193BEE2B193B0E0D9
:100F9A00B1938E01180153DC7F906F905F904F9050
:060FAA003F902F90FFCFE5
:100848002F923F925BDDBDE02B2E00DCBAE02B2E11
:08085800FDDB3F902F90089595
:100304009101F9010081003069F0F90100813F9207
:100314002F92202E9DDE2F903F9089010F5F1F4F5B
:060324009801EFCF0895DF
:10005400BBB1B5FD02C00000FBCFBBB1B6FF03C00E
:0A006400BBB1B064BBB92CB808951D
:1006B800BDE3B0937502B0E0B0937602BFEFB0939C
:1006C8007702BFEFB0937802B7B3B068B7BBB7B3E0
:1006D800BF7BB7BBB7B3B062B7BBB7B3B061B7BB8B
:1006E80032FABEB1B0F9BEB9032D0370042902294C
:0606F80000640DB9089535
:1006FE00CF93DF93CDB7DEB72197CDBFDEBF219667
:10070E002F923F924F925F926F927F92B5E0B0938D
:10071E007D02B0913A00B062B0933A00B0913B00C6
:10072E00B062B0933B0020E030E03F932F93BFEFD9
:10073E002B2EE0917502F091760209952F913F9143
:10074E00303009F4293029F089010F5F1F4F9801CD
:10075E00ECCF86DCB5E97B2E332444245524662465
:10076E0022244DDD08833CDD0881013011F011E0BB
:10077E0058C076DCB7E87B2EBAEA3B2EB1E04B2EA2
:10078E00B0E05B2E6B2EB8E02B2E39DD0883BFEF69
:10079E002B2EE0917502F09176020995BFEF2B2E6C
:1007AE00E0917502F09176020995BFEF2B2EE09144
:1007BE007502F09176020995BFEF2B2EE09175022E
:1007CE00F091760209950CDD0881013041F0B1E01F
:1007DE002B2E55DC003011F0222451DC03C0B2E088
:1007EE002B2E4DDC00917D02053011F412E019C064
:1007FE0000917D020430A1F033DCBFEF7B2EB0E020
:10080E003B2EB2E04B2EB0E05B2E6B2EB0E12B2ECA
:10081E00F6DC0883E5DC0881003011F013E001C03E
:10082E0010E0012F7F906F905F904F903F902F9030
:0A083E00CDBFDEBFDF91CF9108951A
:10007A002FB8BEB1B7FD02C00000FBCF1FB1012FE0
:02008A000895D7
:0C006E00B0913B00BF7DB0933B000895B3
:10020C002F92022D005C7F926F925F924F923F92E1
:10021C00202EE0917502F091760209953F904F9057
:10022C005F906F906F925F924F923F92262CE0916D
:10023C007502F091760209953F904F905F906F9008
:10024C006F925F924F923F92252CE0917502F09144
:10025C00760209953F904F905F906F906F925F92EE
:10026C004F923F92242CE0917502F0917602099501
:10027C003F904F905F906F90232CE0917502F0911E
:10028C00760209957F90272CE0917502F091760209
:10029C00099550E060E06F935F937F926F925F924D
:1002AC004F923F922F92BFEF2B2EE0917502F0915F
:1002BC00760209952F903F904F905F906F907F90B2
:1002CC005F916F91402F252F362F2F5F3F4F522F6D
:1002DC00632F042F0078003010E009F41FEF30304A
:1002EC0009F4243600E008F00FEF012B002309F489
:0802FC00D2CF042F2F900895CA
:1001EE002F92B0913B00B062B0933B00BFEF2B2E2D
:0E01FE00E0917502F091760209952F90089518
:10008C00CF93DF93CDB7DEB72497CDBFDEBF2196DC
:10009C003F924F925F926F927F92B0E0B883B98398
:1000AC00B0E02B16B9F4DDDF2F92BFEF7B2E33249B
:1000BC00442455246624B1E02B2EA2D00A8391D07F
:1000CC002F900A81003029F4B0E0B0937D0210E04B
:1000DC007CC06DC0C6DF2F92BFEF7B2E332444242F
:1000EC0055246624B7E32B2E8BD00A837AD02F901D
:1000FC000A81013009F05AC0B4DF2F92BFEF7B2E7A
:10010C00B0E03B2E4B2E5B2EB0E46B2EB9E22B2EC7
:10011C0077D00A8366D02F900A81003009F045C051
:10012C00B2E02B1609F03CC09CDF2F92BFEF7B2E68
:10013C003324442455246624BAE32B2E61D00A833D
:10014C00BFEF2B2EE0917502F091760209950B838F
:10015C00BFEF2B2EE0917502F09176020995BFEF5F
:10016C002B2EE0917502F09176020995BFEF2B2EA4
:10017C00E0917502F0917602099533D02F900A81A7
:10018C00003069F40B810074003021F0B4E0B093BE
:10019C007D0203C0B3E0B0937D0210E016C005C031
:1001AC00B1E0B0937D0210E010C001C00DC0088119
:1001BC001981173209F40F3039F0088119810F5F5A
:1001CC001F4F088319836CCF11E0012F7F906F9024
:1001DC005F904F903F902396CDBFDEBFDF91CF91C4
:0201EC00089574
:100860002F923F924F925F9202DC00917D02043002
:1008700019F4810192010DC0B9E081019201000FCC
:10088000111F221F331FBA95D1F7A801B9018A01A0
:100890009B017F926F92BFEF7B2E302E412E522E06
:1008A000632EB8E12B2EB2DC6F907F90003019F0F0
:1008B0009EDC11E09CC07F926F92BFEF2B2EE091E7
:1008C0007502F09176020995BFEF2B2EE09175022B
:1008D000F09176020995BEEF2B2EE0917502F09112
:1008E000760209956F907F9020E030E0F901E60DE7
:1008F000F71D00813F932F937F926F925F924F92EB
:100900003F922F92202EE0917502F0917602099588
:100910002F903F904F905F906F907F902F913F91DD
:10092000313009F42F3F29F089010F5F1F4F9801E3
:10093000DDCF7F926F925F924F923F922F92BFEFE7
:100940002B2EE0917502F09176020995BFEF2B2EC8
:10095000E0917502F09176020995BFEF2B2EE091A0
:100960007502F091760209952F903F904F905F901D
:100970006F907F90202F30E089010F711070103040
:1009800009F4053079F07F926F925F924F923F9217
:100990002F922DDC2F903F904F905F906F907F9023
:1009A00012E025C07F926F925F924F923F922F92FA
:1009B000BFEF2B2EE0917502F091760209952F90F2
:1009C0003F904F905F906F907F900F3F11F000002D
:1009D000E9CF7F926F925F924F923F922F9207DC06
:1009E0002F903F904F905F906F907F9010E0012F7D
:0A09F0005F904F903F902F90089504
:10037400CF93DF93CDB7DEB72297CDBFDEBF2196F3
:100384004F925F926F927F9270DE3F922F92BFEFF7
:100394007B2E3324442455246624BAE02B2E34DFE8
:1003A4002F903F90003019F020DF11E04AC03F92B7
:1003B4002F92BFEF2B2EE0917502F09176020995F2
:1003C4002F903F900E3F11F00000F1CF30E040E05D
:1003D400032F142F020D131D088319834F933F938A
:1003E4003F922F92BFEF2B2EE0917502F09176028F
:1003F40009952F903F903F914F9118812981E12FCA
:10040400F22F0083403009F43F3039F0032F142FCA
:100414000F5F1F4F302F412FDBCF3F922F92BFEF43
:100424002B2EE0917502F09176020995BFEF2B2EE9
:10043400E0917502F09176020995D7DE2F903F90F6
:1004440010E0012F7F906F905F904F902196CDBF69
:08045400DEBFDF91CF91089596
:10032A002F92022D007F0695069506950695102FA9
:10033A00105D212F09E3011720F4022F095F202FF6
:10034A0000C0022D0F70102F105D312F09E3011725
:10035A0028F4032F095F102F012F01C0032F222E2B
:0A036A0074DE202E72DE2F9008953D
:10045C00CF93DF93CDB7DEB72297CDBFDEBF21960A
:10046C004F925F926F927F92FCDD3F922F92BFEF83
:10047C007B2E3324442455246624B9E02B2EC0DE75
:10048C002F903F90003019F0ACDE11E040C03F924D
:10049C002F92BFEF2B2EE0917502F0917602099509
:1004AC002F903F900E3F99F730E0032F10E0020D94
:1004BC00131D088319833F933F922F92BFEF2B2E6E
:1004CC00E0917502F091760209952F903F903F9143
:1004DC0018812981E12FF22F00833F3021F0032F67
:1004EC000F5F302FE2CF3F922F92BFEF2B2EE09178
:1004FC007502F09176020995BFEF2B2EE0917502F3
:10050C00F091760209956DDE2F903F9010E0012F4F
:10051C007F906F905F904F902196CDBFDEBFDF91A3
:04052C00CF910895CE
:10053000CF93DF93CDB7DEB72297CDBFDEBF219635
:100540002F923F924F925F9292DD00917D02043094
:1005500019F4810192010DC0B9E081019201000FEF
:10056000111F221F331FBA95D1F7A801B9018A01C3
:100570009B017F926F92BFEF7B2E302E412E522E29
:10058000632EB1E12B2E42DE6F907F90003019F088
:100590002EDE11E062C07F926F925F924F923F9287
:1005A0002F92BFEF2B2EE0917502F0917602099504
:1005B0002F903F904F905F906F907F900E3F11F083
:1005C0000000E9CF30E040E0032F142F060D171D87
:1005D000088319834F933F937F926F925F924F925C
:1005E0003F922F92BFEF2B2EE0917502F091760291
:1005F00009952F903F904F905F906F907F903F9123
:100600004F9118812981E12FF22F0083413009F4A5
:100610003F3F39F0032F142F0F5F1F4F302F412F13
:10062000D3CF7F926F925F924F923F922F92BFEF04
:100630002B2EE0917502F09176020995BFEF2B2EDB
:10064000E0917502F09176020995D1DD2F903F90EF
:100650004F905F906F907F9010E0012F5F904F90D0
:100660003F902F902196CDBFDEBFDF91CF910895AF
:000670008A
:10067000BAE2B0937902B0E0B0937A02BFEFB093E0
:100680007B02BFEFB0937C02BFEFB0937E02BFEF5F
:10069000B0937F02BFEFB0938102BFEFB0938202AD
:1006A000B1B3BE7FB1BBB1B3B260B1BB0AB1086137
:0806B0000AB9B6E8B0BD0895D7
:00000001FF
