:10000000EFEF28F00000000000EF00F0000000001B
:0A0010000000000000000000F3D71C
:10001C0090C4C9FF026A0250000A05E1000EC7B085
:10002C00010E026EF8D7C9CF01F001C000F012002A
:10003C0090C46AFF026A0250000A05E1000E68B023
:10004C00010E026EF8D76ACF01F001C000F0120069
:10005C00F250026EF29E0500FF6A0150FE6E0050D7
:08006C00FD6E02BEF28E1200CF
:1000740004018751200AFF0ED8A4000E026E875196
:100084000F08000ED8B0FF0E016E0B0E875D000E38
:10009400D8B0FF0E006E0150001600500210036E1F
:0600A40003C000F0120091
:0400AA008D90120023
:1000AE0087C401F088C402F0000E04018B1902E12E
:1000BE00000E8A190DE0010E8A5F000E8B5B01C0E7
:1000CE00E1FF02C0E2FF89C4E6FF014A022AECD733
:0200DE0012000E
:1000E000400E04018725006ED9C2E1FFDAC2E2FFAB
:1000F00000C0E6FFD7C200F0D8C201F0AFDFD9C21E
:10010000E1FFDAC2E2FF8BC4E6FFD7C200F0D8C23B
:1001100001F0A4DFD9C2E1FFDAC2E2FF8AC4E6FF40
:10012000D7C200F0D8C201F099DFD9C2E1FFDAC22C
:10013000E2FF89C4E6FFD7C200F0D8C201F08EDF2B
:10014000D9C2E1FFDAC2E2FF88C4E6FFD7C200F0FD
:10015000D8C201F083DFD9C2E1FFDAC2E2FF8CC46A
:10016000E6FFD7C200F0D8C201F078DF04018E6B41
:100170008F6BD9C2E1FFDAC2E2FFFF0EE66ED7C293
:1001800000F0D8C201F06ADF00C08DF404018E4B8C
:100190008F2B800E8D15006E0050000AFF0ED8A424
:1001A000000E016E000E8F5D02E1640E8E5D000E8A
:1001B000D8B0FF0E006E0150001201E1DAD78DC4F5
:0401C00000F0120039
:0C01C400DE5003E0E66EE2EF00F01200F7
:1001D000D9C2E1FFDAC2E2FFFF0EE66ED7C200F03D
:0E01E000D8C201F03BDF0050FE0AF2E112002F
:1001EE008D80D9C2E1FFDAC2E2FFFF0EE66ED7C202
:0A01FE0000F0D8C201F02BDF120060
:1002080087C4E9FF88C4EAFFEECF02F0010E0401BB
:100218008725E96E000E8821EA6EEECF03F002C052
:0802280000F003C001F0120018
:1002300087C4E9FF88C4EAFFEECF04F0010E040191
:100240008725E96E000E8821EA6EEECF05F0020EDA
:100250008725E96E000E8821EA6EEECF06F0030EC8
:100260008725E96E000E8821EA6EEECF07F004C004
:1002700000F005C001F006C002F007C003F0120054
:1002800014DF00017251040A09E174C479F475C4E1
:100290007AF476C47BF477C47CF414D0090E006E33
:1002A00074C479F475C47AF476C47BF477C47CF4AE
:1002B000005008E00401793779917A377B377C3731
:1002C000FF0FF7D70401120E876F79C488F47AC440
:1002D00089F47BC48AF47CC48BF4FF0E8C6F00DF3E
:1002E0000050000A05E083DF010E0401786F01D0A1
:0802F000786B78C400F01200E5
:1002F800220E0C6E086A096A0A6A0B6A0C06D8B4E0
:100308001FD0D8900B320A32093208320332023237
:1003180001320032D8A0F2D70C06D8B409D0045064
:1003280008260550092206500A2207500B22EAD750
:10033800045008260550092206500A2207500B22AD
:020348001200A1
:10034A000B6A0A6A096A00500402F4CF09F0F3CF73
:10035A0008F001500502F4CF0BF0F3CF0AF0005079
:10036A000502F3500926F4500A22E86A0B220150CA
:10037A000402F3500926F4500A22E86A0B2208C044
:10038A0000F009C001F00AC002F00BC003F012002D
:10039A00086A096A100E0C6E0134083609360450D0
:1003AA00085E0550D8A0053C095ED8B007D00450B5
:1003BA0008260550D8B0053C0926D89000360136E3
:0603CA000C2EEAD7120020
:1003D0000B6A0A6A096A086A0E6A0334083604500E
:1003E000085E0550D8A0053C095E0650D8A0063C22
:1003F0000A5E0750D8A0073C0B5EE86AD8A0010E41
:100400000E5E0336070E0C6E0334083609360A36C4
:100410000B360E36045003A012D0085E0550D8A04B
:10042000053C095E0650D8A0063C0A5E0750D8A0DD
:10043000073C0B5EE86AD8A0010E0E5E11D00826BC
:100440000550D8B0053C09260650D8B0063C0A260F
:100450000750D8B0073C0B26E86AD8B0010E0E262C
:1004600003360C2ED1D70234083609360A360B363D
:100470000E36045003A012D0085E0550D8A0053CEB
:10048000095E0650D8A0063C0A5E0750D8A0073C7B
:100490000B5EE86AD8A0010E0E5E11D0082605504A
:1004A000D8B0053C09260650D8B0063C0A260750AD
:1004B000D8B0073C0B26E86AD8B0010E0E260236EB
:1004C000070E0C6E0234083609360A360B360E3625
:1004D000045002A012D0085E0550D8A0053C095E69
:1004E0000650D8A0063C0A5E0750D8A0073C0B5E19
:1004F000E86AD8A0010E0E5E11D008260550D8B0CB
:10050000053C09260650D8B0063C0A260750D8B04C
:10051000073C0B26E86AD8B0010E0E2602360C2ED8
:10052000D1D70134083609360A360B360E36045058
:1005300002A012D0085E0550D8A0053C095E065006
:10054000D8A0063C0A5E0750D8A0073C0B5EE86ABC
:10055000D8A0010E0E5E11D008260550D8B0053C7B
:1005600009260650D8B0063C0A260750D8B0073CEA
:100570000B26E86AD8B0010E0E260136070E0C6E67
:100580000134083609360A360B360E36045001A0FF
:1005900012D0085E0550D8A0053C095E0650D8A0D0
:1005A000063C0A5E0750D8A0073C0B5EE86AD8A05C
:1005B000010E0E5E11D008260550D8B0053C092664
:1005C0000650D8B0063C0A260750D8B0073C0B2688
:1005D000E86AD8B0010E0E2601360C2ED1D70034B1
:1005E000083609360A360B360E36045001A012D0F2
:1005F000085E0550D8A0053C095E0650D8A0063C10
:100600000A5E0750D8A0073C0B5EE86AD8A0010E2E
:100610000E5E11D008260550D8B0053C09260650BC
:10062000D8B0063C0A260750D8B0073C0B26E86A2B
:10063000D8B0010E0E260036070E0C6E00340836B8
:1006400009360A360B360E36045000A012D0085E6A
:100650000550D8A0053C095E0650D8A0063C0A5EAD
:100660000750D8A0073C0B5EE86AD8A0010E0E5ECA
:1006700011D008260550D8B0053C09260650D8B040
:10068000063C0A260750D8B0073C0B26E86AD8B0CB
:10069000010E0E2600360C2ED1D700B00ED004501D
:1006A00008260550D8B0053C09260650D8B0063CAF
:0C06B0000A260750D8B0073C0B261200A9
:1006BC0074C404F075C405F076C406F077C407F072
:1006CC00026A036A000E0401791902E1000E78191E
:1006DC0023E0010E785F000E795B06C0E9FF07C0CE
:1006EC00EAFFEECF01F004C0E9FF05C0EAFFEECF50
:1006FC0000F00150005C026E000E036E000E0356FB
:10070C00000E031802E1000E021801E005D0044AA5
:10071C00052A064A072AD6D702C000F003C001F00A
:02072C001200B9
:10072E00760E006E040E016E00C082F401C083F4DA
:10073E0074C484F475C485F400C087F401C088F4D1
:10074E00200E0401896F0B0E8A6F000E8B6FA8DCD2
:10075E00816B84C4E9FF85C4EAFFEECF00F0005040
:10076E00000A000ED8A4FF0E866F00C087F47BDC53
:10077E000050000A000ED8A4FF0E016E015086151F
:10078E00006E03E0844B852BE4D784C4E9FF85C457
:10079E00EAFFEE502E0A0EE12E0E766F844B852B5D
:1007AE0084C4E9FF85C4EAFFEE502E0A02E12E0E44
:1007BE00776F62D084C4E9FF85C4EAFFEECF00F004
:1007CE000050000A000ED8A4FF0E866F00C087F4FA
:1007DE004ADC0050000AFF0ED8A4000E016E8651AE
:1007EE00011684C4E9FF85C4EAFFEE502E0A000EFE
:1007FE00D8A4FF0E006E015000160FE084C4E9FF6E
:10080E0085C4EAFF82C4E1FF83C4E2FFEECFE6FFB8
:10081E00824B832B844B852BCDD784C4E9FF85C4B3
:10082E00EAFFEE502E0A02E1844B852B760E826F84
:10083E00040E836F080E8227000E832384C4E9FF03
:10084E0085C4EAFFEE50000A17E082C4E9FF83C4B4
:10085E00EAFFEE50000A01E10FD084C4E9FF85C41F
:10086E00EAFF82C4E1FF83C4E2FFEECFE6FF824BD4
:10087E00832B844B852BE2D774C4E1FF75C4E2FF52
:0E088E00760ED96E040EDA6E96DCE66A120063
:10089C0074C478F475C479F476C47AF477C47BF4B0
:1008AC0004017C6B7D6B78C4E9FF79C4EAFFEE50E0
:1008BC00200A01E117D078C4E9FF79C4EAFF7AC4B1
:1008CC00E1FF7BC4E2FFEECFE6FF7A4B7B2B784B4C
:1008DC00792B000E7D1902E1070E7C1903E07C4B8D
:1008EC007D2BE1D7080E7425016E000E7521026E6A
:1008FC0001C078F402C079F401C0E9FF02C0EAFF3C
:10090C00EE50200A29E07AC4E1FF7BC4E2FF2E0EF0
:10091C00E66E7A4B7B2B7C6B7D6B78C4E9FF79C4DC
:10092C00EAFFEE50200A01E117D078C4E9FF79C440
:10093C00EAFF7AC4E1FF7BC4E2FFEECFE6FF7A4B1D
:10094C007B2B784B792B000E7D1902E1020E7C1962
:10095C0003E07C4B7D2BE1D77AC4E1FF7BC4E2FF43
:10096C00E66A0D0E7625E16E000E7721E26E0B0E17
:10097C007425E96E000E7521EA6EEECFE6FF1A0EB5
:10098C0076257E6F000E77217F6F1C0E7425876F86
:10099C00000E7521886F46DC7EC4E1FF7FC4E2FF48
:1009AC0000C0E6FF01C0E6FF02C0E6FF03C0E6FFA1
:1009BC001E0E76257E6F000E77217F6F1A0E742522
:1009CC00876F000E7521886F19DC7EC4E1FF7FC430
:1009DC00E2FF00C0E6FF01C0E6FF0E0E7425046EB8
:1009EC00000E7521056E0E0E7425006E000E75211D
:1009FC00016E010E0024E96E000E0120EA6EEECFAE
:100A0C0003F003C002F0016A04C0E9FF05C0EAFF6D
:100A1C00EECF00F000500124036E000E0220046E95
:100A2C0003C07CF404C07DF40E0E7625006E000E1F
:100A3C007721016E030E0024E16E000E0120E26EA0
:100A4C000B0E026E03C000F004C001F0025005E072
:100A5C0001320032019EFF0FFAD700C0E6FF0E0EE6
:100A6C007625006E000E7721016E040E0024E16ED7
:100A7C00000E0120E26E050E026E7CC400F07DC4F7
:100A8C0001F0025005E001320032019EFF0FFAD74F
:100A9C003F0E0014006E00C0E6FF0E0E7625006EB1
:100AAC00000E7721016E050E0024E16E000E012070
:100ABC00E26E1F0E7C15026E02C000F00036009034
:100ACC0000C0E6FF100E7425026E000E7521036E39
:100ADC00100E7425006E000E7521016E010E00249F
:100AEC00E96E000E0120EA6EEECF01F001C005F0B8
:100AFC00046A02C0E9FF03C0EAFFEECF00F0005029
:100B0C000424026E000E0520036E02C07CF403C0A8
:100B1C007DF40E0E7625006E000E7721016E020E0E
:100B2C000024E16E000E0120E26E1F0E0214006E16
:100B3C0000C0E6FF0E0E7625006E000E7721016ECA
:100B4C00010E0024E16E000E0120E26E050E026E15
:100B5C007CC400F07DC401F0025005E0013200328B
:100B6C00019EFF0FFAD70F0E0014006E00C0E6FFB7
:100B7C000E0E7625E16E000E7721E26E090E026EE6
:100B8C007CC400F07DC401F0025005E0013200325B
:100B9C00019EFF0FFAD700C0E6FF160E7425046EF7
:100BAC00000E7521056E160E7425006E000E752153
:100BBC00016E010E0024E96E000E0120EA6EEECFEC
:100BCC0003F003C002F0016A04C0E9FF05C0EAFFAC
:100BDC00EECF00F000500124036E000E0220046ED4
:100BEC0003C07CF404C07DF4140E7625006E000E58
:100BFC007721016E030E0024E16E000E0120E26EDF
:100C0C000B0E026E03C000F004C001F0025005E0B0
:100C1C0001320032019EFF0FFAD700C0E6FF140E1E
:100C2C007625006E000E7721016E040E0024E16E15
:100C3C00000E0120E26E050E026E7CC400F07DC435
:100C4C0001F0025005E001320032019EFF0FFAD78D
:100C5C003F0E0014006E00C0E6FF140E7625006EE9
:100C6C00000E7721016E050E0024E16E000E0120AE
:100C7C00E26E1F0E7C15026E02C000F00036009072
:100C8C0000C0E6FF180E7425026E000E7521036E6F
:100C9C00180E7425006E000E7521016E010E0024D5
:100CAC00E96E000E0120EA6EEECF01F001C005F0F6
:100CBC00046A02C0E9FF03C0EAFFEECF00F0005067
:100CCC000424026E000E0520036E02C07CF403C0E7
:100CDC007DF4140E7625006E000E7721016E020E47
:100CEC000024E16E000E0120E26E1F0E0214006E55
:100CFC0000C0E6FF140E7625006E000E7721016E03
:100D0C00010E0024E16E000E0120E26E050E026E53
:100D1C007CC400F07DC401F0025005E001320032C9
:100D2C00019EFF0FFAD70F0E0014006E00C0E6FFF5
:100D3C00140E7625E16E000E7721E26E090E026E1E
:100D4C007CC400F07DC401F0025005E00132003299
:0C0D5C00019EFF0FFAD700C0E6FF120056
:100D6800E8EC00F00401766B776B76517425786FA8
:100D780077517521796FD9C2E1FFDAC2E2FFFF0E20
:100D8800E66ED7C200F0D8C201F02EEC00F078C4AD
:100D9800E1FF79C4E2FF00C0E6FF04017751010AD0
:100DA80002E1FF0E761903E0764B772BDED7D9C226
:100DB800E1FFDAC2E2FFFF0EE66ED7C200F0D8C24A
:100DC80001F02EEC00F0D9C2E1FFDAC2E2FFFF0E1B
:100DD800E66ED7C200F0D8C201F02EEC00F0120087
:100DE800D9C2E1FFDAC2E2FF4C0EE66ED7C200F0CC
:100DF800D8C201F02EEC00F0D9C2E1FFDAC2E2FF5E
:100E0800E66AD7C200F0D8C201F02EEC00F0D9C2D1
:100E1800E1FFDAC2E2FFE66AD7C200F0D8C201F009
:100E28002EEC00F0D9C2E1FFDAC2E2FFE66AD7C2CF
:100E380000F0D8C201F02EEC00F0D9C2E1FFDAC20E
:100E4800E2FFE66AD7C200F0D8C201F02EEC00F04B
:100E5800D9C2E1FFDAC2E2FFFF0EE66ED7C200F0A8
:100E6800D8C201F02EEC00F00401756B766BD9C284
:100E7800E1FFDAC2E2FFFF0EE66ED7C200F0D8C289
:100E880001F02EEC00F000C077F40401754B762BCE
:100E9800800E00160050000AFF0ED8A4000E016E46
:100EA800000E761902E1640E7519FF0ED8A4000E23
:100EB800006E0150001201E1DAD7800E7715016E3D
:100EC8000150000A05E0F7EC00F077C474F416D07E
:100ED800D9C2E1FFDAC2E2FFFF0EE66ED7C200F028
:100EE800D8C201F02EEC00F000C077F40050000AE0
:100EF80001E1EED7F7EC00F00401746B74C400F064
:020F08001200D5
:100F0A0055EC00F000017251040A09E174C47DF441
:100F1A0075C47EF476C47FF477C480F414D0090EC5
:100F2A00006E74C47DF475C47EF476C47FF477C40D
:100F3A0080F4005008E004017D377D917E377F37C9
:100F4A008037FF0FF7D70401110E876F7DC488F42D
:100F5A007EC489F47FC48AF480C48BF4FF0E8C6F3C
:100F6A0070EC00F00050000A06E0F7EC00F0010E09
:100F7A0004017A6F52D0D9C2E1FFDAC2E2FFFF0E52
:100F8A00E66ED7C200F0D8C201F02EEC00F0005095
:100F9A00FE0A02E00000EFD704017B6B7C6B7B51F9
:100FAA007825816F7C517921826FD9C2E1FFDAC23B
:100FBA00E2FFFF0EE66ED7C200F0D8C201F02EECB7
:100FCA0000F081C4E1FF82C4E2FF00C0E6FF040131
:100FDA007C51010A02E1FF0E7B1903E07B4B7C2B5B
:100FEA00DED7D9C2E1FFDAC2E2FFFF0EE66ED7C250
:100FFA0000F0D8C201F02EEC00F0D9C2E1FFDAC24B
:10100A00E2FFFF0EE66ED7C200F0D8C201F02EEC66
:10101A0000F0F7EC00F004017A6B7AC400F01200D9
:10102A0055EC00F000017251040A09E174C47DF420
:10103A0075C47EF476C47FF477C480F414D0090EA4
:10104A00006E74C47DF475C47EF476C47FF477C4EC
:10105A0080F4005008E004017D377D917E377F37A8
:10106A008037FF0FF7D70401180E876F7DC488F405
:10107A007EC489F47FC48AF480C48BF4FF0E8C6F1B
:10108A0070EC00F00050000A06E0F7EC00F0010EE8
:10109A0004017A6F98D0D9C2E1FFDAC2E2FFFF0EEB
:1010AA00E66ED7C200F0D8C201F02EEC00F0D9C229
:1010BA00E1FFDAC2E2FFFF0EE66ED7C200F0D8C245
:1010CA0001F02EEC00F0D9C2E1FFDAC2E2FFFE0E17
:1010DA00E66ED7C200F0D8C201F02EEC00F004018F
:1010EA007B6B7C6B7B517825E96E7C517921EA6EAA
:1010FA00D9C2E1FFDAC2E2FFEECFE6FFD7C200F0C3
:10110A00D8C201F02EEC00F004017C51010A02E180
:10111A00FF0E7B1903E07B4B7C2BE4D7D9C2E1FF9E
:10112A00DAC2E2FFFF0EE66ED7C200F0D8C201F0C3
:10113A002EEC00F0D9C2E1FFDAC2E2FFFF0EE66E42
:10114A00D7C200F0D8C201F02EEC00F0D9C2E1FFFC
:10115A00DAC2E2FFFF0EE66ED7C200F0D8C201F093
:10116A002EEC00F000C07BF4000E04017C6F1F0E11
:10117A007B15016E7CC402F0000E021601C07BF4DE
:10118A0002C07CF4000E021802E1050E011806E006
:10119A00F7EC00F0020E04017A6F15D0D9C2E1FF14
:1011AA00DAC2E2FFFF0EE66ED7C200F0D8C201F043
:1011BA002EEC00F00050FF0A02E00000EFD7F7EC37
:0C11CA0000F004017A6B7AC400F01200FF
:1011D60048C004F049C005F0000E066E076E63C4F1
:1011E60000F064C401F0000E026E036EE8EC01F03C
:1011F600575000240401746F58500120756F5950E0
:101206000220766F5A500320776F010E0201CB6FD2
:10121600CB0E0401786F000E796F74DE0050000A61
:1012260009E0100E03011F6FFF0E0401656FFF0E2C
:10123600666F25D048C004F049C005F063C400F0CD
:1012460064C401F0CDEC01F008C000F009C001F063
:1012560000C002F001C003F0023602900336CB0E46
:101266000224876F000E0320886F04EC01F000C093
:1012760063F401C064F400C065F401C066F465C49B
:0812860000F066C401F0120043
:10128E0055C000F056C001F048C004F049C005F04A
:10129E00A5EC01F000C065F401C066F4020E040175
:1012AE00676F000E686F48C004F049C005F0000E6D
:1012BE00066E076E020E006E000E016E000E026EBE
:1012CE00036EE8EC01F000C069F401C06AF402C0DC
:1012DE006BF403C06CF457500024696F5850012012
:1012EE006A6F595002206B6F5A5003206C6F48C0C2
:1012FE0004F049C005F0020E006E000E016ECDEC3A
:10130E0001F008C000F009C001F000C002F001C0F9
:10131E0003F0023602900336CB0E02246D6F000EE0
:10132E0003206E6F69C474F46AC475F46BC476F4EA
:10133E006CC477F440EC01F0010E0201CB6FCB0EC2
:10134E000401746F000E756F08DD04016651685D4F
:10135E0002E16551675D2BE26DC4E9FF6EC4EAFFE1
:10136E00EECF01F0EECF02F0000E021802E1000EF9
:10137E00011801E11CD0020E6D25016E000E6E21CA
:10138E00026E01C06DF402C06EF4674B682B025002
:10139E004B1802E14A50011809E1CB0E6D6F000E99
:1013AE006E6FCB0E746F000E756FD7DCCED715DD5A
:1013BE00005209E0100E03011F6FFF0E0401636F50
:1013CE00FF0E646F10D004016851661902E1655179
:1013DE00671905E1FF0E636FFF0E646F04D067C4DB
:1013EE0063F468C464F463C400F064C401F01200D2
:1013FE00040163517A08000ED8B0FF0E016E610E23
:10140E00635D000ED8B0FF0E006E0150001602E0B4
:0E141E00DF0E631763C402F002C000F012007C
:10142C0063C404F064C405F004C0E9FF05C0EAFF1E
:10143C00EE50000A03E0044A052AF6D70401635172
:10144C00045C026E64510558036E02C000F003C0C8
:04145C0001F0120089
:1014600048C004F049C005F0000E066E076E63C464
:1014700000F064C401F0000E026E036EE8EC01F0AF
:1014800000C06CF401C06DF402C06EF403C06FF4D0
:101490005750002658500122595002225A50032218
:1014A00000C06CF401C06DF402C06EF403C06FF4B0
:1014B000010E0201CB6F00C074F401C075F402C0CC
:1014C00076F403C077F4CB0E0401786F000E796FC9
:1014D0001CDD0050000A07E0100E03011F6FFF0E15
:1014E0000401676F8DD048C004F049C005F063C4A3
:1014F00000F064C401F0CDEC01F008C000F009C0B8
:1015000001F000C06AF401C06BF400C002F001C039
:1015100003F002360290033602C06AF403C06BF493
:10152000CB0E0224E16E000E0320E26E65C4E6FFDE
:10153000010E6A25006E000E6B21016ECB0E002499
:10154000E16E000E0120E26E66C4E6FF6CC474F426
:101550006DC475F46EC476F46FC477F4CB0E786FF7
:10156000000E796F62DD0050000A07E0050E0301EE
:101570001F6FFF0E0401676F43D0010E686F000EEE
:10158000696F5204706F000E006E6951005C02E1D9
:101590006851705D34E355506C25006E56506D21D6
:1015A000016E000E6E21026E000E6F21036E00C0F0
:1015B0006CF401C06DF402C06EF403C06FF400C09F
:1015C00074F401C075F402C076F403C077F4CB0E56
:1015D000786F000E796F29DD0050000A07E0050ED4
:1015E00003011F6FFF0E0401676F0AD0000E691917
:1015F00002E17051681903E0684B692BC2D7676B31
:0616000067C400F01200B7
:1016060063C474F464C475F497EC03F003011E51CB
:101616005E1808E11D515D1805E11C515C1802E1D8
:101626001B515B1805E153C06EF454C06FF40ED025
:101636004EC000F04FC001F001C304F002C305F034
:10164600A5EC01F000C06EF401C06FF41BC36AF490
:101656001CC36BF41DC36CF41EC36DF4CB0E0401E6
:10166600706F000E716F1BC374F41CC375F41DC339
:1016760076F41EC377F440EC01F0010E0201CB6F45
:10168600CB0E0401746F000E756FB4EC06F0040106
:10169600686B696B010E6E5D726F000E6F59736F2A
:1016A6006951735D02E16851725DD8A088D070C43B
:1016B60074F471C475F463C476F464C477F40B0EE1
:1016C600786F000E796F5EEC03F0000E011802E1F0
:1016D600000E001849E1F4EC06F0005207E0100E87
:1016E60003011F6FFF0E0401676F77D00401000E20
:1016F600661902E1000E651936E070C474F471C40F
:1017060075F465C476F466C477F44EEC04F0200EE6
:101716006525E16E000E6621E26E6AC4E6FF6BC4C3
:10172600E6FF6CC4E6FF6DC4E6FF240E6525E16E98
:10173600000E6621E26ECB0E705D036E000E7159CF
:10174600046E050E026E03C000F004C001F00250E4
:1017560005E001320032019EFF0FFAD700C0E6FF16
:1017660001C0E6FF676B39D00401200E7025016EBB
:10177600000E7121026E01C070F402C071F40250B5
:101786004B1802E14A50011810E1010E6A27000EBB
:101796006B236C236D23CB0E706F000E716FCB0E17
:1017A600746F000E756FB4EC06F00401695173197D
:1017B60002E17251681903E0684B692B6BD7F4ECB0
:1017C60006F0005207E0100E03011F6FFF0E040122
:1017D600676F03D00401FF0E676F67C400F0120045
:1017E60063C400F064C401F0000E026E036E020EC4
:1017F600005E000E015A025A035A4EC004F04FC052
:1018060005F0000E066E076E7CEC01F000505F24BA
:101816000401656F0150000160210401666F0250EA
:10182600000161210401676F035000016221040178
:10183600686F65C400F066C401F067C402F068C44E
:0418460003F0120099
:10184A0063C401F064C402F065C403F066C404F022
:10185A00000E0401681902E1000E671913E0010E77
:10186A00675F000E685B03C0E9FF04C0EAFF01C0BE
:10187A00E1FF02C0E2FFEECFE6FF014A022A034A75
:06188A00042AE6D712005B
:10189000030130515E1808E12F515D1805E12E510A
:1018A0005C1802E12D515B1805E153C03DF454C0B2
:1018B0003EF40ED04EC000F04FC001F001C304F062
:1018C00002C305F0A5EC01F000C03DF401C03EF4F8
:1018D000325104013E1903E13D510301311903E185
:1018E00004013C6BBBD001C304F002C305F0000E41
:1018F000066E076E31C300F032C301F0000E026EB7
:10190000036EE8EC01F0005003012D250401416F46
:10191000015003012E210401426F025003012F21C7
:101920000401436F0350030130210401446F01C3DC
:1019300004F002C305F031C300F032C301F0CDEC76
:1019400001F008C000F009C001F0050E046E00C0EF
:1019500002F001C003F0045005E0023602900336A5
:10196000FF0FFAD7CB0E02243F6F000E0320406F0B
:1019700041C474F442C475F443C476F444C477F4A7
:1019800040EC01F0010E0201CB6FCB0E0401746F2D
:10199000000E756FB4EC06F004013E510301325D98
:1019A00004E104013D510301315D4BE2314B322B27
:1019B0003FC4E9FF40C4EAFFEECF02F00250E50A5F
:1019C000000ED8A4FF0E016E200E025C000ED8B0EF
:1019D000FF0E006E0150001618E0F4EC06F0005205
:1019E00007E0100E03011F6FFF0E04013C6F36D09D
:1019F0003FC474F440C475F43AC476F43BC477F43D
:101A00004EEC04F0010E3C6F29D00401200E3F255E
:101A1000016E000E4021026E01C03FF402C040F48E
:101A200002504B1802E14A5001180AE1CB0E3F6FF9
:101A3000000E406FCB0E746F000E756FB4EC06F0A5
:101A4000ABD7F4EC06F0005207E0100E03011F6F55
:101A5000FF0E04013C6F02D004013C6B3CC400F05B
:021A6000120072
:101A62000301316B326B3AC4E9FF3BC4EAFFEE502B
:101A7200000A52E03AC463F43BC464F43D0E006EC3
:101A8200040E016E00C065F401C066F4BBDD800E79
:101A92000018016E800E000A015C07E2020E0301CB
:101AA2001F6FFF0E04013C6F42D0100E4A15016EEB
:101AB2000150000A07E1010E03011F6FFF0E04012E
:101AC2003C6F35D05BC400F05CC401F0000E026EC6
:101AD200036E020E005E000E015A025A035A4EC0F5
:101AE20004F04FC005F0000E066E076E7CEC01F0AC
:101AF20000505F2403012D6F01500001602103019A
:101B02002E6F02500001612103012F6F035000016B
:101B120062210301306F08D01BC32DF31CC32EF3C7
:101B22001DC32FF31EC330F3010E04013C6F3CC4EE
:041B320000F01200AD
:101B36001A0E04013A25876F000E3B21886F04ECCC
:101B460001F03EC4E1FF3FC4E2FF00C0E6FF01C072
:101B5600E6FF3EC4E9FF3FC4EAFFEECF01F0EECF59
:101B660002F0000E021802E1000E01182CE147EC0B
:101B760009F03EC4E1FF3FC4E2FF00C0E6FF01C03A
:101B8600E6FF3EC4E9FF3FC4EAFFEECF01F0EECF29
:101B960002F00250FF0A02E1FF0E011807E1040EEF
:101BA60003011F6FFF0E0401406F86D13EC4E9FF9B
:101BB6003FC4EAFFEECF63F4EECF64F4FF0E656F29
:101BC600FF0E666F4ADC3EC4E9FF3FC4EAFFEECF74
:101BD60063F4EECF64F404DE3CC4E1FF3DC4E2FFEF
:101BE60000C0E6FF01C0E6FF02C0E6FF03C0E6FF55
:101BF600010E0201CB6FCB0E0401876F000E886FBA
:101C0600896B000E8A6F020E8B6F57EC00F0030192
:101C16001E515E1808E11D515D1805E11C515C1846
:101C260002E11B515B1805E153C043F454C044F470
:101C36000ED04EC000F04FC001F001C304F002C345
:101C460005F0A5EC01F000C043F401C044F41BC349
:101C560047F41CC348F41DC349F41EC34AF4CB0E13
:101C66000401456F000E466F1BC374F41CC375F464
:101C76001DC376F41EC377F440EC01F0010E020199
:101C8600CB6FCB0E0401746F000E756FB4EC06F0CB
:101C96000401416B426B010E435D4B6F000E4459CC
:101CA6004C6F42514C5D02E141514B5DD8A0F3D0DF
:101CB60045C4E9FF46C4EAFFEECF02F00250E50A4A
:101CC600FF0ED8A4000E016E200E025CFF0ED8B0E7
:101CD600000E006E01500012D8B4B3D0F4EC06F03A
:101CE600005207E0100E03011F6FFF0E0401406F44
:101CF600E3D0040145C463F446C464F43AC465F40D
:101D06003BC466F4200E676F000E686F9BDD1A0EEB
:101D16004525E16E000E4621E26E3EC4E9FF3FC452
:101D2600EAFFFF0EEE14006E00C0E6FF1A0E452510
:101D3600006E000E4621016E010E0024E16E000EBB
:101D46000120E26E3EC4E9FF3FC4EAFFEECF03F096
:101D5600EECF04F004C000F0016A00C0E6FF0E0EEC
:101D66004525E16E000E4621E26E05C3E6FF0E0E26
:101D76004525006E000E4621016E010E0024E16E1F
:101D8600000E0120E26E06C3E6FF100E4525E16E49
:101D9600000E4621E26E03C3E6FF100E4525006ED7
:101DA600000E4621016E010E0024E16E000E012098
:101DB600E26E04C3E6FF160E4525E16E000E4621CF
:101DC600E26E05C3E6FF160E4525006E000E46219F
:101DD600016E010E0024E16E000E0120E26E06C3C4
:101DE600E6FF180E4525E16E000E4621E26E03C39E
:101DF600E6FF180E4525006E000E4621016E010E07
:101E06000024E16E000E0120E26E04C3E6FF47C423
:101E160074F448C475F449C476F44AC477F4CB0E16
:101E2600786F000E796F15EC08F00050000A07E095
:101E3600050E03011F6FFF0E0401406F3DD0406B7E
:101E46003BD0200E4525016E000E4621026E01C0D4
:101E560045F402C046F402504B1802E14A500118FC
:101E660010E1010E4727000E482349234A23CB0ED3
:101E7600456F000E466FCB0E746F000E756FB4EC97
:101E860006F0040142514C1902E14B51411903E09D
:101E9600414B422B00D7F4EC06F0005207E0100E3F
:101EA60003011F6FFF0E0401406F06D0060E0301EB
:0E1EB6001F6FFF0E0401406F40C400F01200C9
:0E1EC400ACB202D00000FCD73AC4ADFF120051
:101ED2000450085E0550D8A0053C095E0650D8A003
:101EE200063C0A5E0750D8A0073C0B5E0336070E7D
:101EF2000C6E0334083609360A360B36045003A03A
:101F02000ED0085E0550D8A0053C095E0650D8A048
:101F1200063C0A5E0750D8A0073C0B5E0DD008268F
:101F22000550D8B0053C09260650D8B0063C0A2612
:101F32000750D8B0073C0B2603360C2EDAD70234F2
:101F4200083609360A360B36045003A00ED0085E56
:101F52000550D8A0053C095E0650D8A0063C0A5E92
:101F62000750D8A0073C0B5E0DD008260550D8B00C
:101F7200053C09260650D8B0063C0A260750D8B0C0
:101F8200073C0B260236070E0C6E02340836093661
:101F92000A360B36045002A00ED0085E0550D8A0B7
:101FA200053C095E0650D8A0063C0A5E0750D8A040
:101FB200073C0B5E0DD008260550D8B0053C09261B
:101FC2000650D8B0063C0A260750D8B0073C0B266C
:101FD20002360C2EDAD70134083609360A360B36A9
:101FE200045002A00ED0085E0550D8A0053C095E40
:101FF2000650D8A0063C0A5E0750D8A0073C0B5EEC
:102002000DD008260550D8B0053C09260650D8B098
:10201200063C0A260750D8B0073C0B260136070EAD
:102022000C6E0134083609360A360B36045001A00C
:102032000ED0085E0550D8A0053C095E0650D8A017
:10204200063C0A5E0750D8A0073C0B5E0DD008265E
:102052000550D8B0053C09260650D8B0063C0A26E1
:102062000750D8B0073C0B2601360C2EDAD70034C5
:10207200083609360A360B36045001A00ED0085E27
:102082000550D8A0053C095E0650D8A0063C0A5E61
:102092000750D8A0073C0B5E0DD008260550D8B0DB
:1020A200053C09260650D8B0063C0A260750D8B08F
:1020B200073C0B260036070E0C6E00340836093634
:1020C2000A360B36045000A00ED0085E0550D8A088
:1020D200053C095E0650D8A0063C0A5E0750D8A00F
:1020E200073C0B5E0DD008260550D8B0053C0926EA
:1020F2000650D8B0063C0A260750D8B0073C0B263B
:1021020000360C2EDAD700B00ED004500826055047
:10211200D8B0053C09260650D8B0063C0A2607501E
:08212200D8B0073C0B261200A7
:08212A00016A01C000F012007F
:102132003AC463F43BC464F416EC0AF000C03DF404
:102142000050000A03E1FF0E3C6F64D03D510C08C1
:1021520003E2FE0E3C6F5ED03AC4E9FF3BC4EAFFE5
:10216200EE502E0A03E1FD0E3C6F54D03F6B3AC491
:1021720040F43BC441F43DC43EF4010E3D5D20E316
:102182003E513A25E96E000E3B21EA6EEE502E0AD0
:1021920012E1010E3F6F3E51080803E2FC0E3C6F54
:1021A20039D03E51010F006E00503A25406F000EAB
:1021B2003B21416F05D03E51010A02E03E07E0D7C4
:1021C2003F51010A000ED8A4FF0E016E3D510808CE
:1021D200FF0ED8B0000E006E0150001603E0FB0E99
:1021E2003C6F18D03F51010A14E140C463F441C46A
:1021F20064F416EC0AF000C03DF40050000A03E15A
:10220200F50E3C6F07D03D51030803E2F40E3C6F1C
:0A22120001D03C6B3CC400F0120048
:10221C0004013E6B3E513A253F6F000E3B21406F4F
:10222C003E513C25E96E000E3D21EA6EEECF63F483
:10223C00FFEC09F03FC4E1FF40C4E2FF00C0E6FF41
:0C224C003E510B0A02E03E2BE5D71200C9
:1022580004013B51FF0A02E1FF0E3A1917E03AC4A4
:1022680063F43BC464F4EBEC08F000C043F401C031
:1022780044F43AC463F43BC464F4656B666B30ECB5
:102288000AF043C43AF444C43BF4E2D7010E020115
:10229800CB6F3CC474F43DC475F43EC476F43FC4BB
:1022A80077F4CB0E0401786F000E796F85EC07F098
:1022B8000050000A07E0100E03011F6FFF0E040113
:1022C800426F21D0CB0E4025E16E000E4121E26E17
:1022D800E50EE66E3CC474F43DC475F43EC476F471
:1022E8003FC477F4CB0E786F000E796F15EC08F0C9
:1022F8000050000A07E0050E03011F6FFF0E0401DE
:0C230800426F01D0426B42C400F0120092
:10231400000E0006015ADECFE6FF0006015AFBE27A
:022324001200A5
:102326000B1E0A1E091E081E082AD8B4092AD8B48C
:082336000A2AD8B40B2A120098
:10233E0055C000F056C001F048C004F049C005F089
:10234E00A5EC01F000C0DFF301C0E0F3020E0301C3
:10235E00DB6F000EDC6F48C004F049C005F0000EC4
:10236E00066E076E020E006E000E016E000E026EFD
:10237E00036EE8EC01F000C0E3F301C0E4F302C029
:10238E00E5F303C0E6F357500024E36F58500120E5
:10239E00E46F59500220E56F5A500320E66F48C093
:1023AE0004F049C005F0020E006E000E016ECDEC79
:1023BE0001F008C000F009C001F000C002F001C039
:1023CE0003F0023602900336D7C3E1F3D8C3E2F32B
:1023DE00020EDD6F000EDE6FCB0E0224E76F000ED5
:1023EE000320E86FE3C374F4E4C375F4E5C376F435
:1023FE00E6C377F440EC01F0010E0201CB6FCB0E79
:10240E000401746F000E756FB4EC06F00301E05119
:10241E00DC5D02E1DF51DB5D42E2E7C3E9FFE8C3C9
:10242E00EAFFEECF01F0EECF02F0000E021802E14D
:10243E00000E01180CE1010EE15F000EE25B000ED2
:10244E00E21902E1000EE11901E129D00AD0D7C349
:10245E00E1F3D8C3E2F3010EDB25DD6F000EDC21C4
:10246E00DE6F020EE725016E000EE821026E01C03E
:10247E00E7F302C0E8F3DB4BDC2B02504B1802E112
:10248E004A5001180BE1CB0EE76F000EE86FCB0E32
:10249E000401746F000E756FB4EC06F0B7D7F4EC50
:1024AE0006F0005208E0100E03011F6FFF0ED96FE9
:1024BE00FF0EDA6F0ED00301000EE21902E1000EDC
:1024CE00E11905E1DDC3D9F3DEC3DAF302D0D96B2E
:0C24DE00DA6BD9C300F0DAC301F0120081
:1024EA00200E04013A6F030E3B6FD7C33CF4D8C3E6
:1024FA003DF48FDE200E636F030E646FDA0E006EFA
:10250A00030E016E00C065F401C066F403EC0BF023
:10251A00800E0018016E800E000A015C03E20301BE
:10252A00D96B03D00301010ED96FD9C300F0120091
:10253A0055C000F056C001F048C004F049C005F08B
:10254A00A5EC01F00301D951D725036EDA51D82140
:10255A00046E0450015C02E10350005C01E22ED1DA
:10256A0048C004F049C005F0000E066E076ED7C3D6
:10257A0000F0D8C301F0000E026E036EE8EC01F021
:10258A0000C0DCF301C0DDF302C0DEF303C0DFF3F9
:10259A0057500024DC6F58500120DD6F595002203B
:1025AA00DE6F5A500320DF6F48C004F049C005F0BF
:1025BA00D7C300F0D8C301F0CDEC01F008C000F099
:1025CA0009C001F000C003F001C004F00336039013
:1025DA000436D7C3E0F3D8C3E1F3CB0E0324E26F8A
:1025EA00000E0420E36F010E0201CB6F000E0418E7
:1025FA0002E1000E0318000ED8A4FF0E016E495026
:10260A000301DA5D02E14850D95DFF0ED8B0000E31
:10261A00006E0150001216E0DCC374F4DDC375F4D9
:10262A00DEC376F4DFC377F4CB0E0401786F000EB5
:10263A00796F85EC07F00050000A04E0100E0301E0
:10264A001F6FBCD00301010ED95F000EDA5B0301D4
:10265A00000EDA1902E1000ED919D8B472D0010EAF
:10266A00D95F000EDA5BE04BE12BE2C3E1FFE3C383
:10267A00E2FFE0C3E6FFE1C3E6FF020EE225016ED8
:10268A00000EE321026E01C0E2F302C0E3F302503E
:10269A004B1802E14A50011853E1DB6B5204E46F14
:1026AA00DB51E45D2EE3DBC300F0000E016E026E27
:1026BA00036E55C004F056C005F0000E066E076E94
:1026CA007CEC01F00050DC250401746F0150030119
:1026DA00DD210401756F02500301DE210401766FCA
:1026EA0003500301DF210401776FCB0E786F000ED0
:1026FA00796F15EC08F00301DB51E41902E0DB2BDA
:10270A00CDD7010EDC27000EDD23DE23DF23CB0E1F
:10271A00E26F000EE36F4950DA5D02E14850D95D7D
:10272A000FE2DCC374F4DDC375F4DEC376F4DFC3F1
:10273A0077F4CB0E0401786F000E796F85EC07F001
:10274A0086D7E2C3E1FFE3C3E2FFFF0EE66EFF0EA8
:10275A00E66E0301DB6B5204E46FDB51E45D2EE3AA
:10276A00DBC300F0000E016E026E036E55C004F06A
:10277A0056C005F0000E066E076E7CEC01F00050A4
:10278A00DC250401746F01500301DD210401756F1A
:10279A0002500301DE210401766F03500301DF2199
:1027AA000401776FCB0E786F000E796F15EC08F085
:0E27BA000301DB51E41902E0DB2BCDD7120046
:1027C800D7C33AF4D8C33BF4B0DC0050000A06E0A3
:1027D800120E03011F6F010ED96F97D0200E04014E
:1027E8003A6F030E3B6FD7C33CF4D8C33DF412DDF8
:1027F800000EE16E040EE26E200ED96E030EDA6E44
:10280800E2EC00F0E66A200E636F030E646FDA0EE6
:10281800006E030E016E00C065F401C066F403EC9F
:102828000BF0800E0018016E800E000A015C06E2B3
:10283800020E03011F6F020ED96F67D00301100E3D
:10284800E715016E0150000A38E00401336B346B60
:10285800000E3A6F040E3B6F31EC0DF0800E00183D
:10286800016E800E000A015C04E2020E0301D96FBA
:102878004CD00D0E006E040E016E00C03AF401C07B
:102888003BF448EC0CF00050000A0AE0334B342BC0
:10289800000E341902E1030E331901E101D0E9D722
:1028A80040DC000E345D02E1030E335D06E30C0EDE
:1028B80003011F6F030ED96F28D0F8C33AF4F9C388
:1028C8003BF4FAC33CF4FBC33DF4FCC33EF4FDC344
:1028D8003FF4050E006EFEC340F4FFC341F4005000
:1028E80006E00401403740914137FF0FF9D7B0DCCB
:1028F800800E0018016E800E000A015C04E2040ECE
:102908000301D96F02D00301D96BD9C300F01200BB
:10291800010E0201CB6F060E006E000E016EFFC2A3
:1029280004F0000E056EA5EC01F0E70E0026020E7D
:102938000122020E0024E96E000E0120EA6EEECF9D
:1029480074F4EECF75F4EECF76F4EECF77F4CB0EC9
:102958000401786F000E796F85EC07F0005206E0ED
:10296800100E03011F6FFF0ED76FD8D00B0E006E2D
:10297800000E016ECB0E00240401876F000E0120AB
:10298800886F04EC01F000C04CF001C04DF0D8C0D5
:102998004EF0000E4F6E0E0E006E000E016ECB0E46
:1029A8000024876F000E0120886F04EC01F000C03E
:1029B80050F001C051F0DBC052F0110E006E000E55
:1029C800016ECB0E0024876F000E0120886F04EC87
:1029D80001F000C053F001C054F0160E006E000E56
:1029E800016ECB0E0024876F000E0120886F04EC67
:1029F80001F000C055F001C056F0060E006E000E42
:102A0800016EFFC204F0000E056EA5EC01F0E70EA2
:102A18000026020E0122020E0024E96E000E01209B
:102A2800EA6E5050EE24006E5150EE20016E000EFA
:102A3800EE20026E000EEE20036E00C057F001C0BB
:102A480058F002C059F003C05AF052C000F0000E0E
:102A5800016E026E036E55C004F056C005F0000EFC
:102A6800066E076E7CEC01F0575000265850012284
:102A7800595002225A50032200C05BF001C05CF09A
:102A880002C05DF003C05EF0050E046E53C000F096
:102A980054C001F0000E026E036E045007E00036C9
:102AA8000090013602360336FF0FF8D74CC004F009
:102AB8004DC005F0000E066E076EE8EC01F05B50A5
:102AC80000265C5001225D5002225E50032200C0A5
:102AD8005FF001C060F002C061F003C062F04CC05A
:102AE80048F04DC049F049324832499E050E006E03
:102AF8004CC001F34DC002F3005006E0030102335D
:102B08000133029FFF0FF9D703015BC01BF35CC0C1
:102B18001CF35DC01DF35EC01EF3D76BD7C300F076
:022B2800120099
:102B2A000450000A12E10550000A0FE10650000A9B
:102B3A000CE10750000A09E1FF0E006EFF0E016E5C
:102B4A00FF0E026E7F0E036E99D00C6A07BE0C2A26
:102B5A000D6A0B6A0A6A096A086A035002100110B0
:102B6A000010D8B485D0035007180E6E0EBE0D1E85
:102B7A0007AE0BD0041E051E061E071E042AD8B473
:102B8A00052AD8B4062AD8B4072A03AE0BD0001EE9
:102B9A00011E021E031E002AD8B4012AD8B4022A32
:102BAA00D8B4032A035007100E6E0EBE1DD069EC6E
:102BBA000FF00CBE36D00DAE5BD0001E011E021EF9
:102BCA00031E002AD8B4012AD8B4022AD8B4032A88
:102BDA00081E091E0A1E0B1E082AD8B4092AD8B4D0
:102BEA000A2AD8B40B2A44D007AE15D003BE0DD09A
:102BFA0003500B6E02500A6E0150096E0050086EA7
:102C0A00036A026A016A006AD6D7036A026A016A1B
:102C1A00006A002A000C031E021E011E001E0C8EF2
:102C2A00C6D7082AD8B4092AD8B40A2AD8B40B2A8B
:102C3A000450085CD8A4BFD70550095CD8A4BBD7F8
:102C4A0006500A5CD8A4B7D707500B5CD8A4B3D7F0
:102C5A000B6A0A6A096A086A002AD8B4012AD8B42F
:102C6A00022AD8B4032A03AEA6D70E6A0E88FF0C2E
:0E2C7A000E6A0CA002D093EC11F0000F1200B5
:102C88000301D96BDA6BD751000A1BE155EC00F050
:102C9800010E0401876F886B896B8A6B8B6BFF0E43
:102CA8008C6F70EC00F000C0DBF3F7EC00F0030170
:102CB800DB51000A05E10001726B0301D86B9FD05C
:102CC80092D055EC00F0370E0401876F886B896B42
:102CD8008A6B8B6BFF0E8C6F70EC00F000C0DBF31F
:102CE800F7EC00F00301DB51010AD8A47BD055ECC6
:102CF80000F0290E0401876F000E886F000E896F9F
:102D0800000E8A6F400E8B6FFF0E8C6F70EC00F018
:102D180000C0DBF3F7EC00F00301DB51000A61E1CE
:102D2800D751020A58E155EC00F03A0E0401876FBA
:102D3800886B896B8A6B8B6BFF0E8C6F70EC00F065
:102D480000C0DBF3D9C2E1FFDAC2E2FFFF0EE66E94
:102D5800D7C200F0D8C201F02EEC00F000C0DCF3BE
:102D6800D9C2E1FFDAC2E2FFFF0EE66ED7C200F079
:102D7800D8C201F02EEC00F0D9C2E1FFDAC2E2FFBE
:102D8800FF0EE66ED7C200F0D8C201F02EEC00F0BC
:102D9800D9C2E1FFDAC2E2FFFF0EE66ED7C200F049
:102DA800D8C201F02EEC00F0F7EC00F00301DB5183
:102DB800000A10E1400EDC15016E0150000A04E023
:102DC800040E0001726F03D00001030E726F03013D
:102DD800D86B15D006D0010E0001726F0301D86BB5
:102DE8000ED001D00AD00301DA51270A02E10F0EF2
:102DF800D91903E0D94BDA2B46D7010ED86FD8C3BF
:042E080000F01200C4
:102E0C00086A080E0C6E003408360450085ED8B000
:0E2E1C0002D00826D89000360C2EF5D71200F2
:102E2A000401346B356B366B376B326B336BD7C33C
:102E3A003AF4D8C33BF499EC10F00050000A06E0CB
:102E4A00120E03011F6FFF0EDB6FF8D1200E040173
:102E5A003A6F030E3B6FD7C33CF4D8C33DF40EEC74
:102E6A0011F0000E0301861902E1000E851920E017
:102E7A001C0E006E000E016E00C304F0000E00BFAF
:102E8A00FF0E056EA5EC01F0330E0024E16E030E71
:102E9A000120E26E6B0ED96E030EDA6E1C0E006E06
:102EAA00000E016E8AEC11F0856B866BFF0E006FC7
:102EBA00DF0EE16E030EE26E200ED96E030EDA6E9D
:102ECA00E2EC00F0E66A200E0401636F030E646F01
:102EDA00EC0E006E030E016E00C065F401C066F4CC
:102EEA0003EC0BF0800E0018016E800E000A015CE4
:102EFA006BE20301DAAF62D0580EDA15006E05E014
:102F0A00080E1F6FFF0EDB6F99D1120E0401876F37
:102F1A00040E886F896B200E8A6F000E8B6F57EC38
:102F2A0000F07F0E0301DA15006E00C01DF4120EC8
:102F3A000401636F040E646F200E656F030E666FE3
:102F4A000B0E676F000E686F25EC0CF0120E006E08
:102F5A00040E016E00C03AF401C03BF4340E3C6F1B
:102F6A00040E3D6F320E3E6F040E3F6F9BEC0DF068
:102F7A00800E0018016E800E000A015C04E2FF0E4A
:102F8A000301DB6F5BD1DF0E0401636F030E646F15
:102F9A00EC0E006E030E016E00C065F401C066F40B
:102FAA0003EC0BF0800E0018016E800E000A015C23
:102FBA0004E2FF0E0301DB6F41D106D003010D0EBF
:102FCA001F6FFF0EDB6F3AD10301580EF915006E21
:102FDA0005E0080E1F6FFF0EDB6F30D1DC6B1C0E95
:102FEA00006E000E016EDCC304F0000E056EA5EC47
:102FFA0001F0330E0024026E030E0120036E02C09C
:10300A00DDF303C0DEF31A0E0224E96E000E03207C
:10301A00EA6EEECF00F0EECF01F0000E011802E1E9
:10302A00000E0018000ED8A4FF0E046E060E02242D
:10303A00D96E000E0320DA6EDECF01F0DECF02F089
:10304A0004010B51021802E101500A19FF0ED8A41B
:10305A00000E006E045000161EE01A0E0301DD2554
:10306A00E16E000EDE21E26ED9C3E6FF000EE66EC7
:10307A006B0EE16E030EE26EDDC3D9FFDEC3DAFF2B
:10308A001C0E006E000E016E8AEC11F0DCC3DBF33D
:10309A00DCC300F3D3D00301DC51010A02E0DC2BCC
:1030AA009ED7DC6B1C0E006E000E016EDCC304F0B2
:1030BA00000E056EA5EC01F0330E0026030E012268
:1030CA001A0E0024E96E000E0120EA6EEECF01F01E
:1030DA00EECF02F0000E021802E1000E0118D8A489
:1030EA00A3D01C0E006E000E016EDCC304F0000EAD
:1030FA00056EA5EC01F0330E0026030E012200C076
:10310A00DDF301C0DEF300C087F401C088F40401D6
:10311A00896B1C0E8A6F000E8B6F57EC00F0060E3F
:10312A000301DD25E16E000EDE21E26E0AC4E6FF30
:10313A000BC4E6FF0C0EDD25E16E000EDE21E26E09
:10314A000AC4E6FF0BC4E6FF1A0EDD25E16E000E87
:10315A00DE21E26ED9C3E6FF000EE66EDDC3E1FFB3
:10316A00DEC3E2FF0CC4E6FF0DC4E6FF0EC4E6FFB1
:10317A000FC4E6FF040EDD25E16E000EDE21E26ECD
:10318A00050E026E10C400F011C401F0025005E0F1
:10319A00003600900136FF0FFAD700C0E6FF01C0E3
:1031AA00E6FF160EDD25E16E000EDE21E26E06C494
:1031BA00E6FF07C4E6FF08C4E6FF09C4E6FF0E0EF1
:1031CA00DD250401386F000E0301DE210401396F89
:1031DA000C0E0301DD25E96E000EDE21EA6EEECF4C
:1031EA0063F4EECF64F4F3EC0BF038C4E1FF39C4B6
:1031FA00E2FF00C0E6FF01C0E6FF02C0E6FF03C02F
:10320A00E6FF6B0EE16E030EE26EDDC3D9FFDEC38D
:10321A00DAFF1C0E006E000E016E8AEC11F0DCC3A0
:10322A00DBF3DCC300F30AD00301DC51010A02E03C
:10323A00DC2B38D7090E1F6FFE0EDB6FDBC300F0E5
:02324A00120070
:10324C00000E0301861902E1000E851907E1070E35
:10325C001F6FDB6BDC6BDD6BDE6BD1D0010E020103
:10326C00CB6F0301DA51845D08E1D951835D05E12F
:10327C00D851825D02E1D751815D09E281C373F3BC
:10328C0082C374F383C375F384C376F308D0D7C3B6
:10329C0073F3D8C374F3D9C375F3DAC376F34EC0A2
:1032AC0004F04FC005F0000E066E076E73C300F0FD
:1032BC0074C301F075C302F076C303F0E8EC01F0BF
:1032CC004CC004F04DC005F0000E066E076EE8EC25
:1032DC0001F000C0DFF301C0E0F371C377F372C3F8
:1032EC0078F3000E006EE051005C02E1DF51000843
:1032FC0025E277C363F478C364F4EBEC08F000C008
:10330C0077F301C078F303017851FF0A02E1FF0E55
:10331C0077190FE181C373F382C374F383C375F31D
:10332C0084C376F30A0E1F6FDB6BDC6BDD6BDE6B1D
:10333C0066D0010EDF5F000EE05BD3D74CC004F00B
:10334C004DC005F0000E066E076E73C300F074C31B
:10335C0001F075C302F076C303F0E8EC01F04EC047
:10336C0004F04FC005F0000E066E076EE8EC01F09D
:10337C0008C000F009C001F00AC002F00BC003F055
:10338C0000C07DF301C07EF377C363F478C364F4AB
:10339C00F3EC0BF003017D5100267E510122000E4F
:1033AC000222032200C079F301C07AF302C07BF33E
:1033BC0003C07CF34CC004F04DC005F0000E066E4B
:1033CC00076E73C300F074C301F075C302F076C3CB
:1033DC0003F0E8EC01F008C000F009C001F00AC0ED
:1033EC0002F00BC003F000C07FF301C080F373C385
:1033FC00DBF374C3DCF375C3DDF376C3DEF3DBC33D
:10340C0000F0DCC301F0DDC302F0DEC303F01200F8
:10341C000301D96BD7C3E9FFD8C3EAFFEECFDAF3C8
:10342C00DA51000A0FE0DAC33AF462EC0FF0030150
:10343C00D92BD951D725E96E000ED821EA6EEECFE3
:06344C00DAF3EED71200D6
:10345200070E03019B5D02E1BC0E9A5D04E3BC0E04
:103462009A5F070E9B5B7F0E9A17000E9B170F0E3B
:103472009C15016E01C09CF301500C0802E20C0E77
:103482009C6F010E9C5D02E2010E9C6F9D511F0814
:1034920002E21F0E9D6F010E9D5D02E2010E9D6F05
:1034A2009E511708D8A09E6B9F513B08D8A09F6BD6
:1034B200A0513B08D8A0A06B090E006E9AC303F37B
:1034C2009BC304F3005005E0033703910437FF0F59
:1034D200FAD79CC303F0000E046E050E026E03C001
:1034E20000F004C001F0025005E000360090013601
:1034F200FF0FFAD700500313015004139D51031319
:10350200000E04139EC305F3000E066F0B0E006E31
:10351200005005E0053705910637FF0FFAD79FC324
:1035220003F0000E046E050E026E03C000F004C02C
:1035320001F0025005E0003600900136FF0FFAD785
:103542000050051301500613A0C300F00032009E84
:0A35520000500513000E06131200CE
:10355C0000C39EF31FC3A0F39AC3D7F39BC3D8F346
:10356C00070E0301D96F9CC3DAF359DC00C09FF33B
:10357C00800E0018016E800E000A015C38E2030117
:10358C009F51FE0A31E1020E9D6FA0C31FF31C0E6A
:10359C00006E000E016E9EC304F0000E9EBFFF0E67
:1035AC00056EA5EC01F0330E0026030E01221A0E57
:1035BC000024E16E000E0120E26EE66AE66A9AC310
:1035CC00D7F39BC3D8F3070ED96F9CC3DAF327DC70
:1035DC0000C09FF3800E0018016E800E000A015C83
:1035EC0002E203019D6B02D003019D6B03D003012A
:0A35FC00010E9D6F9DC300F0120048
:103606009CC3E1FF9DC3E2FF200EE66E200EE66E30
:10361600200EE66E200EE66E300EE66EE66A040EAC
:1036260003019C259E6F000E9D219F6F000E9B1926
:1036360002E1000E9A1929E00A0E046E000E056ECC
:103646009AC300F09BC301F0CDEC01F008C000F076
:1036560009C001F0300E00269EC3E1FF9FC3E2FFC2
:1036660000C0E6FF0A0E046E000E056E9AC300F057
:103676009BC301F0CDEC01F000C09AF301C09BF3AF
:0C368600010E9E5F000E9F5BD1D712006A
:103692009BC3E1FF9CC3E2FF200EE66E200EE66EA6
:1036A200300EE66EE66A020E03019B259D6F000E48
:1036B2009C219E6F9A51000A1CE00A0E046E9AC366
:1036C20000F006EC17F008C000F09DC3E1FF9EC3B6
:1036D200E2FF300E0024E66E0A0E046E9AC300F07A
:1036E20006EC17F000C09AF3010E9D5F000E9E5B80
:0436F200E1D712000A
:1036F600000E0301861902E1000E851905E1070E89
:103706001F6F010E9A6F3FD0856B866B1C0E006E85
:10371600000E016E00C304F0000E00BFFF0E056E22
:10372600A5EC01F0330E0024E16E030E0120E26EDB
:103736006B0ED96E030EDA6E1C0E006E000E016E55
:103746008AEC11F0FF0E006F71C33AF472C33BF4BA
:103756006BC33CF46CC33DF46DC33EF46EC33FF4DF
:103766006FC340F470C341F42CEC11F0800E0018C6
:10377600016E800E000A015C04E2020E03019A6FDC
:0C37860002D003019A6B9AC300F01200FD
:10379200000E0301861902E1000E851903E1070EEE
:1037A2001F6F56D0010E0201CB6F6BC374F46CC352
:1037B20075F46DC376F46EC377F4CB0E0401786FA3
:1037C200000E796F85EC07F00050000A04E0100E3D
:1037D20003011F6F3DD00301CB0E6F25006E000E5B
:1037E2007021016E00C074F401C075F4A40E006E65
:1037F200030E016E00C076F401C077F44EEC04F0C3
:10380200A2C3E1FFA3C3E2FFB6C3E6FFA0C3E1FF89
:10381200A1C3E2FFB5C3E6FF9EC3E1FF9FC3E2FF80
:10382200B4C3E6FF9CC3E1FF9DC3E2FFB3C3E6FF5F
:10383200B2C300F0000E016EBC0E0026070E01227C
:103842009AC3E1FF9BC3E2FF00C0E6FF01C0E6FFAF
:02385200120062
:1038540003019D51800A08E19C51000A05E19B5136
:10386400000A02E19A51000A1CE19EC3E1FF9FC3D2
:10387400E2FF2D0EE66E320EE66E310EE66E340E6B
:10388400E66E370EE66E340EE66E380EE66E330ED6
:10389400E66E360EE66E340EE66E380EE66EE66AB8
:1038A4009AD0A26B800E9D19006E800E005C08E118
:1038B400000E9C5D05E1000E9B5D02E1000E9A5D29
:1038C40016E2FF0EA26F006A016A026A036A9A5145
:1038D400005E9B51015A9C51025A9D51035A00C0EB
:1038E4009AF301C09BF302C09CF303C09DF39EC3F3
:1038F400E1FF9FC3E2FF200EE66E200EE66E200E6F
:10390400E66E200EE66E200EE66E200EE66E200EAB
:10391400E66E200EE66E200EE66E200EE66E300E8B
:10392400E66EE66A0A0E9E25A06F000E9F21A16F27
:10393400000E006E9D1908E100509C1905E100502D
:103944009B1902E19A51000A3EE00A0E046E000E31
:10395400056E066E076E9AC300F09BC301F09CC30C
:1039640002F09DC303F095EC15F008C000F009C007
:1039740001F00AC002F00BC003F0300E0026A0C311
:10398400E1FFA1C3E2FF00C0E6FF0A0E046E000ED1
:10399400056E066E076E9AC300F09BC301F09CC3CC
:1039A40002F09DC303F095EC15F000C09AF301C03A
:1039B4009BF302C09CF303C09DF3010E0301A05FBF
:1039C400000EA15BB5D7A25306E0A0C3E1FFA1C3DB
:0839D400E2FF2D0EE66E120069
:1039DC009AC3D7F39BC3D8F31BDD0D0E04013A6FCA
:1039EC0062EC0FF00A0E04013A6F62EC0FF0120059
:1039FC00000E0301861902E1000E851903E1070E82
:103A0C001F6F56D0010E0201CB6F6BC374F46CC3E5
:103A1C0075F46DC376F46EC377F4CB0E0401786F36
:103A2C00000E796F85EC07F00050000A04E0100ED0
:103A3C0003011F6F3DD00301CB0E6F25006E000EEE
:103A4C007021016E00C074F401C075F4A40E006EF8
:103A5C00030E016E00C076F401C077F44EEC04F056
:103A6C00A2C3E1FFA3C3E2FFBCC3E6FFA0C3E1FF17
:103A7C00A1C3E2FFBBC3E6FF9EC3E1FF9FC3E2FF0E
:103A8C00BAC3E6FF9CC3E1FF9DC3E2FFB9C3E6FFE7
:103A9C00B8C300F0000E016EBC0E0026070E01220A
:103AAC009AC3E1FF9BC3E2FF00C0E6FF01C0E6FF43
:023ABC001200F6
:103ABE00000E0301861902E1000E85190BE1070EB7
:103ACE001F6FFF0E046EFF0E056EFF0E066EFF0ECD
:103ADE00076E08D081C304F082C305F083C306F0DD
:103AEE0084C307F004C000F005C001F006C002F068
:063AFE0007C003F01200F6
:103B04009EC33AF49FC33BF499EC10F00050000AB2
:103B140008E0120E03011F6FA16BA26BA36BA46BD1
:103B240016D10301B56BB66BB16BB26BB36BB46BEF
:103B34004EC004F04FC005F0000E066E076E9AC327
:103B440000F09BC301F09CC302F09DC303F0E8ECBA
:103B540001F000C0A5F301C0A6F34EC004F04FC0AD
:103B640005F0000E066E076E9AC300F09BC301F0C9
:103B74009CC302F09DC303F0E8EC01F008C000F020
:103B840009C001F00AC002F00BC003F0000E046E7D
:103B9400031808E10450021805E10450011802E179
:103BA4000050000A03E00301A54BA62BA5C3D7F3DD
:103BB400A6C3D8F39FEC11F000C0A7F301C0A8F38B
:103BC400000E015C02E1020E005C05E2A16BA26B37
:103BD400A36BA46BBCD01BC3A9F31CC3AAF31DC362
:103BE400ABF31EC3ACF35BC01BF35CC01CF35DC042
:103BF4001DF35EC01EF39EC3D7F39FC3D8F375ECC9
:103C040012F00050000A06E09EC3D7F39FC3D8F316
:103C1400E4EC13F0200E04013A6F030E3B6F9EC3D5
:103C24003CF49FC33DF40EEC11F0200E746F030EB0
:103C3400756F97EC03F0B70E876F030E886F896B6F
:103C4400200E8A6F000E8B6F57EC00F0B70E636F77
:103C5400030E646F200E656F030E666F0B0E676FA5
:103C6400000E686F25EC0CF07F0E0301A015006EAA
:103C740000C0C2F3A7C3D1F3A8C3D2F39AC300F020
:103C84009BC301F09CC302F09DC303F04CC004F03D
:103C94004DC005F0000E066E076E7CEC01F000C00E
:103CA400ADF301C0AEF302C0AFF303C0B0F3ADC3D4
:103CB400D3F3AEC3D4F3AFC3D5F3B0C3D6F3B70EC7
:103CC400006E030E016E00C03AF401C03BF4B10E65
:103CD40004013C6F030E3D6FB50E3E6F030E3F6F44
:103CE4009BEC0DF0800E0018016E800E000A015C42
:103CF4000EE2A9C31BF3AAC31CF3ABC31DF3ACC3ED
:103D04001EF30301A16BA26BA36BA46B20D0A7C30A
:103D1400D7F3A8C3D8F3A5C3D9F3A6C3DAF39DECAC
:103D240012F0A9C31BF3AAC31CF3ABC31DF3ACC3AA
:103D34001EF3A7C363F4A8C364F4F3EC0BF000C050
:103D4400A1F301C0A2F302C0A3F303C0A4F3A1C36F
:103D540000F0A2C301F0A3C302F0A4C303F0120055
:103D6400010E0201CB6F0401746B756B766B776B7C
:103D7400CB0E786F000E796F85EC07F0005206E0E9
:103D8400100E03011F6FFF0E9A6FA2D10301CB0E19
:103D94009D6F000E9E6F0201C951550A04E0010E89
:103DA40003019A6F95D10201CA51AA0A04E0010ED7
:103DB40003019A6F8DD10301A16B0001CB51E90A74
:103DC40003E1010E0301A16F0001CB51EB0AFF0EC9
:103DD400D8A4000E016ECD51900AFF0ED8A4000E97
:103DE400006E0150001603E0010E0301A16F0301F0
:103DF400A151000AD8B4C9D0A26BA36BA46BA56B64
:103E0400E70E9B6F020E9C6F9BC3E1FF9CC3E2FF16
:103E1400800EE66E020E9B25E16E000E9C21E26E82
:103E2400E66AE66AE66AE66A8CEC14F0800E00182C
:103E3400016E800E000A015C03E2010E9A6F48D104
:103E4400000E561802E1000E5518D8B492D00001A5
:103E5400DF51DE11016E0150000A1FE0DFC0A2F342
:103E6400000E0301A36FA46FA56FA4C3A5F3A3C39E
:103E7400A4F3A2C3A3F3A26B0001DE510301A227A2
:103E8400000EA323A423A523010E9B25E16E000E9F
:103E94009C21E26E040EE66E19D00301EB0EA66FB0
:103EA400000EA76FA6C3E9FFA7C3EAFFEECFA2F3F4
:103EB400EECFA3F3EECFA4F3EECFA5F3010E9B2533
:103EC400E16E000E9C21E26E060EE66EA2C300F0C7
:103ED400A3C301F0A4C302F0A5C303F05F50005EC6
:103EE40000016051015A6151025A6251035A4EC095
:103EF40004F04FC005F0000E066E076EE8EC01F00A
:103F040000C0A2F301C0A3F302C0A4F303C0A5F34D
:103F1400000E035C08E1000E025C05E10F0E015C7B
:103F240002E1F50E005C0CE2010E03019B25E16E3B
:103F3400000E9C21E26E010EE66E010E9A6FC8D04F
:103F44000301A551000808E1A451000805E1A351AB
:103F5400FF0802E1A251F5080BE2010E9B25E16E78
:103F6400000E9C21E26E0B0EE66E010E9A6FB0D02D
:103F74000BD0010E9B25E16E000E9C21E26E0B0E10
:103F8400E66E010E9A6FA4D0A2D0890E9D6F020E28
:103F94009E6F9F6BA06B060E006E000E016E9FC39A
:103FA40004F0A0C305F0A5EC01F0E70E0026020E14
:103FB400012200C09BF301C09CF39DC3E9FF9EC393
:103FC400EAFF00C0E1FF01C0E2FFEECFE6FF040E0E
:103FD4009D25006E000E9E21016E00C09DF301C060
:103FE4009EF3010E9B25E16E000E9C21E26E00C043
:103FF400E9FF01C0EAFFEECFE6FF040E9D25006E47
:10400400000E9E21016E00C09DF301C09EF3020EBE
:104014009B25A86F000E9C21A96F00C087F401C0E6
:1040240088F418EC01F0A8C3E1FFA9C3E2FF00C0C3
:10403400E6FF01C0E6FF02C0E6FF03C0E6FF000E94
:104044000301A01902E1030E9F1903E09F4BA02B6B
:10405400A2D7060E006E000E016EFFC204F0000E21
:10406400056EA5EC01F0E70E0024026E020E01209D
:10407400036E010E0224E96E000E0320EA6EEE5078
:10408400040A000ED8A4FF0E026EE70E0026020EEC
:104094000122010E0024E96E000E0120EA6EEE50AA
:1040A400060A000ED8A4FF0E006E0250001603E0AC
:1040B400010E9A6F0DD08CEC14F0800E0018016E76
:1040C400800E000A015C03E2010E9A6F01D09A6B24
:0640D4009AC300F0120087
:1040DA00010E0201CB6FCB0E0401876F000E886FB1
:1040EA00896B000E8A6F020E8B6F57EC00F003018A
:1040FA009A6B9B6B1C0E006E000E016E9AC304F045
:10410A009BC305F0A5EC01F0330E00240401876F70
:10411A00030E0120886F896B1C0E8A6F000E8B6F4D
:10412A0057EC00F0000E03019B1902E1010E9A19E7
:10413A0003E09A4B9B2BDED76B0E0401876F030EAD
:10414A00886F896B1C0E8A6F000E8B6F57EC00F01C
:10415A0003019A6B9B6B060E006E000E016E9AC3EA
:10416A0004F09BC305F0A5EC01F0E70E002404015E
:10417A00876F020E0120886F896B060E8A6F000E08
:10418A008B6F57EC00F0000E03019B1902E1030E3E
:10419A009A1903E09A4B9B2BDED74C0E0401876FCA
:1041AA00000E886F896B170E8A6F000E8B6F57ECA3
:1041BA0000F0000E006E020E016ECB0E00244A6E55
:1041CA00000E01204B6E0201FF6B03011B6B1C6B7F
:1041DA001D6B1E6B1F6B316B326B2D6B2E6B2F6B36
:1041EA00306BFF0E006F200E0401876F030E886F7D
:1041FA00896B0D0E8A6F000E8B6F57EC00F003016E
:0A420A00056B066B036B046B1200DA
:10421400060E03018515016E86C302F0000E021618
:10422400000E021802E1000E011803E1070E1F6FD1
:1042340006D0D76BD86BD96BDA6B26EC19F0120069
:10424400060E03018515016E86C302F0000E0216E8
:10425400000E021802E1000E011803E1070E1F6FA1
:104264002DD2000E9D1902E1000E9C1901E126D207
:10427400010E0201CB6F03018051020A02E1000E1C
:104284007F192BE0000E801902E1000E7F19000E49
:10429400D8A4FF0E016E4D509D5D02E14C509C5D13
:1042A400FF0ED8B0000E006E0150001216E079C364
:1042B40074F47AC375F47BC376F47CC377F4CB0EC1
:1042C4000401786F000E796F85EC07F00050000A46
:1042D40004E0100E03011F6FF1D103019E6B9F6B6D
:1042E400010E9C5DA46F000E9D59A56F9F51A55DA5
:1042F40002E19E51A45DD8A008D18051020A02E1D6
:10430400000E7F19D8A4DFD0000E9F1902E1000E21
:104314009E192AE079C374F47AC375F47BC376F4E6
:104324007CC377F4CB0E0401786F000E796F15EC23
:1043340008F00050000A18E003019E517325006E36
:104344009F517421016E000E7521026E000E7621BC
:10435400036E00C073F301C074F302C075F303C0AD
:1043640076F3050E1F6FAAD103017F6B806B010EDC
:104374007925006E000E7A21016E000E7B21026EFB
:10438400000E7C21036E00C079F301C07AF302C0F1
:104394007BF303C07CF3010E7D25006E000E7E21AD
:1043A400016E00C07DF301C07EF37E514F1802E11F
:1043B4004E507D1951E177C363F478C364F4EBEC98
:1043C40008F000C0A0F301C0A1F30150FF0A02E10C
:1043D400FF0E00182CE147EC09F000C0A0F301C067
:1043E400A1F30150FF0A02E1FF0E00180CE181C3A2
:1043F40073F382C374F383C375F384C376F30A0E31
:1044040003011F6F5BD177C363F478C364F4A0C363
:1044140065F4A1C366F430EC0AF0A0C363F4A1C34D
:1044240064F4FF0E656FFF0E666F30EC0AF0A0C3F4
:1044340077F3A1C378F303017D6B7E6B77C363F4D9
:1044440078C364F4F3EC0BF000C079F301C07AF3A1
:1044540002C07BF303C07CF303019E519C5D016E9B
:104464009F519D59026E020E025C02E1000E015C36
:104474002AE279C374F47AC375F47BC376F47CC3FB
:1044840077F4CB0E0401786F000E796F85EC07F09A
:104494000050000A18E003019E517325006E9F51DD
:1044A4007421016E000E7521026E000E7621036EDA
:1044B40000C073F301C074F302C075F303C076F354
:1044C400100E1F6FFBD00301CB0E7F25E16E000E93
:1044D4008021E26E9E519A25E96E9F519B21EA6EDE
:1044E400EECFE6FF010E7F25006E000E8021016EE7
:1044F40000C07FF301C080F39F51A51902E1A451CC
:104504009E1903E09E4B9F2BEBD6000E801902E10F
:10451400000E7F1916E079C374F47AC375F47BC373
:1045240076F47CC377F4CB0E0401786F000E796FB8
:1045340015EC08F00050000A04E0050E03011F6F9B
:10454400BDD003019C517325006E9D517421016EF1
:10455400000E7521026E000E7621036E00C073F307
:1045640001C074F302C075F303C076F37651845D21
:1045740008E17551835D05E17451825D02E1735177
:10458400815D08E273C381F374C382F375C383F35B
:1045940076C384F36BC374F46CC375F46DC376F49F
:1045A4006EC377F4CB0E0401786F000E796F85EC3F
:1045B40007F00050000A04E0100E03011F6F7ED0C4
:1045C4000301CB0E6F25006E000E7021016E00C03A
:1045D400A2F301C0A3F31C0E0024E16E000E01201F
:1045E400E26E81C3E6FF1C0EA225006E000EA3211D
:1045F400016E010E0024E16E000E0120E26E82C302
:10460400E6FF1C0EA225006E000EA321016E020E11
:104614000024E16E000E0120E26E83C3E6FF1C0E4F
:10462400A225006E000EA321016E030E0024E16E8C
:10463400000E0120E26E84C3E6FF160EA225E16E91
:10464400000EA321E26E05C3E6FF160EA225006E3E
:10465400000EA321016E010E0024E16E000E012064
:10466400E26E06C3E6FF180EA225E16E000EA3213A
:10467400E26E03C3E6FF180EA225006E000EA3210E
:10468400016E010E0024E16E000E0120E26E04C3EF
:10469400E6FF6BC374F46CC375F46DC376F46EC338
:1046A40077F4CB0E0401786F000E796F15EC08F0E7
:0E46B400005204E0050E03011F6F00D012003B
:1046C200060E03018515016E86C302F0000E021666
:1046D200000E021802E1000E011803E1070E1F6F1F
:1046E2000AD081C3D7F382C3D8F383C3D9F384C377
:0846F200DAF326EC19F01200C6
:1046FA00010E03018515016E86C302F0000E021633
:10470A00000E021802E1000E011803E1070E1F6FE6
:10471A00C7D08451765D08E18351755D05E1825108
:10472A00745D02E18151735D03E30B0E1F6FB8D014
:10473A008051020A02E1000E7F196DE17F6B806BE6
:10474A00010E7D25006E000E7E21016E00C07DF3F4
:10475A0001C07EF37E514F1802E14E507D192DE1C2
:10476A007D6B7E6B77C363F478C364F4EBEC08F07B
:10477A0000C077F301C078F303017851FF0A02E120
:10478A00FF0E77190BE181C373F382C374F383C3FA
:10479A0075F384C376F30A0E1F6F82D077C363F46E
:1047AA0078C364F4F3EC0BF000C079F301C07AF338
:1047BA0002C07BF303C07CF315D0010E03017925F7
:1047CA00006E000E7A21016E000E7B21026E000E31
:1047DA007C21036E00C079F301C07AF302C07BF337
:1047EA0003C07CF30201CB6B79C374F47AC375F40A
:1047FA007BC376F47CC377F4CB0E0401786F000E8A
:10480A00796F85EC07F00050000A04E0100E0301EE
:10481A001F6F46D01AD00201CB5317E0CB6B79C376
:10482A0074F47AC375F47BC376F47CC377F4CB0E45
:10483A000401786F000E796F85EC07F00050000ACA
:10484A0004E0100E03011F6F2BD00301CB0E7F254E
:10485A00E96E000E8021EA6E9AC3E1FF9BC3E2FF74
:10486A00EECFE6FF010E7F25006E000E8021016E5D
:10487A0000C07FF301C080F3010E7325006E000EA5
:10488A007421016E000E7521026E000E7621036EF0
:10489A0000C073F301C074F302C075F303C076F36A
:0248AA001200FA
:1048AC00010E03018515016E86C302F0000E02167F
:1048BC00000E021802E1000E01180BE19AC3E1FF91
:1048CC009BC3E2FFE66AE66AE66AE66A070E1F6FBA
:1048DC0012D0D76BD86BD96BDA6B26EC19F09AC364
:1048EC00E1FF9BC3E2FF81C3E6FF82C3E6FF83C304
:0848FC00E6FF84C3E6FF120091
:10490400050E0001726F96908D8003019B6B9C6B6A
:10491400D9C2E1FFDAC2E2FFFF0EE66ED7C200F0B1
:10492400D8C201F02EEC00F0000E03019C1902E144
:10493400090E9B1903E09B4B9C2BEAD755EC00F026
:104944000401876B886B896B8A6B8B6B950E8C6FFC
:1049540070EC00F000C09DF3F7EC00F003019D51F2
:10496400010A03E0010E9A6F80D055EC00F0080EA6
:104974000401876FAA0E886F010E896F000E8A6F7B
:104984008B6F870E8C6F70EC00F000C09DF3D9C262
:10499400E1FFDAC2E2FFFF0EE66ED7C200F0D8C232
:1049A40001F02EEC00F0D9C2E1FFDAC2E2FFFF0E03
:1049B400E66ED7C200F0D8C201F02EEC00F0D9C2E6
:1049C400E1FFDAC2E2FFFF0EE66ED7C200F0D8C202
:1049D40001F02EEC00F0D9C2E1FFDAC2E2FFFF0ED3
:1049E400E66ED7C200F0D8C201F02EEC00F0F7EC6E
:1049F40000F003019D51010A0BE0010ED76F44EC56
:104A040016F00050000A03E0D76B44EC16F004D013
:104A1400020ED76F44EC16F000017251050A04E14E
:104A2400020E03019A6F21D000017251040A1BE0A7
:104A340055EC00F0100E0401876F000E886F020E13
:104A4400896F000E8A6F8B6FFF0E8C6F70EC00F015
:104A540000C09DF3F7EC00F003019D51000A03E050
:104A6400030E9A6F02D003019A6B9AC300F01200EE
:104A7400C40E0301176F1E0E186F3A0E196F040E41
:104A84001A6FFF0E0F6FFF0E106F000E116F000EE6
:104A9400126FFF0E076FFF0E086F000E096F000EF6
:104AA4000A6FFF0E0B6FFF0E0C6F000E0D6F000EE2
:104AB4000E6FAC8A900EAB6E948E949C9EAA03D01B
:084AC400AECF00F0FBD7120099
:104ACC000301886B886B18DF0050000A01E105D0E8
:104ADC008851320A02E0882BF6D7320E885D03E348
:104AEC00FF0E876F06D06DEC20F0B2EC1EF000C00C
:084AFC0087F387C300F01200EC
:104B0400C69A1C0E0201D76F000ED86F900ED96F93
:104B1400040EDA6FFF0E0301136FFF0E146FFF0E06
:104B2400156FFF0E166F949A8751040A02E194865A
:104B340001D094969488C66A8751C6128951C612C8
:104B44008851C7128951000A05E08A51000AD8B475
:104B5400C78C04D08A51000AD8A4C78CC68A120014
:104B6400460E00016A6F630E03019A6F000E9B6F7D
:0C4B74009C6BAEEC1AF07BEC1BF0120006
:104B8000420E00016A6F630E03019A6F000E9B6F65
:104B90009C6BAEEC1AF0440E03019A6F000E9B6FF3
:104BA00085DE800E006E800E4718005C08E14650DE
:104BB000000805E14550000802E14450000811E2F8
:104BC0000301430E9A6F000E9B6F97DD43C03AF4CA
:104BD00062EC0FF0010E445E000E455A465A475AE9
:044BE000E0D7120008
:104BE400880E03019A6F130E9B6F000E9C6F9D6FCE
:104BF4006D0E0001736F690E746F6B0E756F720E1C
:104C0400766F6F0E776F450E786F2E0E796F740E78
:104C14007A6F780E7B6F740E7C6F7D6B730E03015D
:104C24009E6F000E9F6F200EA06F82EC1DF000C0DF
:104C340044F001C045F002C046F003C047F0000E46
:104C4400046E031808E10450021805E10450011829
:104C540002E10050000A4EE00301876B886BCB0E23
:104C64008725E16E000E8821E26E87C3E6FF885136
:104C7400010A02E1FF0E871903E0874B882BEFD767
:104C840044C09AF345C09BF346C09CF347C09DF3D0
:104C9400B20E9E6F000E9F6F2AEC1CF0B20E9A6F3C
:104CA400000E9B6FEEEC1CF00301876B886B44C015
:104CB40074F445C075F446C076F447C077F4CB0E5F
:104CC4000401786F000E796F15EC08F0010E44268C
:104CD400000E4522462247222E0E3A6F62EC0FF058
:104CE40003018851130A02E1870E871903E0874BF9
:064CF400882BDDD7120041
:104CFA00420E00016A6F630E03019A6F000E9B6FEA
:104D0A009C6BAEEC1AF00050000AD8B41CD1870E86
:104D1A0003019A6F030E9B6F890E9C6F030E9D6FA2
:104D2A008A0E9E6F030E9F6F8B0EA06F030EA16FEC
:104D3A008C0EA26F030EA36FC9EC1BF0200E0201AA
:104D4A00CC6F630ECD6F720ECE6F650ECF6F610E94
:104D5A00D06F740ED16F650ED26F640ED36F3A0E98
:104D6A00D46F200ED56FD66BCC0E0301D76F020E0F
:104D7A00D86F0EEC1AF087C39AF388C39BF38D0E93
:104D8A009C6F030E9D6F03EC1BF08D0ED76F030E05
:104D9A00D86F0EEC1AF089C39AF38D0E9B6F030E2F
:104DAA009C6F49EC1BF08D0ED76F030ED86F0EEC7B
:104DBA001AF08AC39AF3000E9B6F8D0E9C6F030E36
:104DCA009D6F03EC1BF08D0ED76F030ED86F0EECA0
:104DDA001AF08BC39AF3000E9B6F8D0E9C6F030E15
:104DEA009D6F03EC1BF08D0ED76F030ED86F0EEC80
:104DFA001AF08CC39AF3000E9B6F8D0E9C6F030EF4
:104E0A009D6F03EC1BF08D0ED76F030ED86F0EEC5F
:104E1A001AF0870E9A6F030E9B6F890E9C6F030E12
:104E2A009D6F8A0E9E6F030E9F6F8B0EA06F030EEF
:104E3A00A16F8C0EA26F030EA36FFEEC1CF0200E66
:104E4A000201DB6F6D0EDC6F6F0EDD6F640EDE6FBD
:104E5A00690EDF6F660EE06F690EE16F650EE26F35
:104E6A00640EE36F3A0EE46F200EE56FE66BDB0E1D
:104E7A000301D76F020ED86F0EEC1AF087C39AF3AC
:104E8A0088C39BF38D0E9C6F030E9D6F03EC1BF082
:104E9A008D0ED76F030ED86F0EEC1AF089C39AF3F2
:104EAA008D0E9B6F030E9C6F49EC1BF08D0ED76F16
:104EBA00030ED86F0EEC1AF08AC39AF3000E9B6F9A
:104ECA008D0E9C6F030E9D6F03EC1BF08D0ED76F3A
:104EDA00030ED86F0EEC1AF08BC39AF3000E9B6F79
:104EEA008D0E9C6F030E9D6F03EC1BF08D0ED76F1A
:104EFA00030ED86F0EEC1AF08CC39AF3000E9B6F58
:104F0A008D0E9C6F030E9D6F03EC1BF08D0ED76FF9
:104F1A00030ED86F0EEC1AF05FEC1DF000C09AF386
:104F2A0001C09BF302C09CF303C09DF38D0E9E6FDC
:104F3A00030E9F6F2AEC1CF08D0E9A6F030E9B6F67
:104F4A00EEEC1CF017D0550E04013A6F62EC0FF02C
:104F5A00520E0B6E2B0E0C6E000E0D6E0D2EFED722
:104F6A000C2EFCD70B2EFAD70000550E04013A6F0F
:064F7A0062EC0FF01200D2
:104F8000420E426E42C03AF462EC0FF042C06AF048
:104F9000DA0E03019A6F070E9B6F040E9C6F130EBF
:104FA0009D6F090E9E6F9F6BA06B29EC1AF0630E2C
:104FB0009A6F000E9B6FA00E9C6FAEEC1AF00AEC7D
:104FC00021F0010E416E03010A0E046E41C000F093
:104FD00006EC17F0300E002600C015F00A0E046E25
:104FE00041C000F006EC17F008C000F0300E0026BB
:104FF00000C016F0150E9A6F000E9B6F2A0E9C6F64
:10500000000E9D6F22EC21F041502C0A02E0412A53
:0E501000DAD742505A0A02E0422AB4D7120000
:10501E00410E00016A6FDA0E03019A6F070E9B6F45
:10502E00040E9C6F130E9D6F090E9E6F9F6BA06BEF
:10503E0029EC1AF0630E9A6F000E9B6FA00E9C6FF8
:10504E00AEEC1AF00AEC21F0010E416E2E0E0401A8
:10505E003A6F62EC0FF00A0E046E41C000F006ECDF
:10506E0017F0300E0024156E0A0E046E41C000F0CB
:10507E0006EC17F008C000F0300E0024166E150E68
:10508E0003019A6F000E9B6F2A0E9C6F000E9D6F90
:10509E0022EC21F04150630A02E0412AD7D71200D8
:1050AE00420E00016A6F630E03019A6F000E9B6F32
:1050BE009C6BAEEC1AF0DA0E03019A6F070E9B6F23
:1050CE00090E9C6F140E9D6F0A0E9E6F150E9F6F2C
:1050DE00010EA06F29EC1AF061EC23F0200E156E74
:1050EE00660E166E6F0E176E720E186E200E196EFD
:1050FE006D0E1A6E690E1B6E6B0E1C6E720E1D6E91
:10510E006F0E1E6E450E1F6E6C0E206E650E216E9E
:10511E006B0E226E740E236E720E246E6F0E256E43
:10512E006E0E266E690E276E6B0E286E610E296E40
:10513E00200E2A6E320E2B6E300E2C6E310E2D6E10
:10514E00300E2E6E2F6A0D0E2F6E0A0E306E150E4D
:10515E009A6F000E9B6F1B0E9C6F000E9D6F22ECC4
:04516E0021F012001A
:10517200430E00016A6F630E03019A6F000E9B6F6C
:105182009C6BAEEC1AF00AEC21F0010E416E0301A9
:105192000A0E046E41C000F006EC17F0300E002635
:1051A20000C015F00A0E046E41C000F006EC17F0C4
:1051B20008C000F0300E002600C016F0150E9A6FDF
:1051C200000E9B6F2A0E9C6F000E9D6F22EC21F049
:0C51D2004150370A02E0412ADAD71200EF
:1051DE00460E0001B26F410EB36F540EB46F310E16
:1051EE00B56F360EB66F200EB76F6E0EB86F6F0EB0
:1051FE00B96F740EBA6F200EBB6F660EBC6F6F0E5A
:10520E00BD6F750EBE6F6E0EBF6F640EC06FC16B3D
:10521E00580E156E580E166E200E176E4D0E186E19
:10522E004D0E196E430E1A6E2F0E1B6E530E1C6E04
:10523E00440E1D6E200E1E6E460E1F6E410E206E0B
:10524E00540E216E310E226E360E236E200E246EFB
:10525E006C0E256E690E266E620E276E720E286E0D
:10526E00610E296E720E2A6E790E2B6E200E2C6E2A
:10527E00620E2D6E790E2E6E200E2F6E410E306E3A
:10528E006E0E316E740E326E6F0E336E6E0E346E97
:10529E00200E356E520E366E690E376E650E386EF6
:1052AE00630E396E6B0E3A6E650E3B6E720E3C6E71
:1052BE00740E3D6E230E3E6E3F6A0A0E3E6E4D0E0E
:1052CE00636F490E646F4B0E656F520E666F4F0E15
:1052DE00676F300E686F300E696F780E6A6F2E0E24
:1052EE006B6F540E6C6F580E6D6F540E6E6F6F6B3E
:1052FE000F01256B246B236B9280CF0EAF6EAC84A7
:10530E003AEC25F0D00E0C6EC90E0D6E0D2EFED79A
:10531E000C2EFCD700000000490E0001886F6E0EA7
:10532E00896F730E8A6F650E8B6F720E8C6F740E93
:10533E008D6F200E8E6F6D0E8F6F690E906F630ED8
:10534E00916F720E926F6F0E936F530E946F440E99
:10535E00956F200E966F430E976F610E986F720EBB
:10536E00996F640E9A6F9B6B880E03019A6F000EF5
:10537E009B6FEEEC1CF080A002D00000FCD7290E33
:10538E000B6E960E0C6E7F0E0D6E0D2EFED70C2E26
:10539E00FCD70B2EFAD76D0E00019C6F690E9D6F18
:1053AE00630E9E6F720E9F6F6F0EA06F530EA16FE6
:1053BE00440EA26F200EA36F430EA46F610EA56F55
:1053CE00720EA66F640EA76F200EA86F690EA96FDE
:1053DE006E0EAA6F730EAB6F650EAC6F720EAD6F65
:1053EE00740EAE6F650EAF6F640EB06FB16B9C0E28
:1053FE0003019A6F000E9B6FEEEC1CF0020E030180
:10540E00876F886B896B010E8A6F82EC25F066ECD4
:10541E0025F00050000A2FE1020E876F886B896B12
:10542E00010E8A6F82EC25F0F3DDA3DD9BDE38DE04
:10543E00C0EC25F0B2EC25F059DCF2EC25F0540E60
:10544E0000017E6F650E7F6F730E806F740E816F1D
:10545E00200E826F450E836F6E0E846F640E856F05
:10546E002E0E866F876B7E0E03019A6F000E9B6F5A
:10547E00EEEC1CF007D0B20E03019A6F000E9B6F7C
:06548E00EEEC1CF0FFD75C
:020000040030CA
:0E0000001D137F7CF98B91FFFFC0FFE0FF40D6
:00000001FF
