:1000000096EF28F00000000000EF00F00000000074
:0A0010000000000000000000F3D71C
:10001C0090C4C9FFC7B002D00000FCD7C9CF01F013
:06002C0001C000F012000B
:1000320090C46FFF6DB002D00000FCD76FCF01F00B
:0600420001C000F01200F5
:10004800F250026EF29E0500FF6A0150FE6E0050EB
:08005800FD6E02BEF28E1200E3
:1000600004018751200AFF0ED8A4000E026E8751AA
:100070000F08000ED8B0FF0E016E0B0E875D000E4C
:10008000D8B0FF0E006E0150001600500210036E33
:0600900003C000F01200A5
:040096008D90120037
:10009A0087C401F088C402F0000E04018B1902E142
:1000AA00000E8A190DE0010E8A5F000E8B5B01C0FB
:1000BA00E1FF02C0E2FF89C4E6FF014A022AECD747
:0200CA00120022
:1000CC00400E04018725006E39C0E1FF3AC0E2FF03
:1000DC0000C0E6FF37C000F038C001F0AFDF39C018
:1000EC00E1FF3AC0E2FF8BC4E6FF37C000F038C036
:1000FC0001F0A4DF39C0E1FF3AC0E2FF8AC4E6FF99
:10010C0037C000F038C001F099DF39C0E1FF3AC0C8
:10011C00E2FF89C4E6FF37C000F038C001F08EDF83
:10012C0039C0E1FF3AC0E2FF88C4E6FF37C000F0F7
:10013C0038C001F083DF39C0E1FF3AC0E2FF8CC464
:10014C00E6FF37C000F038C001F078DF04018E6B99
:10015C008F6B39C0E1FF3AC0E2FFFF0EE66E37C08D
:10016C0000F038C001F06ADF00C08DF404018E4B42
:10017C008F2B800E8D15006E0050000AFF0ED8A438
:10018C00000E016E000E8F5D02E1640E8E5D000E9E
:10019C00D8B0FF0E006E0150001201E1DAD78DC409
:0401AC0000F012004D
:0C01B000DE5003E0E66ED8EF00F0120015
:1001BC0039C0E1FF3AC0E2FFFF0EE66E37C000F037
:0E01CC0038C001F03BDF0050FE0AF2E11200E5
:1001DA008D8039C0E1FF3AC0E2FFFF0EE66E37C0FC
:0A01EA0000F038C001F02BDF120016
:1001F40087C4E9FF88C4EAFFEECF02F0010E0401D0
:100204008725E96E000E8821EA6EEECF03F002C066
:0802140000F003C001F012002C
:10021C0087C4E9FF88C4EAFFEECF04F0010E0401A5
:10022C008725E96E000E8821EA6EEECF05F0020EEE
:10023C008725E96E000E8821EA6EEECF06F0030EDC
:10024C008725E96E000E8821EA6EEECF07F004C018
:10025C0000F005C001F006C002F007C003F0120068
:10026C0014DF1550040A09E174C479F475C47AF4E6
:10027C0076C47BF477C47CF414D0090E006E74C47D
:10028C0079F475C47AF476C47BF477C47CF40050AA
:10029C0008E00401793779917A377B377C37FF0F87
:1002AC00F7D70401120E876F79C488F47AC489F4E5
:1002BC007BC48AF47CC48BF4FF0E8C6F01DF00507E
:1002CC00000A05E084DF010E0401786F01D0786B21
:0602DC0078C400F01200DE
:1002E200220E0C6E086A096A0A6A0B6A0C06D8B4F6
:1002F2001FD0D8900B320A3209320832033202324E
:1003020001320032D8A0F2D70C06D8B409D004507A
:1003120008260550092206500A2207500B22EAD766
:10032200045008260550092206500A2207500B22C3
:020332001200B7
:100334000B6A0A6A096A00500402F4CF09F0F3CF89
:1003440008F001500502F4CF0BF0F3CF0AF000508F
:100354000502F3500926F4500A22E86A0B220150E0
:100364000402F3500926F4500A22E86A0B2208C05A
:1003740000F009C001F00AC002F00BC003F0120043
:10038400086A096A100E0C6E0134083609360450E6
:10039400085E0550D8A0053C095ED8B007D00450CB
:1003A40008260550D8B0053C0926D89000360136F9
:0603B4000C2EEAD7120036
:1003BA000B6A0A6A096A086A0E6A03340836045024
:1003CA00085E0550D8A0053C095E0650D8A0063C38
:1003DA000A5E0750D8A0073C0B5EE86AD8A0010E57
:1003EA000E5E0336070E0C6E0334083609360A36DB
:1003FA000B360E36045003A012D0085E0550D8A062
:10040A00053C095E0650D8A0063C0A5E0750D8A0F3
:10041A00073C0B5EE86AD8A0010E0E5E11D00826D2
:10042A000550D8B0053C09260650D8B0063C0A2625
:10043A000750D8B0073C0B26E86AD8B0010E0E2642
:10044A0003360C2ED1D70234083609360A360B3653
:10045A000E36045003A012D0085E0550D8A0053C01
:10046A00095E0650D8A0063C0A5E0750D8A0073C91
:10047A000B5EE86AD8A0010E0E5E11D00826055060
:10048A00D8B0053C09260650D8B0063C0A260750C3
:10049A00D8B0073C0B26E86AD8B0010E0E26023601
:1004AA00070E0C6E0234083609360A360B360E363B
:1004BA00045002A012D0085E0550D8A0053C095E7F
:1004CA000650D8A0063C0A5E0750D8A0073C0B5E2F
:1004DA00E86AD8A0010E0E5E11D008260550D8B0E1
:1004EA00053C09260650D8B0063C0A260750D8B063
:1004FA00073C0B26E86AD8B0010E0E2602360C2EEF
:10050A00D1D70134083609360A360B360E3604506E
:10051A0002A012D0085E0550D8A0053C095E06501C
:10052A00D8A0063C0A5E0750D8A0073C0B5EE86AD2
:10053A00D8A0010E0E5E11D008260550D8B0053C91
:10054A0009260650D8B0063C0A260750D8B0073C00
:10055A000B26E86AD8B0010E0E260136070E0C6E7D
:10056A000134083609360A360B360E36045001A015
:10057A0012D0085E0550D8A0053C095E0650D8A0E6
:10058A00063C0A5E0750D8A0073C0B5EE86AD8A072
:10059A00010E0E5E11D008260550D8B0053C09267A
:1005AA000650D8B0063C0A260750D8B0073C0B269E
:1005BA00E86AD8B0010E0E2601360C2ED1D70034C7
:1005CA00083609360A360B360E36045001A012D008
:1005DA00085E0550D8A0053C095E0650D8A0063C26
:1005EA000A5E0750D8A0073C0B5EE86AD8A0010E45
:1005FA000E5E11D008260550D8B0053C09260650D3
:10060A00D8B0063C0A260750D8B0073C0B26E86A41
:10061A00D8B0010E0E260036070E0C6E00340836CE
:10062A0009360A360B360E36045000A012D0085E80
:10063A000550D8A0053C095E0650D8A0063C0A5EC3
:10064A000750D8A0073C0B5EE86AD8A0010E0E5EE0
:10065A0011D008260550D8B0053C09260650D8B056
:10066A00063C0A260750D8B0073C0B26E86AD8B0E1
:10067A00010E0E2600360C2ED1D700B00ED0045033
:10068A0008260550D8B0053C09260650D8B0063CC5
:0C069A000A260750D8B0073C0B261200BF
:1006A60074C404F075C405F076C406F077C407F088
:1006B600026A036A000E0401791902E1000E781934
:1006C60023E0010E785F000E795B06C0E9FF07C0E4
:1006D600EAFFEECF01F004C0E9FF05C0EAFFEECF66
:1006E60000F00150005C026E000E036E000E035611
:1006F600000E031802E1000E021801E005D0044ABC
:10070600052A064A072AD6D702C000F003C001F020
:020716001200CF
:10071800760E006E040E016E00C082F401C083F4F0
:1007280074C484F475C485F400C087F401C088F4E7
:10073800200E0401896F0B0E8A6F000E8B6FA9DCE7
:10074800816B84C4E9FF85C4EAFFEECF00F0005056
:10075800000A000ED8A4FF0E866F00C087F47CDC68
:100768000050000A000ED8A4FF0E016E0150861535
:10077800006E03E0844B852BE4D784C4E9FF85C46D
:10078800EAFFEE502E0A0EE12E0E766F844B852B73
:1007980084C4E9FF85C4EAFFEE502E0A02E12E0E5A
:1007A800776F62D084C4E9FF85C4EAFFEECF00F01A
:1007B8000050000A000ED8A4FF0E866F00C087F410
:1007C8004BDC0050000AFF0ED8A4000E016E8651C3
:1007D800011684C4E9FF85C4EAFFEE502E0A000E14
:1007E800D8A4FF0E006E015000160FE084C4E9FF84
:1007F80085C4EAFF82C4E1FF83C4E2FFEECFE6FFCF
:10080800824B832B844B852BCDD784C4E9FF85C4C9
:10081800EAFFEE502E0A02E1844B852B760E826F9A
:10082800040E836F080E8227000E832384C4E9FF19
:1008380085C4EAFFEE50000A17E082C4E9FF83C4CA
:10084800EAFFEE50000A01E10FD084C4E9FF85C435
:10085800EAFF82C4E1FF83C4E2FFEECFE6FF824BEA
:10086800832B844B852BE2D774C4E1FF75C4E2FF68
:0E087800760ED96E040EDA6E97DCE66A120078
:1008860074C478F475C479F476C47AF477C47BF4C6
:1008960004017C6B7D6B78C4E9FF79C4EAFFEE50F6
:1008A600200A01E117D078C4E9FF79C4EAFF7AC4C7
:1008B600E1FF7BC4E2FFEECFE6FF7A4B7B2B784B62
:1008C600792B000E7D1902E1070E7C1903E07C4BA3
:1008D6007D2BE1D7080E7425016E000E7521026E80
:1008E60001C078F402C079F401C0E9FF02C0EAFF52
:1008F600EE50200A29E07AC4E1FF7BC4E2FF2E0E07
:10090600E66E7A4B7B2B7C6B7D6B78C4E9FF79C4F2
:10091600EAFFEE50200A01E117D078C4E9FF79C456
:10092600EAFF7AC4E1FF7BC4E2FFEECFE6FF7A4B33
:100936007B2B784B792B000E7D1902E1020E7C1978
:1009460003E07C4B7D2BE1D77AC4E1FF7BC4E2FF59
:10095600E66A0D0E7625E16E000E7721E26E0B0E2D
:100966007425E96E000E7521EA6EEECFE6FF1A0ECB
:1009760076257E6F000E77217F6F1C0E7425876F9C
:10098600000E7521886F47DC7EC4E1FF7FC4E2FF5D
:1009960000C0E6FF01C0E6FF02C0E6FF03C0E6FFB7
:1009A6001E0E76257E6F000E77217F6F1A0E742538
:1009B600876F000E7521886F1ADC7EC4E1FF7FC445
:1009C600E2FF00C0E6FF01C0E6FF0E0E7425046ECE
:1009D600000E7521056E0E0E7425006E000E752133
:1009E600016E010E0024E96E000E0120EA6EEECFC4
:1009F60003F003C002F0016A04C0E9FF05C0EAFF84
:100A0600EECF00F000500124036E000E0220046EAB
:100A160003C07CF404C07DF40E0E7625006E000E35
:100A26007721016E030E0024E16E000E0120E26EB6
:100A36000B0E026E03C000F004C001F0025005E088
:100A460001320032019EFF0FFAD700C0E6FF0E0EFC
:100A56007625006E000E7721016E040E0024E16EED
:100A6600000E0120E26E050E026E7CC400F07DC40D
:100A760001F0025005E001320032019EFF0FFAD765
:100A86003F0E0014006E00C0E6FF0E0E7625006EC7
:100A9600000E7721016E050E0024E16E000E012086
:100AA600E26E1F0E7C15026E02C000F0003600904A
:100AB60000C0E6FF100E7425026E000E7521036E4F
:100AC600100E7425006E000E7521016E010E0024B5
:100AD600E96E000E0120EA6EEECF01F001C005F0CE
:100AE600046A02C0E9FF03C0EAFFEECF00F000503F
:100AF6000424026E000E0520036E02C07CF403C0BF
:100B06007DF40E0E7625006E000E7721016E020E24
:100B16000024E16E000E0120E26E1F0E0214006E2C
:100B260000C0E6FF0E0E7625006E000E7721016EE0
:100B3600010E0024E16E000E0120E26E050E026E2B
:100B46007CC400F07DC401F0025005E001320032A1
:100B5600019EFF0FFAD70F0E0014006E00C0E6FFCD
:100B66000E0E7625E16E000E7721E26E090E026EFC
:100B76007CC400F07DC401F0025005E00132003271
:100B8600019EFF0FFAD700C0E6FF160E7425046E0D
:100B9600000E7521056E160E7425006E000E752169
:100BA600016E010E0024E96E000E0120EA6EEECF02
:100BB60003F003C002F0016A04C0E9FF05C0EAFFC2
:100BC600EECF00F000500124036E000E0220046EEA
:100BD60003C07CF404C07DF4140E7625006E000E6E
:100BE6007721016E030E0024E16E000E0120E26EF5
:100BF6000B0E026E03C000F004C001F0025005E0C7
:100C060001320032019EFF0FFAD700C0E6FF140E34
:100C16007625006E000E7721016E040E0024E16E2B
:100C2600000E0120E26E050E026E7CC400F07DC44B
:100C360001F0025005E001320032019EFF0FFAD7A3
:100C46003F0E0014006E00C0E6FF140E7625006EFF
:100C5600000E7721016E050E0024E16E000E0120C4
:100C6600E26E1F0E7C15026E02C000F00036009088
:100C760000C0E6FF180E7425026E000E7521036E85
:100C8600180E7425006E000E7521016E010E0024EB
:100C9600E96E000E0120EA6EEECF01F001C005F00C
:100CA600046A02C0E9FF03C0EAFFEECF00F000507D
:100CB6000424026E000E0520036E02C07CF403C0FD
:100CC6007DF4140E7625006E000E7721016E020E5D
:100CD6000024E16E000E0120E26E1F0E0214006E6B
:100CE60000C0E6FF140E7625006E000E7721016E19
:100CF600010E0024E16E000E0120E26E050E026E6A
:100D06007CC400F07DC401F0025005E001320032DF
:100D1600019EFF0FFAD70F0E0014006E00C0E6FF0B
:100D2600140E7625E16E000E7721E26E090E026E34
:100D36007CC400F07DC401F0025005E001320032AF
:0C0D4600019EFF0FFAD700C0E6FF12006C
:100D5200DEEC00F00401766B776B76517425786FC8
:100D620077517521796F39C0E1FF3AC0E2FFFF0E7A
:100D7200E66E37C000F038C001F024EC00F078C411
:100D8200E1FF79C4E2FF00C0E6FF04017751010AE6
:100D920002E1FF0E761903E0764B772BDED739C0DE
:100DA200E1FF3AC0E2FFFF0EE66E37C000F038C046
:100DB20001F024EC00F039C0E1FF3AC0E2FFFF0E7F
:100DC200E66E37C000F038C001F024EC00F01200EB
:100DD20039C0E1FF3AC0E2FF4C0EE66E37C000F0C8
:100DE20038C001F024EC00F039C0E1FF3AC0E2FF64
:100DF200E66A37C000F038C001F024EC00F039C0D8
:100E0200E1FF3AC0E2FFE66A37C000F038C001F005
:100E120024EC00F039C0E1FF3AC0E2FFE66A37C0D5
:100E220000F038C001F024EC00F039C0E1FF3AC014
:100E3200E2FFE66A37C000F038C001F024EC00F0AF
:100E420039C0E1FF3AC0E2FFFF0EE66E37C000F0A4
:100E520038C001F024EC00F00401756B766B39C0E8
:100E6200E1FF3AC0E2FFFF0EE66E37C000F038C085
:100E720001F024EC00F000C077F40401754B762BEE
:100E8200800E00160050000AFF0ED8A4000E016E5C
:100E9200000E761902E1640E7519FF0ED8A4000E39
:100EA200006E0150001201E1DAD7800E7715016E53
:100EB2000150000A05E0EDEC00F077C474F416D09E
:100EC20039C0E1FF3AC0E2FFFF0EE66E37C000F024
:100ED20038C001F024EC00F000C077F40050000AA2
:100EE20001E1EED7EDEC00F00401746B74C400F084
:020EF2001200EC
:100EF4004BEC00F01550040A09E174C47DF475C488
:100F04007EF476C47FF477C480F414D0090E006EA6
:100F140074C47DF475C47EF476C47FF477C480F41D
:100F2400005008E004017D377D917E377F3780379C
:100F3400FF0FF7D70401110E876F7DC488F47EC4B8
:100F440089F47FC48AF480C48BF4FF0E8C6F66EC42
:100F540000F00050000A06E0EDEC00F0010E040180
:100F64007A6F52D039C0E1FF3AC0E2FFFF0EE66E5D
:100F740037C000F038C001F024EC00F00050FE0A45
:100F840002E00000EFD704017B6B7C6B7B5178257A
:100F9400816F7C517921826F39C0E1FF3AC0E2FF51
:100FA400FF0EE66E37C000F038C001F024EC00F00C
:100FB40081C4E1FF82C4E2FF00C0E6FF04017C516A
:100FC400010A02E1FF0E7B1903E07B4B7C2BDED789
:100FD40039C0E1FF3AC0E2FFFF0EE66E37C000F011
:100FE40038C001F024EC00F039C0E1FF3AC0E2FF60
:100FF400FF0EE66E37C000F038C001F024EC00F0BC
:0E100400EDEC00F004017A6B7AC400F01200EB
:101012004BEC00F01550040A09E174C47DF475C468
:101022007EF476C47FF477C480F414D0090E006E87
:1010320074C47DF475C47EF476C47FF477C480F4FE
:10104200005008E004017D377D917E377F3780377D
:10105200FF0FF7D70401180E876F7DC488F47EC492
:1010620089F47FC48AF480C48BF4FF0E8C6F66EC23
:1010720000F00050000A06E0EDEC00F0010E040161
:101082007A6F98D039C0E1FF3AC0E2FFFF0EE66EF8
:1010920037C000F038C001F024EC00F039C0E1FFA5
:1010A2003AC0E2FFFF0EE66E37C000F038C001F032
:1010B20024EC00F039C0E1FF3AC0E2FFFE0EE66E1A
:1010C20037C000F038C001F024EC00F004017B6B63
:1010D2007C6B7B517825E96E7C517921EA6E39C0AF
:1010E200E1FF3AC0E2FFEECFE6FF37C000F038C0C2
:1010F20001F024EC00F004017C51010A02E1FF0E30
:101102007B1903E07B4B7C2BE4D739C0E1FF3AC06B
:10111200E2FFFF0EE66E37C000F038C001F024ECAB
:1011220000F039C0E1FF3AC0E2FFFF0EE66E37C0C1
:1011320000F038C001F024EC00F039C0E1FF3AC001
:10114200E2FFFF0EE66E37C000F038C001F024EC7B
:1011520000F000C07BF4000E04017C6F1F0E7B15B3
:10116200016E7CC402F0000E021601C07BF402C0C4
:101172007CF4000E021802E1050E011806E0EDEC07
:1011820000F0020E04017A6F15D039C0E1FF3AC0B7
:10119200E2FFFF0EE66E37C000F038C001F024EC2B
:1011A20000F00050FF0A02E00000EFD7EDEC00F083
:0A11B20004017A6B7AC400F0120009
:1011BC0040C004F041C005F0000E066E076E63C41B
:1011CC0000F064C401F0000E026E036EDDEC01F061
:1011DC00215000240401746F22500120756F23509C
:1011EC000220766F24500320776F010E02015F6F8F
:1011FC005F0E0401786F000E796F76DE0050000AE6
:10120C0007E0100E3B6EFF0E656FFF0E666F25D06C
:10121C0040C004F041C005F063C400F064C401F0A8
:10122C00C2EC01F008C000F009C001F000C002F0EF
:10123C0001C003F00236029003365F0E0224876F62
:10124C00000E0320886FFAEC00F000C063F401C0BC
:10125C0064F400C065F401C066F465C400F066C4B3
:04126C0001F012007B
:101270001FC000F020C001F040C004F041C005F0E4
:101280009AEC01F000C065F401C066F4020E04019E
:10129000676F000E686F40C004F041C005F0000E9B
:1012A000066E076E020E006E000E016E000E026EDC
:1012B000036EDDEC01F000C069F401C06AF402C005
:1012C0006BF403C06CF421500024696F225001209C
:1012D0006A6F235002206B6F245003206C6F40C054
:1012E00004F041C005F0020E006E000E016EC2EC6B
:1012F00001F008C000F009C001F000C002F001C018
:1013000003F00236029003365F0E02246D6F000E6A
:1013100003206E6F69C474F46AC475F46BC476F408
:101320006CC477F436EC01F0010E02015F6F5F0EC2
:101330000401746F000E756F0CDD04016651685D69
:1013400002E16551675D2BE26DC4E9FF6EC4EAFFFF
:10135000EECF01F0EECF02F0000E021802E1000E17
:10136000011801E11CD0020E6D25016E000E6E21E8
:10137000026E01C06DF402C06EF4674B682B025020
:10138000431802E14250011809E15F0E6D6F000E33
:101390006E6F5F0E746F000E756FDBDCCED719DDDC
:1013A000005208E0100E3B6EFF0E0401636FFF0E4B
:1013B000646F10D004016851661902E16551671924
:1013C00005E1FF0E636FFF0E646F04D067C463F422
:0E13D00068C464F463C400F064C401F0120049
:1013DE00040163517A08000ED8B0FF0E016E610E43
:1013EE00635D000ED8B0FF0E006E0150001602E0D5
:0E13FE00DF0E631763C402F002C000F012009D
:10140C0063C404F064C405F004C0E9FF05C0EAFF3E
:10141C00EE50000A03E0044A052AF6D70401635192
:10142C00045C026E64510558036E02C000F003C0E8
:04143C0001F01200A9
:1014400040C004F041C005F0000E066E076E63C494
:1014500000F064C401F0000E026E036EDDEC01F0DA
:1014600000C06CF401C06DF402C06EF403C06FF4F0
:101470002150002622500122235002222450032210
:1014800000C06CF401C06DF402C06EF403C06FF4D0
:10149000010E02015F6F00C074F401C075F402C058
:1014A00076F403C077F45F0E0401786F000E796F55
:1014B00021DD0050000A05E0100E3B6EFF0E676F45
:1014C00089D040C004F041C005F063C400F064C49A
:1014D00001F0C2EC01F008C000F009C001F000C04A
:1014E0006AF401C06BF400C002F001C003F00236E0
:1014F0000290033602C06AF403C06BF45F0E02244C
:10150000E16E000E0320E26E65C4E6FF010E6A255F
:10151000006E000E6B21016E5F0E0024E16E000E66
:101520000120E26E66C4E6FF6CC474F46DC475F409
:101530006EC476F46FC477F45F0E786F000E796F27
:1015400068DD0050000A05E0050E3B6EFF0E676F78
:1015500041D0010E686F000E696F1C04706F000EA1
:10156000006E6951005C02E16851705D32E31F500A
:101570006C25006E20506D21016E000E6E21026EF2
:10158000000E6F21036E00C06CF401C06DF402C048
:101590006EF403C06FF400C074F401C075F402C0AF
:1015A00076F403C077F45F0E786F000E796F31DD4B
:1015B0000050000A05E0050E3B6EFF0E676F0AD073
:1015C000000E691902E17051681903E0684B692B3C
:0A15D000C4D7676B67C400F0120077
:1015DA0063C474F464C475F48CEC03F03F502818A7
:1015EA0008E13E50271805E13D50261802E13C501B
:1015FA00251805E11DC06EF41EC06FF40ED018C088
:10160A0000F019C001F0A4C204F0A5C205F09AECDA
:10161A0001F000C06EF401C06FF404013CC06AF42A
:10162A003DC06BF43EC06CF43FC06DF45F0E706F4A
:10163A00000E716F3CC074F43DC075F43EC076F480
:10164A003FC077F436EC01F0010E02015F6F5F0EC6
:10165A000401746F000E756FA9EC06F00401686B43
:10166A00696B010E6E5D726F000E6F59736F69516F
:10167A00735D02E16851725DD8A087D070C474F4BA
:10168A0071C475F463C476F464C477F40B0E786F8E
:10169A00000E796F53EC03F0000E011802E1000E00
:1016AA00001848E1E9EC06F0005206E0100E3B6E25
:1016BA00FF0E0401676F76D00401000E661902E17D
:1016CA00000E651936E070C474F471C475F465C40B
:1016DA0076F466C477F443EC04F0200E6525E16ED7
:1016EA00000E6621E26E6AC4E6FF6BC4E6FF6CC4B4
:1016FA00E6FF6DC4E6FF240E6525E16E000E662145
:10170A00E26E5F0E705D036E000E7159046E050E77
:10171A00026E03C000F004C001F0025005E001327D
:10172A000032019EFF0FFAD700C0E6FF01C0E6FFB4
:10173A00676B38D00401200E7025016E000E7121EE
:10174A00026E01C070F402C071F40250431802E143
:10175A004250011810E1010E6A27000E6B236C2318
:10176A006D235F0E706F000E716F5F0E746F000E47
:10177A00756FA9EC06F004016951731902E17251FF
:10178A00681903E0684B692B6CD7E9EC06F0005244
:10179A0006E0100E3B6EFF0E0401676F03D00401D2
:0A17AA00FF0E676F67C400F0120025
:1017B40063C400F064C401F0000E026E036E020EF6
:1017C400005E000E015A025A035A18C004F019C0F0
:1017D40005F0000E066E076E71EC01F0005029242E
:1017E4000401656F01502A20666F02502B20676F39
:1017F40003502C20686F65C400F066C401F067C410
:0818040002F068C403F01200B9
:10180C0063C401F064C402F065C403F066C404F060
:10181C00000E0401681902E1000E671913E0010EB5
:10182C00675F000E685B03C0E9FF04C0EAFF01C0FC
:10183C00E1FF02C0E2FFEECFE6FF014A022A034AB3
:06184C00042AE6D7120099
:101852000201D151281808E1D051271805E1CF51D2
:10186200261802E1CE51251805E11DC03DF41EC027
:101872003EF40ED018C000F019C001F0A4C204F06A
:10188200A5C205F09AEC01F000C03DF401C03EF49F
:10189200FC5104013E1903E13D510201FB1903E130
:1018A20004013C6BB9D0A4C204F0A5C205F0000E3D
:1018B200066E076EFBC200F0FCC201F0000E026E63
:1018C200036EDDEC01F000500201CE250401416FF0
:1018D20001500201CF210401426F02500201D021C6
:1018E2000401436F03500201D1210401446FA4C2D9
:1018F20004F0A5C205F0FBC200F0FCC201F0C2EC8C
:1019020001F008C000F009C001F0050E046E00C02D
:1019120002F001C003F0045005E0023602900336E3
:10192200FF0FFAD75F0E02243F6F000E0320406FB5
:1019320041C474F442C475F443C476F444C477F4E5
:1019420036EC01F0010E02015F6F5F0E0401746F4D
:10195200000E756FA9EC06F004013E510201FC5D18
:1019620004E104013D510201FB5D4AE2FB4BFC2B09
:101972003FC4E9FF40C4EAFFEECF02F00250E50A9D
:10198200000ED8A4FF0E016E200E025C000ED8B02D
:10199200FF0E006E0150001617E0E9EC06F000524F
:1019A20006E0100E3B6EFF0E04013C6F35D03FC4C3
:1019B20074F440C475F43AC476F43BC477F443EC4F
:1019C20004F0010E3C6F28D00401200E3F25016E69
:1019D200000E4021026E01C03FF402C040F40250EA
:1019E200431802E1425001180AE15F0E3F6F000EF8
:1019F200406F5F0E746F000E756FA9EC06F0ACD7E6
:101A0200E9EC06F0005206E0100E3B6EFF0E0401F8
:0E1A12003C6F02D004013C6B3CC400F012009B
:101A20000201FB6BFC6B3AC4E9FF3BC4EAFFEE50DA
:101A3000000A48E03AC463F43BC464F43D0E006E0F
:101A4000040E016E00C065F401C066F4C6DD800EB0
:101A50000018016E800E000A015C05E2020E3B6E6A
:101A6000FF0E3C6F3AD0100E4A15016E0150000A6D
:101A700005E1010E3B6EFF0E3C6F2FD05BC400F002
:101A80005CC401F0000E026E036E020E005E000EDA
:101A9000015A025A035A18C004F019C005F0000E8A
:101AA000066E076E71EC01F0005029240201CE6F22
:101AB00001502A20CF6F02502B20D06F03502C20D2
:101AC000D16F08D03CC0CEF23DC0CFF23EC0D0F2C4
:101AD0003FC0D1F2010E04013C6F3CC400F0120083
:101AE0001A0E04013A25876F000E3B21886FFAEC2D
:101AF00000F03EC4E1FF3FC4E2FF00C0E6FF01C0CA
:101B0000E6FF3EC4E9FF3FC4EAFFEECF01F0EECFAF
:101B100002F0000E021802E1000E01182AE138EC72
:101B200009F03EC4E1FF3FC4E2FF00C0E6FF01C090
:101B3000E6FF3EC4E9FF3FC4EAFFEECF01F0EECF7F
:101B400002F00250FF0A02E1FF0E011805E1040E47
:101B50003B6EFF0E406F7FD13EC4E9FF3FC4EAFFFA
:101B6000EECF63F4EECF64F4FF0E656FFF0E666F89
:101B700067DC3EC4E9FF3FC4EAFFEECF63F4EECF7B
:101B800064F418DE3CC4E1FF3DC4E2FF00C0E6FFA0
:101B900001C0E6FF02C0E6FF03C0E6FF010E02013E
:101BA0005F6F5F0E0401876F000E886F896B000EF8
:101BB0008A6F020E8B6F4DEC00F03F50281808E141
:101BC0003E50271805E13D50261802E13C502518EB
:101BD00005E11DC043F41EC044F40ED018C000F04F
:101BE00019C001F0A4C204F0A5C205F09AEC01F0FE
:101BF00000C043F401C044F43CC047F43DC048F485
:101C00003EC049F43FC04AF45F0E456F000E466F78
:101C10003CC074F43DC075F43EC076F43FC077F428
:101C200036EC01F0010E02015F6F5F0E0401746F6C
:101C3000000E756FA9EC06F00401416B426B010EBA
:101C4000435D4B6F000E44594C6F42514C5D02E1B5
:101C500041514B5DD8A0F0D045C4E9FF46C4EAFF2E
:101C6000EECF02F00250E50AFF0ED8A4000E016E7E
:101C7000200E025CFF0ED8B0000E006E0150001264
:101C8000D8B4B0D0E9EC06F0005206E0100E3B6E7E
:101C9000FF0E0401406FDFD0040145C463F446C465
:101CA00064F43AC465F43BC466F4200E676F000E1A
:101CB000686FACDD1A0E4525E16E000E4621E26E1E
:101CC0003EC4E9FF3FC4EAFFFF0EEE14006E00C001
:101CD000E6FF1A0E4525006E000E4621016E010E2C
:101CE0000024E16E000E0120E26E3EC4E9FF3FC415
:101CF000EAFFEECF03F0EECF04F004C000F0016A7B
:101D000000C0E6FF0E0E4525E16E000E4621E26E94
:101D100001C3E6FF0E0E4525006E000E4621016E42
:101D2000010E0024E16E000E0120E26E02C3E6FF08
:101D3000100E4525E16E000E4621E26EFDC2E6FF63
:101D4000100E4525006E000E4621016E010E002486
:101D5000E16E000E0120E26EFEC2E6FF160E452582
:101D6000E16E000E4621E26E01C3E6FF160E452528
:101D7000006E000E4621016E010E0024E16E000E81
:101D80000120E26E02C3E6FF180E4525E16E000E4B
:101D90004621E26EFDC2E6FF180E4525006E000EDC
:101DA0004621016E010E0024E16E000E0120E26E5C
:101DB000FEC2E6FF47C474F448C475F449C476F41F
:101DC0004AC477F45F0E786F000E796F09EC08F063
:101DD0000050000A05E0050E3B6EFF0E406F3BD041
:101DE000406B39D0200E4525016E000E4621026E53
:101DF00001C045F402C046F40250431802E14250CB
:101E0000011810E1010E4727000E482349234A23F9
:101E10005F0E456F000E466F5F0E746F000E756F9C
:101E2000A9EC06F0040142514C1902E14B51411951
:101E300003E0414B422B03D7E9EC06F0005206E0E9
:101E4000100E3B6EFF0E0401406F05D00401060E1C
:0C1E50003B6EFF0E406F40C400F012001B
:0E1E5C00ACB202D00000FCD73AC4ADFF1200B9
:101E6A000450085E0550D8A0053C095E0650D8A06B
:101E7A00063C0A5E0750D8A0073C0B5E0336070EE5
:101E8A000C6E0334083609360A360B36045003A0A2
:101E9A000ED0085E0550D8A0053C095E0650D8A0B1
:101EAA00063C0A5E0750D8A0073C0B5E0DD00826F8
:101EBA000550D8B0053C09260650D8B0063C0A267B
:101ECA000750D8B0073C0B2603360C2EDAD702345B
:101EDA00083609360A360B36045003A00ED0085EBF
:101EEA000550D8A0053C095E0650D8A0063C0A5EFB
:101EFA000750D8A0073C0B5E0DD008260550D8B075
:101F0A00053C09260650D8B0063C0A260750D8B028
:101F1A00073C0B260236070E0C6E023408360936C9
:101F2A000A360B36045002A00ED0085E0550D8A01F
:101F3A00053C095E0650D8A0063C0A5E0750D8A0A8
:101F4A00073C0B5E0DD008260550D8B0053C092683
:101F5A000650D8B0063C0A260750D8B0073C0B26D4
:101F6A0002360C2EDAD70134083609360A360B3611
:101F7A00045002A00ED0085E0550D8A0053C095EA8
:101F8A000650D8A0063C0A5E0750D8A0073C0B5E54
:101F9A000DD008260550D8B0053C09260650D8B001
:101FAA00063C0A260750D8B0073C0B260136070E16
:101FBA000C6E0134083609360A360B36045001A075
:101FCA000ED0085E0550D8A0053C095E0650D8A080
:101FDA00063C0A5E0750D8A0073C0B5E0DD00826C7
:101FEA000550D8B0053C09260650D8B0063C0A264A
:101FFA000750D8B0073C0B2601360C2EDAD700342E
:10200A00083609360A360B36045001A00ED0085E8F
:10201A000550D8A0053C095E0650D8A0063C0A5EC9
:10202A000750D8A0073C0B5E0DD008260550D8B043
:10203A00053C09260650D8B0063C0A260750D8B0F7
:10204A00073C0B260036070E0C6E0034083609369C
:10205A000A360B36045000A00ED0085E0550D8A0F0
:10206A00053C095E0650D8A0063C0A5E0750D8A077
:10207A00073C0B5E0DD008260550D8B0053C092652
:10208A000650D8B0063C0A260750D8B0073C0B26A3
:10209A0000360C2EDAD700B00ED0045008260550B0
:1020AA00D8B0053C09260650D8B0063C0A26075087
:0820BA00D8B0073C0B26120010
:0820C200016A01C000F01200E8
:1020CA003AC463F43BC464F406EC0AF000C03DF47D
:1020DA000050000A03E1FF0E3C6F64D03D510C082A
:1020EA0003E2FE0E3C6F5ED03AC4E9FF3BC4EAFF4E
:1020FA00EE502E0A03E1FD0E3C6F54D03F6B3AC4FA
:10210A0040F43BC441F43DC43EF4010E3D5D20E37E
:10211A003E513A25E96E000E3B21EA6EEE502E0A38
:10212A0012E1010E3F6F3E51080803E2FC0E3C6FBC
:10213A0039D03E51010F006E00503A25406F000E13
:10214A003B21416F05D03E51010A02E03E07E0D72C
:10215A003F51010A000ED8A4FF0E016E3D51080836
:10216A00FF0ED8B0000E006E0150001603E0FB0E01
:10217A003C6F18D03F51010A14E140C463F441C4D2
:10218A0064F406EC0AF000C03DF40050000A03E1D2
:10219A00F50E3C6F07D03D51030803E2F40E3C6F85
:0A21AA0001D03C6B3CC400F01200B1
:1021B40004013E6B3E513A253F6F000E3B21406FB8
:1021C4003E513C25E96E000E3D21EA6EEECF63F4EC
:1021D400EFEC09F03FC4E1FF40C4E2FF00C0E6FFBA
:0C21E4003E510B0A02E03E2BE5D7120032
:1021F00004013B51FF0A02E1FF0E3A1917E03AC40D
:1022000063F43BC464F4DEEC08F000C043F401C0A6
:1022100044F43AC463F43BC464F4656B666B20EC2D
:102220000AF043C43AF444C43BF4E2D7010E02017D
:102230005F6F3CC474F43DC475F43EC476F43FC48F
:1022400077F45F0E0401786F000E796F7AEC07F077
:102250000050000A05E0100E3B6EFF0E426F1FD0CB
:102260005F0E4025E16E000E4121E26EE50EE66E46
:102270003CC474F43DC475F43EC476F43FC477F4B2
:102280005F0E786F000E796F09EC08F00050000ABD
:1022900005E0050E3B6EFF0E426F01D0426B42C45B
:0422A00000F0120038
:1022A400000E0006015ADECFE6FF0006015AFBE2EB
:0222B400120016
:1022B6000B1E0A1E091E081E082AD8B4092AD8B4FD
:0822C6000A2AD8B40B2A120009
:1022CE001FC000F020C001F040C004F041C005F076
:1022DE009AEC01F000C0DFF301C0E0F3020E03013F
:1022EE00DB6F000EDC6F40C004F041C005F0000E45
:1022FE00066E076E020E006E000E016E000E026E6E
:10230E00036EDDEC01F000C0E3F301C0E4F302C0A4
:10231E00E5F303C0E6F321500024E36F22500120C1
:10232E00E46F23500220E56F24500320E66F40C077
:10233E0004F041C005F0020E006E000E016EC2ECFC
:10234E0001F008C000F009C001F000C002F001C0A9
:10235E0003F0023602900336D7C3E1F3D8C3E2F39B
:10236E00020EDD6F000EDE6F5F0E0224E76F000EB1
:10237E000320E86FE3C374F4E4C375F4E5C376F4A5
:10238E00E6C377F436EC01F0010E02015F6F5F0ECB
:10239E000401746F000E756FA9EC06F00301E05195
:1023AE00DC5D02E1DF51DB5D42E2E7C3E9FFE8C33A
:1023BE00EAFFEECF01F0EECF02F0000E021802E1BE
:1023CE00000E01180CE1010EE15F000EE25B000E43
:1023DE00E21902E1000EE11901E129D00AD0D7C3BA
:1023EE00E1F3D8C3E2F3010EDB25DD6F000EDC2135
:1023FE00DE6F020EE725016E000EE821026E01C0AF
:10240E00E7F302C0E8F3DB4BDC2B0250431802E18A
:10241E00425001180BE15F0EE76F000EE86F5F0E82
:10242E000401746F000E756FA9EC06F0B7D7E9ECD6
:10243E0006F0005208E0100E3B6EFF0E0301D96F3E
:10244E00FF0EDA6F0ED00301000EE21902E1000E4C
:10245E00E11905E1DDC3D9F3DEC3DAF302D0D96B9E
:0C246E00DA6BD9C300F0DAC301F01200F1
:10247A00EE0E04013A6F020E3B6FD7C33CF4D8C389
:10248A003DF493DEEE0E636F020E646FDA0E006E99
:10249A00030E016E00C065F401C066F4EDEC0AF0AB
:1024AA00800E0018016E800E000A015C03E203012F
:1024BA00D96B03D00301010ED96FD9C300F0120002
:1024CA001FC000F020C001F040C004F041C005F078
:1024DA009AEC01F00301D951D725036EDA51D821BC
:1024EA00046E0450015C02E10350005C01E22DD14C
:1024FA0040C004F041C005F0000E066E076ED7C357
:10250A0000F0D8C301F0000E026E036EDDEC01F09C
:10251A0000C0DCF301C0DDF302C0DEF303C0DFF369
:10252A0021500024DC6F22500120DD6F235002204D
:10253A00DE6F24500320DF6F40C004F041C005F075
:10254A00D7C300F0D8C301F0C2EC01F008C000F014
:10255A0009C001F000C003F001C004F00336039083
:10256A000436D7C3E0F3D8C3E1F35F0E0324E26F66
:10257A00000E0420E36F010E02015F6F000E0418C3
:10258A0002E1000E0318000ED8A4FF0E016E41509E
:10259A000301DA5D02E14050D95DFF0ED8B0000EAA
:1025AA00006E0150001215E0DCC374F4DDC375F44B
:1025BA00DEC376F4DFC377F45F0E0401786F000E92
:1025CA00796F7AEC07F00050000A03E0100E3B6EB8
:1025DA00BCD0010E0301D95F000EDA5B0301000EC5
:1025EA00DA1902E1000ED919D8B472D0010ED95FF6
:1025FA00000EDA5BE04BE12BE2C3E1FFE3C3E2FF4B
:10260A00E0C3E6FFE1C3E6FF020EE225016E000E1B
:10261A00E321026E01C0E2F302C0E3F30250431861
:10262A0002E14250011853E1DB6B1C04E46FDB51F9
:10263A00E45D2EE3DBC300F0000E016E026E036E52
:10264A001FC004F020C005F0000E066E076E71EC84
:10265A0001F00050DC250401746F01500301DD21F3
:10266A000401756F02500301DE210401766F0350E5
:10267A000301DF210401776F5F0E786F000E796F17
:10268A0009EC08F00301DB51E41902E0DB2BCDD79A
:10269A00010EDC27000EDD23DE23DF235F0EE26F4F
:1026AA00000EE36F4150DA5D02E14050D95D0FE25E
:1026BA00DCC374F4DDC375F4DEC376F4DFC377F4E8
:1026CA005F0E0401786F000E796F7AEC07F086D7F7
:1026DA00E2C3E1FFE3C3E2FFFF0EE66EFF0EE66E22
:1026EA000301DB6B1C04E46FDB51E45D2EE3DBC307
:1026FA0000F0000E016E026E036E1FC004F020C0CF
:10270A0005F0000E066E076E71EC01F00050DC2534
:10271A000401746F01500301DD210401756F025039
:10272A000301DE210401766F03500301DF21040156
:10273A00776F5F0E786F000E796F09EC08F003016E
:0C274A00DB51E41902E0DB2BCDD71200BC
:10275600D7C33AF4D8C33BF4B5DC0050000A06E010
:10276600120E3B6E010E0301D96F97D0EE0E0401D7
:102776003A6F020E3B6FD7C33CF4D8C33DF417DD66
:10278600000EE16E040EE26EEE0ED96E020EDA6EE9
:10279600D8EC00F0E66AEE0E636F020E646FDA0E96
:1027A600006E030E016E00C065F401C066F4EDEC28
:1027B6000AF0800E0018016E800E000A015C06E227
:1027C600020E3B6E020E0301D96F67D00301100E95
:1027D600E715016E0150000A38E00401336B346BD3
:1027E600000E3A6F040E3B6F10EC0DF0800E0018D1
:1027F600016E800E000A015C04E2020E0301D96F2D
:102806004CD00D0E006E040E016E00C03AF401C0ED
:102816003BF429EC0CF00050000A0AE0334B342B51
:10282600000E341902E1030E331901E101D0E9D794
:1028360045DC000E345D02E1030E335D06E30C0E4B
:102846003B6E030E0301D96F28D0F8C33AF4F9C3DF
:102856003BF4FAC33CF4FBC33DF4FCC33EF4FDC3B6
:102866003FF4050E006EFEC340F4FFC341F4005072
:1028760006E00401403740914137FF0FF9D7B5DC38
:10288600800E0018016E800E000A015C04E2040E40
:102896000301D96F02D00301D96BD9C300F012002E
:1028A600010E02015F6F060E006E000E016E9FC2E2
:1028B60004F0000E056E9AEC01F0A60E0026020E3C
:1028C6000122020E0024E96E000E0120EA6EEECF10
:1028D60074F4EECF75F4EECF76F4EECF77F45F0EA8
:1028E6000401786F000E796F7AEC07F0005206E06B
:1028F600100E3B6EFF0E0301D76FD8D00B0E006E85
:10290600000E016E5F0E00240401876F000E012089
:10291600886FFAEC00F000C016F001C017F06CC02A
:1029260018F0000E196E0E0E006E000E016E5F0E90
:102936000024876F000E0120886FFAEC00F000C0BB
:102946001AF001C01BF06FC01CF0110E006E000ED5
:10295600016E5F0E0024876F000E0120886FFAEC6F
:1029660000F000C01DF001C01EF0160E006E000E35
:10297600016E5F0E0024876F000E0120886FFAEC4F
:1029860000F000C01FF001C020F0060E006E000E21
:10299600016E9FC204F0000E056E9AEC01F0A60EC1
:1029A6000026020E0122020E0024E96E000E01200E
:1029B600EA6E1A50EE24006E1B50EE20016E000ED9
:1029C600EE20026E000EEE20036E00C021F001C064
:1029D60022F002C023F003C024F01CC000F0000E59
:1029E600016E026E036E1FC004F020C005F0000EDB
:1029F600066E076E71EC01F021500026225001226E
:102A0600235002222450032200C025F001C026F0E4
:102A160002C027F003C028F0050E046E1DC000F0AA
:102A26001EC001F0000E026E036E045007E0003671
:102A36000090013602360336FF0FF8D716C004F0B1
:102A460017C005F0000E066E076EDDEC01F025508E
:102A5600002626500122275002222850032200C0B9
:102A660029F001C02AF002C02BF003C02CF016C0DA
:102A760040F017C041F041324032419E050E006ED3
:102A860016C0A4F217C0A5F2005006E00201A53355
:102A9600A433A59FFF0FF9D725C03CF026C03DF013
:102AA60027C03EF028C03FF00301D76BD7C300F024
:022AB60012000C
:102AB8000450000A12E10550000A0FE10650000A0E
:102AC8000CE10750000A09E1FF0E006EFF0E016ECF
:102AD800FF0E026E7F0E036E99D00C6A07BE0C2A99
:102AE8000D6A0B6A0A6A096A086A03500210011023
:102AF8000010D8B485D0035007180E6E0EBE0D1EF8
:102B080007AE0BD0041E051E061E071E042AD8B4E5
:102B1800052AD8B4062AD8B4072A03AE0BD0001E5B
:102B2800011E021E031E002AD8B4012AD8B4022AA4
:102B3800D8B4032A035007100E6E0EBE1DD035EC14
:102B48000FF00CBE36D00DAE5BD0001E011E021E6B
:102B5800031E002AD8B4012AD8B4022AD8B4032AFA
:102B6800081E091E0A1E0B1E082AD8B4092AD8B442
:102B78000A2AD8B40B2A44D007AE15D003BE0DD00C
:102B880003500B6E02500A6E0150096E0050086E19
:102B9800036A026A016A006AD6D7036A026A016A8E
:102BA800006A002A000C031E021E011E001E0C8E65
:102BB800C6D7082AD8B4092AD8B40A2AD8B40B2AFE
:102BC8000450085CD8A4BFD70550095CD8A4BBD76B
:102BD80006500A5CD8A4B7D707500B5CD8A4B3D763
:102BE8000B6A0A6A096A086A002AD8B4012AD8B4A2
:102BF800022AD8B4032A03AEA6D70E6A0E88FF0CA1
:0E2C08000E6A0CA002D05BEC11F0000F12005F
:102C16000301D96BDA6BD751000A19E14BEC00F0CE
:102C2600010E0401876F886B896B8A6B8B6BFF0EB5
:102C36008C6F66EC00F000C0DBF3EDEC00F00301F6
:102C4600DB51000A03E1156AD86B99D08DD04BECA5
:102C560000F0370E0401876F886B896B8A6B8B6B6C
:102C6600FF0E8C6F66EC00F000C0DBF3EDEC00F0BD
:102C76000301DB51010AD8A476D04BEC00F0290EF3
:102C86000401876F000E886F000E896F000E8A6F31
:102C9600400E8B6FFF0E8C6F66EC00F000C0DBF30E
:102CA600EDEC00F00301DB51000A5CE1D751020AAA
:102CB60055E14BEC00F03A0E0401876F886B896B87
:102CC6008A6B8B6BFF0E8C6F66EC00F000C0DBF33B
:102CD60039C0E1FF3AC0E2FFFF0EE66E37C000F0F2
:102CE60038C001F024EC00F000C0DCF339C0E1FF8D
:102CF6003AC0E2FFFF0EE66E37C000F038C001F0C2
:102D060024EC00F039C0E1FF3AC0E2FFFF0EE66EA8
:102D160037C000F038C001F024EC00F039C0E1FF04
:102D26003AC0E2FFFF0EE66E37C000F038C001F091
:102D360024EC00F0EDEC00F00301DB51000A0DE19C
:102D4600400EDC15016E0150000A03E0040E156EFC
:102D560002D0030E156ED86B12D004D0010E156E7C
:102D6600D86B0DD001D009D0DA51270A02E10F0E37
:102D7600D91903E0D94BDA2B4ED7010ED86FD8C339
:042D860000F0120047
:102D8A00086A080E0C6E003408360450085ED8B083
:0E2D9A0002D00826D89000360C2EF5D7120075
:102DA8000401346B356B366B376B326B336BD7C3BF
:102DB8003AF4D8C33BF465EC10F00050000A06E082
:102DC800120E3B6EFF0E0301DB6FF8D1EE0E04010D
:102DD8003A6F020E3B6FD7C33CF4D8C33DF4DAEC2C
:102DE80010F0000E0201ED1902E1000EEC1920E0CE
:102DF8001C0E006E000E016EFFC204F0000EFFBF35
:102E0800FF0E056E9AEC01F0030E0024E16E030E2E
:102E18000120E26ED20ED96E020EDA6E1C0E006E22
:102E2800000E016E52EC11F0EC6BED6BFF0EFF6FB4
:102E3800DF0EE16E030EE26EEE0ED96E020EDA6E52
:102E4800D8EC00F0E66AEE0E0401636F020E646FC0
:102E5800EC0E006E030E016E00C065F401C066F44E
:102E6800EDEC0AF0800E0018016E800E000A015C7D
:102E78006BE20301DAAF62D0580EDA15006E05E096
:102E8800080E3B6EFF0EDB6F99D1120E0401876F9F
:102E9800040E886F896B200E8A6F000E8B6F4DECC5
:102EA80000F07F0E0301DA15006E00C01DF4120E4B
:102EB8000401636F040E646FEE0E656F020E666F99
:102EC8000B0E676F000E686F06EC0CF0120E006EAA
:102ED800040E016E00C03AF401C03BF4340E3C6F9E
:102EE800040E3D6F320E3E6F040E3F6F70EC0DF016
:102EF800800E0018016E800E000A015C04E2FF0ECD
:102F08000301DB6F5BD1DF0E0401636F030E646F97
:102F1800EC0E006E030E016E00C065F401C066F48D
:102F2800EDEC0AF0800E0018016E800E000A015CBC
:102F380004E2FF0E0301DB6F41D106D003010D0E41
:102F48003B6EFF0EDB6F3AD10301580EF915006E88
:102F580005E0080E3B6EFF0EDB6F30D1DC6B1C0EFC
:102F6800006E000E016EDCC304F0000E056E9AECD4
:102F780001F0030E0024026E030E0120036E02C04E
:102F8800DDF303C0DEF31A0E0224E96E000E0320FF
:102F9800EA6EEECF00F0EECF01F0000E011802E16C
:102FA800000E0018000ED8A4FF0E046E060E0224B0
:102FB800D96E000E0320DA6EDECF01F0DECF02F00C
:102FC80004010B51021802E101500A19FF0ED8A49E
:102FD800000E006E045000161EE01A0E0301DD25D7
:102FE800E16E000EDE21E26ED9C3E6FF000EE66E4A
:102FF800D20EE16E020EE26EDDC3D9FFDEC3DAFF48
:103008001C0E006E000E016E52EC11F0DCC3DBF3F7
:10301800DCC3FFF2D3D00301DC51010A02E0DC2B50
:103028009ED7DC6B1C0E006E000E016EDCC304F034
:10303800000E056E9AEC01F0030E0026030E012225
:103048001A0E0024E96E000E0120EA6EEECF01F0A0
:10305800EECF02F0000E021802E1000E0118D8A40B
:10306800A3D01C0E006E000E016EDCC304F0000E2F
:10307800056E9AEC01F0030E0026030E012200C033
:10308800DDF301C0DEF300C087F401C088F4040159
:10309800896B1C0E8A6F000E8B6F4DEC00F0060ECC
:1030A8000301DD25E16E000EDE21E26E0AC4E6FFB3
:1030B8000BC4E6FF0C0EDD25E16E000EDE21E26E8C
:1030C8000AC4E6FF0BC4E6FF1A0EDD25E16E000E0A
:1030D800DE21E26ED9C3E6FF000EE66EDDC3E1FF36
:1030E800DEC3E2FF0CC4E6FF0DC4E6FF0EC4E6FF34
:1030F8000FC4E6FF040EDD25E16E000EDE21E26E50
:10310800050E026E10C400F011C401F0025005E073
:10311800003600900136FF0FFAD700C0E6FF01C065
:10312800E6FF160EDD25E16E000EDE21E26E06C416
:10313800E6FF07C4E6FF08C4E6FF09C4E6FF0E0E73
:10314800DD250401386F000E0301DE210401396F0B
:103158000C0E0301DD25E96E000EDE21EA6EEECFCE
:1031680063F4EECF64F4DAEC0BF038C4E1FF39C451
:10317800E2FF00C0E6FF01C0E6FF02C0E6FF03C0B1
:10318800E6FFD20EE16E020EE26EDDC3D9FFDEC3AA
:10319800DAFF1C0E006E000E016E52EC11F0DCC35B
:1031A800DBF3DCC3FFF20AD00301DC51010A02E0C1
:1031B800DC2B38D7090E3B6EFE0EDB6FDBC300F04D
:0231C8001200F3
:1031CA00000E0201ED1902E1000EEC1908E1070EEA
:1031DA003B6E0301DB6BDC6BDD6BDE6BDBD0010E60
:1031EA0002015F6F0301DA510201EB5D0EE1030197
:1031FA00D9510201EA5D09E10301D8510201E95DF1
:10320A0004E10301D7510201E85D09E2E8C2DAF2FA
:10321A00E9C2DBF2EAC2DCF2EBC2DDF208D0D7C3C4
:10322A00DAF2D8C3DBF2D9C3DCF2DAC3DDF218C0B2
:10323A0004F019C005F0000E066E076EDAC200F03F
:10324A00DBC201F0DCC202F0DDC203F0DDEC01F00A
:10325A0016C004F017C005F0000E066E076EDDEC0E
:10326A0001F000C0DFF301C0E0F3D8C2DEF2D9C238
:10327A00DFF2000E006E0301E051005C02E1DF5153
:10328A00000827E2DEC263F4DFC264F4DEEC08F071
:10329A0000C0DEF201C0DFF20201DF51FF0A02E1E3
:1032AA00FF0EDE1910E1E8C2DAF2E9C2DBF2EAC285
:1032BA00DCF2EBC2DDF20A0E3B6E0301DB6BDC6B68
:1032CA00DD6BDE6B67D00301010EDF5F000EE05B92
:1032DA00D0D716C004F017C005F0000E066E076EB0
:1032EA00DAC200F0DBC201F0DCC202F0DDC203F098
:1032FA00DDEC01F018C004F019C005F0000E066EEE
:10330A00076EDDEC01F008C000F009C001F00AC048
:10331A0002F00BC003F000C0E4F201C0E5F2DEC225
:10332A0063F4DFC264F4DAEC0BF00201E451002624
:10333A00E5510122000E0222032200C0E0F201C080
:10334A00E1F202C0E2F203C0E3F216C004F017C0D1
:10335A0005F0000E066E076EDAC200F0DBC201F05D
:10336A00DCC202F0DDC203F0DDEC01F008C000F0BF
:10337A0009C001F00AC002F00BC003F000C0E6F277
:10338A0001C0E7F2DAC2DBF3DBC2DCF3DCC2DDF355
:10339A00DDC2DEF3DBC300F0DCC301F0DDC302F003
:0633AA00DEC303F0120077
:1033B0000301D96BD7C3E9FFD8C3EAFFEECFDAF335
:1033C000DA51000A0FE0DAC33AF42EEC0FF00301F1
:1033D000D92BD951D725E96E000ED821EA6EEECF50
:0633E000DAF3EED7120043
:1033E600070E03019B5D02E1BC0E9A5D04E3BC0E71
:1033F6009A5F070E9B5B7F0E9A17000E9B170F0EA8
:103406009C15016E01C09CF301500C0802E20C0EE3
:103416009C6F010E9C5D02E2010E9C6F9D511F0880
:1034260002E21F0E9D6F010E9D5D02E2010E9D6F71
:103436009E511708D8A09E6B9F513B08D8A09F6B42
:10344600A0513B08D8A0A06B090E006E9AC3FDF2EE
:103456009BC3FEF2005006E00201FD37FD91FE37E8
:10346600FF0FF9D79CC303F0000E046E050E026E23
:1034760003C000F004C001F0025005E000360090E1
:103486000136FF0FFAD702010050FD130150FE135B
:1034960003019D510201FD13000EFE139EC301F3AD
:1034A600000E0301026F0B0E006E005005E001379F
:1034B60001910237FF0FFAD79FC303F0000E046E87
:1034C600050E026E03C000F004C001F0025005E0D4
:1034D600003600900136FF0FFAD7030100500113A2
:1034E60001500213A0C300F00032009E00500113E9
:0634F600000E021312009B
:1034FC00FFC29EF33BC0A0F39AC3D7F39BC3D8F390
:10350C00070E0301D96F9CC3DAF348DC00C09FF3AC
:10351C00800E0018016E800E000A015C38E2030177
:10352C009F51FE0A31E1020E9D6FA0C33BF01C0EB1
:10353C00006E000E016E9EC304F0000E9EBFFF0EC7
:10354C00056E9AEC01F0030E0026030E01221A0EF2
:10355C000024E16E000E0120E26EE66AE66A9AC370
:10356C00D7F39BC3D8F3070ED96F9CC3DAF316DCE1
:10357C0000C09FF3800E0018016E800E000A015CE3
:10358C0002E203019D6B02D003019D6B03D003018A
:0A359C00010E9D6F9DC300F01200A8
:1035A6009CC3E1FF9DC3E2FF200EE66E200EE66E91
:1035B600200EE66E200EE66E300EE66EE66A040E0D
:1035C60003019C259E6F000E9D219F6F000E9B1987
:1035D60002E1000E9A1929E00A0E046E000E056E2D
:1035E6009AC300F09BC301F0C2EC01F008C000F0E2
:1035F60009C001F0300E00269EC3E1FF9FC3E2FF23
:1036060000C0E6FF0A0E046E000E056E9AC300F0B7
:103616009BC301F0C2EC01F000C09AF301C09BF31A
:0C362600010E9E5F000E9F5BD1D71200CA
:103632009BC3E1FF9CC3E2FF200EE66E200EE66E06
:10364200300EE66EE66A020E03019B259D6F000EA8
:103652009C219E6F9A51000A1CE00A0E046E9AC3C6
:1036620000F0C5EC16F008C000F09DC3E1FF9EC358
:10367200E2FF300E0024E66E0A0E046E9AC300F0DA
:10368200C5EC16F000C09AF3010E9D5F000E9E5B22
:04369200E1D712006A
:10369600000E0201ED1902E1000EEC1906E1070E1B
:1036A6003B6E010E03019A6F40D00201EC6BED6B8D
:1036B6001C0E006E000E016EFFC204F0000EFFBF6E
:1036C600FF0E056E9AEC01F0030E0024E16E030E68
:1036D6000120E26ED20ED96E020EDA6E1C0E006E5C
:1036E600000E016E52EC11F0FF0EFF6FD8C23AF4D5
:1036F600D9C23BF4D2C23CF4D3C23DF4D4C23EF4A8
:10370600D5C23FF4D6C240F4D7C241F4F8EC10F06B
:10371600800E0018016E800E000A015C04E2020EA3
:1037260003019A6F02D003019A6B9AC300F012004C
:10373600000E0201ED1902E1000EEC1903E1070E7D
:103746003B6E54D0010E5F6FD2C274F4D3C275F4CF
:10375600D4C276F4D5C277F45F0E0401786F000EFA
:10376600796F7AEC07F00050000A03E0100E3B6E0A
:103776003DD05F0E0201D625006E000ED721016EE8
:1037860000C074F401C075F4A40E006E030E016E41
:1037960000C076F401C077F443EC04F0A2C3E1FF65
:1037A600A3C3E2FFB6C3E6FFA0C3E1FFA1C3E2FFE6
:1037B600B5C3E6FF9EC3E1FF9FC3E2FFB4C3E6FFC6
:1037C6009CC3E1FF9DC3E2FFB3C3E6FFB2C300F0B3
:1037D600000E016EBC0E0026070E01229AC3E1FF01
:0E37E6009BC3E2FF00C0E6FF01C0E6FF120039
:1037F40003019D51800A08E19C51000A05E19B5197
:10380400000A02E19A51000A1CE19EC3E1FF9FC332
:10381400E2FF2D0EE66E320EE66E310EE66E340ECB
:10382400E66E370EE66E340EE66E380EE66E330E36
:10383400E66E360EE66E340EE66E380EE66EE66A18
:103844009AD0A26B800E9D19006E800E005C08E178
:10385400000E9C5D05E1000E9B5D02E1000E9A5D89
:1038640016E2FF0EA26F006A016A026A036A9A51A5
:10387400005E9B51015A9C51025A9D51035A00C04B
:103884009AF301C09BF302C09CF303C09DF39EC353
:10389400E1FF9FC3E2FF200EE66E200EE66E200ECF
:1038A400E66E200EE66E200EE66E200EE66E200E0C
:1038B400E66E200EE66E200EE66E200EE66E300EEC
:1038C400E66EE66A0A0E9E25A06F000E9F21A16F88
:1038D400000E006E9D1908E100509C1905E100508E
:1038E4009B1902E19A51000A3EE00A0E046E000E92
:1038F400056E066E076E9AC300F09BC301F09CC36D
:1039040002F09DC303F05CEC15F008C000F009C0A0
:1039140001F00AC002F00BC003F0300E0026A0C371
:10392400E1FFA1C3E2FF00C0E6FF0A0E046E000E31
:10393400056E066E076E9AC300F09BC301F09CC32C
:1039440002F09DC303F05CEC15F000C09AF301C0D3
:103954009BF302C09CF303C09DF3010E0301A05F1F
:10396400000EA15BB5D7A25306E0A0C3E1FFA1C33B
:08397400E2FF2D0EE66E1200C9
:10397C009AC3D7F39BC3D8F315DD0D0E04013A6F30
:10398C002EEC0FF00A0E04013A6F2EEC0FF0120021
:10399C00000E0201ED1902E1000EEC1903E1070E15
:1039AC003B6E54D0010E5F6FD2C274F4D3C275F467
:1039BC00D4C276F4D5C277F45F0E0401786F000E92
:1039CC00796F7AEC07F00050000A03E0100E3B6EA2
:1039DC003DD05F0E0201D625006E000ED721016E80
:1039EC0000C074F401C075F4A40E006E030E016ED9
:1039FC0000C076F401C077F443EC04F0A2C3E1FFFD
:103A0C00A3C3E2FFBCC3E6FFA0C3E1FFA1C3E2FF77
:103A1C00BBC3E6FF9EC3E1FF9FC3E2FFBAC3E6FF51
:103A2C009CC3E1FF9DC3E2FFB9C3E6FFB8C300F03E
:103A3C00000E016EBC0E0026070E01229AC3E1FF98
:0E3A4C009BC3E2FF00C0E6FF01C0E6FF1200D0
:103A5A00000E0201ED1902E1000EEC190BE1070E4E
:103A6A003B6EFF0E046EFF0E056EFF0E066EFF0E16
:103A7A00076E08D0E8C204F0E9C205F0EAC206F00F
:103A8A00EBC207F004C000F005C001F006C002F066
:063A9A0007C003F012005A
:103AA0009EC33AF49FC33BF465EC10F00050000A4B
:103AB00008E0120E3B6E0301A16BA26BA36BA46B1B
:103AC0001CD10301B16BB26BAD6BAE6BAF6BB06B66
:103AD00018C004F019C005F0000E066E076E9AC3F8
:103AE00000F09BC301F09CC302F09DC303F0DDEC2A
:103AF00001F000C0A5F301C0A6F318C004F019C07E
:103B000005F0000E066E076E9AC300F09BC301F02D
:103B10009CC302F09DC303F0DDEC01F008C000F08F
:103B200009C001F00AC002F00BC003F0000E046EE1
:103B3000031808E10450021805E10450011802E1DD
:103B40000050000A03E00301A54BA62BA5C3D7F341
:103B5000A6C3D8F367EC11F000C0A7F301C0A8F327
:103B6000000E015C02E1020E005C05E2A16BA26B9B
:103B7000A36BA46BC2D03CC0A9F33DC0AAF33EC066
:103B8000ABF33FC0ACF325C03CF026C03DF027C0EE
:103B90003EF028C03FF09EC3D7F39FC3D8F33DEC5F
:103BA00012F00050000A06E09EC3D7F39FC3D8F37B
:103BB000ABEC13F0EE0E04013A6F020E3B6F9EC3A6
:103BC0003CF49FC33DF4DAEC10F0EE0E746F020E7D
:103BD000756F8CEC03F0B50E0301D56F030ED66F35
:103BE000D5C387F4D6C388F40401896B200E8A6F8D
:103BF000000E8B6F4DEC00F0B50E636F030E646F1B
:103C0000EE0E656F020E666F0B0E676F000E686F2B
:103C100006EC0CF07F0E0301A015006E00C0C0F38F
:103C2000CF0EE16E030EE26EA7C3E6FFA8C3E6FF68
:103C3000D10EB36F030EB46F9AC300F09BC301F0B3
:103C40009CC302F09DC303F016C004F017C005F03A
:103C5000000E066E076E71EC01F0B3C3E1FFB4C352
:103C6000E2FF00C0E6FF01C0E6FF02C0E6FF03C0BE
:103C7000E6FFD5C33AF4D6C33BF4AD0E04013C6F66
:103C8000030E3D6FB10E3E6F030E3F6F70EC0DF0F3
:103C9000800E0018016E800E000A015C0EE2A9C3BE
:103CA0003CF0AAC33DF0ABC33EF0ACC33FF0030110
:103CB000A16BA26BA36BA46B20D0A7C3D7F3A8C33F
:103CC000D8F3A5C3D9F3A6C3DAF365EC12F0A9C300
:103CD0003CF0AAC33DF0ABC33EF0ACC33FF0A7C37A
:103CE00063F4A8C364F4DAEC0BF000C0A1F301C0E4
:103CF000A2F302C0A3F303C0A4F3A1C300F0A2C3C4
:0C3D000001F0A3C302F0A4C303F0120002
:103D0C00010E02015F6F0401746B756B766B776B40
:103D1C005F0E786F000E796F7AEC07F0005206E0B8
:103D2C00100E3B6EFF0E03019A6F9FD103015F0EC5
:103D3C009D6F000E9E6F02015D51550A04E0010E4D
:103D4C0003019A6F92D102015E51AA0A04E0010E9E
:103D5C0003019A6F8AD10301A16B5F50E90A02E15A
:103D6C00010EA16F5F50EB0AFF0ED8A4000E016E7E
:103D7C0000016151900AFF0ED8A4000E006E015094
:103D8C00001603E0010E0301A16F0301A151000A0B
:103D9C00D8B4C8D0A26BA36BA46BA56BA60E9B6FFB
:103DAC00020E9C6F9BC3E1FF9CC3E2FF800EE66E8C
:103DBC00020E9B25E16E000E9C21E26EE66AE66A1D
:103DCC00E66AE66A53EC14F0800E0018016E800E61
:103DDC00000A015C03E2010E9A6F47D1000E201815
:103DEC0002E1000E1F18D8B491D00001735172116A
:103DFC00016E0150000A1FE073C0A2F3000E030114
:103E0C00A36FA46FA56FA4C3A5F3A3C3A4F3A2C30C
:103E1C00A3F3A26B000172510301A227000EA3238E
:103E2C00A423A523010E9B25E16E000E9C21E26EBE
:103E3C00040EE66E19D003017F0EA66F000EA76F5D
:103E4C00A6C3E9FFA7C3EAFFEECFA2F3EECFA3F31D
:103E5C00EECFA4F3EECFA5F3010E9B25E16E000E81
:103E6C009C21E26E060EE66EA2C300F0A3C301F025
:103E7C00A4C302F0A5C303F02950005E2A50015AD6
:103E8C002B50025A2C50035A18C004F019C005F0DC
:103E9C00000E066E076EDDEC01F000C0A2F301C04F
:103EAC00A3F302C0A4F303C0A5F3000E035C08E166
:103EBC00000E025C05E10F0E015C02E1F50E005CE8
:103ECC000CE20301010E9B25E16E000E9C21E26EBB
:103EDC00010EE66E010E9A6FC8D00301A5510008C1
:103EEC0008E1A451000805E1A351FF0802E1A25129
:103EFC00F5080BE2010E9B25E16E000E9C21E26E93
:103F0C000B0EE66E010E9A6FB0D00BD0010E9B25F6
:103F1C00E16E000E9C21E26E0B0EE66E010E9A6FA6
:103F2C00A4D0A2D01D0E9D6F020E9E6F9F6BA06B36
:103F3C00060E006E000E016E9FC304F0A0C305F0C8
:103F4C009AEC01F0A60E0026020E012200C09BF393
:103F5C0001C09CF39DC3E9FF9EC3EAFF00C0E1FFD3
:103F6C0001C0E2FFEECFE6FF040E9D25006E000EB1
:103F7C009E21016E00C09DF301C09EF3010E9B2596
:103F8C00E16E000E9C21E26E00C0E9FF01C0EAFF69
:103F9C00EECFE6FF040E9D25006E000E9E21016EF5
:103FAC0000C09DF301C09EF3020E9B25A86F000E6E
:103FBC009C21A96F00C087F401C088F40EEC01F0BD
:103FCC00A8C3E1FFA9C3E2FF00C0E6FF01C0E6FF02
:103FDC0002C0E6FF03C0E6FF000E0301A01902E1D8
:103FEC00030E9F1903E09F4BA02BA2D7060E006E69
:103FFC00000E016E9FC204F0000E056E9AEC01F0EB
:10400C00A60E0024026E020E0120036E010E022485
:10401C00E96E000E0320EA6EEE50040A000ED8A4DE
:10402C00FF0E026EA60E0026020E0122010E0024C7
:10403C00E96E000E0120EA6EEE50060A000ED8A4BE
:10404C00FF0E006E0250001603E0010E9A6F0DD0A9
:10405C0053EC14F0800E0018016E800E000A015C07
:10406C0003E2010E9A6F01D09A6B9AC300F0120012
:10407C00010E02015F6F5F0E0401876F000E886FE7
:10408C00896B000E8A6F020E8B6F4DEC00F00301F2
:10409C009A6B9B6B1C0E006E000E016E9AC304F0A3
:1040AC009BC305F09AEC01F0030E00240401876F0A
:1040BC00030E0120886F896B1C0E8A6F000E8B6FAC
:1040CC004DEC00F0000E03019B1902E1010E9A1950
:1040DC0003E09A4B9B2BDED7D20E0401876F020EA6
:1040EC00886F896B1C0E8A6F000E8B6F4DEC00F085
:1040FC0003019A6B9B6B060E006E000E016E9AC349
:10410C0004F09BC305F09AEC01F0A60E0024040108
:10411C00876F020E0120886F896B060E8A6F000E66
:10412C008B6F4DEC00F0000E03019B1902E1030EA6
:10413C009A1903E09A4B9B2BDED7160E0401876F5E
:10414C00000E886F896B170E8A6F000E8B6F4DEC0B
:10415C0000F0000E006E020E016E5F0E0024426E27
:10416C00000E0120436E02019F6B3C6A3D6A3E6A61
:10417C003F6A3B6AFB6BFC6BCE6BCF6BD06BD16B2E
:10418C00FF0EFF6FEE0E0401876F020E886F896BB6
:10419C000D0E8A6F000E8B6F4DEC00F00301016B5E
:0A41AC00026B0201FD6BFE6B1200B6
:1041B600060E0201EC15016EEDC202F0000E0216AB
:1041C600000E021802E1000E011803E1070E3B6E15
:1041D60007D00301D76BD86BD96BDA6BE5EC18F017
:0241E6001200C5
:1041E800060E0201EC15016EEDC202F0000E021679
:1041F800000E021802E1000E011803E1070E3B6EE3
:1042080009D2000E03019D1902E1000E9C1901E17B
:1042180001D2010E02015F6FE751020A02E1000EAE
:10422800E6192BE0000EE71902E1000EE619000E70
:10423800D8A4FF0E016E175003019D5D02E11650D0
:104248009C5DFF0ED8B0000E006E0150001215E004
:10425800E0C274F4E1C275F4E2C276F4E3C277F422
:104268005F0E0401786F000E796F7AEC07F000504A
:10427800000A03E0100E3B6ECDD103019E6B9F6BCD
:10428800010E9C5DA46F000E9D59A56F9F51A55D01
:1042980002E19E51A45DD8A0E2D00201E751020AD2
:1042A80002E1000EE619D8A4B5D0000E03019F194B
:1042B80002E1000E9E1915E0E0C274F4E1C275F443
:1042C800E2C276F4E3C277F45F0E0401786F000E61
:1042D800796F09EC08F00050000A03E0050E3B6E08
:1042E80099D10201E66BE76B010EE025006E000E26
:1042F800E121016E000EE221026E000EE321036E41
:1043080000C0E0F201C0E1F202C0E2F203C0E3F251
:10431800010EE425006E000EE521016E00C0E4F2F6
:1043280001C0E5F2E551191802E11850E41950E10D
:10433800DEC263F4DFC264F4DEEC08F000C0A0F370
:1043480001C0A1F30150FF0A02E1FF0E00182BE1A2
:1043580038EC09F000C0A0F301C0A1F30150FF0A36
:1043680002E1FF0E00180BE1E8C2DAF2E9C2DBF263
:10437800EAC2DCF2EBC2DDF20A0E3B6E4BD1DEC2C2
:1043880063F4DFC264F4A0C365F4A1C366F420EC4F
:104398000AF0A0C363F4A1C364F4FF0E656FFF0EB7
:1043A800666F20EC0AF0A0C3DEF2A1C3DFF20201BF
:1043B800E46BE56BDEC263F4DFC264F4DAEC0BF0A5
:1043C80000C0E0F201C0E1F202C0E2F203C0E3F291
:1043D80003019E519C5D016E9F519D59026E020E14
:1043E800025C02E1000E015C15E2E0C274F4E1C275
:1043F80075F4E2C276F4E3C277F45F0E0401786FD5
:10440800000E796F7AEC07F00050000A03E0100EF6
:104418003B6E00D15F0E0201E625E16E000EE7213A
:10442800E26E03019E519A25E96E9F519B21EA6E27
:10443800EECFE6FF010E0201E625006E000EE72131
:10444800016E00C0E6F201C0E7F203019F51A51911
:1044580002E1A4519E1903E09E4B9F2B11D7000E39
:104468000201E71902E1000EE61915E0E0C274F452
:10447800E1C275F4E2C276F4E3C277F45F0E040198
:10448800786F000E796F09EC08F00050000A03E01D
:10449800050E3B6EBFD003019C510201DA25006E68
:1044A80003019D510201DB21016E000EDC21026E29
:1044B800000EDD21036E00C0DAF201C0DBF202C09B
:1044C800DCF203C0DDF2DD51EB5D08E1DC51EA5DB1
:1044D80005E1DB51E95D02E1DA51E85D08E2DAC2A3
:1044E800E8F2DBC2E9F2DCC2EAF2DDC2EBF2D2C2E8
:1044F80074F4D3C275F4D4C276F4D5C277F45F0EDF
:104508000401786F000E796F7AEC07F00050000A0A
:1045180003E0100E3B6E7ED05F0E0201D625006EC2
:10452800000ED721016E00C0A2F301C0A3F31C0E38
:104538000024E16E000E0120E26EE8C2E6FF1C0EC8
:104548000301A225006E000EA321016E010E0024B6
:10455800E16E000E0120E26EE9C2E6FF1C0EA22504
:10456800006E000EA321016E020E0024E16E000E03
:104578000120E26EEAC2E6FF1C0EA225006E000EC4
:10458800A321016E030E0024E16E000E0120E26EED
:10459800EBC2E6FF160EA225E16E000EA321E26E25
:1045A80001C3E6FF160EA225006E000EA321016EC0
:1045B800010E0024E16E000E0120E26E02C3E6FF48
:1045C800180EA225E16E000EA321E26EFDC2E6FFE1
:1045D800180EA225006E000EA321016E010E002404
:1045E800E16E000E0120E26EFEC2E6FFD2C274F454
:1045F800D3C275F4D4C276F4D5C277F45F0E040141
:10460800786F000E796F09EC08F0005203E0050E90
:064618003B6E00D0120011
:10461E00060E0201EC15016EEDC202F0000E02163E
:10462E00000E021802E1000E011803E1070E3B6EA8
:10463E000AD0E8C2D7F3E9C2D8F3EAC2D9F3EBC283
:08464E00DAF3E5EC18F01200AC
:10465600010E0201EC15016EEDC202F0000E02160B
:10466600000E021802E1000E011803E1070E3B6E70
:10467600C5D0EB51DD5D08E1EA51DC5D05E1E951AC
:10468600DB5D02E1E851DA5D03E30B0E3B6EB6D06B
:10469600E751020A02E1000EE6196CE1E66BE76BF0
:1046A600010EE425006E000EE521016E00C0E4F265
:1046B60001C0E5F2E551191802E11850E4192DE19F
:1046C600E46BE56BDEC263F4DFC264F4DEEC08F093
:1046D60000C0DEF201C0DFF20201DF51FF0A02E193
:1046E600FF0EDE190BE1E8C2DAF2E9C2DBF2EAC23A
:1046F600DCF2EBC2DDF20A0E3B6E80D0DEC263F462
:10470600DFC264F4DAEC0BF000C0E0F201C0E1F2C3
:1047160002C0E2F203C0E3F215D0010E0201E02569
:10472600006E000EE121016E000EE221026E000E07
:10473600E321036E00C0E0F201C0E1F202C0E2F242
:1047460003C0E3F202015F6BE0C274F4E1C275F4E8
:10475600E2C276F4E3C277F45F0E0401786F000ECE
:10476600796F7AEC07F00050000A03E0100E3B6EFA
:1047760045D019D002015F5316E05F6BE0C274F4B6
:10478600E1C275F4E2C276F4E3C277F45F0E040187
:10479600786F000E796F7AEC07F00050000A03E09C
:1047A600100E3B6E2BD05F0E0201E625E96E000E61
:1047B600E721EA6E9AC3E1FF9BC3E2FFEECFE6FF75
:1047C600010EE625006E000EE721016E00C0E6F23E
:1047D60001C0E7F2010EDA25006E000EDB21016E44
:1047E600000EDC21026E000EDD21036E00C0DAF23F
:0E47F60001C0DBF202C0DCF203C0DDF21200F3
:10480400010E0201EC15016EEDC202F0000E02165B
:10481400000E021802E1000E01180BE19AC3E1FF39
:104824009BC3E2FFE66AE66AE66AE66A070E3B6E47
:1048340013D00301D76BD86BD96BDA6BE5EC18F0A6
:104844009AC3E1FF9BC3E2FFE8C2E6FFE9C2E6FFC9
:0A485400EAC2E6FFEBC2E6FF120025
:10485E00050E156E96908D8003019B6B9C6B39C077
:10486E00E1FF3AC0E2FFFF0EE66E37C000F038C03F
:10487E0001F024EC00F0000E03019C1902E1090E78
:10488E009B1903E09B4B9C2BEAD74BEC00F00401E9
:10489E00876B886B896B8A6B8B6B950E8C6F66EC56
:1048AE0000F000C09DF3EDEC00F003019D51010AF4
:1048BE0003E0010E9A6F7CD04BEC00F0080E040161
:1048CE00876FAA0E886F010E896F000E8A6F8B6F2D
:1048DE00870E8C6F66EC00F000C09DF339C0E1FFCF
:1048EE003AC0E2FFFF0EE66E37C000F038C001F0AE
:1048FE0024EC00F039C0E1FF3AC0E2FFFF0EE66E95
:10490E0037C000F038C001F024EC00F039C0E1FFF0
:10491E003AC0E2FFFF0EE66E37C000F038C001F07D
:10492E0024EC00F039C0E1FF3AC0E2FFFF0EE66E64
:10493E0037C000F038C001F024EC00F0EDEC00F0D0
:10494E0003019D51010A0BE0010ED76F0BEC16F01F
:10495E000050000A03E0D76B0BEC16F004D0020EE9
:10496E00D76F0BEC16F01550050A03E1020E9A6F85
:10497E001FD01550040A1BE04BEC00F0100E040182
:10498E00876F000E886F020E896F000E8A6F8B6F15
:10499E00FF0E8C6F66EC00F000C09DF3EDEC00F0A6
:1049AE0003019D51000A03E0030E9A6F01D09A6B2A
:0649BE009AC300F0120094
:1049C4005C0E0201C66F1E0EC76F3A0EC86F040E4E
:1049D400C96FFF0ECA6FFF0ECB6F000ECC6F000EB7
:1049E400CD6FFF0EBE6FFF0EBF6F000EC06F000EC7
:1049F400C16FFF0EC26FFF0EC36F000EC46F000EB7
:104A0400C56FAC8A900EAB6E948E949C9EAA03D014
:084A1400AECF00F0FBD7120049
:104A1C000301886B886B1DDF0050000A01E105D093
:104A2C008851320A02E0882BF6D7320E885D03E3F8
:104A3C00FF0E876F06D03EEC20F086EC1EF000C017
:084A4C0087F387C300F012009C
:104A5400C69A1C0E376E000E386E900E396E040E18
:104A64003A6EFF0E0201A06FFF0EA16FFF0EA26F40
:104A7400FF0EA36F949A03018751040A02E19486FE
:104A840001D094969488C66A8751C6128951C61279
:104A94008851C7128951000A05E08A51000AD8B426
:104AA400C78C04D08A51000AD8A4C78CC68A1200C5
:104AB400460E03016E6F670E9A6F030E9B6F9C6B1D
:0A4AC4007EEC1AF04BEC1BF0120020
:104ACE00420E03016E6F670E9A6F030E9B6F9C6B07
:104ADE007EEC1AF0830E03019A6F030E9B6F8BDE32
:104AEE00800E006E800E03018619005C08E1855170
:104AFE00000805E18451000802E18351000811E22B
:104B0E00770E9A6F030E9B6F9FDD77C33AF42EECF0
:104B1E000FF0010E0301835F000E845B855B865BE5
:044B2E00DFD71200BB
:104B3200880E03019A6F130E9B6F000E9C6F9D6F80
:104B42006D0E786F690E796F6B0E7A6F720E7B6FD6
:104B52006F0E7C6F450E7D6F2E0E7E6F740E7F6F13
:104B6200780E806F740E816F826B780E9E6F030ECB
:104B72009F6F200EA06F50EC1DF000C083F301C0A8
:104B820084F302C085F303C086F3000E046E03189B
:104B920008E10450021805E10450011802E1005036
:104BA200000A50E00301876B886B5F0E8725E16E78
:104BB200000E8821E26E87C3E6FF8851010A02E1F6
:104BC200FF0E871903E0874B882BEFD783C39AF335
:104BD20084C39BF385C39CF386C39DF3600E9E6FD3
:104BE200020E9F6FFAEC1BF0600E9A6F020E9B6F23
:104BF200BEEC1CF00301876B886B83C374F484C31F
:104C020075F485C376F486C377F45F0E0401786F7A
:104C1200000E796F09EC08F0010E03018327000EE4
:104C22008423852386232E0E04013A6F2EEC0FF087
:104C320003018851130A02E1870E871903E0874BAB
:064C4200882BDBD71200F5
:104C4800420E03016E6F670E9A6F030E9B6F9C6B8B
:104C58007EEC1AF00050000AD8B41BD1870E03016D
:104C68009A6F030E9B6F890E9C6F030E9D6F8A0EC1
:104C78009E6F030E9F6F8B0EA06F030EA16F8C0E9D
:104C8800A26F030EA36F9BEC1BF0200E446E630E05
:104C9800456E720E466E650E476E610E486E740E56
:104CA800496E650E4A6E640E4B6E3A0E4C6E200EBF
:104CB8004D6E4E6A440E0301D76F000ED86FD8ECC4
:104CC80019F087C39AF388C39BF38D0E9C6F030E6C
:104CD8009D6FD3EC1AF08D0ED76F030ED86FD8ECFA
:104CE80019F089C39AF38D0E9B6F030E9C6F19EC14
:104CF8001BF08D0ED76F030ED86FD8EC19F08AC34E
:104D08009AF3000E9B6F8D0E9C6F030E9D6FD3EC74
:104D18001AF08D0ED76F030ED86FD8EC19F08BC32D
:104D28009AF3000E9B6F8D0E9C6F030E9D6FD3EC54
:104D38001AF08D0ED76F030ED86FD8EC19F08CC30C
:104D48009AF3000E9B6F8D0E9C6F030E9D6FD3EC34
:104D58001AF08D0ED76F030ED86FD8EC19F0870EA6
:104D68009A6F030E9B6F890E9C6F030E9D6F8A0EC0
:104D78009E6F030E9F6F8B0EA06F030EA16F8C0E9C
:104D8800A26F030EA36FCEEC1CF0200E4F6E6D0EBB
:104D9800506E6F0E516E640E526E690E536E660E33
:104DA800546E690E556E650E566E640E576E3A0E49
:104DB800586E200E596E5A6A4F0E0301D76F000EB7
:104DC800D86FD8EC19F087C39AF388C39BF38D0E7C
:104DD8009C6F030E9D6FD3EC1AF08D0ED76F030EE8
:104DE800D86FD8EC19F089C39AF38D0E9B6F030E18
:104DF8009C6F19EC1BF08D0ED76F030ED86FD8EC93
:104E080019F08AC39AF3000E9B6F8D0E9C6F030EE8
:104E18009D6FD3EC1AF08D0ED76F030ED86FD8ECB8
:104E280019F08BC39AF3000E9B6F8D0E9C6F030EC7
:104E38009D6FD3EC1AF08D0ED76F030ED86FD8EC98
:104E480019F08CC39AF3000E9B6F8D0E9C6F030EA6
:104E58009D6FD3EC1AF08D0ED76F030ED86FD8EC78
:104E680019F02DEC1DF000C09AF301C09BF302C0AD
:104E78009CF303C09DF38D0E03019E6F030E9F6F7D
:104E8800FAEC1BF08D0E9A6F030E9B6FBEEC1CF0B4
:104E980016D0550E04013A6F2EEC0FF0290E0B6E4A
:104EA800960E0C6E7F0E0D6E0D2EFED70C2EFCD7B7
:104EB8000B2EFAD7550E04013A6F2EEC0FF01200A4
:104EC800420E0301766F76C33AF42EEC0FF076C3E8
:104ED8006EF3DA0E03019A6F070E9B6F040E9C6F38
:104EE800130E9D6F090E9E6F9F6BA06BF3EC19F06C
:104EF800670E9A6F030E9B6FA00E9C6F7EEC1AF0E4
:104F0800DBEC20F0010E0301006F0A0E046E00C3F3
:104F180000F0C5EC16F0300E002600C03BF30A0E78
:104F2800046E00C300F0C5EC16F008C000F0300EA7
:104F3800002600C03CF33B0E9A6F030E9B6F2A0EAF
:104F48009C6F000E9D6FF4EC20F0030100512C0AB9
:104F580002E0002BDAD776515A0A02E0762BB3D753
:024F6800120035
:104F6A00410E03016E6FDA0E9A6F070E9B6F040EE5
:104F7A009C6F130E9D6F090E9E6F9F6BA06BF3ECD7
:104F8A0019F0670E9A6F030E9B6FA00E9C6F7EEC52
:104F9A001AF0DBEC20F0010E0301006F2E0E040163
:104FAA003A6F2EEC0FF00A0E046E00C300F0C5EC47
:104FBA0016F0300E002403013B6F0A0E046E00C384
:104FCA0000F0C5EC16F008C000F0300E00243C6F6B
:104FDA003B0E9A6F030E9B6F2A0E9C6F000E9D6FFD
:104FEA00F4EC20F003010051630A02E0002BD6D74B
:024FFA001200A3
:104FFC00420E03016E6F670E9A6F030E9B6F9C6BD4
:10500C007EEC1AF0DA0E03019A6F070E9B6F090EF5
:10501C009C6F140E9D6F0A0E9E6F150E9F6F010EE6
:10502C00A06FF3EC19F00FEC23F0200E03013B6F93
:10503C00660E3C6F6F0E3D6F720E3E6F200E3F6F13
:10504C006D0E406F690E416F6B0E426F720E436FA7
:10505C006F0E446F450E456F6C0E466F650E476FB5
:10506C006B0E486F740E496F720E4A6F6F0E4B6F5A
:10507C006E0E4C6F690E4D6F6B0E4E6F610E4F6F57
:10508C00200E506F320E516F300E526F310E536F27
:10509C00300E546F556B0D0E556F0A0E566F3B0E3E
:1050AC009A6F030E9B6F1B0E9C6F000E9D6FF4ECA2
:0450BC0020F01200CE
:1050C000430E03016E6F670E9A6F030E9B6F9C6B0E
:1050D0007EEC1AF0DBEC20F0010E0301006F0A0EEB
:1050E000046E00C300F0C5EC16F0300E002600C0C0
:1050F0003BF30A0E046E00C300F0C5EC16F008C0C6
:1051000000F0300E002600C03CF33B0E9A6F030EF9
:105110009B6F2A0E9C6F000E9D6FF4EC20F0030134
:0C5120000051370A02E0002BDAD7120021
:10512C00460E0201606F410E616F540E626F310EBC
:10513C00636F360E646F200E656F6E0E666F6F0EAA
:10514C00676F740E686F200E696F660E6A6F6F0E54
:10515C006B6F750E6C6F6E0E6D6F640E6E6F6F6B8A
:10516C00580E03013B6F580E3C6F200E3D6F4D0ED9
:10517C003E6F4D0E3F6F430E406F2F0E416F530E1F
:10518C00426F440E436F200E446F460E456F410E26
:10519C00466F540E476F310E486F360E496F200E16
:1051AC004A6F6C0E4B6F690E4C6F620E4D6F720E28
:1051BC004E6F610E4F6F720E506F790E516F200E45
:1051CC00526F620E536F790E546F200E556F410E55
:1051DC00566F6E0E576F740E586F6F0E596F6E0EB2
:1051EC005A6F200E5B6F520E5C6F690E5D6F650E11
:1051FC005E6F630E5F6F6B0E606F650E616F720E8C
:10520C00626F740E636F230E646F656B0A0E646FAE
:10521C004D0E676F490E686F4B0E696F520E6A6FB9
:10522C004F0E6B6F300E6C6F300E6D6F780E6E6FA5
:10523C002E0E6F6F540E706F580E716F540E726F7E
:10524C00736B0F01386B3A6B3C6B606A9284B88657
:10525C00010EB06EA00EAF6EAC84E2EC24F0680EC2
:10526C000C6EE40E0D6E0D2EFED70C2EFCD700002E
:10527C00490E02018B6F6E0E8C6F730E8D6F650E67
:10528C008E6F720E8F6F740E906F200E916F6D0E6D
:10529C00926F690E936F630E946F720E956F6F0E13
:1052AC00966F530E976F440E986F200E996F430EA6
:1052BC009A6F610E9B6F720E9C6F640E9D6F9E6B4E
:1052CC008B0E03019A6F020E9B6FBEEC1CF080A438
:1052DC0002D00000FCD7150E0B6E4B0E0C6EBE0EE2
:1052EC000D6E0D2EFED70C2EFCD70B2EFAD7000010
:1052FC006D0E0201756F690E766F630E776F720E0D
:10530C00786F6F0E796F530E7A6F440E7B6F200E91
:10531C007C6F430E7D6F610E7E6F720E7F6F640E1D
:10532C00806F200E816F690E826F6E0E836F730E0D
:10533C00846F650E856F720E866F740E876F650EA7
:10534C00886F640E896F8A6B750E03019A6F020E5B
:10535C009B6FBEEC1CF0020E0301876F886B896B90
:10536C00010E8A6F2AEC25F00EEC25F00050000A95
:10537C002FE1F00E826E876B886B896B010E8A6F42
:10538C002AEC25F0ECDD9ADD95DE32DE67EC25F0BB
:10539C005AEC25F053DC99EC25F0540E2D6E650E6D
:1053AC002E6E730E2F6E740E306E200E316E450EF7
:1053BC00326E6E0E336E640E346E2E0E356E366A91
:1053CC002D0E03019A6F000E9B6FBEEC1CF007D0E4
:1053DC00600E03019A6F020E9B6FBEEC1CF0FFD7A0
:020000040030CA
:0D000100331F3CFFBD81FF0FC00FE00F401B
:00000001FF
