:10000000FCFF0220F9150000B1150000B115000039
:10001000B1150000B1150000B1150000B1150000C8
:10002000B1150000B1150000B1150000B1150000B8
:10003000B1150000B1150000B1150000B1150000A8
:10004000B1150000B1150000B1150000B115000098
:10005000B1150000B1150000B1150000B115000088
:10006000B1150000B1150000B1150000B115000078
:10007000B1150000B1150000B1150000B115000068
:10008000B1150000B1150000B1150000B115000058
:10009000B1150000B1150000B1150000B115000048
:1000A000B1150000B1150000B1150000B115000038
:1000B000B1150000B1150000B1150000B115000028
:1000C000B1150000B1150000B1150000B115000018
:1000D000B1150000B1150000B1150000B115000008
:1000E000B1150000B1150000B1150000B1150000F8
:1000F000B1150000B1150000B1150000B1150000E8
:10010000B1150000B1150000B1150000B1150000D7
:10011000B1150000B1150000B1150000B1150000C7
:10012000B1150000B1150000B1150000B1150000B7
:10013000B1150000B1150000B1150000B1150000A7
:10014000B1150000B1150000B1150000B115000097
:10015000B1150000B1150000B1150000B115000087
:10016000B1150000B1150000B1150000B115000077
:10017000B1150000B1150000B1150000B115000067
:10018000B1150000B1150000B1150000B115000057
:08019000B1150000B1150000DB
:1015F80000F010F8FFF7DCFF00F078FBFFF7EEFFD4
:1016080000F034FBFFF774FFFFF79AFFFFF7A8FF1E
:04161800FCE7FEE706
:1014A80081B01CF8019B0BF8019BBBEB0A0FF8D12C
:0414B80001B07047C8
:1014BC0081B04FF000094FF0000CBDEB0A0F04DCBB
:1014CC00BDEB0B0F01DBD446EA464BF8049BBBEBA0
:1014DC000A0FFAD1BCEB0A0F05DDE246D9F800B0D1
:0A14EC000BF1040BF1E701B07047AB
:1014F80081B0CDF800E0002202210020FFF768FF4C
:10150800002201210020FFF763FF002206210020AE
:10151800FFF75EFF094801460020FFF7A3FF40F6EA
:10152800FE07C0F23D0700BF00BF7F1EFDD100BF10
:1015380000BF00BFDDF800E001B070476C1C000080
:1013D80081B0CDF800E05FFA81F85FFA82F916E093
:1013E8005FFA89F15FFA88F0FFF740FD16E05FFACF
:1013F80089F15FFA88F0FFF755FC0FE05FFA89F191
:101408005FFA88F0FFF716FE08E0012006E00028E2
:10141800E6D00128EBD00228F0D0F6E7DDF800E0AE
:0414280001B0704758
:100E740081B0CDF800E0A9E0012905D14FF00401CB
:100E84006548FFF7E1FD04E04FF004016348FFF714
:100E9400E7FDBBE0012905D14FF400615E48FFF78F
:100EA400D3FD04E04FF400615C48FFF7D9FDADE0E9
:100EB400012905D14FF010015948FFF7C5FD04E0A1
:100EC4004FF010015748FFF7CBFD9FE0012905D1F2
:100ED4004FF020015248FFF7B7FD04E04FF0200126
:100EE4005048FFF7BDFD91E0012905D14FF0800185
:100EF4004B48FFF7A9FD04E04FF080014948FFF794
:100F0400AFFD83E0012905D14FF040014448FFF7CC
:100F14009BFD04E04FF040014248FFF7A1FD75E05E
:100F2400012905D14FF480613F48FFF78DFD04E0AE
:100F34004FF480613D48FFF793FD67E0012905D137
:100F44004FF400513448FFF77FFD04E04FF40051A3
:100F54003248FFF785FD59E0012905D14FF004011E
:100F64003348FFF771FD04E04FF004013148FFF707
:100F740077FD4BE0012905D14FF008012C48FFF71C
:100F840063FD04E04FF008012A48FFF769FD3DE0E6
:100F9400012905D14FF480712548FFF755FD04E080
:100FA4004FF480712348FFF75BFD2FE0012905D141
:100FB4004FF400711E48FFF747FD04E04FF4007141
:100FC4001C48FFF74DFD21E0012020E000283FF4FC
:100FD40053AF01283FF45EAF02283FF469AF032802
:100FE4003FF474AF04283FF47FAF05283FF48AAF81
:100FF40006283FF495AF0728A0D00828ACD00928CC
:10100400B8D00A28C4D00B28D0D0DDE70020DDF802
:1010140000E001B0704700BF50F00F4040F00F40B7
:1010240090F00F4080F00F4010F00F4000F00F40A0
:08103400D0F00F40C0F00F40A6
:100A4C0081B0CDF800E0034AFFF7C2FFDDF800E00B
:080A5C0001B070470401020023
:1009DC0081B0CDF800E0FFF7BBFEDDF800E001B020
:0209EC00704752
:10075C0083B0CDF800E006460C4615463046FFF750
:10076C0083FE40F2FF1306EA0300800900262246AE
:10077C002946202E39D24FF0010303FA06F402EA7F
:10078C0004031F46A3422ED104031A4B1C19B300B9
:10079C00E51801952C68184B04EA03032B60174BE2
:1007AC0001EA0304019B1B6843EA0404019B1C60DF
:1007BC0001F48033B3F5803F15D08401104B1B1925
:1007CC001433029301F400333BB1FC43029B1B68CE
:1007DC0003EA0404029B1C6005E0029B1B6843EACD
:1007EC000704029B1C60761CC3E7DDF800E003B035
:1007FC00704700BF009004400000FFFFFFFF0000A7
:04080C0000F00F40A9
:1004740081B040F2FF1100EA01018909084600F247
:1004840009024FF0010101FA02F20449096841EA44
:10049400020202490A6001B0704700BF388004407C
:100A640081B0CDF800E0034AFFF7B6FFDDF800E0FF
:080A740001B070470401040009
:100CAC0081B0CDF800E0A9E0012905D14FF0080191
:100CBC006548FFF7C5FE04E04FF008016348FFF7F5
:100CCC00CBFEBBE0012905D14FF400215E48FFF7B4
:100CDC00B7FE04E04FF400215C48FFF7BDFEADE029
:100CEC00012905D14FF008015948FFF7A9FE04E08E
:100CFC004FF008015748FFF7AFFE9FE0012905D1DF
:100D0C004FF020015248FFF79BFE04E04FF020010A
:100D1C005048FFF7A1FE91E0012905D14FF0800169
:100D2C004B48FFF78DFE04E04FF080014948FFF778
:100D3C0093FE83E0012905D14FF040014448FFF7B1
:100D4C007FFE04E04FF040014248FFF785FE75E05E
:100D5C00012905D14FF400613F48FFF771FE04E013
:100D6C004FF400613D48FFF777FE67E0012905D19C
:100D7C004FF480713448FFF763FE04E04FF4807148
:100D8C003248FFF769FE59E0012905D14FF4803153
:100D9C002F48FFF755FE04E04FF480312D48FFF744
:100DAC005BFE4BE0012905D14FF400312848FFF7D9
:100DBC0047FE04E04FF400312648FFF74DFE3DE0BE
:100DCC00012905D14FF480712548FFF739FE04E065
:100DDC004FF480712348FFF73FFE2FE0012905D126
:100DEC004FF400711E48FFF72BFE04E04FF4007126
:100DFC001C48FFF731FE21E0012020E000283FF4E1
:100E0C0053AF01283FF45EAF02283FF469AF0328CB
:100E1C003FF474AF04283FF47FAF05283FF48AAF4A
:100E2C0006283FF495AF0728A0D00828ACD0092895
:100E3C00B8D00A28C4D00B28D0D0DDE70020DDF8CC
:100E4C0000E001B0704700BF50F00F4040F00F4081
:100E5C0090F00F4080F00F4010F00F4000F00F406A
:080E6C00D0F00F40C0F00F4070
:10103C0081B0CDF800E0A9E0012905D14FF04001C5
:10104C006548FFF7FDFC04E04FF040016348FFF7F3
:10105C0003FDBBE0012905D14FF480615E48FFF729
:10106C00EFFC04E04FF480615C48FFF7F5FCADE069
:10107C00012905D14FF004015948FFF7E1FC04E0C8
:10108C004FF004015748FFF7E7FC9FE0012905D119
:10109C004FF020015248FFF7D3FC04E04FF0200141
:1010AC005048FFF7D9FC91E0012905D14FF08001A0
:1010BC004B48FFF7C5FC04E04FF080014948FFF7AF
:1010CC00CBFC83E0012905D14FF040014448FFF7E8
:1010DC00B7FC04E04FF040014248FFF7BDFC75E05F
:1010EC00012905D14FF010013F48FFF7A9FC04E09E
:1010FC004FF010013D48FFF7AFFC67E0012905D127
:10110C004FF080013448FFF79BFC04E04FF0800166
:10111C003248FFF7A1FC59E0012905D14FF4803189
:10112C002F48FFF78DFC04E04FF480312D48FFF77A
:10113C0093FC4BE0012905D14FF400312848FFF70F
:10114C007FFC04E04FF400312648FFF785FC3DE0BE
:10115C00012905D14FF480712548FFF771FC04E09B
:10116C004FF480712348FFF777FC2FE0012905D15C
:10117C004FF400711E48FFF763FC04E04FF400715C
:10118C001C48FFF769FC21E0012020E000283FF417
:10119C0053AF01283FF45EAF02283FF469AF032838
:1011AC003FF474AF04283FF47FAF05283FF48AAFB7
:1011BC0006283FF495AF0728A0D00828ACD0092802
:1011CC00B8D00A28C4D00B28D0D0DDE70020DDF839
:1011DC0000E001B0704700BF50F00F4040F00F40EE
:1011EC0090F00F4080F00F4010F00F4000F00F40D7
:0811FC00D0F00F40C0F00F40DD
:10146C0081B0CDF800E00DE00846FFF7D7FE10E0A4
:10147C000846FFF7C1FE0CE00846FFF7FFFB08E04B
:10148C00012006E00028EFD00128F1D00228F3D08B
:0A149C00F6E7DDF800E001B070474C
:1012280081B0CDF800E0011D0A6801680846114642
:10123800034AFFF72BFC0020DDF800E001B07047FF
:04124800481B00003F
:100A940081B0CDF800E003460C4615460648FFF742
:100AA40055FF224619462B460348FFF7D5FEDDF8CD
:0C0AB40000E001B0704700BF00C002402D
:1009500081B00F49884206D10E4A0F490A600F4AFA
:100960000F490A6012E00F49884206D10E4A0A492F
:100970000A600E4A0A490A6008E00D49884205D11A
:100980000C4A05490A600C4A05490A6001B07047E3
:1009900000C002403D0800001C00FF1FFFFFFFFFDA
:1009A0002000FF1F00D00240F1090000FFFFFFFF01
:0C09B00000C00A40BD090000FFFFFFFF6F
:10085C0084B0CDF800E0039101461046019002915E
:10086C001846FFF759FE0299019800F0100424096C
:10087C002346019002910846FFF746FF0299029128
:10088C000846FFF70DFF0299019800F000450C682F
:10089C002C430C6000F080450C682C430C600C68F9
:1008AC0044F440540C600D686FF4804405EA040471
:1008BC000C6001F20C059C002E1900F00F05346839
:1008CC002C43346001F20C059C002E1900F080655D
:1008DC0034682C43346001F20C059C002E1900F096
:1008EC00007534682C43346001F20C059C002E1901
:1008FC0000F0807534682C43346001F20C059C00C8
:10090C002E1935686FF0F04405EA0404346001F2E6
:10091C000C059C002E1900F00F04E50634682C43DE
:10092C0034600191039A0846D9B2FFF71BFE019976
:10093C000D686FF0010405EA04040C60DDF800E0BA
:04094C0004B070473C
:1005240081B0CDF800E040F2000C83464FEA8C0124
:100534000BEB01010968B1F1FF3F12D00BF134015B
:100544004FEA8C03C91809680A460BEB03010968D2
:1005540008461146FFF760FF0CF1010C1FFA8CFCF2
:0A056400E4E7DDF800E001B07047A5
:10041C0082B0CDF800E080464FEA581202F0070295
:10042C00914608F01F04A24693010D4AD3184FF0D1
:10043C000102A240019218460A46019900F0C8FA3E
:10044C004FEA0933074AD3184FEA8A029C1808F47A
:10045C00E06322681A432260DDF800E002B07047C6
:08046C0000F00F400090044075
:1007140081B00B49884203D1012252B209490A60CF
:100724000949884203D1012252B208490A600849A2
:10073400884203D1012252B206490A6001B07047CF
:1007440000C00240B007904200D00240B40790427B
:0807540000C00A40300690428B
:1006AC0081B002686FF4804102EA010101600168C7
:1006BC0041F00101016000F22C021149116000F2BD
:1006CC0008020021116000F20C024FF0F0411160A1
:1006DC0000F210024FF0F041116000F230020021E4
:1006EC00116000F2340200211160016841F4406194
:1006FC0001600268034942EA0101016001B07047E0
:08070C0000000A9A0140000000
:1005700091B0CDF800E00F9010468DF840100E902D
:1005800001AB1846FFF78EFF4FF0FF330D930023AA
:1005900006930023089301230A9300230B9300235F
:1005A0000593059B042B41D20D9B002B3ED00023CD
:1005B0000793079B102B35D20D9B002B32D00123C4
:1005C0000993099B032B29D20D9B3BB3099C029BEA
:1005D00003FB04F6059B9C00314B1B191D68079B10
:1005E0009C00304B1B191B686B43B6FBF3F4204691
:1005F0000E9BA3420ED30E9B1C1A0C940D9BA34280
:1006000008D90C9B0D93059B0693079B08930B90B1
:10061000099B0A93099B5B1C0993D2E7079B5B1C10
:100620000793C6E7059B5B1C0593BAE70F9B03F294
:100630000C049DF840309B00E5182C681A4B04EA26
:1006400003032B600F9B03F20C049DF840309B00CA
:10065000E5180A9B5B1EDC072B6823432B600F9B6E
:1006600003F20C049DF840309B00E518069B1B0428
:1006700003F440342B6823432B600F9B03F20C04DC
:100680009DF840309B00E518089B03F00F042B6891
:1006900023432B600B98DDF800E011B0704700BFDA
:0C06A000541C0000141C0000F0FFFC7F44
:1004A40081B0CDF800E00446FFF7B0FF40F2E83138
:1004B40000FB01F3194909680A0F1849096801F09A
:1004C4007061090EC8B21549096801F47001090D7B
:1004D400CDB21249096801F47021090CCEB2D1B22F
:1004E400491C09B259430F462360221D411C09B21D
:1004F400B7FBF1F1116004F20802691C09B2B7FB01
:10050400F1F1116004F20C02711C09B2B7FBF1F1B4
:100514001160DDF800E001B0704700BF4480044082
:0C04100001480068704700BF1800FF1F83
:1012040081B0CDF800E0011D0A6801680846114666
:10121400034AFFF73DFC0020DDF800E001B0704711
:04122400481B000063
:100C880081B0CDF800E0011D0A68016808461146E8
:100C9800034AFFF7FBFE0020DDF800E001B07047D3
:040CA800481B0000E5
:1015480081B0CDF800E004490448FFF76BFFDDF8EF
:1015580000E001B0704700BF641C0000B41B00002D
:10142C0081B0CDF800E003460846FFF7D9FB18461B
:10143C00FFF7C0FB0120074C2468A0470120064C95
:10144C002468A0470120054C2468A047DDF800E083
:10145C0001B070470C00FF1F1400FF1F1000FF1F8E
:0C0C580001490860704700BF0808FE4317
:0C0C4C0001490860704700BF2C08FE43FF
:0C0C640001490860704700BF1010FE43FB
:0C0C7C0001490860704700BF1410FE43DF
:0C0C700001490860704700BF1C10FE43E3
:0C12A00001490860704700BF1810FE43B1
:0C12B80001490860704700BF2800FE4399
:0C12C40001490860704700BF3408FE4379
:0C12940001490860704700BF0818FE43C5
:0C12AC0001490860704700BF0C18FE43A9
:0C12640001490860704700BF2018FE43DD
:0C12580001490860704700BF2418FE43E5
:0C124C0001490860704700BF0C08FE4319
:0C12880001490860704700BF4C08FE439D
:0C127C0001490860704700BF0C10FE43E1
:0C12700001490860704700BF1410FE43E5
:0C0B440001490860704700BF1C10FE4310
:0C0B080001490860704700BF1810FE4350
:0C0B140001490860704700BF2C00FE4340
:0C0B200001490860704700BF2008FE4338
:0C0B380001490860704700BF4010FE43F8
:0C0B2C0001490860704700BF4410FE4300
:0C0AC00001490860704700BF2018FE4389
:0C0ACC0001490860704700BF2418FE4379
:0C0AF00001490860704700BF1808FE4371
:0C0AFC0001490860704700BF2808FE4355
:0C0AD80001490860704700BF0810FE4391
:0C0AE40001490860704700BF1410FE4379
:0C0C1C0001490860704700BF1C10FE4337
:0C0C100001490860704700BF1810FE4347
:0C0C040001490860704700BF1000FE436B
:0C0C400001490860704700BF1C08FE431B
:0C0C340001490860704700BF4010FE43FB
:0C0C280001490860704700BF4410FE4303
:0C0B8C0001490860704700BF2018FE43BC
:0C0B800001490860704700BF2418FE43C4
:100BEC00026803490A60011D0A6802490A607047DD
:080BFC000400FF1F0800FF1FA9
:100BC00000F208010A6806490A60011D0A68054921
:100BD0000A6000F218010A6803490A60704700BF02
:0C0BE0000C00FF1F1000FF1F1400FF1F7F
:1015680081B0CDF800E000210E4801700D480078E8
:101578000B2813D20B480078FFF7A6FE40F6FE07AB
:10158800C0F23D0700BF00BF7F1EFDD100BF00BFF6
:1015980000BF04490878401C0870E7E7DDF800E060
:0815A80001B070470000FF1FB5
:1012D00081B0CDF800E0C1B2C8B262E0FFF75CFCBB
:1012E0000020FFF735FC73E0FFF756FC0120FFF705
:1012F0002FFC6DE0FFF750FC0320FFF729FC67E0AF
:10130000FFF74AFC0720FFF723FC61E0FFF744FCEE
:101310000F20FFF71DFC5BE0FFF73EFC4020FFF7CE
:1013200017FC1F20FFF714FC52E0FFF735FCC0202C
:10133000FFF70EFC3F20FFF70BFC49E0FFF72CFC0A
:101340000120FFF705FCC020FFF702FC7F20FFF71C
:10135000FFFB3DE0FFF720FC0320FFF7F9FBC02077
:10136000FFF7F6FBFF20FFF7F3FB31E0FFF714FC7C
:101370000720FFF7EDFBC020FFF7EAFBFF20FFF798
:10138000E7FB25E0FFF708FC0F20FFF7E1FBC0209B
:10139000FFF7DEFBFF20FFF7DBFB19E0FFF7FCFBAD
:1013A00016E000289AD001289ED00228A2D0032857
:1013B000A6D00428AAD00528AED00628B5D0072884
:1013C000BCD00828C6D00928D0D00A28DAD0E5E752
:0813D000DDF800E001B07047F8
:100B980081B0CDF800E00020064C2468A047FFF79C
:100BA80069FF0120034C2468A047DDF800E001B08C
:080BB800704700BF1000FF1F91
:100A7C0040F6FE07C0F23D0700BF00BF7F1EFDD150
:080A8C0000BF00BF00BF70476E
:100B500082B0CDF800E001A908700020074C24689D
:100B6000A04701A908460121FFF752FF0120034CCD
:100B70002468A047DDF800E002B070470C00FF1FBA
:100A100083B0CDF800E08AB2014690B283B2421EA4
:100A200090B26BB10A78D4B2ADF804000291A0B2D2
:100A3000054C2468A0470299BDF80400491CEDE765
:0C0A4000DDF800E003B070470400FF1F69
:10083C0081B0CDF800E082B24FF080610348FFF741
:10084C00E1FFDDF800E001B0704700BF00C00240DE
:1008100081B000F22C044FF00043236000F2340456
:1008200093B241EA0303236000F22C031C68C4F373
:0A083000C07303B9F8E701B0704788
:1009F00081B0CDF800E082B24FF080610348FFF78C
:100A000007FFDDF800E001B0704700BF00D00240F2
:1009BC0081B0CDF800E082B24FF080610348FFF7C0
:1009CC0021FFDDF800E001B0704700BF00C00A4015
:10161C0090B072B697480190974802909748039003
:10162C0097480490974805909748069097480790DC
:10163C00974808909748099097480A9097480B90BC
:10164C0097480C90974998480D9098480E900D9893
:10165C0000F007000F9001F0010050B94CF220503F
:10166C00934908804DF62810088040F2D211914819
:10167C0001809148007800F0010050B18F4800784B
:10168C0000F0080020B18D49087840F0080008707F
:10169C0021E08B48006840F000518948016089487E
:1016AC00006800F48070B0B9864801686FF470501F
:1016BC0001EA000040F440718248016081480068F2
:1016CC0040F480717F4801607E4801686FF40070BF
:1016DC0001407C480160AA217B4801700D9800F004
:1016EC00100060B9794801786FF0600001407748CC
:1016FC00017077480078012800D0FAE71CE00D98BB
:10170C0000F01000C0B10E997248814208D96021D6
:10171C006E4801706E480078802800D0FAE70BE024
:10172C006A4801786FF060000140684801706848B1
:10173C000078012800D0FAE70499674801606748EF
:10174C0001686FF440200140029800F440200143EE
:10175C0062480160624801686FF4403001400398B0
:10176C0000F4403001435E4801600F9830B10F988F
:10177C00012803D00F98022800D061E0019800F0F6
:10178C00800050B9089800F0400028B10B9800F088
:10179C000300002800D100E015E05248006840F436
:1017AC0000715048016050480168504801404E4853
:1017BC000160069800F0040028B14D4801684B48C0
:1017CC0001404B4801600A994A48017005994A4802
:1017DC000170059800F0040038B14848007800F01A
:1017EC001000002800D1F8E705E04448007800F02C
:1017FC00100000B1F9E74248007800F0BF01C9B20F
:10180C00069800F0FD0001433D480170079800F078
:10181C00E0013C48007800F01F000143394801709A
:10182C000199394801700B99384801700F980228BA
:10183C0005D13348007840F0020131480170B8E01E
:10184C00019800F0800020B90B9800F0030000B163
:10185C0065E02448006840F4007122480160224889
:10186C0001682248014020480160069800F00400FD
:10187C0000F04EB80000000000000C000000010059
:10188C0000001401220000002400000000000000F1
:10189C0002000000460000000000000000000000F4
:1018AC00000000000000000007000000C0D4010090
:1018BC000E2005400020054000F0074002D00740F4
:1018CC003C80044010D0034000E0074001E007409A
:1018DC0003E007408038010044800440007004405D
:1018EC00048004403880044048900440FFF8FFFE18
:1018FC004C9004400840064000400640064006401C
:10190C000140064003400640005006400C40064093
:10191C0028B17A4801687A480140784801600A99F0
:10192C00784801707848007800F0BF01C9B2069879
:10193C0000F0FD0001437448017001997348017077
:10194C000B99734801700F98072805D1059840F042
:10195C0080017048017002E005996E48017006988C
:10196C0000F0040048B10B9800F0030028B96A4855
:10197C00007800F0020000B9F9E7059800F00400C7
:10198C0038B16548007800F01000002800D1F8E765
:10199C0005E06148007800F0100000B1F9E7079805
:1019AC0000F0E0015D48007800F01F0001435B4847
:1019BC000170089800F0BF0159480170099800F0B7
:1019CC00BF0158480170089800F0400028B15448F5
:1019DC00007840F04001524801700F98052806D15C
:1019EC004948007840F00201474801701BE00F980D
:1019FC00062803D00F98072800D014E04948007837
:101A0C0040F04001474801704348007800F0400026
:101A1C0000B9F9E70F98072805D13E48007800F087
:101A2C003F013C4801700F9818B10F98032800D063
:101A3C002CE03948007800F00C0000B1F9E73A4886
:101A4C00006840F00101384801604FF00001374850
:101A5C0001604FF08001364801604FF005013548B8
:101A6C0001604FF00101324801603148006800F01C
:101A7C00800000B9F9E700212D4801602A4801686F
:101A8C006FF001000140284801602AE00F980128FE
:101A9C0003D00F98022800D007E01F48007800F010
:101AAC000C00042800D0F8E71BE00F98042806D09F
:101ABC000F98062803D00F98052800D007E0164889
:101ACC00007800F00C00082800D0F8E709E00F9827
:101ADC00072806D11048007800F00C000C2800D024
:101AEC00F8E7154801686FF00F0001400C9800F002
:101AFC000F0001431048016010B070474C90044037
:101B0C00FFF8FFFE0840064001400640005006402A
:101B1C000C4006400040064006400640034006408C
:101B2C00044006400540064038800440080004404C
:0C1B3C0000000440040004404880044005
:1015E40081B002490248016001B07047C0D40100D3
:0415F4001800FF1FBD
:0815B00081B0FEE701B07047B5
:1015B80081B072B60849086840F47000086000BF3E
:1015C80000BF00BF00BFF1EE100A40F44000E1EE9A
:0C15D800100A62B601B0704788ED00E018
:101C740000B5DFF814B0DFF814A0DFF814C0FFF7E4
:101C840011FC00BD704700BF0000FF1F0100FF1FD3
:041C94006E050000D9
:101CF40000B5DFF810B0DFF810A0FFF7DDFB00BD82
:0C1D0400704700BF0000FF1F2400FF1FFD
:100400000000000000000000FFFFFFFF02FDFFFFF3
:01056E00008C
:101B4800450200004702000046020000FFFFFFFFB9
:101B5800000000000000000000000000000000007D
:101B6800000000000000000000000000000000006D
:101B78000000000000000800000008000000080045
:101B8800FFFFFFFF00000000000000000000000051
:101B9800000000000000000000000000000000003D
:0C1BA80000000000000000000000000031
:101BB400590C00004D0C0000650C00007D0C000069
:101BC400710C0000A1120000B9120000C51200003F
:101BD40095120000AD1200006512000059120000B9
:101BE400FFFFFFFFFFFFFFFFFFFFFFFFFFFFFFFF01
:101BF400FFFFFFFFFFFFFFFFFFFFFFFFFFFFFFFFF1
:101C0400FFFFFFFFFFFFFFFFFFFFFFFFFFFFFFFFE0
:101C140002000000040000000600000008000000AC
:101C240010000000200000004000000080000000C0
:101C34000001000000020000000400000008000091
:101C440000100000002000000040000000800000A0
:101C5400020000000300000005000000070000006F
:081C64003D080000FFFFFFFF37
:081C6C0040420F000700008058
:00000001FF
