:100000000C9401240C9400000C9400000C9400004B
:100010000C9400000C9400000C9400000C94000060
:100020000C9400000C9400000C9400000C94000050
:100030000C9400000C9400000C9400000C94000040
:100040000C9400000C9400000C9400000C94000030
:040050000C9400000C
:10480200BFE5BDBFB8E0BEBFCDB7DEB76697CDBFCF
:10481200DEBF21962F923F924F92EFE3F1E0B6E492
:10482200B193B1E4B193B4E5B193B1E3B193B6E31B
:10483200B193B0E2B193BEE6B193BFE6B193B4E7F0
:10484200B193B0E2B193B6E6B193BFE6B193B5E7E7
:10485200B193BEE6B193B4E6B193B0E0B193E3E1B4
:10486200F1E0B8E5B193B8E5B193B0E2B193BDE43C
:10487200B193BDE4B193B3E4B193BFE2B193B3E5B5
:10488200B193B4E4B193B0E2B193B6E4B193B1E4BD
:10489200B193B4E5B193B1E3B193B6E3B193B0E2AE
:1048A200B193BCE6B193B9E6B193B2E6B193B2E784
:1048B200B193B1E6B193B2E7B193B9E7B193B0E284
:1048C200B193B2E6B193B9E7B193B0E2B193B1E477
:1048D200B193BEE6B193B4E7B193BFE6B193BEE63E
:1048E200B193B0E2B193B2E5B193B9E6B193B5E653
:1048F200B193B3E6B193BBE6B193B5E6B193B2E738
:10490200B193B4E7B193B3E2B193B0E0B193BAE03B
:10491200B0933C01E8E5F1E0BDE4B193B9E4B193B1
:10492200BBE4B193B2E5B193BFE4B193B0E3B19309
:10493200B0E3B193B8E7B193BEE2B193B4E5B193FA
:10494200B8E5B193B4E5B193B0E0B193BAB3B0684E
:10495200BABBB9E1B9B9B0E0B0BD02DC18E605EE08
:104962000A95F1F71A95E1F7FE01B9E4B193BEE6B3
:10497200B193B3E7B193B5E6B193B2E7B193B4E7BC
:10498200B193B0E2B193BDE6B193B9E6B193B3E6A8
:10499200B193B2E7B193BFE6B193B3E5B193B4E497
:1049A200B193B0E2B193B3E4B193B1E6B193B2E79C
:1049B200B193B4E6B193B0E0B1938E011801C2DBBA
:1049C200BBB3B7FF02C00000FBCF25E11BE40FEB36
:1049D2000A95F1F71A95E1F72A95D1F70000FE0141
:1049E200BDE6B193B9E6B193B3E6B193B2E7B19341
:1049F200BFE6B193B3E5B193B4E4B193B0E2B1933E
:104A0200B3E4B193B1E6B193B2E7B193B4E6B19333
:104A1200B0E2B193B9E6B193BEE6B193B3E7B19315
:104A2200B5E6B193B2E7B193B4E7B193B5E6B1930A
:104A3200B4E6B193B0E0B1938E01180183DB442454
:104A4200B4E03B2EB0E12B2EAFDB21DC003031F5A0
:104A520044243324B0E12B2EA7DBC9DB2FDC26DE76
:104A62005EDEDEDD8ADC9BDCC4DAFE01B4E5B193F6
:104A7200B5E6B193B3E7B193B4E7B193B0E2B193C2
:104A8200B5E4B193BEE6B193B4E6B193BEE2B1939D
:104A9200B0E0B1938E01180155DB05C0BFE32B2EA8
:0E4AA200B1E03B2E4FDB4F903F902F90FFCFA7
:104146002F923F92FFDABDE02B2E0E94140CBAE0AC
:0C4156002B2E0E94140C3F902F90089517
:10374A009101F9010081003071F0F90100813F9285
:10375A002F92202E0E94140C2F903F9089010F5F08
:08376A001F4F9801EECF0895F6
:10182800BBB1B5FD02C00000FBCFBBB1B6FF03C022
:0A183800BBB1B064BBB92CB8089531
:1041AA00BEE5B0936D03B0E1B0936E03BFEFB09379
:1041BA00F400BFEFB093F500B7B3B068B7BBB7B3BD
:1041CA00BF7BB7BBB7B3B062B7BBB7B3B061B7BB5E
:1041DA0032FABEB1B0F9BEB9032D0370042902291F
:0641EA0000640DB9089508
:1042900010E01F930E9418151F91003009F406C00A
:1042A000123321F0012F0F5F102FF3CF123310F0D4
:0E42B0001FEF03C0A2D92CD8102F012F0895A4
:102A3000CF93DF93CDB7DEB72197CDBFDEBF219611
:102A40002F923F924F925F926F927F92B5E0B09338
:102A50006F03B0913A00B062B0933A00B0913B007E
:102A6000B062B0933B0020E030E03F932F93BFEF84
:102A70002B2EE0916D03F0916E0309952F913F91FC
:102A8000303009F4293029F089010F5F1F4F980178
:102A9000ECCF6CDEB5E97B2E332444245524662428
:102AA00022246ADE088353DE0881013011F011E030
:102AB00058C05CDEB7E87B2EBAEA3B2EB1E04B2E65
:102AC000B0E05B2E6B2EB8E02B2E56DE0883BFEFF6
:102AD0002B2EE0916D03F0916E030995BFEF2B2E25
:102AE000E0916D03F0916E030995BFEF2B2EE091FD
:102AF0006D03F0916E030995BFEF2B2EE0916D03EE
:102B0000F0916E03099523DE0881013041F0B1E0B8
:102B10002B2EAEDE003011F02224AADE03C0B2E07C
:102B20002B2EA6DE00916F03053011F412E019C0C0
:102B300000916F030430A1F019DEBFEF7B2EB0E0EF
:102B40003B2EB2E04B2EB0E05B2E6B2EB0E12B2E75
:102B500013DE0883FCDD0881003011F013E001C0B2
:102B600010E0012F7F906F905F904F903F902F90DB
:0A2B7000CDBFDEBFDF91CF910895C5
:1020BC002FB8BEB1B7FD02C00000FBCF1FB1012F7E
:0220CC00089575
:0C276C00B0913B00BF7DB0933B0008958E
:102778002F92022D005C7F926F925F924F923F9250
:10278800202EE0916D03F0916E0309953F904F90D4
:102798005F906F906F925F924F923F92262CE091DC
:1027A8006D03F0916E0309953F904F905F906F9085
:1027B8006F925F924F923F92252CE0916D03F091BA
:1027C8006E0309953F904F905F906F906F925F9264
:1027D8004F923F92242CE0916D03F0916E0309957E
:1027E8003F904F905F906F90232CE0916D03F09194
:1027F8006E0309957F90272CE0916D03F0916E038D
:10280800099550E060E06F935F937F926F925F92BB
:102818004F923F922F92BFEF2B2EE0916D03F091D4
:102828006E0309952F903F904F905F906F907F9027
:102838005F916F91402F252F362F2F5F3F4F522FDB
:10284800632F042F0078003010E009F41FEF3030B8
:1028580009F4243600E008F00FEF012B002309F4F7
:08286800D2CF042F2F90089538
:10274E002F92B0913B00B062B0933B00BFEF2B2EA7
:0E275E00E0916D03F0916E0309952F900895A0
:10287000CF93DF93CDB7DEB72497CDBFDEBF2196D0
:102880003F924F925F926F927F92B0E0B883B9838C
:10289000B0E02B16B9F46ADF2F92BFEF7B2E332402
:1028A000442455246624B1E02B2E66DF0A834FDFD3
:1028B0002F900A81003029F4B0E0B0936F0310E04C
:1028C0007CC06DC053DF2F92BFEF7B2E3324442496
:1028D00055246624B7E32B2E4FDF0A8338DF2F9071
:1028E0000A81013009F05AC041DF2F92BFEF7B2EE1
:1028F000B0E03B2E4B2E5B2EB0E46B2EB9E22B2EBC
:102900003BDF0A8324DF2F900A81003009F045C0A5
:10291000B2E02B1609F03CC029DF2F92BFEF7B2ECF
:102920003324442455246624BAE32B2E25DF0A835E
:10293000BFEF2B2EE0916D03F0916E0309950B8391
:10294000BFEF2B2EE0916D03F0916E030995BFEF61
:102950002B2EE0916D03F0916E030995BFEF2B2EA6
:10296000E0916D03F0916E030995F1DE2F900A81DD
:10297000003069F40B810074003021F0B4E0B093B2
:102980006F0303C0B3E0B0936F0310E016C005C03F
:10299000B1E0B0936F0310E010C001C00DC008811A
:1029A0001981173209F40F3039F0088119810F5F4E
:1029B0001F4F088319836CCF11E0012F7F906F9018
:1029C0005F904F903F902396CDBFDEBFDF91CF91B8
:0229D000089568
:1035FA002F923F924F925F926F92B1E0B0936B031A
:10360A00B0E05B2EB2E06B2E4424BBE62B2EB1E079
:10361A003B2E0E94C31140E050E05F934F930CE1B0
:10362A0010E088D84F915F912AE830E0020F131F0B
:10363A00BCE15B2EB0E06B2E442418010E94C3113A
:10364A00503009F4413029F08A010F5F1F4FA80159
:10365A00E4CFBCE15B2EB0E06B2E4424BEE62B2EF9
:10366A00B0E03B2E0E94C31140E050E05F934F93BD
:10367A0006E010E05FD84F915F9129ED30E0020F2C
:10368A00131FB6E05B2EB0E06B2E442418010E9493
:10369A00C311503009F4433029F08A010F5F1F4FDC
:1036AA00A801E4CFB7E15B2EB0E06B2E4424B2EC64
:1036BA002B2EB0E03B2E0E94C3110BE611E0005006
:1036CA001E4F0093610010936200B0E0B093600057
:1036DA00B0E0B0936300B0936400B0936500B09318
:1036EA006600B0E0B0936D00B0E0B0936B00B093A9
:1036FA006C00B0E0B0936700B0936800B0936900C3
:10370A00B0936A00BFEFB093F100BDE05B2EB0E06A
:10371A006B2E4424BEEF2B2EB0E03B2E0E94C31129
:10372A00B0E0B093FC00B093FD00B0E0B0930B01A1
:10373A00B0930C016F905F904F903F902F90089537
:00374A007F
:10238600F101B0E06B1611F4B0E05B1649F0052DD3
:10239600162D01501040502E612E40823196F1CFFD
:0223A600089598
:10273E009801249F8001259F100D349F100D089540
:00274E008B
:10331000CF93DF93CDB7DEB72497CDBFDEBF219625
:103320002F923F924F925F926F927F92B1E0B09353
:103330006B03BBE66B2EB1E07B2E222433244424A6
:1033400055240E94710B002329F0B0E1B0936D0069
:103350001FEF29C100916903053511F011E023C168
:1033600000916A030A3A11F011E01DC120E00091BA
:103370006B01093E11F421E000C000916B010B3E8E
:1033800010E009F41FEF00916D010039B0E009F47D
:10339000BFEF0B2F0123002311F001E001C0022F2A
:1033A000003009F496C0B9EDB883B0E0B983E88184
:1033B000F981B0E8B08308811981F8013296B0E054
:1033C000B193B193B193B1930E94210C003014F4E6
:1033D00011E0E9C00091CB001091CC00103009F44D
:1033E000003009F46DC010917E0100917F01012B26
:1033F0000030D9F000917F0110E0212F312F722F82
:10340000612F502F442700917E0110E0212F312F92
:10341000040F151F261F371FA801B9010881198144
:10342000F8013196B4E0B0830FC04BE851E0FA01E7
:103430000191119121913191A801B901088119815E
:10344000F8013196B6E0B0830090D5001090D60018
:103450008A01001911090090D7001090D8009B0133
:10346000200931094091C4005091C50060E0762FD9
:103470000E944F0B8B019C01A801B901303029F447
:10348000203019F41F3009F4053F40F408811981F8
:10349000F8013196B1E0B08311E085C005EF1FEF70
:1034A00020E030E0041715072607370740F40881AD
:1034B0001981F8013196BBE0B08311E074C008C0F7
:1034C00008811981F8013196BBE0B08311E06BC02F
:1034D00069C049E253E060E070E05F934F9306E01B
:1034E00010E0AB012CD94F915F9129ED30E0200F16
:1034F000311F28833983CA01FC010081F90100834F
:10350000AC014C5F5F4FCA010881198198012F5FA0
:103510003F4FFA010081F90100839C012C5F3F4F6E
:10352000C901088119810E5F1F4F0A831B8319018E
:103530000E94A2114A815B81FA01019311932193A8
:103540003193703009F4633031F08B010F5F1F4FFE
:10355000B801AC01C2CF06E010E04091600050E03D
:10356000EED829ED30E0200F311FF901319620818E
:10357000243040E009F04FEF29ED30E0020F131F37
:10358000F801319600810630B0E009F0BFEF0B2F53
:10359000042311F011E007C00E94210C003014F444
:1035A00011E001C010E0012F7F906F905F904F906D
:1035B0003F902F902396CDBFDEBFDF91CF9108952E
:0035C0000B
:1016E200CF93DF93CDB7DEB72297CDBFDEBF219672
:1016F2002F923F924F925F920E94B61300916F0316
:10170200043019F4810192010DC0B9E08101920106
:10171200000F111F221F331FBA95D1F7A801B9017B
:101722008A019B017F926F92BFEF7B2E302E412E5A
:10173200522E632EB1E12B2E0E94BC136F907F902C
:10174200003021F00E94A71311E062C07F926F92D5
:101752005F924F923F922F92BFEF2B2EE0916D033B
:10176200F0916E0309952F903F904F905F906F908C
:101772007F900E3F11F00000E9CF30E040E0032FF0
:10178200142F060D171D088319834F933F937F92E1
:101792006F925F924F923F922F92BFEF2B2EE0916A
:1017A2006D03F0916E0309952F903F904F905F90DB
:1017B2006F907F903F914F9118812981E12FF22FF5
:1017C2000083413009F43F3F39F0032F142F0F5F9C
:1017D2001F4F302F412FD3CF7F926F925F924F9244
:1017E2003F922F92BFEF2B2EE0916D03F0916E038B
:1017F2000995BFEF2B2EE0916D03F0916E030995D1
:10180200A5D72F903F904F905F906F907F9010E000
:10181200012F5F904F903F902F902196CDBFDEBF5A
:06182200DF91CF91089553
:101842002F923F924F925F926F927F92B1E0B0934C
:101852006B0306E010E04091600050E06FD729ED85
:1018620030E0020F131FF80132960191119121917C
:101872003191BBE66B2EB1E07B2E1801290130DFDE
:10188200002329F0B0E1B0936D001FEFC7C00BE653
:1018920011E0055F1F4F1801CCDE0093C2001093C8
:1018A200C300009178010093C400B0E0B093C5007A
:1018B2000BE611E0025F1F4F1801BBDE0093C6006A
:1018C2001093C70000917B010093C8000BE611E062
:1018D2000F5E1F4F1801ADDE0093C9001093CA00BE
:1018E2000BE611E00A5E1F4F1801A3DE0093CB0046
:1018F2001093CC0006E010E04091600050E01ED74B
:1019020029ED30E0020F131FF801329641915191F7
:10191200619171910091C6001091C70020E0322FB1
:10192200040F151F261F371F0093CD001093CE0002
:101932002093CF003093D0000091C80010E0212FF7
:10194200312F4091CB005091CC0060E0762F88DEA1
:101952004091CD005091CE006091CF007091D000A7
:10196200040F151F261F371F0093D1001093D200BA
:101972002093D3003093D4000091C9001091CA0083
:10198200B5E020E0322F000F111F221F331FBA953E
:10199200D1F74091C2005091C30060E0762F7EDE05
:1019A2008B019C014091D1005091D2006091D300F3
:1019B2007091D400040F151F261F371F0093D50006
:1019C2001093D6002093D7003093D8000091C20024
:1019D2001091C3001695079500930D0110930E0107
:1019E2000091C2001091C300B5E016950795BA9513
:1019F200E1F700930F01109310010091D1001091B3
:101A0200D2002091D3003091D40000936300109350
:101A12006400209365003093660010E0012F7F90F0
:0C1A22006F905F904F903F902F900895C0
:10163400CF93DF93CDB7DEB72297CDBFDEBF219620
:10164400F10100810883F101319600810983088149
:0E16540019812196CDBFDEBFDF91CF910895A1
:10166200049FD001159FF001249FE00DF11D069FFC
:10167200E00DF11D349FF00D259FF00D169FF00D2A
:10168200079FF00D3327149FB00DE11DF31F059F37
:0C169200B00DE11DF31F8D019F010895B4
:10169E00C9019A01AB01B801A1E21A2EAA1BBB1B0C
:1016AE00FD010DC0AA1FBB1FEE1FFF1FA217B30720
:1016BE00E407F50720F0A20BB30BE40BF50B661F46
:1016CE00771F881F991F1A9469F7609570958095FA
:0416DE009095089546
:10234400CF93DF93CDB7DEB72497CDBFDEBF219601
:10235400F10100810883F101319600810983F101C3
:10236400329600810A83F101339600810B83088140
:1023740019812A813B812396CDBFDEBFDF91CF91A6
:022384000895BA
:1041F0002F923F924F925F926F927F928F92B1E493
:10420000B0935F0188247724B9E06B2EB3E15B2E75
:10421000B4E04B2EBAED2B2EB7E03B2E09D8B0EA16
:104220004B2EB8E52B2EB1E03B2E96DEC9D9B1E07E
:10423000B0931101BEE22B2E0E94140C00911101CB
:104240004AE07EDE005D00931301009111014AE017
:1042500077DE092F005D00931401BAE24B2EB0E027
:104260005B2EB3E12B2EB1E03B2E83DA00911101DE
:10427000033631F0009111010F5F00931101DACF85
:104280008F907F906F905F904F903F902F90089508
:004290002E
:10323000B7E03B1611F4BCEB2B1620F081010C5BC0
:103240001740180181010F7710701801142D1F709D
:10325000412E0CE0011710F4BCE04B2EB1E04B16F0
:1032600010F4B1E04B2E0FE1051510F4BFE15B2E19
:10327000B1E05B1610F4B1E05B2E07E1061508F42F
:1032800066240BE3071508F477240BE3081508F40C
:103290008824B9E09101220F331FBA95E1F72093FA
:1032A0000B0130930C01042D10E0B5E0000F111F4D
:1032B000BA95E1F7022B132B00930B0110930C012D
:1032C000052900930B0110930C01062D10E0BBE0C3
:1032D0009801220F331FBA95E1F72093FC00309339
:1032E000FD00072D10E0B5E0000F111FBA95E1F7C2
:1032F000202B312B2093FC003093FD00082D0695E8
:1033000010E0022B132B0093FC001093FD00089596
:00331000BD
:103F5800CF93DF93CDB7DEB72397CDBFDEBF2196D2
:103F68004F925F920091F100098300916D000A83DE
:103F78004F923F922F92542CB7E04B2E0E94D411AF
:103F88002F903F904F90102F00302CF51E3F01F5D9
:103F9800B2E0B8830A8100936D000CE110E049811A
:103FA80050E047FD5FEF0E949F132AE830E0020FC0
:103FB800131FF8017A96B0E0B193B193542CB7E08F
:103FC8004B2E0E94D411003014F4B0E0B88302C024
:103FD800B0E0B88302C0B1E0B88308815F904F9029
:0C3FE8002296CDBFDEBFDF91CF9108957F
:1023A800CF93DF93CDB7DEB7CD55D040CDBFDEBFDD
:1023B80021962F923F925F926F927F92FE01E95A87
:1023C800FF4FB0E0B193B193B193B193FE01EB5AD3
:1023D800FF4FB0E0B193B1930E941107003029F08C
:1023E800B2E1B0936D001FEF99C15F924F92210146
:1023F800BEEF2B2EB0E03B2E0E946C074F905F90F3
:102408000091880010918900103009F40030E1F043
:102418000CE110E04091F10050E047FD5FEF8BD1F7
:102428002AE830E0020F131FA02FB12FEEE6F0E0EC
:102438008CE190E00E940C07B0E0B0938800B09364
:102448008900BFEFB093F100AC2FBD2FAE5FBF4F37
:10245800EEEFF0E00E94FA0500E00D938E01015FB7
:102468001F4F5F924F922801BEEF2B2EB0E03B2EFC
:102478000E9400064F905F9000300CF056C057FE47
:102488004FC0052D087529F0B8E0B0936D001FEF17
:1024980045C18E010B5C1F4F5F924F92B0E25B2EDD
:1024A800B0E06B2E442418016ADF4F905F90052D31
:1024B8000F77FE01E05CFF4F00838E010B5C1F4F1E
:1024C8004F92BBE06B2EB0E07B2EBEEF4B2EB0E000
:1024D8005B2E18010E943B09AE014B5A5F4F9E01CB
:1024E800295A3F4F8E010B5C1F4F3A0129011801F1
:1024F8000E9455094F90003014F41FEF0FC19E0140
:10250800215F3F4F8E010E5F1F4F4F922901180127
:102518000E9400064F90003014F41FEFFFC005C062
:10252800BDE0B0936D001FEFF9C00C8D0875002356
:1025380029F0B8E0B0936D001FEFF0C050E05F9352
:102548000CE110E0452F50E0F6D05F912AE830E02A
:10255800200F311F288339838901065E1F4FF80138
:1025680001911191103009F4003040E009F04FEF6B
:1025780089010A5F1F4FF801219131910DA51EA510
:1025880002171307B0E009F4BFEF0B2F0423A9F0DB
:1025980008811981065E1F4FF8014192B0E0B1939E
:1025A800AEE6B0E0E881F9818CE190E00E940C078A
:1025B800052F5093F100102FB1C0513021F0052F95
:1025C8000F5F502FBCCF60E00CE110E0462F50E0C9
:1025D800B2D02AE830E0020F131F065E1F4FF80141
:1025E80001911191103009F4003009F08DC00CE10F
:1025F80010E0462F50E09FD02AE830E0020F131F6A
:10260800088319835F924F923F922F92BCE15B2E11
:10261800B0E06B2E44241801B2DE2F903F904F900B
:102628005F900881198198012A5F3F4F0DA51EA56B
:10263800F90101931193088119819801245F3F4F93
:102648000DA51EA5F9010193119308811981065E54
:102658001F4FF8014192B0E0B1930FA518A929A91D
:102668003AA9E881F9810193119321933193088163
:10267800198198012C5F3F4F0BA91CA9B5E0000FE9
:10268800111FBA95E1F7F901019311930881198196
:10269800A8014A5E5F4F09A51AA52BA53CA5FA011A
:1026A8000193119321933193288139818901025F24
:1026B8001F4FFE01E55AFF4F019311938901045FF3
:1026C8001F4FF801019111916F933F922F921801BA
:1026D8000E94E4032F903F906F91FE01E55AFF4F4F
:1026E80041915191FA010193119321933193AEE6EF
:1026F800B0E0E881F9818CE190E00E940C07062F98
:102708006093F100102F0AC0613021F0062F0F5F8F
:10271800602F5ACFB9E0B0936D001EEF012F7F9064
:102728006F905F903F902F90C45ADF4FCDBFDEBFB0
:06273800DF91CF9108952E
:100E22002F923F929DDA202F003011F41FEF4FC016
:100E32000CE0021710F41EEF4AC0F10100810E32DD
:100E420011F41DEF44C000E0322D432D122F21304A
:100E5200E8F0502FE12FF0E0E20DF31D00810E3299
:100E620079F431E008E0011710F41CEF30C0012FD3
:100E72000F5F10E0020D131D532F302F412F08C0BA
:100E8200113031F0012F0150102FE4CF502F00C04C
:100E9200513010E009F01FEF08E00217B0E008F44B
:100EA200BFEF0B2F0123002311F01BEF10C05130B5
:100EB20069F4232E342E54DA202F003011F415EF6A
:100EC20006C003E0021710F414EF01C010E0012F76
:060ED2003F902F900895EF
:10036200F1010081003011F03196FBCF8F010219AB
:080372001309980189010895A7
:100ED800CF93DF93CDB7DEB72297CDBFDEBF219684
:100EE80030E0032F10E0020D131D08831983E32F50
:100EF800F0E0E40DF51D00813F922F92202E39DAA3
:100F08002F903F9018812981E12FF22F00833B30E9
:100F180021F0032F0F5F302FE4CF2196CDBFDEBF26
:060F2800DF91CF91089556
:10037A000AE7021510E008F01FEFB1E62B1600E0BD
:10038A0008F00FEF012319F0022D0F7D202E122DF8
:04039A00012F089592
:0A0E180001900D920197E1F7089593
:0C0BF4000190002011F00D92D9F7089537
:100C0000CF93DF93CDB7DEB72F97CDBFDEBF219651
:100C10002F923F926F927F925F924F92C0DB4F90E4
:100C20005F90409163005091640060916500709105
:100C300066000091D1001091D2002091D300309134
:100C4000D400401751076207730739F40091C900B7
:100C50001091CA000F8318870CC00091C400109136
:100C6000C50040910F01509110010E949F130F8306
:100C70001887009163001091640020916500309105
:100C800066000B831C832D833E83BBE6B987B1E0EE
:100C9000BA875F924F923F922F92209063003090DC
:100CA00064004090650050906600DADAB1E0B093DD
:100CB0006B03BBE62B2EB1E03B2E07DB2F903F9062
:100CC0004F905F90B0E0B983BA832F81388521506F
:100CD00030402D873E8709811A812017310708F49B
:100CE0007DC05F924F923F922F92BBE06B2EB0E09F
:100CF0007B2E210129843A8486DD2F903F904F90EE
:100D00005F90103009F4003081F55F924F92A7DDBB
:100D10004F905F90002331F0B0E1B0936D00BFEFD2
:100D2000B8836FC0B0E05B1611F4B0E04B16E1F091
:100D300029843A8401DEF201B0960B811C812D8159
:100D40003E810193119321933193F201B496098569
:100D50001A850B561140B5E016950795BA95E1F73F
:100D600001931193B0E0B8834CC009851A859801AE
:100D7000205E3F4F29873A87009161001091620001
:100D800020173107E9F40B811C812D813E810F5F13
:100D90001F4F2F4F3F4F0B831C832D833E83BBE69A
:100DA000B987B1E0BA875F924F923F922F92BBE62C
:100DB0002B2EB1E03B2E89DA2F903F904F905F9021
:100DC00029813A810D851E852017310739F0098167
:100DD0001A810F5F1F4F09831A8377CF5F924F925B
:100DE0003F922F923CDD2F903F904F905F900023D9
:100DF00031F0B0E1B0936D00BFEFB88302C0BFEF38
:100E0000B88308817F906F903F902F902E96CDBF32
:080E1000DEBFDF91CF910895D0
:10039E00CF93DF93CDB7DEB72D97CDBFDEBF2196BE
:1003AE004F925F926F928E019801A1013F922F9210
:1003BE00BBE05B2EB0E06B2EB0E24B2E18010E941C
:1003CE00C3112F903F90B0E0BB87FA01108110301F
:1003DE0000E009F00FEF0C873F932F933F922F927F
:1003EE00212E31DE2F903F902F913F91003010E063
:1003FE0009F01FEF0C85012329F08A010F5F1F4FB3
:10040E00A801E3CFFA0100810E3251F4BEE2B883A7
:10041E00FA01319600810E3211F4BEE2B98355C055
:10042E003F932F939A014F915F91F90110811030F4
:10043E0000E009F00FEF0C873F932F933F922F921E
:10044E00212E01DE2F903F902F913F91003010E032
:10045E0009F41FEF0C851023F90100810E32B0E074
:10046E0009F0BFEF0B2F012369F0F9010081FA01AA
:10047E0000838A010F5F1F4FA80189010F5F1F4F75
:10048E009801D3CFF90100810E3229F489010F5F53
:10049E001F4F980100C08E01085F1F4FA801F90180
:1004AE000081003091F0FA010081003009F40DC096
:1004BE00F9010081FA0100838A010F5F1F4FA80125
:1004CE0089010F5F1F4F9801EACFA22DB32DFE01B8
:1004DE008AD300E00D936F905F904F902C96CDBF16
:0804EE00DEBFDF91CF910895FC
:10005400B0E22B1620E009F42FEF0FE0021510E0B8
:1000640008F01FEFBBE02B1600E008F00FEF0123B0
:08007400022B102F012F08954B
:100260002F923F924F925F926F927F920E94B613AD
:1002700000916F03043019F4810192010DC0B9E0BF
:1002800081019201000F111F221F331FBA95D1F770
:10029000A801B9018A019B01BFEF7B2E302E412EB0
:1002A000522E632EB2E12B2E0E94BC13003021F09F
:1002B0000E94A71311E001C010E0012F7F906F9002
:0A02C0005F904F903F902F9008953B
:1002CA00CF93DF93CDB7DEB72297CDBFDEBF21969E
:1002DA003F922F92E2DE2F903F9030E040E0032FD2
:1002EA00142F020D131D088319834F933F933F92D6
:1002FA002F92BFEF2B2EE0916D03F0916E030995BB
:10030A002F903F903F914F9118812981E12FF22F31
:10031A000083413009F43F3F39F0032F142F0F5F58
:10032A001F4F302F412FDBCF3F922F92BFEF2B2E43
:10033A00E0916D03F0916E030995BFEF2B2EE091CA
:10034A006D03F0916E0309952F903F902196CDBFD2
:08035A00DEBFDF91CF91089591
:1000A4002F92BFEF2B2EE0916D03F0916E03099513
:0800B4000E3FB9F72F900895EB
:10080600B101920100E010E0B0E07B1611F4B0E017
:100816006B16F9F08301015010403801F90110817F
:10082600FB010081012EB0E01B2E10E0001911091A
:10083600A801503009F4403011F09A010BC08B0129
:100846000F5F1F4FB80189010F5F1F4F98018A0183
:08085600DBCF98018901089530
:10085E00CF93DF93CDB7DEB72197CDBFDEBF219605
:10086E002F92BCE42B2EE0916D03F0916E0309954F
:10087E002224E0916D03F0916E0309952224E091FC
:10088E006D03F0916E0309952224E0916D03F091B2
:10089E006E0309952224E0916D03F0916E03099584
:1008AE00BFEF2B2EE0916D03F0916E03099540E0A2
:1008BE0050E05F934F93BFEF2B2EE0916D03F091BD
:1008CE006E0309954F915F9108839A012F5F3F4FF9
:1008DE00A9010078003010E009F41FEF303009F460
:1008EE00243600E009F40FEF012B002309F4E1CFC9
:1008FE0008810078003021F00E94A71318810EC0E5
:10090E00BFEF2B2EE0916D03F0916E0309950883D6
:10091E00003009F4F5CF0E94A71310E0012F2F909D
:0A092E00CDBFDEBFDF91CF91089529
:10093800CF93DF93CDB7DEB72297CDBFDEBF219629
:10094800C101B20140E050E0FC010081003211F425
:10095800AB0117C0FC010081FB0100838B010F5F15
:100968001F4F98018C010F5F1F4FC801503009F4C9
:10097800473031F08A010F5F1F4FA801B901E4CF5A
:10098800A9018101085F1F4F9801F8010081003219
:1009980041F1FA01BEE2B0838A010F5F1F4FB8012F
:1009A80040E050E0C901FC010081003211F48B01E4
:1009B80017C0FC010081FB0100838B010F5F1F4FF3
:1009C80098018C010F5F1F4FC801503009F4423065
:1009D80031F08A010F5F1F4FA801B901E4CF8901E7
:1009E80001C08A01F801B0E0B083142D252D135FF2
:1009F8002F4FF1013B960081E12FF22F00838201F6
:100A0800065E1F4F088319838101045E1F4F3F92C2
:100A18002F9218010E94A2112F903F90488159816E
:100A2800FA0101931193219331938201025E1F4FC2
:100A3800088319838101065E1F4F3F922F92180188
:100A4800F5D52F903F9028813981F90101931193B1
:100A58009101225F3F4F8101025F1F4FF8013196DC
:100A68000081502F4427F9010081202F30E0240F06
:100A7800351FA9018201025F1F4FF8013396BBE0C1
:100A8800890116950795BA95E1F700838201025FFF
:100A98001F4FF8013496B5E08A0116950795BA9567
:100AA800E1F70F7300838201025F1F4FF80135964B
:100AB800042F0F71000F00839101205F3F4F8101C8
:100AC800005F1F4FF80131960081502F4427F9012C
:100AD8000081202F30E0240F351FA9018201025F19
:100AE8001F4FF8013296022F0F7100838201025FB7
:100AF8001F4FF8013196B5E08A0116950795BA950A
:100B0800E1F70F700083F2013E96B9E08A0116956D
:100B18000795BA95E1F7008391012A5E3F4F81015D
:100B28000A5E1F4FF80131960081502F4427F901C2
:100B38000081202F30E0240F351FA90182010C5EAF
:100B48001F4FF8013396BBE0890116950795BA95B2
:100B5800E1F7008382010C5E1F4FF8013496B5E07F
:100B68008A0116950795BA95E1F70F7300838201FC
:100B78000C5E1F4FF8013596042F0F71000F00838C
:100B88009101285E3F4F8101085E1F4FF8013196A1
:100B98000081502F4427F9010081202F30E0240FD5
:100BA800351FA90182010C5E1F4FF8013296022FF2
:100BB8000F71008382010C5E1F4FF8013196B5E07A
:100BC8008A0116950795BA95E1F70F700083F2012F
:100BD8007496B9E08A0116950795BA95E1F70083EE
:0C0BE8002196CDBFDEBFDF91CF910895B4
:10127600A1019201B0E07B1611F4B0E06B1689F083
:101286008301015010403801F9010081FA01008301
:101296008A010F5F1F4FA80189010F5F1F4F980139
:0412A600E9CF0895EF
:1012AA00CF93DF93CDB7DEB72A97CDBFDEBF2196A6
:1012BA002F923F924F925F926F927F928101065EC8
:1012CA001F4F3F922F921801B0D12F903F90F301F8
:1012DA0001931193F30101911191103009F4003037
:1012EA0081F57F926F925F924F923F922F92FED832
:1012FA002F903F904F905F906F907F90F3010193F2
:10130A001193F301019111911F3F09F40F3F29F441
:10131A00B4E0B0936D001FEF7BC1F301019111910D
:10132A007F926F925F924F923F922F92BFEF4B2E16
:10133A005B2E180186D92F903F904F905F906F9047
:10134A007F90F301019111913F922F92180137DAA0
:10135A002F903F90F2010193119321933193B1E0C1
:10136A00B0936B037F926F923F922F92B0E05B2E05
:10137A00B2E06B2E4424BBE62B2EB1E03B2EFED707
:10138A002F903F906F907F9040916300509164003E
:10139A0060916500709166000091D1001091D200B1
:1013AA002091D3003091D400401751076207730788
:1013BA0039F40091C9001091CA00088319830CC03E
:1013CA000091C4001091C50040910F015091100185
:1013DA000E949F130883198300916300109164008F
:1013EA0020916500309166000A831B832C833D831C
:1013FA000BE611E01F930F937F926F923F922F9209
:10140A002090630030906400409065005090660020
:10141A000E943001B1E0B0936B03BBE62B2EB1E022
:10142A003B2E0E9465012F903F906F907F900F9105
:10143A001F9140E050E0B801088119810150104025
:10144A00088719870417150708F4CAC0FB01008129
:10145A00053E10E009F41FEF0032B0E008F4BFEFD8
:10146A000B2F012B002309F47BC07F936F937F928C
:10147A006F923F922F92EED92F903F906F907F906C
:10148A006F917F91002329F0B0E1B0936D001FEFB7
:10149A00BFC07F926F92B0E26B2EB0E07B2E21012B
:1014AA001B01E4DE6F907F909B01265E3F4FF301A4
:1014BA0001911191F90100838B01065E1F4F98017A
:1014CA002F5F3F4FF30101911191012F10E0F901B4
:1014DA000083FB013E960091FC0000838B01025FB2
:1014EA001F4FF80131960091FD000083FB017096B1
:1014FA0000910B0100838B01005F1F4FF8013196A9
:10150A0000910C010083FB0176960091FC00008398
:10151A008B010A5E1F4FF80131960091FD0000838E
:10152A00FB01789600910B0100838B01085E1F4F27
:10153A00F801319600910C010083BBE66B2EB1E0F5
:10154A007B2E2A803B804C805D800E945E000030AA
:10155A0029F0B5E0B0936D001FEF5AC010E058C0F3
:10156A009B01205E3F4FC90100916100109162000A
:10157A002017310749F50A811B812C813D810F5FB4
:10158A001F4F2F4F3F4F0A831B832C833D838BE6CC
:10159A0091E09F938F935F934F937F926F925F92A5
:1015AA004F923F922F92BBE62B2EB1E03B2E0E9428
:1015BA0065012F903F904F905F906F907F904F9171
:1015CA005F918F919F9100C0088519854017510737
:1015DA0039F08A010F5F1F4FB801AB01BC012CCF54
:1015EA007F926F925F924F923F922F9233D92F90B0
:1015FA003F904F905F906F907F90002329F0B0E169
:10160A00B0936D001FEF04C0B6E0B0936D001FEFFA
:10161A00012F7F906F905F904F903F902F90299667
:0A162A00CDBFDEBFDF91CF91089520
:1004F600CF93DF93CDB7DEB72C97CDBFDEBF219666
:100506002F923F924F925F920091CB001091CC00B8
:1005160040910D0150910E010E949F130A831B8387
:10052600B2E0BC83B0E0BD8340910D0150910E0155
:1005360060E0762F02E010E020E030E00E944F0BF2
:100546008B019C014091CD005091CE006091CF006F
:100556007091D000040F151F261F371F0E831F83AF
:100566002887398740910D0150910E0102E010E075
:1005760082DD8D019801220F331F0BE611E0020F79
:10058600131F0A871B872E803F804884598465DEA7
:10059600B1E0B0936B03BBE62B2EB1E03B2E92DEAF
:1005A6002C813D810A811B812017310738F5EA85A8
:1005B600FB8501911191103009F4003009F41EC039
:1005C6000A851B8598012E5F3F4F2A873B870C8142
:1005D6001D810F5F1F4F0C831D83009161001091D9
:1005E60062002017310749F4BBE6BA87B1E0BB8742
:1005F600BBE62B2EB1E03B2E65DED2CF2DD10023FC
:1006060039F0B0E1B0936D00BFEFB883B9830FC086
:100616002C813D810A811B812017310721F4BFEF10
:10062600B883B98304C00C811D81088319830881AE
:1006360019815F904F903F902F902B96CDBFDEBFD4
:06064600DF91CF91089541
:10007C00C801BA01AA1BBB1B51E107C0AA1FBB1FB9
:10008C00A617B70710F0A61BB70B881F991F5A9518
:08009C00A9F7809590950895E5
:10064C00CF93DF93CDB7DEB72697CDBFDEBF219614
:10065C002F923F924F925F926F927F9240910D0139
:10066C0050910E0160E0762F810120E0322F0E9424
:10067C004F0B8B019C014091CD005091CE006091AD
:10068C00CF007091D000040F151F261F371F088351
:10069C0019832A833B83B1E0B0936B035F924F9233
:1006AC003F922F92BBE66B2EB1E07B2E18012901F5
:1006BC000E94710B2F903F904F905F90003029F06B
:1006CC00B0E1B0936D001FEF6CC040910D015091E3
:1006DC000E018101CDDC8D019801220F331FA90180
:1006EC000BE611E0F901E00FF11F40829A012F5F38
:1006FC003F4F0BE611E0F901E00FF11F5082BBE612
:10070C006B2EB1E07B2E288039804A805B80D0DC58
:10071C00003029F0B5E0B0936D001FEF42C081E0CE
:10072C0090E00091C80001500D8310E008171907E4
:10073C00B8F1488159816A817B810091CB0010917D
:10074C00CC0020E0322F040F151F261F371F088303
:10075C0019832A833B839F938F935F924F923F928F
:10076C002F92BBE66B2EB1E07B2E18012901A0DC89
:10077C002F903F904F905F908F919F91003029F078
:10078C00B5E0B0936D001FEF0CC00D818017B0E089
:10079C009B0731F08C010F5F1F4FA801CA01C1CF1D
:1007AC0010E0012F7F906F905F904F903F902F90B3
:0C07BC002596CDBFDEBFDF91CF910895E0
:1000BC002F923F924F925F920E94B61300916F0362
:1000CC00043019F4810192010DC0B9E08101920153
:1000DC00000F111F221F331FBA95D1F7A801B901C8
:1000EC008A019B017F926F92BFEF7B2E302E412EA7
:1000FC00522E632EB8E12B2E0E94BC136F907F9072
:10010C00003021F00E94A71311E09EC07F926F92E5
:10011C00BFEF2B2EE0916D03F0916E030995BFEFAD
:10012C002B2EE0916D03F0916E030995BEEF2B2EF3
:10013C00E0916D03F0916E0309956F907F9020E034
:10014C0030E0F901E60DF71D00813F932F937F926C
:10015C006F925F924F923F922F92202EE0916D03FF
:10016C00F0916E0309952F903F904F905F906F9098
:10017C007F902F913F91313009F42F3F29F0890165
:10018C000F5F1F4F9801DDCF7F926F925F924F925E
:10019C003F922F92BFEF2B2EE0916D03F0916E03E7
:1001AC000995BFEF2B2EE0916D03F0916E0309952D
:1001BC00BFEF2B2EE0916D03F0916E0309952F90FC
:1001CC003F904F905F906F907F90202F30E089018F
:1001DC000F711070103009F4053081F07F926F921E
:1001EC005F924F923F922F920E94A7132F903F90B5
:1001FC004F905F906F907F9012E026C07F926F922D
:10020C005F924F923F922F92BFEF2B2EE0916D0396
:10021C00F0916E0309952F903F904F905F906F90E7
:10022C007F900F3F11F00000E9CF7F926F925F92A9
:10023C004F923F922F920E94A7132F903F904F9076
:10024C005F906F907F9010E0012F5F904F903F90E8
:04025C002F90089542
:1007C800810120E0322F02501040204030404091FB
:1007D800C4005091C50060E0762F3FD74091D50006
:1007E8005091D6006091D7007091D800040F151F62
:0E07F800261F371FA801B9018A019B01089531
:1035C0002F923F924F925F92009188001091890054
:1035D00006701070103009F4003021F4B7E0B09399
:1035E0006D0006C022243324442455240E943A0F3F
:0A35F0005F904F903F902F900895D8
:101E74000091880010918900103009F4003041F479
:101E8400B7E0B0936D0040E050E060E070E0E6C081
:101E9400B1E0B0936B030091840010918500209110
:101EA400860030918700021513052405350588F452
:101EB4000091840010918500209186003091870064
:101EC4000093760010937700209378003093790084
:101ED40008C02092760030927700409278005092A9
:101EE40079004091C4005091C50060E0762F0091C4
:101EF4007600109177002091780030917900CDDB45
:101F04008B019C014091C2005091C30060E0762F88
:101F1400C4DB8B019C019801009174001091750041
:101F240000937A0010937B0000E010E0021713077F
:101F340008F03AC03F932F935F924F923F922F92B3
:101F440020907A0030907B0058D82F903F904F908B
:101F54005F902F913F9100937A0010937B00009142
:101F64007A0010917B001F3F09F40F3FC1F40091E8
:101F740084001091850020918600309187000093A1
:101F84007600109377002093780030937900BAE0BC
:101F9400B0936D0040E050E060E070E05FC0890104
:101FA400015010409801C0CF4091C2005091C3002D
:101FB40060E0762F009176001091770020917800F0
:101FC400309179006ADB8B019C014091C4005091EF
:101FD400C50060E0762F61DB8D019F0100938000D6
:101FE400109381005F924F923F922F9220907A003B
:101FF40030907B000E94E4032F903F904F905F90BD
:102004004091800050918100040F151FB0E02B1FF8
:102014003B1F00937C0010937D0020937E0030933F
:102024007F004091C2005091C30060E0762F009180
:1020340076001091770020917800309179002DDBA3
:102044008D019F01009382001093830040917600DC
:102054005091770060917800709179008A019B011A
:022064000895DD
:100FFE002F923F924F925F926F927F9240910D018E
:10100E0050910E0160E0762F810120E0322F40D307
:10101E008B019C014091CD005091CE006091CF008C
:10102E007091D000040F151F261F371FB1E0B0932B
:10103E006B033F922F92BBE66B2EB1E07B2E180115
:10104E00290148D32F903F90003031F0B0E1B0939A
:10105E006D002FEF3FEF12C040910D0150910E0128
:10106E00810105D88D019801220F331F0BE611E087
:10107E00020F131F1801D7D21801980189017F9012
:0C108E006F905F904F903F902F9008955E
:10377200CF93DF93CDB7DEB72497CDBFDEBF2196BF
:103782006F927F92009188001091890006701070EC
:10379200103009F4003021F4B7E0B0936D006CC230
:1037A200B0E05B1611F4B0E04B1609F465C2B1E06B
:1037B200B0936B030091820010918300123009F4E0
:1037C200003089F10091820010918300103009F4D9
:1037D200003020E009F02FEF0091C2001091C300E9
:1037E2004016510600E008F40FEF022BE1F05F9261
:1037F2004F923F922F92BBE66B2EB1E07B2E209030
:103802007C0030907D0040907E0050907F000E94AE
:10381200710B2F903F904F905F90003021F0B0E1FC
:10382200B0936D0029C240E050E082010150104087
:103832000A831B830417150708F448C12BE631E0FD
:103842000091820010918300200F311FFA01E20DD6
:10385200F31D0081F9010083009182001091830021
:103862000F5F1F4F0093820010938300009182002C
:1038720010918300123009F4003009F01DC15F93EA
:103882004F935F924F923F922F92BBE66B2EB1E025
:103892007B2E20907C0030907D0040907E005090E6
:1038A2007F000E945E002F903F904F905F904F915B
:1038B2005F910030C9F0009176001091770020915D
:1038C200780030917900040F151FB0E02B1F3B1FC9
:1038D200009376001093770020937800309379005C
:1038E200B5E0B0936D00C8C1B0E0B0938200B09370
:1038F200830000917C0010917D0020917E00309128
:103902007F000F5F1F4F2F4F3F4F00937C0010939C
:103912007D0020937E0030937F0000918000109103
:1039220081000F5F1F4F0093800010938100209150
:103932008000309181000091C4001091C5002017D1
:10394200310709F07DC05F934F935F924F923F9290
:103952002F9220907A0030907B000E94FF072F90D8
:103962003F904F905F904F915F91088319831F3F63
:1039720009F40F3F09F043C05F934F935F924F9258
:103982003F922F920E947B022F903F904F905F9028
:103992004F915F91088319831F3F09F40F3FA1F4F0
:1039A200009184001091850020918600309187005B
:1039B200009376001093770020937800309379007B
:1039C200BAE0B0936D0058C15F934F935F924F92EC
:1039D2003F922F924880598020907A0030907B004D
:1039E2000E942603BFEF4B2E5B2E288039800E9457
:1039F20026032F903F904F905F904F915F910881E7
:103A0200198100937A0010937B00B0E0B09380009C
:103A1200B09381005F934F933F922F9220907A0050
:103A220030907B000E94E4032F903F904F915F9172
:103A320000937C0010937D0020937E0030937F00E2
:103A42008201041B150B123009F40030A8F55F93B4
:103A52004F935F924F923F922F92BBE66B2EB1E053
:103A62007B2E20907C0030907D0040907E00509014
:103A72007F000E94710B2F903F904F905F904F916B
:103A82005F910030C9F0009176001091770020918B
:103A9200780030917900040F151FB0E02B1F3B1FF7
:103AA200009376001093770020937800309379008A
:103AB200B0E1B0936D00E0C00A811B81401751074D
:103AC20029F08A010F5F1F4FA801AFCE009182003B
:103AD20010918300103009F40030E1F05F924F92B0
:103AE2003F922F92BBE66B2EB1E07B2E20907C00A2
:103AF20030907D0040907E0050907F000E945E00DA
:103B02002F903F904F905F90003021F0B5E0B0933E
:103B12006D00B2C00091760010917700209178007C
:103B220030917900040D151DB0E02B1F3B1F00934F
:103B320076001093770020937800309379004091BB
:103B42007600509177006091780070917900009131
:103B5200840010918500209186003091870004171F
:103B620015072607370780F4009176001091770039
:103B720020917800309179000093840010938500A1
:103B820020938600309387005F924F923F922F924C
:103B9200BBE66B2EB1E07B2E20906E0030906F0062
:103BA20040907000509071000E94710B2F903F90D6
:103BB2004F905F90003021F0B0E1B0936D005CC097
:103BC2002BE631E00091720010917300020F131F77
:103BD2009801F8017C960091840000838901045EBB
:103BE2001F4FF80131960091850000838901045E20
:103BF2001F4FF80132960091860000838901045E0E
:103C02001F4FF8013396009187000083F9017696E1
:103C12000091FC00008389010A5E1F4FF801319672
:103C22000091FD000083F901789600910B01008359
:103C32008901085E1F4FF801319600910C01008343
:103C42005F924F923F922F92BBE66B2EB1E07B2E9A
:103C520020906E0030906F00409070005090710084
:103C62000E945E002F903F904F905F90002321F0C2
:103C7200B5E0B0936D0000C07F906F902396CDBFEA
:083C8200DEBFDF91CF91089530
:103F4000992779E004C0991F941708F0941B001F6B
:083F50007A95C9F70095089568
:1042BE002F923F924F925F926F927F928F92B2E4C3
:1042CE00B0931201209012010E94140C0091120161
:1042DE0000935F0188247724B9E06B2EB3E15B2E47
:1042EE00B4E04B2EBAED2B2EB7E03B2E0E941819E0
:1042FE00B0EA4B2EB8E52B2EB1E03B2E26DE59D977
:10430E00B1E0B0931101009111014AE012DE005D9F
:10431E0000931301009111014AE00BDE092F005D9D
:10432E0000931401BAE24B2EB0E05B2EB3E12B2EBC
:10433E00B1E03B2E17DA009111010C3231F00091F1
:10434E0011010F5F00931101DECF009112010A35AA
:10435E0031F0009112010F5F00931201B3CF8F90D5
:0E436E007F906F905F904F903F902F9008953A
:1046AE002F923F924F925F92B3E4B0935F014424F6
:1046BE00B8E52B2EB1E03B2E48DC0E94E01AB1E0AB
:1046CE00B0931101009111014AE033DC005D0093BB
:1046DE001301009111014AE02CDC092F005D0093BB
:1046EE001401BAE24B2EB0E05B2EB3E12B2EB1E0FB
:1046FE003B2E38D800911101073331F00091110192
:10470E000F5F00931101DECF5F904F903F902F907F
:02471E000895FC
:104720002F923F924F925F926F927F928F92B2E45C
:10473000B0935F014424B8E52B2EB1E03B2E0CDC96
:10474000B1E08B2EB5E17B2EBAE06B2EB4E15B2E8F
:10475000B9E04B2EBAED2B2EB7E03B2E0E94181974
:10476000CEDBE3E1F1E0B0E2B193B6E6B193BFE6B0
:10477000B193B2E7B193B0E2B193BDE6B193B9E6BC
:10478000B193BBE6B193B2E7B193BFE6B193B5E4A1
:10479000B193BCE6B193B5E6B193BBE6B193B4E790
:1047A000B193B2E7B193BFE6B193BEE6B193B9E678
:1047B000B193BBE6B193B1E6B193B0E2B193B2E38A
:1047C000B193B0E3B193B1E3B193B0E3B193B0E08F
:1047D000B193BDE0B0932D01BAE0B0932E01BBE1DF
:1047E0004B2EB0E05B2EB3E12B2EB1E03B2E0E94AE
:1047F000B91B8F907F906F905F904F903F902F905C
:02480000089519
:103EFE002F923F924F925F9200918800109189000D
:103F0E0006701070103009F4003021F4B7E0B09351
:103F1E006D000AC02090840030908500409086008D
:103F2E00509087000E943A0F5F904F903F902F90D5
:023F3E000895E4
:104622002F923F924F92B2E4B0935F014424B8E5D7
:104632002B2EB1E03B2E8FDCB4E52B2EB1E03B2ECE
:104642000E94E91440915401509155016091560124
:104652007091570100E010E020E030E004171507E8
:1046620026073707FCF4BCE62B2EB3E03B2E0E9454
:10467200BD1520906C030E94140C009154011091FE
:1046820055012091560130915701015010402040B0
:1046920030400093540110935501209356013093FA
:0C46A2005701D0CF4F903F902F9008950B
:1029D2004F925F92009188001091890001701070EF
:1029E200103009F4003051F4F101B0E0B193B19329
:1029F200B193B193B7E0B0936D0016C03F922F929E
:102A0200222433244424552434DA2F903F90009119
:102A12008400109185002091860030918700F10199
:0E2A220001931193219331935F904F9008958B
:102B7A004F925F926F927F92009188001091890024
:102B8A0001701070103009F4003021F4B7E0B093EE
:102B9A006D00F8C0409176005091770060917800FE
:102BAA00709179000091840010918500209186002F
:102BBA0030918700401751076207730720F0BBE086
:102BCA00B0936D00DFC00091820010918300123033
:102BDA0009F4003009F08DC0B0E0B0938200B093E0
:102BEA00830000918000109181000F5F1F4F0093B6
:102BFA008000109381002091800030918100009123
:102C0A00C4001091C5002017310709F042C0B0E096
:102C1A00B0938000B09381003F922F9220907A0067
:102C2A0030907B000E94FF072F903F9000937A001C
:102C3A0010937B0000917A0010917B001F3F09F4EA
:102C4A000F3FA1F400918400109185002091860025
:102C5A0030918700009376001093770020937800D4
:102C6A0030937900BAE0B0936D008CC03F922F92F6
:102C7A0020907A0030907B000E94E4032F903F90CE
:102C8A0000937C0010937D0020937E0030937F0098
:102C9A0014C000917C0010917D0020917E0030913B
:102CAA007F000F5F1F4F2F4F3F4F00937C00109301
:102CBA007D0020937E0030937F00B0E0B0936B03D9
:102CCA003F922F92BBE66B2EB1E07B2E20907C00C8
:102CDA0030907D0040907E0050907F000E94710BE2
:102CEA002F903F90003021F0B0E1B0936D004AC0C0
:102CFA001FC000916B030023D9F0B0E0B0936B03BF
:102D0A003F922F92BBE66B2EB1E07B2E20907C0087
:102D1A0030907D0040907E0050907F000E94710BA1
:102D2A002F903F90003021F0B0E1B0936D002AC09F
:102D3A002BE631E00091820010918300F801E20F46
:102D4A00F31F0081F101008300918200109183003A
:102D5A000F5F1F4F0093820010938300009176004B
:102D6A001091770020917800309179000F5F1F4F02
:102D7A002F4F3F4F009376001093770020937800EF
:0E2D8A00309379007F906F905F904F90089586
:10437C002F923F924F92B6E4B0935F014424B8E57C
:10438C002B2EB1E03B2EE2DD0E94CC164F903F90DD
:04439C002F900895C1
:102D98002F923F924F925F926F927F928F929F9263
:102DA8000091880010918900103009F4003029F44E
:102DB800B7E0B0936D0011E033C0B0E0B093880085
:102DC800B09389000CE110E04091F10050E047FD1C
:102DD8005FEFB1DC2AE830E0020F131FA02FB12FFC
:102DE800EEE6F0E08CE190E00E940C07BFEFB093B4
:102DF800F100809072009090730040906E005090A7
:102E08006F00609070007090710020907400309096
:102E180075000E94230E003014F412E001C010E087
:102E2800012F9F908F907F906F905F904F903F9071
:042E38002F9008953A
:101C4600BFEF3B1611F4BFEF2B1659F19F928F92FF
:101C56007F926F925F924F923F922F92CDD92F90A3
:101C66003F904F905F906F907F908F909F901F93C3
:101C76000F939F928F927F926F925F924F923F92B5
:101C86002F92442455240E9426032F903F904F9074
:101C96005F906F907F908F909F900F911F9118018A
:101CA600CFCFB1E0B0936B039F928F927F926F92EA
:101CB6005F924F923F922F9212012301BBE66B2E49
:101CC600B1E07B2E0BDD2F903F904F905F906F9091
:101CD6007F908F909F90003029F0B0E1B0936D0017
:101CE6001FEF27C00BE611E0F401E00FF11FB5EE80
:101CF600B0839F928F927F926F925F924F923F92A4
:101D06002F9212012301BBE66B2EB1E07B2E0E94BF
:101D16005E002F903F904F905F906F907F908F90D6
:101D26009F90003029F0B5E0B0936D001FEF01C021
:061D360010E0012F0895EA
:1043A000CF93DF93CDB7DEB76F97CDBFDEBF21963A
:1043B0002F923F924F925F926F927F928F929F9235
:1043C000B2E4B0935F014424B8E52B2EB1E03B2E5C
:1043D000C3DD003009F406C1CE010596BE016C5F55
:1043E0007F4FAE014D5F5F4F9E012E5F3F4F8E01AD
:1043F0004B013A01290118019F938F930E947D1868
:10440000ADB7BEB71296ADBFBEBFFE017396B0E2A8
:10441000B193B3E6B193B2E7B193B5E6B193B1E628
:10442000B193B4E7B193B5E6B193B4E6B193BAE30F
:10443000B193B0E2B193B0E0B1938E010D5E1F4F26
:10444000180183D98E010A5F1F4F28012880398007
:104450000E94EB188E010A5F1F4F180176D98E015A
:104460000A5F1F4F302E412E2A800E941E178E0198
:104470000A5F1F4F180169D98E010A5F1F4F28017B
:104480002B80B0E03B2E0E94EB188E010A5F1F4F7D
:1044900018015BD98E010A5F1F4F28012C80B0E004
:1044A0003B2E0E94EB188E010A5F1F4F18014DD959
:1044B0008E010A5F1F4F28012D80B0E03B2E0E9425
:1044C000EB188E010A5F1F4F18013FD9CE010596E8
:1044D000BE016C5F7F4FAE014D5F5F4F9E012E5F4F
:1044E0003F4F8E014B013A01290118019F938F9391
:1044F0000E944317ADB7BEB71296ADBFBEBFFE0157
:104500007396B0E2B193BDE6B193BFE6B193B4E662
:10451000B193B9E6B193B6E6B193B9E6B193B5E616
:10452000B193B4E6B193BAE3B193B0E2B193B0E022
:10453000B1938E010D5E1F4F180107D98E010A5FDE
:104540001F4F2801288039800E94EB188E010A5FD6
:104550001F4F1801FAD88E010A5F1F4F302E412ECF
:104560002A800E941E178E010A5F1F4F1801EDD886
:104570008E010A5F1F4F28012B80B0E03B2E0E9466
:10458000EB188E010A5F1F4F1801DFD88E010A5FFA
:104590001F4F28012C80B0E03B2E0E94EB188E01AB
:1045A0000A5F1F4F1801D1D88E010A5F1F4F2801E3
:1045B0002D80B0E03B2E0E94EB188E010A5F1F4F4A
:1045C0001801C3D80E94B117AE014A5F5F4F3A018C
:1045D000180129010E94CC178E010A5F1F4F180194
:1045E000B2DD11C0B5E52B2E0E94140C29E216E9AC
:1045F00000E80A95F1F71A95E1F72A95D1F7B5E5A4
:104600002B2E0E94140C9F908F907F906F905F9044
:104610004F903F902F906E96CDBFDEBFDF91CF9130
:024620000895FB
:1030FA00CF93DF93CDB7DEB7A697CDBFDEBF2196BC
:10310A000AA51BA50AA71BA7009188001091890090
:10311A00103009F4003021F4B7E0B0936D0050C0CC
:10312A00B1E0B0936B039F928F927F926F925F92FE
:10313A004F923F922F92BBE66B2EB1E07B2E2090EE
:10314A006E0030906F0040907000509071000E94A5
:10315A00710B2F903F904F905F906F907F908F9060
:10316A009F90003021F0B0E1B0936D0029C02BE6AA
:10317A0031E00091720010917300200F311F8E010F
:10318A005F924F923F922F92280119010E949C044C
:10319A002F903F904F905F900A89EAA5FBA5008384
:1031AA000989F40100830889F30100830F85F2017C
:1031BA0000830E8510E00454184FF1010193119316
:0C31CA00A596CDBFDEBFDF91CF91089528
:1031D600F201B0E2B193B0E2B193B0E2B193B0E2E2
:1031E600B193B0E3B193B0E0B19382010C5F1F4F8E
:1031F6009801B0E03B1611F4B0E02B16A9F04AE0B6
:1032060050E081010E943E008D01005DF9010083BE
:103216004AE050E081010E943E008C0118018901BC
:0A322600015010409801E5CF089513
:102E3C00E32DF42DB0E2B193B0E2B193B0E3B193D2
:102E4C00B0E0B193032D142D0E5F1F4F9801B0E02D
:102E5C002B1691F04AE0022D0E94A01F092F005D55
:102E6C00F90100834AE0022D0E94A01F202E890147
:0A2E7C00015010409801EBCF0895BB
:102E8600CF93DF93CDB7DEB7A697CDBFDEBF219632
:102E96000AA51BA50AA71BA7009188001091890007
:102EA600103009F4003021F4B7E0B0936D0050C043
:102EB600B1E0B0936B039F928F927F926F925F9275
:102EC6004F923F922F92BBE66B2EB1E07B2E209065
:102ED6006E0030906F0040907000509071000E941C
:102EE600710B2F903F904F905F906F907F908F90D7
:102EF6009F90003021F0B0E1B0936D0029C02BE621
:102F060031E00091720010917300200F311F8E0185
:102F16005F924F923F922F92280119010E949C04C2
:102F26002F903F904F905F90088DEAA5FBA50083F8
:102F36000F89F40100830E89F30100830D89F201E4
:102F460000830C8910E00454184FF101019311938A
:0C2F5600A596CDBFDEBFDF91CF9108959E
:102F62000091880010918900103009F4003041F47A
:102F7200B7E0B0936D004FEF5FEF6FEF7FEF08C0E8
:102F82004091840050918500609186007091870085
:062F92008A019B01089575
:102F9800CF93DF93CDB7DEB72397CDBFDEBF2196A2
:102FA800B0E85B1641F4B0E04B1629F4B0E03B16EC
:102FB80011F4B0E02B16D1F4F301BDE2B193B2E302
:102FC800B193B1E3B193B4E3B193B7E3B193B4E38D
:102FD800B193B8E3B193B3E3B193B6E3B193B4E378
:102FE800B193B8E3B193B0E0B1937DC0B0E0BA83D8
:102FF80000E010E020E030E02016310642065306DB
:1030080064F4BFEFBA8300E010E020E030E002197A
:1030180013092409350918012901F301B0E2B19314
:10302800B0E2B193B0E2B193B0E2B193B0E2B19340
:10303800B0E2B193B0E2B193B0E2B193B0E2B19330
:10304800B0E2B193B0E3B193B0E0B1938301065F0E
:103058001F4F08831983B0E05B1641F4B0E04B16AC
:1030680029F4B0E03B1611F4B0E02B16A9F17F92D9
:103078006F925F924F923F922F924AE050E060E049
:1030880070E0810192010E94E20D8B019C012F905A
:103098003F904F905F90005DE881F98100835F92D7
:1030A8004F923F922F924AE050E060E070E0810139
:1030B80092010E94E20D89019A012F903F904F9052
:1030C8005F906F907F901801290108811981015044
:1030D800104008831983BFCF0A81002321F0E881BB
:1030E800F981BDE2B0832296CDBFDEBFDF91CF91DB
:0230F800089539
:101BC400C9019A01AB01B80197FB092E05260ED075
:101BD40057FD04D014D00AD0001C38F45095409519
:101BE400309521953F4F4F4F5F4F0895F6F79095ED
:101BF4008095709561957F4F8F4F9F4F0895A1E217
:101C04001A2EAA1BBB1BFD010DC0AA1FBB1FEE1F72
:101C1400FF1FA217B307E407F50720F0A21BB30BBD
:101C2400E40BF50B661F771F881F991F1A9469F739
:101C340060957095809590959B01AC01BD01CF0195
:021C4400089501
:103FF400CF93DF93CDB7DEB72B97CDBFDEBF21962E
:104004002F923F924F925F926F927F928F92FE0116
:10401400BDE6B193B9E6B193BBE6B193B2E7B19310
:10402400BFE6B193B5E4B193BEE2B193B4E7B19303
:10403400B8E7B193B4E7B193B0E0B1938E01B0E2C5
:104044008B2E3801B8E82B2EB3E13B2EB0E04B2E7B
:104054005B2E19DE009354011093550120935601F1
:1040640030935701303029F4203019F4103009F41A
:10407400003009F459C020E030E00BE611E0F9010A
:10408400E00FF11F2083313009F42F3F29F089011B
:104094000F5F1F4F9801F1CFBFE36B2EB1E07B2E72
:1040A4002090540130905501409056015090570192
:1040B4000E94CC17BFE32B2EB1E03B2E42D040E050
:1040C40050E05F934F93BBE66B2EB1E07B2E2090C4
:1040D40054013090550140905601509057010E9470
:1040E4005E004F915F910091540110915501209110
:1040F4005601309157010F5F1F4F2F4F3F4F0093D1
:104104005401109355012093560130935701BEE298
:104114002B2E0E94140C533109F4473829F08A01DC
:104124000F5F1F4FA801CDCF8F907F906F905F904E
:104134004F903F902F902A96CDBFDEBFDF91CF9155
:024144000895DC
:103C8A00CF93DF93CDB7DEB7AE97CDBFDEBF219618
:103C9A002F923F924F925F926F927F925F924F92D2
:103CAA003F922F9213010E9411072F903F904F903D
:103CBA005F90003041F0B2E1B0936D0040E050E017
:103CCA0060E070E009C1B0E0BC87BD87B0E0B887AA
:103CDA00B987BA87BB874091C4005091C50060E09C
:103CEA00762F810192010E944F0B8B019C01088360
:103CFA0019834091C4005091C50060E0762F81017C
:103D0A0092010E944F0B8D019F01303029F420301F
:103D1A0019F4103009F4003031F0088119810F5F6D
:103D2A001F4F088319838F927F926F925F924F92EF
:103D3A003F922F92288039800E94170D2F903F9032
:103D4A004F905F906F907F908F900A831B83103003
:103D5A0009F4023028F440E050E060E070E0BCC0B2
:103D6A000091630010916400209165003091660013
:103D7A000C831D832E833F830091D1001091D200C2
:103D8A002091D3003091D400009363001093640013
:103D9A0020936500309366008F927F926F925F92B4
:103DAA004F923F922F9213010E9433102F903F900F
:103DBA004F905F906F907F908F90003089F08F9234
:103DCA007F926F925F924F923F922F9213010E94BD
:103DDA009E0E2F903F904F905F906F907F908F90A4
:103DEA005F924F923F922F922301BEEF2B2EB0E0AB
:103DFA003B2E0E946C07BEEF2B2EB0E03B2E0E949A
:103E0A00CF018E01025F1F4FB0E25B2EB0E06B2E36
:103E1A00442418010E94C3118E01025F1F4FBBE0A8
:103E2A006B2EB0E07B2EBEEF4B2EB0E05B2E18015E
:103E3A000E943B092F903F904F905F90082D0F777B
:103E4A00098F0A8108A70B8109A781019201409174
:103E5A00C2005091C30060E0762F0E94310B0AA77E
:103E6A001BA72CA73DA7AE01445F5F4F9E01285FA9
:103E7A003F4F8E01025F1F4F3A01290118010E942C
:103E8A00550900308CF40C811D812E813F810093ED
:103E9A00630010936400209365003093660040E04D
:103EAA0050E060E070E018C0488059802A803B806A
:103EBA000E9467100C811D812E813F81009363004F
:103ECA001093640020936500309366002A803B803B
:103EDA000E94E403A801B9018A019B017F906F90B7
:103EEA005F904F903F902F90AD96CDBFDEBFDF9190
:043EFA00CF910895C7
:101A2E00CF93DF93CDB7DEB76097CDBFDEBF2196E4
:101A3E004F925F920091CB001091CC0040910D011E
:101A4E0050910E0175D60E831F83B2E0BA83B0E0BB
:101A5E00BB8340910D0150910E0160E0762F02E0A4
:101A6E0010E020E030E014DE8B019C014091CD00AF
:101A7E005091CE006091CF007091D000040F151FD1
:101A8E00261F371F0A871B872C873D8740910D0124
:101A9E0050910E0102E010E00E943E008D0198016F
:101AAE00220F331F28863986B2E0BC83B0E0BD8397
:101ABE000BE611E0020F131F0E871F873F922F9226
:101ACE002A843B844C845D840E943001B1E0B09343
:101ADE006B03BBE62B2EB1E03B2E0E9465012F90CF
:101AEE003F902A813B810E811F812017310708F01C
:101AFE003FC0EE85FF8501911191103009F4003041
:101B0E0061F4088519850150104008871987103037
:101B1E0009F4003009F42CC008C0288639860A81E1
:101B2E001B810F5F1F4F0C831D830E851F85980130
:101B3E002E5F3F4F2E873F870A811B810F5F1F4FFE
:101B4E000A831B83009161001091620020173107F8
:101B5E0071F4BBE6BE87B1E0BF873F922F92BBE622
:101B6E002B2EB1E03B2E0E9465012F903F90B9CFF6
:101B7E000E942F04002339F0B0E1B0936D00BFEF47
:101B8E00B883B9830EC008851985103009F400306A
:101B9E0029F40C811D810883198303C0B0E0B8833A
:101BAE00B983088119815F904F902F96CDBFDEBF0C
:061BBE00DF91CF910895B4
:10206600CF93DF93CDB7DEB7A697CDBFDEBF219660
:102076002F923F924F925F922101BEEF2B2EB0E03E
:102086003B2E0E946C078E012801BEEF2B2EB0E07E
:102096003B2E0E940006003014F410E001C011E04F
:1020A600012F5F904F903F902F90A596CDBFDEBF3A
:0620B600DF91CF910895B7
:101D3C00CF93DF93CDB7DEB7CB55D040CDBFDEBF51
:101D4C0021962F923F924F925F926F927F928F9239
:101D5C009F9261D8003029F0B2E1B0936D0011E090
:101D6C0073C02101BEEF2B2EB0E03B2EAFD8AC2FB1
:101D7C00BD2FAA5DBF4FEEEFF0E00E94FA0500E028
:101D8C000D938E012801BEEF2B2EB0E03B2E0E944E
:101D9C00000600302CF4B2E0B0936D0012E054C099
:101DAC000D850071003009F43BC0FE01E75AFF4F6E
:101DBC00B0E0B193B1938E010A5D1F4F1801B4D8F6
:101DCC00003014F412E040C08E010D5C1F4F3F92A6
:101DDC002F9218015CD92F903F90003091F0FE01AA
:101DEC00E75AFF4F019111910F5F1F4FFE01E75A08
:101DFC00FF4F01931193103009F4033009F401C023
:101E0C00E3CF8FD8FE01E75AFF4F019111911030AB
:101E1C0009F4033028F0BCE0B0936D0013E014C05B
:101E2C000CA11DA1B5E0000F111FBA95E1F74801F7
:101E3C0048A059A06AA07BA02E8C3F8CFEDE0030FF
:101E4C0014F414E001C010E0012F9F908F907F904C
:101E5C006F905F904F903F902F90C65ADF4FCDBF41
:081E6C00DEBFDF91CF91089564
:100F3400CF93DF93CDB7DEB7A697CDBFDEBF2196A3
:100F44004F925F92B0E0B0936B00B0936C00F101EC
:100F54000081003009F437C08E0128014FDE0030D3
:100F64002CF4B2E0B0936D001FEF3EC00D8500710C
:100F7400003029F4B1E0B0936D001FEF35C00E8D41
:100F84001F8D20E0322F025010402040304040910D
:100F9400C4005091C50060E0762F61D34091D50024
:100FA4005091D6006091D7007091D800040F151F9E
:100FB400261F371F00936700109368002093690071
:100FC40030936A0010C00091630010916400209176
:100FD40065003091660000936700109368002093C9
:100FE400690030936A0011E0012F5F904F90A5963D
:0A0FF400CDBFDEBFDF91CF9108955D
:10109A00CF93DF93CDB7DEB72897CDBFDEBF2196BA
:1010AA002F923F924F925F92409167005091680051
:1010BA006091690070916A000091D1001091D2008C
:1010CA002091D3003091D40040175107620773076B
:1010DA0039F40091C9001091CA00088319830CC021
:1010EA000091C4001091C50040910F015091100168
:1010FA000E949F130883198320916B0030916C0022
:10110A00088119812017310711F410E0A4C0409119
:10111A000F015091100160E0762F00916B00109141
:10112A006C0020E0322FB6D28B019C0140916700FF
:10113A00509168006091690070916A00040F151F50
:10114A00261F371F0C831D832E833F8340910F0177
:10115A005091100100916B0010916C000E943E00AA
:10116A008D01B5E09801220F331FBA95E1F70BE61E
:10117A0011E0020F131F0A831B833F922F922C80C8
:10118A003D804E805F8067D8B1E0B0936B03BBE6C9
:10119A002B2EB1E03B2E94D82F903F9020916B00DC
:1011AA0030916C00088119812017310708F046C078
:1011BA0000916B0010916C000F5F1F4F00936B0042
:1011CA0010936C00EA81FB810081053E10E009F072
:1011DA001FEF0032B0E008F0BFEF0B2F012391F0B0
:1011EA003F922F9237DB2F903F90002329F0B0E1F6
:1011FA00B0936D001FEF2FC021012A803B8097DB3F
:10120A0011E029C00A811B819801205E3F4F2A8381
:10121A003B8300916100109162002017310769F445
:10122A00BBE6BA83B1E0BB833F922F92BBE62B2E7B
:10123A00B1E03B2E45D82F903F90B0CF3F922F92EE
:10124A0009DB2F903F90002329F0B0E1B0936D00A5
:10125A001FEF01C010E0012F5F904F903F902F9039
:0C126A002796CDBFDEBFDF91CF91089525
:060F2E0010E0012F089500
:1020CE00CF93DF93CDB7DEB72B97CDBFDEBF219673
:1020DE002F923F926F927F920091CB001091CC0085
:1020EE0040910D0150910E0123D39201220D331D0B
:1020FE000217130708F415C140910D0150910E01FE
:10210E0060E0762F810120E0322FC2DA8B019C0134
:10211E004091CD005091CE006091CF007091D000D3
:10212E00040F151F261F371F09831A832B833C8329
:10213E0040910D0150910E0181010E943E008D01D2
:10214E009801220F331F2D823E820BE611E0020F03
:10215E00131F0F831887B1E0B0936B03303009F46F
:10216E002030B0E009F0BFEF2B2F00910D01109140
:10217E000E014016510600E008F40FEF022B99F005
:10218E005F924F92BBE66B2EB1E07B2E29803A8098
:10219E004B805C809FDA4F905F90003021F0B0E171
:1021AE00B0936D00BEC08201015010402801B0E016
:1021BE005B1611F4B0E04B1609F47AC0820101509F
:1021CE00104028010D811E810F5F1F4F0D831E834E
:1021DE00EF81F885019311930F81188598012E5F79
:1021EE003F4F2F83388700916100109162002017B6
:1021FE00310709F05CC0B0E0B8831091C8001150EF
:10220E001A870881101758F1088110E0212F312FFD
:10221E004091CB005091CC0060E0762F1BDA4981C3
:10222E005A816B817C81040F151F261F371F5F9209
:10223E004F923F922F92BBE66B2EB1E07B2E180190
:10224E0029010E945E002F903F904F905F90188161
:10225E000A85101721F008810F5F0883CECF098100
:10226E001A812B813C810F5F1F4F2F4F3F4F0983E8
:10227E001A832B833C83BBE6BF83B1E0B887009102
:10228E000D0110910E014016510688F45F924F9287
:10229E003F922F92BBE66B2EB1E07B2E29803A80C7
:1022AE004B805C8017DA2F903F904F905F907FCFDE
:1022BE00EF81F885BFEFB193B193B0E0B883109181
:1022CE00C80011501A870881101758F1088110E0C4
:1022DE00212F312F4091CB005091CC0060E0762F12
:1022EE00B9D949815A816B817C81040F151F261F34
:1022FE00371F5F924F923F922F92BBE66B2EB1E04B
:10230E007B2E180129010E945E002F903F904F9066
:10231E005F9018810A85101721F008810F5F0883DE
:10232E00CECF7F906F903F902F902A96CDBFDEBF7D
:06233E00DF91CF9108952C
:10416200B4E1B093F200BCE0B093F300BFEFB093C0
:10417200F600BFEFB093F700BFEFB093FA00BFEFC6
:10418200B093FB00BFEFB093F800BFEFB093F9001C
:10419200B1B3BE7FB1BBB1B3B260B1BB0AB108610A
:0841A2000AB9B6E8B0BD0895AA
:00000001FF
